{
  "_format": "hh-sol-artifact-1",
  "contractName": "Shared",
  "sourceName": "contracts/Shared.sol",
  "abi": [
    {
      "anonymous": false,
      "inputs": [
        {
          "indexed": true,
          "internalType": "address",
          "name": "walletId",
          "type": "address"
        },
        {
          "indexed": false,
          "internalType": "string",
          "name": "charityName",
          "type": "string"
        },
        {
          "indexed": false,
          "internalType": "string",
          "name": "description",
          "type": "string"
        }
      ],
      "name": "CharityCreated",
      "type": "event"
    },
    {
      "anonymous": false,
      "inputs": [
        {
          "indexed": true,
          "internalType": "uint256",
          "name": "walletId",
          "type": "uint256"
        },
        {
          "indexed": true,
          "internalType": "string",
          "name": "participant",
          "type": "string"
        },
        {
          "indexed": false,
          "internalType": "uint256",
          "name": "amount",
          "type": "uint256"
        }
      ],
      "name": "FundsAddedToSharedWallet",
      "type": "event"
    },
    {
      "anonymous": false,
      "inputs": [
        {
          "indexed": true,
          "internalType": "uint256",
          "name": "walletId",
          "type": "uint256"
        },
        {
          "indexed": true,
          "internalType": "string",
          "name": "participant",
          "type": "string"
        },
        {
          "indexed": false,
          "internalType": "uint256",
          "name": "amount",
          "type": "uint256"
        }
      ],
      "name": "FundsWithdrawnFromSharedWallet",
      "type": "event"
    },
    {
      "anonymous": false,
      "inputs": [
        {
          "indexed": true,
          "internalType": "uint256",
          "name": "walletId",
          "type": "uint256"
        },
        {
          "indexed": true,
          "internalType": "address",
          "name": "participant",
          "type": "address"
        }
      ],
      "name": "ParticipantAccepted",
      "type": "event"
    },
    {
      "anonymous": false,
      "inputs": [
        {
          "indexed": true,
          "internalType": "uint256",
          "name": "walletId",
          "type": "uint256"
        },
        {
          "indexed": true,
          "internalType": "address",
          "name": "participant",
          "type": "address"
        }
      ],
      "name": "ParticipantRejected",
      "type": "event"
    },
    {
      "anonymous": false,
      "inputs": [
        {
          "indexed": true,
          "internalType": "uint256",
          "name": "walletId",
          "type": "uint256"
        },
        {
          "indexed": true,
          "internalType": "address",
          "name": "participant",
          "type": "address"
        }
      ],
      "name": "ParticipantRemoved",
      "type": "event"
    },
    {
      "anonymous": false,
      "inputs": [
        {
          "indexed": true,
          "internalType": "uint256",
          "name": "walletId",
          "type": "uint256"
        },
        {
          "indexed": true,
          "internalType": "address",
          "name": "participant",
          "type": "address"
        }
      ],
      "name": "ParticipantRequest",
      "type": "event"
    },
    {
      "anonymous": false,
      "inputs": [
        {
          "indexed": true,
          "internalType": "uint256",
          "name": "walletId",
          "type": "uint256"
        },
        {
          "indexed": true,
          "internalType": "address",
          "name": "admin",
          "type": "address"
        },
        {
          "indexed": false,
          "internalType": "uint256",
          "name": "goalAmount",
          "type": "uint256"
        },
        {
          "indexed": false,
          "internalType": "uint256",
          "name": "borrowLimit",
          "type": "uint256"
        },
        {
          "indexed": false,
          "internalType": "address[]",
          "name": "participants",
          "type": "address[]"
        }
      ],
      "name": "SharedWalletCreated",
      "type": "event"
    },
    {
      "inputs": [
        {
          "internalType": "uint256",
          "name": "_walletId",
          "type": "uint256"
        },
        {
          "internalType": "address",
          "name": "_participant",
          "type": "address"
        }
      ],
      "name": "acceptParticipant",
      "outputs": [],
      "stateMutability": "nonpayable",
      "type": "function"
    },
    {
      "inputs": [
        {
          "internalType": "uint256",
          "name": "_walletId",
          "type": "uint256"
        }
      ],
      "name": "addFundsToSharedWallet",
      "outputs": [],
      "stateMutability": "payable",
      "type": "function"
    },
    {
      "inputs": [
        {
          "internalType": "uint256",
          "name": "",
          "type": "uint256"
        }
      ],
      "name": "allTransactions",
      "outputs": [
        {
          "internalType": "string",
          "name": "sender",
          "type": "string"
        },
        {
          "internalType": "string",
          "name": "receiver",
          "type": "string"
        },
        {
          "internalType": "uint256",
          "name": "amount",
          "type": "uint256"
        },
        {
          "internalType": "string",
          "name": "description",
          "type": "string"
        },
        {
          "internalType": "uint256",
          "name": "timestamp",
          "type": "uint256"
        }
      ],
      "stateMutability": "view",
      "type": "function"
    },
    {
      "inputs": [
        {
          "internalType": "uint256",
          "name": "",
          "type": "uint256"
        }
      ],
      "name": "charities",
      "outputs": [
        {
          "internalType": "address",
          "name": "walletId",
          "type": "address"
        },
        {
          "internalType": "string",
          "name": "charityName",
          "type": "string"
        },
        {
          "internalType": "string",
          "name": "description",
          "type": "string"
        }
      ],
      "stateMutability": "view",
      "type": "function"
    },
    {
      "inputs": [
        {
          "internalType": "uint256",
          "name": "",
          "type": "uint256"
        }
      ],
      "name": "charityId",
      "outputs": [
        {
          "internalType": "uint256",
          "name": "",
          "type": "uint256"
        }
      ],
      "stateMutability": "view",
      "type": "function"
    },
    {
      "inputs": [],
      "name": "cooldownPeriod",
      "outputs": [
        {
          "internalType": "uint256",
          "name": "",
          "type": "uint256"
        }
      ],
      "stateMutability": "view",
      "type": "function"
    },
    {
      "inputs": [
        {
          "internalType": "string",
          "name": "_name",
          "type": "string"
        },
        {
          "internalType": "string",
          "name": "_description",
          "type": "string"
        }
      ],
      "name": "createOrgCharity",
      "outputs": [],
      "stateMutability": "nonpayable",
      "type": "function"
    },
    {
      "inputs": [
        {
          "internalType": "uint256",
          "name": "_goalAmount",
          "type": "uint256"
        },
        {
          "internalType": "uint256",
          "name": "_borrowLimit",
          "type": "uint256"
        },
        {
          "internalType": "string",
          "name": "_walname",
          "type": "string"
        }
      ],
      "name": "createSharedWallet",
      "outputs": [],
      "stateMutability": "nonpayable",
      "type": "function"
    },
    {
      "inputs": [
        {
          "internalType": "address payable",
          "name": "walletId",
          "type": "address"
        }
      ],
      "name": "donate",
      "outputs": [],
      "stateMutability": "payable",
      "type": "function"
    },
    {
      "inputs": [
        {
          "internalType": "uint256",
          "name": "",
          "type": "uint256"
        }
      ],
      "name": "existingUsernames",
      "outputs": [
        {
          "internalType": "string",
          "name": "",
          "type": "string"
        }
      ],
      "stateMutability": "view",
      "type": "function"
    },
    {
      "inputs": [],
      "name": "getAllCharities",
      "outputs": [
        {
          "components": [
            {
              "internalType": "address",
              "name": "walletId",
              "type": "address"
            },
            {
              "internalType": "string",
              "name": "charityName",
              "type": "string"
            },
            {
              "internalType": "string",
              "name": "description",
              "type": "string"
            }
          ],
          "internalType": "struct Shared.Charity[]",
          "name": "",
          "type": "tuple[]"
        }
      ],
      "stateMutability": "view",
      "type": "function"
    },
    {
      "inputs": [],
      "name": "getAllSharedWallets",
      "outputs": [
        {
          "components": [
            {
              "internalType": "uint256",
              "name": "walletId",
              "type": "uint256"
            },
            {
              "internalType": "string",
              "name": "walletName",
              "type": "string"
            },
            {
              "internalType": "uint256",
              "name": "walletBalance",
              "type": "uint256"
            },
            {
              "internalType": "address",
              "name": "admin",
              "type": "address"
            },
            {
              "internalType": "uint256",
              "name": "goalAmount",
              "type": "uint256"
            },
            {
              "internalType": "uint256",
              "name": "borrowLimit",
              "type": "uint256"
            },
            {
              "internalType": "address[]",
              "name": "participants",
              "type": "address[]"
            },
            {
              "internalType": "address[]",
              "name": "participantRequests",
              "type": "address[]"
            },
            {
              "internalType": "uint256[]",
              "name": "transactionIndices",
              "type": "uint256[]"
            }
          ],
          "internalType": "struct Shared.SharedWallet[]",
          "name": "",
          "type": "tuple[]"
        }
      ],
      "stateMutability": "view",
      "type": "function"
    },
    {
      "inputs": [
        {
          "internalType": "uint256",
          "name": "_walletId",
          "type": "uint256"
        }
      ],
      "name": "getBalance",
      "outputs": [
        {
          "internalType": "uint256",
          "name": "",
          "type": "uint256"
        }
      ],
      "stateMutability": "view",
      "type": "function"
    },
    {
      "inputs": [],
      "name": "getName",
      "outputs": [
        {
          "internalType": "string",
          "name": "",
          "type": "string"
        }
      ],
      "stateMutability": "view",
      "type": "function"
    },
    {
      "inputs": [
        {
          "internalType": "uint256",
          "name": "_walletId",
          "type": "uint256"
        }
      ],
      "name": "getNumberOfParticipants",
      "outputs": [
        {
          "internalType": "uint256",
          "name": "",
          "type": "uint256"
        }
      ],
      "stateMutability": "view",
      "type": "function"
    },
    {
      "inputs": [
        {
          "internalType": "uint256",
          "name": "_walletId",
          "type": "uint256"
        }
      ],
      "name": "getParticipantRequests",
      "outputs": [
        {
          "internalType": "address[]",
          "name": "",
          "type": "address[]"
        },
        {
          "internalType": "string[]",
          "name": "",
          "type": "string[]"
        }
      ],
      "stateMutability": "view",
      "type": "function"
    },
    {
      "inputs": [
        {
          "internalType": "uint256",
          "name": "_walletId",
          "type": "uint256"
        }
      ],
      "name": "getParticipantsWithAddresses",
      "outputs": [
        {
          "internalType": "address[]",
          "name": "",
          "type": "address[]"
        },
        {
          "internalType": "string[]",
          "name": "",
          "type": "string[]"
        }
      ],
      "stateMutability": "view",
      "type": "function"
    },
    {
      "inputs": [],
      "name": "getRequestedSharedWallets",
      "outputs": [
        {
          "components": [
            {
              "internalType": "uint256",
              "name": "walletId",
              "type": "uint256"
            },
            {
              "internalType": "string",
              "name": "walletName",
              "type": "string"
            },
            {
              "internalType": "uint256",
              "name": "walletBalance",
              "type": "uint256"
            },
            {
              "internalType": "address",
              "name": "admin",
              "type": "address"
            },
            {
              "internalType": "uint256",
              "name": "goalAmount",
              "type": "uint256"
            },
            {
              "internalType": "uint256",
              "name": "borrowLimit",
              "type": "uint256"
            },
            {
              "internalType": "address[]",
              "name": "participants",
              "type": "address[]"
            },
            {
              "internalType": "address[]",
              "name": "participantRequests",
              "type": "address[]"
            },
            {
              "internalType": "uint256[]",
              "name": "transactionIndices",
              "type": "uint256[]"
            }
          ],
          "internalType": "struct Shared.SharedWallet[]",
          "name": "",
          "type": "tuple[]"
        }
      ],
      "stateMutability": "view",
      "type": "function"
    },
    {
      "inputs": [],
      "name": "getSharedWalletsForUser",
      "outputs": [
        {
          "components": [
            {
              "internalType": "uint256",
              "name": "walletId",
              "type": "uint256"
            },
            {
              "internalType": "string",
              "name": "walletName",
              "type": "string"
            },
            {
              "internalType": "uint256",
              "name": "walletBalance",
              "type": "uint256"
            },
            {
              "internalType": "address",
              "name": "admin",
              "type": "address"
            },
            {
              "internalType": "uint256",
              "name": "goalAmount",
              "type": "uint256"
            },
            {
              "internalType": "uint256",
              "name": "borrowLimit",
              "type": "uint256"
            },
            {
              "internalType": "address[]",
              "name": "participants",
              "type": "address[]"
            },
            {
              "internalType": "address[]",
              "name": "participantRequests",
              "type": "address[]"
            },
            {
              "internalType": "uint256[]",
              "name": "transactionIndices",
              "type": "uint256[]"
            }
          ],
          "internalType": "struct Shared.SharedWallet[]",
          "name": "",
          "type": "tuple[]"
        }
      ],
      "stateMutability": "view",
      "type": "function"
    },
    {
      "inputs": [],
      "name": "getSharedWalletsNotForUser",
      "outputs": [
        {
          "components": [
            {
              "internalType": "uint256",
              "name": "walletId",
              "type": "uint256"
            },
            {
              "internalType": "string",
              "name": "walletName",
              "type": "string"
            },
            {
              "internalType": "uint256",
              "name": "walletBalance",
              "type": "uint256"
            },
            {
              "internalType": "address",
              "name": "admin",
              "type": "address"
            },
            {
              "internalType": "uint256",
              "name": "goalAmount",
              "type": "uint256"
            },
            {
              "internalType": "uint256",
              "name": "borrowLimit",
              "type": "uint256"
            },
            {
              "internalType": "address[]",
              "name": "participants",
              "type": "address[]"
            },
            {
              "internalType": "address[]",
              "name": "participantRequests",
              "type": "address[]"
            },
            {
              "internalType": "uint256[]",
              "name": "transactionIndices",
              "type": "uint256[]"
            }
          ],
          "internalType": "struct Shared.SharedWallet[]",
          "name": "",
          "type": "tuple[]"
        }
      ],
      "stateMutability": "view",
      "type": "function"
    },
    {
      "inputs": [],
      "name": "getUsername",
      "outputs": [
        {
          "internalType": "string",
          "name": "",
          "type": "string"
        }
      ],
      "stateMutability": "view",
      "type": "function"
    },
    {
      "inputs": [
        {
          "internalType": "uint256",
          "name": "_walletId",
          "type": "uint256"
        }
      ],
      "name": "getWalName",
      "outputs": [
        {
          "internalType": "string",
          "name": "",
          "type": "string"
        }
      ],
      "stateMutability": "view",
      "type": "function"
    },
    {
      "inputs": [
        {
          "internalType": "uint256",
          "name": "_walletId",
          "type": "uint256"
        }
      ],
      "name": "getWalletTransactions",
      "outputs": [
        {
          "components": [
            {
              "internalType": "string",
              "name": "sender",
              "type": "string"
            },
            {
              "internalType": "string",
              "name": "receiver",
              "type": "string"
            },
            {
              "internalType": "uint256",
              "name": "amount",
              "type": "uint256"
            },
            {
              "internalType": "string",
              "name": "description",
              "type": "string"
            },
            {
              "internalType": "uint256",
              "name": "timestamp",
              "type": "uint256"
            }
          ],
          "internalType": "struct Shared.Transaction[]",
          "name": "",
          "type": "tuple[]"
        }
      ],
      "stateMutability": "view",
      "type": "function"
    },
    {
      "inputs": [
        {
          "internalType": "address",
          "name": "",
          "type": "address"
        }
      ],
      "name": "hasCreatedCharity",
      "outputs": [
        {
          "internalType": "bool",
          "name": "",
          "type": "bool"
        }
      ],
      "stateMutability": "view",
      "type": "function"
    },
    {
      "inputs": [
        {
          "internalType": "uint256",
          "name": "_walletId",
          "type": "uint256"
        },
        {
          "internalType": "address",
          "name": "_participant",
          "type": "address"
        }
      ],
      "name": "isParticipant",
      "outputs": [
        {
          "internalType": "bool",
          "name": "",
          "type": "bool"
        }
      ],
      "stateMutability": "view",
      "type": "function"
    },
    {
      "inputs": [
        {
          "internalType": "address",
          "name": "",
          "type": "address"
        }
      ],
      "name": "lastWithdrawalTime",
      "outputs": [
        {
          "internalType": "uint256",
          "name": "",
          "type": "uint256"
        }
      ],
      "stateMutability": "view",
      "type": "function"
    },
    {
      "inputs": [
        {
          "internalType": "string",
          "name": "_name",
          "type": "string"
        },
        {
          "internalType": "string",
          "name": "_username",
          "type": "string"
        }
      ],
      "name": "mapNameAndUsernameToWalletId",
      "outputs": [],
      "stateMutability": "nonpayable",
      "type": "function"
    },
    {
      "inputs": [
        {
          "internalType": "address",
          "name": "",
          "type": "address"
        }
      ],
      "name": "name",
      "outputs": [
        {
          "internalType": "string",
          "name": "",
          "type": "string"
        }
      ],
      "stateMutability": "view",
      "type": "function"
    },
    {
      "inputs": [
        {
          "internalType": "uint256",
          "name": "_walletId",
          "type": "uint256"
        },
        {
          "internalType": "address",
          "name": "_participant",
          "type": "address"
        }
      ],
      "name": "rejectParticipant",
      "outputs": [],
      "stateMutability": "nonpayable",
      "type": "function"
    },
    {
      "inputs": [
        {
          "internalType": "uint256",
          "name": "_walletId",
          "type": "uint256"
        },
        {
          "internalType": "address",
          "name": "_participant",
          "type": "address"
        }
      ],
      "name": "removeParticipant",
      "outputs": [],
      "stateMutability": "nonpayable",
      "type": "function"
    },
    {
      "inputs": [
        {
          "internalType": "uint256",
          "name": "_walletId",
          "type": "uint256"
        }
      ],
      "name": "requestToJoin",
      "outputs": [],
      "stateMutability": "nonpayable",
      "type": "function"
    },
    {
      "inputs": [
        {
          "internalType": "uint256",
          "name": "",
          "type": "uint256"
        }
      ],
      "name": "sharedWallets",
      "outputs": [
        {
          "internalType": "uint256",
          "name": "walletId",
          "type": "uint256"
        },
        {
          "internalType": "string",
          "name": "walletName",
          "type": "string"
        },
        {
          "internalType": "uint256",
          "name": "walletBalance",
          "type": "uint256"
        },
        {
          "internalType": "address",
          "name": "admin",
          "type": "address"
        },
        {
          "internalType": "uint256",
          "name": "goalAmount",
          "type": "uint256"
        },
        {
          "internalType": "uint256",
          "name": "borrowLimit",
          "type": "uint256"
        }
      ],
      "stateMutability": "view",
      "type": "function"
    },
    {
      "inputs": [
        {
          "internalType": "address",
          "name": "",
          "type": "address"
        }
      ],
      "name": "username",
      "outputs": [
        {
          "internalType": "string",
          "name": "",
          "type": "string"
        }
      ],
      "stateMutability": "view",
      "type": "function"
    },
    {
      "inputs": [
        {
          "internalType": "uint256",
          "name": "",
          "type": "uint256"
        }
      ],
      "name": "walletIdExists",
      "outputs": [
        {
          "internalType": "bool",
          "name": "",
          "type": "bool"
        }
      ],
      "stateMutability": "view",
      "type": "function"
    },
    {
      "inputs": [
        {
          "internalType": "uint256",
          "name": "_walletId",
          "type": "uint256"
        },
        {
          "internalType": "uint256",
          "name": "_amount",
          "type": "uint256"
        },
        {
          "internalType": "string",
          "name": "_description",
          "type": "string"
        }
      ],
      "name": "withdrawFundsFromSharedWallet",
      "outputs": [],
      "stateMutability": "nonpayable",
      "type": "function"
    }
  ],
  "bytecode": "0x60806040526201518060095534801561001757600080fd5b506147fa806100276000396000f3fe6080604052600436106102035760003560e01c80637a175f4011610118578063bc003700116100a0578063dd385cf21161006f578063dd385cf21461060d578063ec0106ac1461063a578063f85a933c1461066c578063fb709d2e1461067f578063fd57959f146106ae57600080fd5b8063bc0037001461057c578063c4434b851461059c578063cf4a1f9c146105bc578063d7ff0714146105dc57600080fd5b8063ab1351e5116100e7578063ab1351e5146104d5578063b38d1dd0146104f5578063b5bbd27914610515578063b5c4811214610537578063ba0982661461054c57600080fd5b80637a175f401461046b578063840227671461048b57806389bf5911146104ab578063a774b791146104c057600080fd5b80633688299c1161019b5780635e39926e1161016a5780635e39926e146103c857806364ead1eb146103f6578063681f3e6d14610416578063758d9b891461042b5780637943e51c1461044b57600080fd5b80633688299c1461030c578063423b8e881461032e57806348c7cc811461036e5780634de5120e1461039b57600080fd5b806317d7de7c116101d757806317d7de7c146102975780631ca125cf146102ac5780631e010439146102cc57806325c93ab1146102ec57600080fd5b8062362a9514610208578063019848921461021d57806304646a49146102535780630610a7a214610277575b600080fd5b61021b610216366004613eb0565b6106ce565b005b34801561022957600080fd5b5061023d610238366004613eb0565b6107b7565b60405161024a9190613f13565b60405180910390f35b34801561025f57600080fd5b5061026960095481565b60405190815260200161024a565b34801561028357600080fd5b5061023d610292366004613eb0565b610851565b3480156102a357600080fd5b5061023d61086a565b3480156102b857600080fd5b5061023d6102c7366004613f26565b61090b565b3480156102d857600080fd5b506102696102e7366004613f26565b6109cf565b3480156102f857600080fd5b5061021b610307366004613fe2565b610a8e565b34801561031857600080fd5b50610321610d31565b60405161024a91906140a6565b34801561033a57600080fd5b5061035e610349366004613f26565b60036020526000908152604090205460ff1681565b604051901515815260200161024a565b34801561037a57600080fd5b5061038e610389366004613f26565b610f96565b60405161024a91906141aa565b3480156103a757600080fd5b506102696103b6366004613eb0565b60086020526000908152604090205481565b3480156103d457600080fd5b506103e86103e3366004613f26565b611325565b60405161024a929190614253565b34801561040257600080fd5b50610269610411366004613f26565b61158a565b34801561042257600080fd5b5061023d6115f3565b34801561043757600080fd5b5061035e6104463660046142c5565b611611565b34801561045757600080fd5b5061023d610466366004613f26565b6116d4565b34801561047757600080fd5b5061021b6104863660046142c5565b6116ff565b34801561049757600080fd5b5061021b6104a6366004613f26565b611853565b3480156104b757600080fd5b506103216119ae565b3480156104cc57600080fd5b50610321611d0b565b3480156104e157600080fd5b5061021b6104f0366004613fe2565b612045565b34801561050157600080fd5b506103e8610510366004613f26565b61251e565b34801561052157600080fd5b5061052a612776565b60405161024a91906142f5565b34801561054357600080fd5b50610321612906565b34801561055857600080fd5b5061035e610567366004613eb0565b60076020526000908152604090205460ff1681565b34801561058857600080fd5b5061021b6105973660046142c5565b612c5a565b3480156105a857600080fd5b5061021b6105b73660046142c5565b612de9565b3480156105c857600080fd5b5061021b6105d7366004614383565b612f35565b3480156105e857600080fd5b506105fc6105f7366004613f26565b61307c565b60405161024a9594939291906143e7565b34801561061957600080fd5b50610269610628366004613f26565b60066020526000908152604090205481565b34801561064657600080fd5b5061065a610655366004613f26565b61325a565b60405161024a96959493929190614439565b61021b61067a366004613f26565b613335565b34801561068b57600080fd5b5061069f61069a366004613f26565b613701565b60405161024a93929190614480565b3480156106ba57600080fd5b5061021b6106c9366004614383565b613851565b6001600160a01b03811661071c5760405162461bcd60e51b815260206004820152601060248201526f24b73b30b634b21030b2323932b9b99760811b60448201526064015b60405180910390fd5b6001600160a01b038116330361077e5760405162461bcd60e51b815260206004820152602160248201527f43616e6e6f7420646f6e61746520746f20796f7572206f776e2077616c6c65746044820152601760f91b6064820152608401610713565b6040516001600160a01b038216903480156108fc02916000818181858888f193505050501580156107b3573d6000803e3d6000fd5b5050565b600560205260009081526040902080546107d0906144c0565b80601f01602080910402602001604051908101604052809291908181526020018280546107fc906144c0565b80156108495780601f1061081e57610100808354040283529160200191610849565b820191906000526020600020905b81548152906001019060200180831161082c57829003601f168201915b505050505081565b600460205260009081526040902080546107d0906144c0565b336000908152600560205260409020805460609190610888906144c0565b80601f01602080910402602001604051908101604052809291908181526020018280546108b4906144c0565b80156109015780601f106108d657610100808354040283529160200191610901565b820191906000526020600020905b8154815290600101906020018083116108e457829003601f168201915b5050505050905090565b60606000610918836139cb565b90506000818154811061092d5761092d6144fa565b90600052602060002090600902016001018054610949906144c0565b80601f0160208091040260200160405190810160405280929190818152602001828054610975906144c0565b80156109c25780601f10610997576101008083540402835291602001916109c2565b820191906000526020600020905b8154815290600101906020018083116109a557829003601f168201915b5050505050915050919050565b6000806109db836139cb565b90506109e78333611611565b610a4f5760405162461bcd60e51b815260206004820152603360248201527f596f7520617265206e6f7420612070617274696370616e74206f6620746865206044820152721cdc1958da599a5959081dd85b1b195d081a59606a1b6064820152608401610713565b670de0b6b3a764000060008281548110610a6b57610a6b6144fa565b906000526020600020906009020160020154610a87919061453c565b9392505050565b60008311610ae95760405162461bcd60e51b815260206004820152602260248201527f476f616c20616d6f756e74206d7573742062652067726561746572207468616e604482015261020360f41b6064820152608401610713565b6000610af3613a58565b60408051600180825281830190925291925060009190602080830190803683370190505090503381600081518110610b2d57610b2d6144fa565b6001600160a01b03909216602092830291909101820152604080516101208101825284815291820185905260009082018190523360608301529060808101610b7d88670de0b6b3a7640000614550565b8152602001610b9487670de0b6b3a7640000614550565b8152602080820185905260408051600080825281840183528285019190915281518181528084019092526060909301528154600181018355918052825160099092027f290decd9548b62a8d60345a988386fc84ba6bc95484008f6362f93160ef3e56381019283559083015192935083927f290decd9548b62a8d60345a988386fc84ba6bc95484008f6362f93160ef3e56490910190610c3490826145b5565b506040820151600282015560608201516003820180546001600160a01b0319166001600160a01b039092169190911790556080820151600482015560a0820151600582015560c08201518051610c94916006840191602090910190613d8e565b5060e08201518051610cb0916007840191602090910190613d8e565b506101008201518051610ccd916008840191602090910190613df3565b50505060008381526003602052604090819020805460ff1916600117905551339084907fbb22188d95efa8c4f325d45db9224a8e37daca69776a24623d5851833076f6ed90610d21908a908a908890614675565b60405180910390a3505050505050565b60606000805480602002602001604051908101604052809291908181526020016000905b82821015610f8d57838290600052602060002090600902016040518061012001604052908160008201548152602001600182018054610d93906144c0565b80601f0160208091040260200160405190810160405280929190818152602001828054610dbf906144c0565b8015610e0c5780601f10610de157610100808354040283529160200191610e0c565b820191906000526020600020905b815481529060010190602001808311610def57829003601f168201915b50505050508152602001600282015481526020016003820160009054906101000a90046001600160a01b03166001600160a01b03166001600160a01b03168152602001600482015481526020016005820154815260200160068201805480602002602001604051908101604052809291908181526020018280548015610ebb57602002820191906000526020600020905b81546001600160a01b03168152600190910190602001808311610e9d575b5050505050815260200160078201805480602002602001604051908101604052809291908181526020018280548015610f1d57602002820191906000526020600020905b81546001600160a01b03168152600190910190602001808311610eff575b5050505050815260200160088201805480602002602001604051908101604052809291908181526020018280548015610f7557602002820191906000526020600020905b815481526020019060010190808311610f61575b50505050508152505081526020019060010190610d55565b50505050905090565b60008181526003602052604090205460609060ff16610fc75760405162461bcd60e51b81526004016107139061469d565b6000610fd2836139cb565b90506000808281548110610fe857610fe86144fa565b906000526020600020906009020160080180548060200260200160405190810160405280929190818152602001828054801561104357602002820191906000526020600020905b81548152602001906001019080831161102f575b5050505050905060008151905060008167ffffffffffffffff81111561106b5761106b613f3f565b6040519080825280602002602001820160405280156110ce57816020015b6110bb6040518060a0016040528060608152602001606081526020016000815260200160608152602001600081525090565b8152602001906001900390816110895790505b50905060005b8281101561131b5760018482815181106110f0576110f06144fa565b602002602001015181548110611108576111086144fa565b90600052602060002090600502016040518060a0016040529081600082018054611131906144c0565b80601f016020809104026020016040519081016040528092919081815260200182805461115d906144c0565b80156111aa5780601f1061117f576101008083540402835291602001916111aa565b820191906000526020600020905b81548152906001019060200180831161118d57829003601f168201915b505050505081526020016001820180546111c3906144c0565b80601f01602080910402602001604051908101604052809291908181526020018280546111ef906144c0565b801561123c5780601f106112115761010080835404028352916020019161123c565b820191906000526020600020905b81548152906001019060200180831161121f57829003601f168201915b505050505081526020016002820154815260200160038201805461125f906144c0565b80601f016020809104026020016040519081016040528092919081815260200182805461128b906144c0565b80156112d85780601f106112ad576101008083540402835291602001916112d8565b820191906000526020600020905b8154815290600101906020018083116112bb57829003601f168201915b505050505081526020016004820154815250508282815181106112fd576112fd6144fa565b60200260200101819052508080611313906146e0565b9150506110d4565b5095945050505050565b600081815260036020526040902054606090819060ff166113585760405162461bcd60e51b81526004016107139061469d565b6000611363846139cb565b90506000808281548110611379576113796144fa565b6000918252602082206006600990920201015491508167ffffffffffffffff8111156113a7576113a7613f3f565b6040519080825280602002602001820160405280156113d0578160200160208202803683370190505b50905060008267ffffffffffffffff8111156113ee576113ee613f3f565b60405190808252806020026020018201604052801561142157816020015b606081526020019060019003908161140c5790505b50905060005b8381101561157d576000808681548110611443576114436144fa565b90600052602060002090600902016006018281548110611465576114656144fa565b9060005260206000200160009054906101000a90046001600160a01b0316905080848381518110611498576114986144fa565b6001600160a01b03928316602091820292909201810191909152908216600090815260049091526040902080546114ce906144c0565b80601f01602080910402602001604051908101604052809291908181526020018280546114fa906144c0565b80156115475780601f1061151c57610100808354040283529160200191611547565b820191906000526020600020905b81548152906001019060200180831161152a57829003601f168201915b505050505083838151811061155e5761155e6144fa565b6020026020010181905250508080611575906146e0565b915050611427565b5090969095509350505050565b60008181526003602052604081205460ff166115b85760405162461bcd60e51b81526004016107139061469d565b60006115c3836139cb565b9050600081815481106115d8576115d86144fa565b60009182526020909120600660099092020101549392505050565b336000908152600460205260409020805460609190610888906144c0565b60008061161d846139cb565b905060005b60008281548110611635576116356144fa565b9060005260206000209060090201600601805490508110156116c757836001600160a01b03166000838154811061166e5761166e6144fa565b90600052602060002090600902016006018281548110611690576116906144fa565b6000918252602090912001546001600160a01b0316036116b5576001925050506116ce565b806116bf816146e0565b915050611622565b5060009150505b92915050565b600a81815481106116e457600080fd5b9060005260206000200160009150905080546107d0906144c0565b60008281548110611712576117126144fa565b60009182526020909120600990910201600301546001600160a01b031633146117885760405162461bcd60e51b815260206004820152602260248201527f4f6e6c792061646d696e2063616e2072656a656374207061727469636970616e604482015261747360f01b6064820152608401610713565b6117928282613aff565b6117de5760405162461bcd60e51b815260206004820152601d60248201527f5061727469636970616e742072657175657374206e6f7420666f756e640000006044820152606401610713565b60006117e9836139cb565b905061181860008281548110611801576118016144fa565b906000526020600020906009020160070183613bb5565b6040516001600160a01b0383169084907f8903f797b9477780cd04a7e575d254f82d9ebb89d859f46f60604c575f2ba27e90600090a3505050565b60008181526003602052604090205460ff166118815760405162461bcd60e51b81526004016107139061469d565b61188b8133611611565b156118d05760405162461bcd60e51b8152602060048201526015602482015274105b1c9958591e4818481c185c9d1a58da5c185b9d605a1b6044820152606401610713565b6118da8133613aff565b156119275760405162461bcd60e51b815260206004820152601960248201527f5265717565737420616c7265616479207375626d6974746564000000000000006044820152606401610713565b6000611932826139cb565b905060008181548110611947576119476144fa565b6000918252602080832060076009909302019190910180546001810182559083529082200180546001600160a01b03191633908117909155604051909184917f0e1d9310fd77f81b5bf5dbde6ee0c770054dd4f36103e23a85db7ac00f73d4139190a35050565b60606000805b600054811015611a11576119ec600082815481106119d4576119d46144fa565b90600052602060002090600902016000015433611611565b156119ff57816119fb816146e0565b9250505b80611a09816146e0565b9150506119b4565b5060008167ffffffffffffffff811115611a2d57611a2d613f3f565b604051908082528060200260200182016040528015611a6657816020015b611a53613e2e565b815260200190600190039081611a4b5790505b5090506000805b600054811015611d0257611a8d600082815481106119d4576119d46144fa565b15611cf05760008181548110611aa557611aa56144fa565b90600052602060002090600902016040518061012001604052908160008201548152602001600182018054611ad9906144c0565b80601f0160208091040260200160405190810160405280929190818152602001828054611b05906144c0565b8015611b525780601f10611b2757610100808354040283529160200191611b52565b820191906000526020600020905b815481529060010190602001808311611b3557829003601f168201915b50505050508152602001600282015481526020016003820160009054906101000a90046001600160a01b03166001600160a01b03166001600160a01b03168152602001600482015481526020016005820154815260200160068201805480602002602001604051908101604052809291908181526020018280548015611c0157602002820191906000526020600020905b81546001600160a01b03168152600190910190602001808311611be3575b5050505050815260200160078201805480602002602001604051908101604052809291908181526020018280548015611c6357602002820191906000526020600020905b81546001600160a01b03168152600190910190602001808311611c45575b5050505050815260200160088201805480602002602001604051908101604052809291908181526020018280548015611cbb57602002820191906000526020600020905b815481526020019060010190808311611ca7575b505050505081525050838381518110611cd657611cd66144fa565b60200260200101819052508180611cec906146e0565b9250505b80611cfa816146e0565b915050611a6d565b50909392505050565b60606000805b600054811015611d5557611d31600082815481106119d4576119d46144fa565b611d435781611d3f816146e0565b9250505b80611d4d816146e0565b915050611d11565b5060008167ffffffffffffffff811115611d7157611d71613f3f565b604051908082528060200260200182016040528015611daa57816020015b611d97613e2e565b815260200190600190039081611d8f5790505b5090506000805b600054811015611d0257611dd1600082815481106119d4576119d46144fa565b6120335760008181548110611de857611de86144fa565b90600052602060002090600902016040518061012001604052908160008201548152602001600182018054611e1c906144c0565b80601f0160208091040260200160405190810160405280929190818152602001828054611e48906144c0565b8015611e955780601f10611e6a57610100808354040283529160200191611e95565b820191906000526020600020905b815481529060010190602001808311611e7857829003601f168201915b50505050508152602001600282015481526020016003820160009054906101000a90046001600160a01b03166001600160a01b03166001600160a01b03168152602001600482015481526020016005820154815260200160068201805480602002602001604051908101604052809291908181526020018280548015611f4457602002820191906000526020600020905b81546001600160a01b03168152600190910190602001808311611f26575b5050505050815260200160078201805480602002602001604051908101604052809291908181526020018280548015611fa657602002820191906000526020600020905b81546001600160a01b03168152600190910190602001808311611f88575b5050505050815260200160088201805480602002602001604051908101604052809291908181526020018280548015611ffe57602002820191906000526020600020905b815481526020019060010190808311611fea575b505050505081525050838381518110612019576120196144fa565b6020026020010181905250818061202f906146e0565b9250505b8061203d816146e0565b915050611db1565b6000612050846139cb565b60008581526003602052604090205490915060ff166120815760405162461bcd60e51b81526004016107139061469d565b61208b8433611611565b6120e35760405162461bcd60e51b8152602060048201526024808201527f4f6e6c79207061727469636970616e74732063616e2077697468647261772066604482015263756e647360e01b6064820152608401610713565b600954336000908152600860205260409020544291612101916146f9565b8110156121635760405162461bcd60e51b815260206004820152602a60248201527f596f752063616e206f6e6c79207769746864726177206f6e636520657665727960448201526910191a103437bab9399760b11b6064820152608401610713565b600061217785670de0b6b3a7640000614550565b90506000838154811061218c5761218c6144fa565b9060005260206000209060090201600501548111156122005760405162461bcd60e51b815260206004820152602a60248201527f5769746864726177616c20616d6f756e7420657863656564732074686520626f6044820152691c9c9bddc81b1a5b5a5d60b21b6064820152608401610713565b60008381548110612213576122136144fa565b9060005260206000209060090201600201548111156122845760405162461bcd60e51b815260206004820152602760248201527f496e73756666696369656e742066756e647320696e2074686520736861726564604482015266081dd85b1b195d60ca1b6064820152608401610713565b8060008481548110612298576122986144fa565b906000526020600020906009020160020160008282546122b8919061470c565b9250508190555080600084815481106122d3576122d36144fa565b906000526020600020906009020160040160008282546122f391906146f9565b9091555050604051339082156108fc029083906000818181858888f19350505050158015612325573d6000803e3d6000fd5b50600180546040805160e081018252600d60a082019081526c1cda185c9959081dd85b1b195d609a1b60c083015281523360009081526004602090815292902080549394939192830191612378906144c0565b80601f01602080910402602001604051908101604052809291908181526020018280546123a4906144c0565b80156123f15780601f106123c6576101008083540402835291602001916123f1565b820191906000526020600020905b8154815290600101906020018083116123d457829003601f168201915b505050918352505060208082018690526040820189905242606090920191909152825460018101845560009384529220815191926005020190819061243690826145b5565b506020820151600182019061244b90826145b5565b50604082015160028201556060820151600382019061246a90826145b5565b506080820151816004015550506000848154811061248a5761248a6144fa565b6000918252602080832060086009909302018201805460018101825590845281842001849055338352908152604080832086905560049091529081902090516124d39190614792565b6040518091039020877f1da1e862b49d474681f4eaecdcb8e1ae3bb314cf38ac7b1726d8eb3e8618b3108460405161250d91815260200190565b60405180910390a350505050505050565b600081815260036020526040902054606090819060ff166125515760405162461bcd60e51b81526004016107139061469d565b600061255c846139cb565b90506000808281548110612572576125726144fa565b6000918252602082206007600990920201015491508167ffffffffffffffff8111156125a0576125a0613f3f565b6040519080825280602002602001820160405280156125c9578160200160208202803683370190505b50905060008267ffffffffffffffff8111156125e7576125e7613f3f565b60405190808252806020026020018201604052801561261a57816020015b60608152602001906001900390816126055790505b50905060005b8381101561157d57600080868154811061263c5761263c6144fa565b9060005260206000209060090201600701828154811061265e5761265e6144fa565b9060005260206000200160009054906101000a90046001600160a01b0316905080848381518110612691576126916144fa565b6001600160a01b03928316602091820292909201810191909152908216600090815260049091526040902080546126c7906144c0565b80601f01602080910402602001604051908101604052809291908181526020018280546126f3906144c0565b80156127405780601f1061271557610100808354040283529160200191612740565b820191906000526020600020905b81548152906001019060200180831161272357829003601f168201915b5050505050838381518110612757576127576144fa565b602002602001018190525050808061276e906146e0565b915050612620565b60606002805480602002602001604051908101604052809291908181526020016000905b82821015610f8d57600084815260209081902060408051606081019091526003850290910180546001600160a01b0316825260018101805492939192918401916127e3906144c0565b80601f016020809104026020016040519081016040528092919081815260200182805461280f906144c0565b801561285c5780601f106128315761010080835404028352916020019161285c565b820191906000526020600020905b81548152906001019060200180831161283f57829003601f168201915b50505050508152602001600282018054612875906144c0565b80601f01602080910402602001604051908101604052809291908181526020018280546128a1906144c0565b80156128ee5780601f106128c3576101008083540402835291602001916128ee565b820191906000526020600020905b8154815290600101906020018083116128d157829003601f168201915b5050505050815250508152602001906001019061279a565b60606000805b600054811015612969576129446000828154811061292c5761292c6144fa565b90600052602060002090600902016000015433613aff565b156129575781612953816146e0565b9250505b80612961816146e0565b91505061290c565b5060008167ffffffffffffffff81111561298557612985613f3f565b6040519080825280602002602001820160405280156129be57816020015b6129ab613e2e565b8152602001906001900390816129a35790505b5090506000805b600054811015611d02576129e56000828154811061292c5761292c6144fa565b15612c4857600081815481106129fd576129fd6144fa565b90600052602060002090600902016040518061012001604052908160008201548152602001600182018054612a31906144c0565b80601f0160208091040260200160405190810160405280929190818152602001828054612a5d906144c0565b8015612aaa5780601f10612a7f57610100808354040283529160200191612aaa565b820191906000526020600020905b815481529060010190602001808311612a8d57829003601f168201915b50505050508152602001600282015481526020016003820160009054906101000a90046001600160a01b03166001600160a01b03166001600160a01b03168152602001600482015481526020016005820154815260200160068201805480602002602001604051908101604052809291908181526020018280548015612b5957602002820191906000526020600020905b81546001600160a01b03168152600190910190602001808311612b3b575b5050505050815260200160078201805480602002602001604051908101604052809291908181526020018280548015612bbb57602002820191906000526020600020905b81546001600160a01b03168152600190910190602001808311612b9d575b5050505050815260200160088201805480602002602001604051908101604052809291908181526020018280548015612c1357602002820191906000526020600020905b815481526020019060010190808311612bff575b505050505081525050838381518110612c2e57612c2e6144fa565b60200260200101819052508180612c44906146e0565b9250505b80612c52816146e0565b9150506129c5565b6000612c65836139cb565b905060008181548110612c7a57612c7a6144fa565b60009182526020909120600990910201600301546001600160a01b03163314612cf05760405162461bcd60e51b815260206004820152602260248201527f4f6e6c792061646d696e2063616e20616363657074207061727469636970616e604482015261747360f01b6064820152608401610713565b612cfa8383613aff565b612d465760405162461bcd60e51b815260206004820152601d60248201527f5061727469636970616e742072657175657374206e6f7420666f756e640000006044820152606401610713565b60008181548110612d5957612d596144fa565b6000918252602080832060099290920290910160060180546001810182559083529082200180546001600160a01b0319166001600160a01b0385161790558054612dae919083908110611801576118016144fa565b6040516001600160a01b0383169084907f55db954dfe09b91087e0919cb7fb06e3642e0d393ed967f4192c27de59293c7290600090a3505050565b6000612df4836139cb565b905060008181548110612e0957612e096144fa565b60009182526020909120600990910201600301546001600160a01b03163314612e7f5760405162461bcd60e51b815260206004820152602260248201527f4f6e6c792061646d696e2063616e2072656d6f7665207061727469636970616e604482015261747360f01b6064820152608401610713565b612e898383611611565b612ecd5760405162461bcd60e51b815260206004820152601560248201527414185c9d1a58da5c185b9d081b9bdd08199bdd5b99605a1b6044820152606401610713565b612efa60008281548110612ee357612ee36144fa565b906000526020600020906009020160060183613bb5565b6040516001600160a01b0383169084907fcef8fac05afb87995942422eac900de6af11a555d80d075340af81db492119fe90600090a3505050565b3360009081526004602052604090208054612f4f906144c0565b159050612f9e5760405162461bcd60e51b815260206004820152601960248201527f557365726e616d6520616c7265616479206578697374732121000000000000006044820152606401610713565b612fa781613d1d565b156130075760405162461bcd60e51b815260206004820152602a60248201527f557365726e616d6520697320616c72656164792074616b656e20627920616e6f6044820152697468657220757365722160b01b6064820152608401610713565b33600090815260056020526040902061302083826145b5565b5033600090815260046020526040902061303a82826145b5565b50600a80546001810182556000919091527fc65a7bb8d6351c1cf70c95a316cc6a92839c986682d98bc35f958f4883f9d2a80161307782826145b5565b505050565b6001818154811061308c57600080fd5b90600052602060002090600502016000915090508060000180546130af906144c0565b80601f01602080910402602001604051908101604052809291908181526020018280546130db906144c0565b80156131285780601f106130fd57610100808354040283529160200191613128565b820191906000526020600020905b81548152906001019060200180831161310b57829003601f168201915b50505050509080600101805461313d906144c0565b80601f0160208091040260200160405190810160405280929190818152602001828054613169906144c0565b80156131b65780601f1061318b576101008083540402835291602001916131b6565b820191906000526020600020905b81548152906001019060200180831161319957829003601f168201915b5050505050908060020154908060030180546131d1906144c0565b80601f01602080910402602001604051908101604052809291908181526020018280546131fd906144c0565b801561324a5780601f1061321f5761010080835404028352916020019161324a565b820191906000526020600020905b81548152906001019060200180831161322d57829003601f168201915b5050505050908060040154905085565b6000818154811061326a57600080fd5b6000918252602090912060099091020180546001820180549193509061328f906144c0565b80601f01602080910402602001604051908101604052809291908181526020018280546132bb906144c0565b80156133085780601f106132dd57610100808354040283529160200191613308565b820191906000526020600020905b8154815290600101906020018083116132eb57829003601f168201915b50505050600283015460038401546004850154600590950154939491936001600160a01b03909116925086565b6000613340826139cb565b60008381526003602052604090205490915060ff166133715760405162461bcd60e51b81526004016107139061469d565b61337b8233611611565b6133c75760405162461bcd60e51b815260206004820152601f60248201527f4f6e6c79207061727469636970616e74732063616e206164642066756e6473006044820152606401610713565b6000341161340c5760405162461bcd60e51b8152602060048201526012602482015271496e73756666696369656e742066756e647360701b6044820152606401610713565b3460008281548110613420576134206144fa565b9060005260206000209060090201600201600082825461344091906146f9565b92505081905550346000828154811061345b5761345b6144fa565b90600052602060002090600902016004015411156134b2573460008281548110613487576134876144fa565b906000526020600020906009020160040160008282546134a7919061470c565b909155506134dc9050565b60008082815481106134c6576134c66144fa565b9060005260206000209060090201600401819055505b600180546040805160a081018252336000908152600460205291909120805492939282919061350a906144c0565b80601f0160208091040260200160405190810160405280929190818152602001828054613536906144c0565b80156135835780601f1061355857610100808354040283529160200191613583565b820191906000526020600020905b81548152906001019060200180831161356657829003601f168201915b5050509183525050604080518082018252600d81526c1cda185c9959081dd85b1b195d609a1b6020828101919091528084019190915234828401528151808301909252601c82527f46756e647320616464656420746f207368617265642077616c6c65740000000082820152606083019190915242608090920191909152825460018101845560009384529220815191926005020190819061362590826145b5565b506020820151600182019061363a90826145b5565b50604082015160028201556060820151600382019061365990826145b5565b5060808201518160040155505060008281548110613679576136796144fa565b600091825260208083206008600990930201919091018054600181018255908352818320018390553382526004905260409081902090516136ba9190614792565b6040518091039020837f15b3997472c689f4d1336348cbf0980da653dddde6a52fa7e787650c4f3ec7c9346040516136f491815260200190565b60405180910390a3505050565b6002818154811061371157600080fd5b6000918252602090912060039091020180546001820180546001600160a01b03909216935090613740906144c0565b80601f016020809104026020016040519081016040528092919081815260200182805461376c906144c0565b80156137b95780601f1061378e576101008083540402835291602001916137b9565b820191906000526020600020905b81548152906001019060200180831161379c57829003601f168201915b5050505050908060020180546137ce906144c0565b80601f01602080910402602001604051908101604052809291908181526020018280546137fa906144c0565b80156138475780601f1061381c57610100808354040283529160200191613847565b820191906000526020600020905b81548152906001019060200180831161382a57829003601f168201915b5050505050905083565b3360009081526007602052604090205460ff16156138b15760405162461bcd60e51b815260206004820152601760248201527f6368617269747920616c726561647920637265617465640000000000000000006044820152606401610713565b60408051606081018252338152602081018481529181018390526002805460018101825560009190915281517f405787fa12a823e0f2b7631cc41b3ba8828b3321ca811111fa75cd3aa3bb5ace600390920291820180546001600160a01b0319166001600160a01b0390921691909117815592519192839290917f405787fa12a823e0f2b7631cc41b3ba8828b3321ca811111fa75cd3aa3bb5acf019061395890826145b5565b506040820151600282019061396d90826145b5565b50503360008181526007602052604090819020805460ff19166001179055519091507fd98e142226aaa094e0d82c09885e86172e376383ae815a4b512a594ff762bb56906139be908690869061479e565b60405180910390a2505050565b6000805b600054811015613a1c5782600082815481106139ed576139ed6144fa565b90600052602060002090600902016000015403613a0a5792915050565b80613a14816146e0565b9150506139cf565b5060405162461bcd60e51b815260206004820152601060248201526f15d85b1b195d081b9bdd08199bdd5b9960821b6044820152606401610713565b6000804442613a6860014361470c565b60408051602081019490945283019190915240606082015260800160408051601f1981840301815291905280516020909101209050613aa9612328826147c3565b613ab5906103e86146f9565b90505b60008181526003602052604090205460ff1615613afa57612328613add8260016146f9565b613ae791906147c3565b613af3906103e86146f9565b9050613ab8565b919050565b600080613b0b846139cb565b905060005b60008281548110613b2357613b236144fa565b9060005260206000209060090201600701805490508110156116c757836001600160a01b031660008381548110613b5c57613b5c6144fa565b90600052602060002090600902016007018281548110613b7e57613b7e6144fa565b6000918252602090912001546001600160a01b031603613ba3576001925050506116ce565b80613bad816146e0565b915050613b10565b60005b8254811015613cd457816001600160a01b0316838281548110613bdd57613bdd6144fa565b6000918252602090912001546001600160a01b031603613cc2578254613c059060019061470c565b811015613c8b5782548390613c1c9060019061470c565b81548110613c2c57613c2c6144fa565b9060005260206000200160009054906101000a90046001600160a01b0316838281548110613c5c57613c5c6144fa565b9060005260206000200160006101000a8154816001600160a01b0302191690836001600160a01b031602179055505b82805480613c9b57613c9b6147d7565b600082815260209020810160001990810180546001600160a01b0319169055019055505050565b80613ccc816146e0565b915050613bb8565b5060405162461bcd60e51b815260206004820152601a60248201527f456c656d656e74206e6f7420666f756e6420696e2061727261790000000000006044820152606401610713565b6000805b600a54811015613d85578280519060200120600a8281548110613d4657613d466144fa565b90600052602060002001604051613d5d9190614792565b604051809103902003613d735750600192915050565b80613d7d816146e0565b915050613d21565b50600092915050565b828054828255906000526020600020908101928215613de3579160200282015b82811115613de357825182546001600160a01b0319166001600160a01b03909116178255602090920191600190910190613dae565b50613def929150613e83565b5090565b828054828255906000526020600020908101928215613de3579160200282015b82811115613de3578251825591602001919060010190613e13565b60405180610120016040528060008152602001606081526020016000815260200160006001600160a01b0316815260200160008152602001600081526020016060815260200160608152602001606081525090565b5b80821115613def5760008155600101613e84565b6001600160a01b0381168114613ead57600080fd5b50565b600060208284031215613ec257600080fd5b8135610a8781613e98565b6000815180845260005b81811015613ef357602081850181015186830182015201613ed7565b506000602082860101526020601f19601f83011685010191505092915050565b602081526000610a876020830184613ecd565b600060208284031215613f3857600080fd5b5035919050565b634e487b7160e01b600052604160045260246000fd5b600082601f830112613f6657600080fd5b813567ffffffffffffffff80821115613f8157613f81613f3f565b604051601f8301601f19908116603f01168101908282118183101715613fa957613fa9613f3f565b81604052838152866020858801011115613fc257600080fd5b836020870160208301376000602085830101528094505050505092915050565b600080600060608486031215613ff757600080fd5b8335925060208401359150604084013567ffffffffffffffff81111561401c57600080fd5b61402886828701613f55565b9150509250925092565b600081518084526020808501945080840160005b8381101561406b5781516001600160a01b031687529582019590820190600101614046565b509495945050505050565b600081518084526020808501945080840160005b8381101561406b5781518752958201959082019060010161408a565b60006020808301818452808551808352604092508286019150828160051b87010184880160005b8381101561419c57603f1989840301855281516101208151855288820151818a8701526140fc82870182613ecd565b9150508782015188860152606080830151614121828801826001600160a01b03169052565b50506080828101519086015260a0808301519086015260c0808301518683038288015261414e8382614032565b9250505060e080830151868303828801526141698382614032565b9250505061010080830151925085820381870152506141888183614076565b9689019694505050908601906001016140cd565b509098975050505050505050565b60006020808301818452808551808352604092508286019150828160051b87010184880160005b8381101561419c57603f19898403018552815160a081518186526141f782870182613ecd565b915050888201518582038a87015261420f8282613ecd565b9150508782015188860152606080830151868303828801526142318382613ecd565b60809485015197909401969096525050948701949250908601906001016141d1565b6040815260006142666040830185614032565b6020838203818501528185518084528284019150828160051b85010183880160005b838110156142b657601f198784030185526142a4838351613ecd565b94860194925090850190600101614288565b50909998505050505050505050565b600080604083850312156142d857600080fd5b8235915060208301356142ea81613e98565b809150509250929050565b60006020808301818452808551808352604092508286019150828160051b87010184880160005b8381101561419c57888303603f19018552815180516001600160a01b031684528781015160608986018190529061435582870182613ecd565b9150508782015191508481038886015261436f8183613ecd565b96890196945050509086019060010161431c565b6000806040838503121561439657600080fd5b823567ffffffffffffffff808211156143ae57600080fd5b6143ba86838701613f55565b935060208501359150808211156143d057600080fd5b506143dd85828601613f55565b9150509250929050565b60a0815260006143fa60a0830188613ecd565b828103602084015261440c8188613ecd565b905085604084015282810360608401526144268186613ecd565b9150508260808301529695505050505050565b86815260c06020820152600061445260c0830188613ecd565b6040830196909652506001600160a01b03939093166060840152608083019190915260a09091015292915050565b6001600160a01b03841681526060602082018190526000906144a490830185613ecd565b82810360408401526144b68185613ecd565b9695505050505050565b600181811c908216806144d457607f821691505b6020821081036144f457634e487b7160e01b600052602260045260246000fd5b50919050565b634e487b7160e01b600052603260045260246000fd5b634e487b7160e01b600052601260045260246000fd5b634e487b7160e01b600052601160045260246000fd5b60008261454b5761454b614510565b500490565b80820281158282048414176116ce576116ce614526565b601f82111561307757600081815260208120601f850160051c8101602086101561458e5750805b601f850160051c820191505b818110156145ad5782815560010161459a565b505050505050565b815167ffffffffffffffff8111156145cf576145cf613f3f565b6145e3816145dd84546144c0565b84614567565b602080601f83116001811461461857600084156146005750858301515b600019600386901b1c1916600185901b1785556145ad565b600085815260208120601f198616915b8281101561464757888601518255948401946001909101908401614628565b50858210156146655787850151600019600388901b60f8161c191681555b5050505050600190811b01905550565b8381528260208201526060604082015260006146946060830184614032565b95945050505050565b60208082526023908201527f57616c6c6574207769746820676976656e20494420646f6573206e6f742065786040820152621a5cdd60ea1b606082015260800190565b6000600182016146f2576146f2614526565b5060010190565b808201808211156116ce576116ce614526565b818103818111156116ce576116ce614526565b6000815461472c816144c0565b60018281168015614744576001811461475957614788565b60ff1984168752821515830287019450614788565b8560005260208060002060005b8581101561477f5781548a820152908401908201614766565b50505082870194505b5050505092915050565b6000610a87828461471f565b6040815260006147b16040830185613ecd565b82810360208401526146948185613ecd565b6000826147d2576147d2614510565b500690565b634e487b7160e01b600052603160045260246000fdfea164736f6c6343000813000a",
  "linkReferences": {},
  "deployedLinkReferences": {}
}