{
  "_format": "hh-sol-artifact-1",
  "contractName": "Shared",
  "sourceName": "contracts/Shared.sol",
  "abi": [
    {
      "anonymous": false,
      "inputs": [
        {
          "indexed": true,
          "internalType": "address",
          "name": "walletId",
          "type": "address"
        },
        {
          "indexed": false,
          "internalType": "string",
          "name": "charityName",
          "type": "string"
        },
        {
          "indexed": false,
          "internalType": "string",
          "name": "description",
          "type": "string"
        }
      ],
      "name": "CharityCreated",
      "type": "event"
    },
    {
      "anonymous": false,
      "inputs": [
        {
          "indexed": true,
          "internalType": "uint256",
          "name": "walletId",
          "type": "uint256"
        },
        {
          "indexed": true,
          "internalType": "string",
          "name": "participant",
          "type": "string"
        },
        {
          "indexed": false,
          "internalType": "uint256",
          "name": "amount",
          "type": "uint256"
        }
      ],
      "name": "FundsAddedToSharedWallet",
      "type": "event"
    },
    {
      "anonymous": false,
      "inputs": [
        {
          "indexed": true,
          "internalType": "uint256",
          "name": "walletId",
          "type": "uint256"
        },
        {
          "indexed": true,
          "internalType": "string",
          "name": "participant",
          "type": "string"
        },
        {
          "indexed": false,
          "internalType": "uint256",
          "name": "amount",
          "type": "uint256"
        }
      ],
      "name": "FundsWithdrawnFromSharedWallet",
      "type": "event"
    },
    {
      "anonymous": false,
      "inputs": [
        {
          "indexed": true,
          "internalType": "uint256",
          "name": "walletId",
          "type": "uint256"
        },
        {
          "indexed": true,
          "internalType": "address",
          "name": "participant",
          "type": "address"
        }
      ],
      "name": "ParticipantAccepted",
      "type": "event"
    },
    {
      "anonymous": false,
      "inputs": [
        {
          "indexed": true,
          "internalType": "uint256",
          "name": "walletId",
          "type": "uint256"
        },
        {
          "indexed": true,
          "internalType": "address",
          "name": "participant",
          "type": "address"
        }
      ],
      "name": "ParticipantRejected",
      "type": "event"
    },
    {
      "anonymous": false,
      "inputs": [
        {
          "indexed": true,
          "internalType": "uint256",
          "name": "walletId",
          "type": "uint256"
        },
        {
          "indexed": true,
          "internalType": "address",
          "name": "participant",
          "type": "address"
        }
      ],
      "name": "ParticipantRemoved",
      "type": "event"
    },
    {
      "anonymous": false,
      "inputs": [
        {
          "indexed": true,
          "internalType": "uint256",
          "name": "walletId",
          "type": "uint256"
        },
        {
          "indexed": true,
          "internalType": "address",
          "name": "participant",
          "type": "address"
        }
      ],
      "name": "ParticipantRequest",
      "type": "event"
    },
    {
      "anonymous": false,
      "inputs": [
        {
          "indexed": true,
          "internalType": "uint256",
          "name": "walletId",
          "type": "uint256"
        },
        {
          "indexed": true,
          "internalType": "address",
          "name": "admin",
          "type": "address"
        },
        {
          "indexed": false,
          "internalType": "uint256",
          "name": "goalAmount",
          "type": "uint256"
        },
        {
          "indexed": false,
          "internalType": "uint256",
          "name": "borrowLimit",
          "type": "uint256"
        },
        {
          "indexed": false,
          "internalType": "address[]",
          "name": "participants",
          "type": "address[]"
        }
      ],
      "name": "SharedWalletCreated",
      "type": "event"
    },
    {
      "inputs": [
        {
          "internalType": "uint256",
          "name": "_walletId",
          "type": "uint256"
        },
        {
          "internalType": "address",
          "name": "_participant",
          "type": "address"
        }
      ],
      "name": "acceptParticipant",
      "outputs": [],
      "stateMutability": "nonpayable",
      "type": "function"
    },
    {
      "inputs": [
        {
          "internalType": "uint256",
          "name": "_walletId",
          "type": "uint256"
        }
      ],
      "name": "addFundsToSharedWallet",
      "outputs": [],
      "stateMutability": "payable",
      "type": "function"
    },
    {
      "inputs": [
        {
          "internalType": "uint256",
          "name": "",
          "type": "uint256"
        }
      ],
      "name": "allTransactions",
      "outputs": [
        {
          "internalType": "string",
          "name": "sender",
          "type": "string"
        },
        {
          "internalType": "string",
          "name": "receiver",
          "type": "string"
        },
        {
          "internalType": "uint256",
          "name": "amount",
          "type": "uint256"
        },
        {
          "internalType": "string",
          "name": "description",
          "type": "string"
        },
        {
          "internalType": "uint256",
          "name": "timestamp",
          "type": "uint256"
        }
      ],
      "stateMutability": "view",
      "type": "function"
    },
    {
      "inputs": [
        {
          "internalType": "uint256",
          "name": "",
          "type": "uint256"
        }
      ],
      "name": "charities",
      "outputs": [
        {
          "internalType": "address",
          "name": "walletId",
          "type": "address"
        },
        {
          "internalType": "string",
          "name": "charityName",
          "type": "string"
        },
        {
          "internalType": "string",
          "name": "description",
          "type": "string"
        }
      ],
      "stateMutability": "view",
      "type": "function"
    },
    {
      "inputs": [
        {
          "internalType": "uint256",
          "name": "",
          "type": "uint256"
        }
      ],
      "name": "charityId",
      "outputs": [
        {
          "internalType": "uint256",
          "name": "",
          "type": "uint256"
        }
      ],
      "stateMutability": "view",
      "type": "function"
    },
    {
      "inputs": [
        {
          "internalType": "string",
          "name": "_name",
          "type": "string"
        },
        {
          "internalType": "string",
          "name": "_description",
          "type": "string"
        }
      ],
      "name": "createOrgCharity",
      "outputs": [],
      "stateMutability": "nonpayable",
      "type": "function"
    },
    {
      "inputs": [
        {
          "internalType": "uint256",
          "name": "_goalAmount",
          "type": "uint256"
        },
        {
          "internalType": "uint256",
          "name": "_borrowLimit",
          "type": "uint256"
        },
        {
          "internalType": "string",
          "name": "_walname",
          "type": "string"
        }
      ],
      "name": "createSharedWallet",
      "outputs": [],
      "stateMutability": "nonpayable",
      "type": "function"
    },
    {
      "inputs": [
        {
          "internalType": "uint256",
          "name": "",
          "type": "uint256"
        }
      ],
      "name": "existingUsernames",
      "outputs": [
        {
          "internalType": "string",
          "name": "",
          "type": "string"
        }
      ],
      "stateMutability": "view",
      "type": "function"
    },
    {
      "inputs": [],
      "name": "getAllCharities",
      "outputs": [
        {
          "components": [
            {
              "internalType": "address",
              "name": "walletId",
              "type": "address"
            },
            {
              "internalType": "string",
              "name": "charityName",
              "type": "string"
            },
            {
              "internalType": "string",
              "name": "description",
              "type": "string"
            }
          ],
          "internalType": "struct Shared.Charity[]",
          "name": "",
          "type": "tuple[]"
        }
      ],
      "stateMutability": "view",
      "type": "function"
    },
    {
      "inputs": [],
      "name": "getAllSharedWallets",
      "outputs": [
        {
          "components": [
            {
              "internalType": "uint256",
              "name": "walletId",
              "type": "uint256"
            },
            {
              "internalType": "string",
              "name": "walletName",
              "type": "string"
            },
            {
              "internalType": "uint256",
              "name": "walletBalance",
              "type": "uint256"
            },
            {
              "internalType": "address",
              "name": "admin",
              "type": "address"
            },
            {
              "internalType": "uint256",
              "name": "goalAmount",
              "type": "uint256"
            },
            {
              "internalType": "uint256",
              "name": "borrowLimit",
              "type": "uint256"
            },
            {
              "internalType": "address[]",
              "name": "participants",
              "type": "address[]"
            },
            {
              "internalType": "address[]",
              "name": "participantRequests",
              "type": "address[]"
            },
            {
              "internalType": "uint256[]",
              "name": "transactionIndices",
              "type": "uint256[]"
            }
          ],
          "internalType": "struct Shared.SharedWallet[]",
          "name": "",
          "type": "tuple[]"
        }
      ],
      "stateMutability": "view",
      "type": "function"
    },
    {
      "inputs": [
        {
          "internalType": "uint256",
          "name": "_walletId",
          "type": "uint256"
        }
      ],
      "name": "getBalance",
      "outputs": [
        {
          "internalType": "uint256",
          "name": "",
          "type": "uint256"
        }
      ],
      "stateMutability": "view",
      "type": "function"
    },
    {
      "inputs": [],
      "name": "getName",
      "outputs": [
        {
          "internalType": "string",
          "name": "",
          "type": "string"
        }
      ],
      "stateMutability": "view",
      "type": "function"
    },
    {
      "inputs": [
        {
          "internalType": "uint256",
          "name": "_walletId",
          "type": "uint256"
        }
      ],
      "name": "getNumberOfParticipants",
      "outputs": [
        {
          "internalType": "uint256",
          "name": "",
          "type": "uint256"
        }
      ],
      "stateMutability": "view",
      "type": "function"
    },
    {
      "inputs": [
        {
          "internalType": "uint256",
          "name": "_walletId",
          "type": "uint256"
        }
      ],
      "name": "getParticipantRequests",
      "outputs": [
        {
          "internalType": "address[]",
          "name": "",
          "type": "address[]"
        },
        {
          "internalType": "string[]",
          "name": "",
          "type": "string[]"
        }
      ],
      "stateMutability": "view",
      "type": "function"
    },
    {
      "inputs": [
        {
          "internalType": "uint256",
          "name": "_walletId",
          "type": "uint256"
        }
      ],
      "name": "getParticipantsWithAddresses",
      "outputs": [
        {
          "internalType": "address[]",
          "name": "",
          "type": "address[]"
        },
        {
          "internalType": "string[]",
          "name": "",
          "type": "string[]"
        }
      ],
      "stateMutability": "view",
      "type": "function"
    },
    {
      "inputs": [],
      "name": "getUsername",
      "outputs": [
        {
          "internalType": "string",
          "name": "",
          "type": "string"
        }
      ],
      "stateMutability": "view",
      "type": "function"
    },
    {
      "inputs": [
        {
          "internalType": "uint256",
          "name": "_walletId",
          "type": "uint256"
        }
      ],
      "name": "getWalName",
      "outputs": [
        {
          "internalType": "string",
          "name": "",
          "type": "string"
        }
      ],
      "stateMutability": "view",
      "type": "function"
    },
    {
      "inputs": [
        {
          "internalType": "uint256",
          "name": "_walletId",
          "type": "uint256"
        }
      ],
      "name": "getWalletTransactions",
      "outputs": [
        {
          "components": [
            {
              "internalType": "string",
              "name": "sender",
              "type": "string"
            },
            {
              "internalType": "string",
              "name": "receiver",
              "type": "string"
            },
            {
              "internalType": "uint256",
              "name": "amount",
              "type": "uint256"
            },
            {
              "internalType": "string",
              "name": "description",
              "type": "string"
            },
            {
              "internalType": "uint256",
              "name": "timestamp",
              "type": "uint256"
            }
          ],
          "internalType": "struct Shared.Transaction[]",
          "name": "",
          "type": "tuple[]"
        }
      ],
      "stateMutability": "view",
      "type": "function"
    },
    {
      "inputs": [
        {
          "internalType": "address",
          "name": "",
          "type": "address"
        }
      ],
      "name": "hasCreatedCharity",
      "outputs": [
        {
          "internalType": "bool",
          "name": "",
          "type": "bool"
        }
      ],
      "stateMutability": "view",
      "type": "function"
    },
    {
      "inputs": [
        {
          "internalType": "uint256",
          "name": "_walletId",
          "type": "uint256"
        },
        {
          "internalType": "address",
          "name": "_participant",
          "type": "address"
        }
      ],
      "name": "isParticipant",
      "outputs": [
        {
          "internalType": "bool",
          "name": "",
          "type": "bool"
        }
      ],
      "stateMutability": "view",
      "type": "function"
    },
    {
      "inputs": [
        {
          "internalType": "string",
          "name": "_name",
          "type": "string"
        },
        {
          "internalType": "string",
          "name": "_username",
          "type": "string"
        }
      ],
      "name": "mapNameAndUsernameToWalletId",
      "outputs": [],
      "stateMutability": "nonpayable",
      "type": "function"
    },
    {
      "inputs": [
        {
          "internalType": "address",
          "name": "",
          "type": "address"
        }
      ],
      "name": "name",
      "outputs": [
        {
          "internalType": "string",
          "name": "",
          "type": "string"
        }
      ],
      "stateMutability": "view",
      "type": "function"
    },
    {
      "inputs": [
        {
          "internalType": "uint256",
          "name": "_walletId",
          "type": "uint256"
        },
        {
          "internalType": "address",
          "name": "_participant",
          "type": "address"
        }
      ],
      "name": "rejectParticipant",
      "outputs": [],
      "stateMutability": "nonpayable",
      "type": "function"
    },
    {
      "inputs": [
        {
          "internalType": "uint256",
          "name": "_walletId",
          "type": "uint256"
        },
        {
          "internalType": "address",
          "name": "_participant",
          "type": "address"
        }
      ],
      "name": "removeParticipant",
      "outputs": [],
      "stateMutability": "nonpayable",
      "type": "function"
    },
    {
      "inputs": [
        {
          "internalType": "uint256",
          "name": "_walletId",
          "type": "uint256"
        }
      ],
      "name": "requestToJoin",
      "outputs": [],
      "stateMutability": "nonpayable",
      "type": "function"
    },
    {
      "inputs": [
        {
          "internalType": "uint256",
          "name": "",
          "type": "uint256"
        }
      ],
      "name": "sharedWallets",
      "outputs": [
        {
          "internalType": "uint256",
          "name": "walletId",
          "type": "uint256"
        },
        {
          "internalType": "string",
          "name": "walletName",
          "type": "string"
        },
        {
          "internalType": "uint256",
          "name": "walletBalance",
          "type": "uint256"
        },
        {
          "internalType": "address",
          "name": "admin",
          "type": "address"
        },
        {
          "internalType": "uint256",
          "name": "goalAmount",
          "type": "uint256"
        },
        {
          "internalType": "uint256",
          "name": "borrowLimit",
          "type": "uint256"
        }
      ],
      "stateMutability": "view",
      "type": "function"
    },
    {
      "inputs": [
        {
          "internalType": "address",
          "name": "",
          "type": "address"
        }
      ],
      "name": "username",
      "outputs": [
        {
          "internalType": "string",
          "name": "",
          "type": "string"
        }
      ],
      "stateMutability": "view",
      "type": "function"
    },
    {
      "inputs": [
        {
          "internalType": "uint256",
          "name": "",
          "type": "uint256"
        }
      ],
      "name": "walletIdExists",
      "outputs": [
        {
          "internalType": "bool",
          "name": "",
          "type": "bool"
        }
      ],
      "stateMutability": "view",
      "type": "function"
    },
    {
      "inputs": [
        {
          "internalType": "uint256",
          "name": "_walletId",
          "type": "uint256"
        },
        {
          "internalType": "uint256",
          "name": "_amount",
          "type": "uint256"
        },
        {
          "internalType": "string",
          "name": "_description",
          "type": "string"
        }
      ],
      "name": "withdrawFundsFromSharedWallet",
      "outputs": [],
      "stateMutability": "nonpayable",
      "type": "function"
    }
  ],
  "bytecode": "0x608060405234801561001057600080fd5b50615e3080620000216000396000f3fe6080604052600436106101c25760003560e01c80637a175f40116100f7578063c4434b8511610095578063ec0106ac11610064578063ec0106ac146106ee578063f85a933c14610730578063fb709d2e1461074c578063fd57959f1461078b576101c2565b8063c4434b851461061e578063cf4a1f9c14610647578063d7ff071414610670578063dd385cf2146106b1576101c2565b8063b38d1dd0116100d1578063b38d1dd01461054f578063b5bbd2791461058d578063ba098266146105b8578063bc003700146105f5576101c2565b80637a175f40146104d457806384022767146104fd578063ab1351e514610526576101c2565b8063423b8e881161016457806364ead1eb1161013e57806364ead1eb146103f2578063681f3e6d1461042f578063758d9b891461045a5780637943e51c14610497576101c2565b8063423b8e881461033a57806348c7cc81146103775780635e39926e146103b4576101c2565b80631ca125cf116101a05780631ca125cf1461026c5780631e010439146102a957806325c93ab1146102e65780633688299c1461030f576101c2565b806301984892146101c75780630610a7a21461020457806317d7de7c14610241575b600080fd5b3480156101d357600080fd5b506101ee60048036038101906101e99190613f80565b6107b4565b6040516101fb919061403d565b60405180910390f35b34801561021057600080fd5b5061022b60048036038101906102269190613f80565b610854565b604051610238919061403d565b60405180910390f35b34801561024d57600080fd5b506102566108f4565b604051610263919061403d565b60405180910390f35b34801561027857600080fd5b50610293600480360381019061028e9190614095565b6109c3565b6040516102a0919061403d565b60405180910390f35b3480156102b557600080fd5b506102d060048036038101906102cb9190614095565b610a88565b6040516102dd91906140d1565b60405180910390f35b3480156102f257600080fd5b5061030d60048036038101906103089190614221565b610b20565b005b34801561031b57600080fd5b50610324610ef5565b60405161033191906145f2565b60405180910390f35b34801561034657600080fd5b50610361600480360381019061035c9190614095565b6111d9565b60405161036e919061462f565b60405180910390f35b34801561038357600080fd5b5061039e60048036038101906103999190614095565b6111f9565b6040516103ab9190614790565b60405180910390f35b3480156103c057600080fd5b506103db60048036038101906103d69190614095565b611597565b6040516103e99291906148e3565b60405180910390f35b3480156103fe57600080fd5b5061041960048036038101906104149190614095565b61189a565b60405161042691906140d1565b60405180910390f35b34801561043b57600080fd5b5061044461193a565b604051610451919061403d565b60405180910390f35b34801561046657600080fd5b50610481600480360381019061047c919061491a565b611a09565b60405161048e919061462f565b60405180910390f35b3480156104a357600080fd5b506104be60048036038101906104b99190614095565b611b09565b6040516104cb919061403d565b60405180910390f35b3480156104e057600080fd5b506104fb60048036038101906104f6919061491a565b611bb5565b005b34801561050957600080fd5b50610524600480360381019061051f9190614095565b611d35565b005b34801561053257600080fd5b5061054d60048036038101906105489190614221565b611f04565b005b34801561055b57600080fd5b5061057660048036038101906105719190614095565b612417565b6040516105849291906148e3565b60405180910390f35b34801561059957600080fd5b506105a261271a565b6040516105af9190614a73565b60405180910390f35b3480156105c457600080fd5b506105df60048036038101906105da9190613f80565b6128f3565b6040516105ec919061462f565b60405180910390f35b34801561060157600080fd5b5061061c6004803603810190610617919061491a565b612913565b005b34801561062a57600080fd5b506106456004803603810190610640919061491a565b612b19565b005b34801561065357600080fd5b5061066e60048036038101906106699190614a95565b612c99565b005b34801561067c57600080fd5b5061069760048036038101906106929190614095565b612e43565b6040516106a8959493929190614b0d565b60405180910390f35b3480156106bd57600080fd5b506106d860048036038101906106d39190614095565b613021565b6040516106e591906140d1565b60405180910390f35b3480156106fa57600080fd5b5061071560048036038101906107109190614095565b613039565b60405161072796959493929190614b84565b60405180910390f35b61074a60048036038101906107459190614095565b61312d565b005b34801561075857600080fd5b50610773600480360381019061076e9190614095565b6135bd565b60405161078293929190614bec565b60405180910390f35b34801561079757600080fd5b506107b260048036038101906107ad9190614a95565b613727565b005b600560205280600052604060002060009150905080546107d390614c60565b80601f01602080910402602001604051908101604052809291908181526020018280546107ff90614c60565b801561084c5780601f106108215761010080835404028352916020019161084c565b820191906000526020600020905b81548152906001019060200180831161082f57829003601f168201915b505050505081565b6004602052806000526040600020600091509050805461087390614c60565b80601f016020809104026020016040519081016040528092919081815260200182805461089f90614c60565b80156108ec5780601f106108c1576101008083540402835291602001916108ec565b820191906000526020600020905b8154815290600101906020018083116108cf57829003601f168201915b505050505081565b6060600560003373ffffffffffffffffffffffffffffffffffffffff1673ffffffffffffffffffffffffffffffffffffffff168152602001908152602001600020805461094090614c60565b80601f016020809104026020016040519081016040528092919081815260200182805461096c90614c60565b80156109b95780601f1061098e576101008083540402835291602001916109b9565b820191906000526020600020905b81548152906001019060200180831161099c57829003601f168201915b5050505050905090565b606060006109d083613937565b9050600081815481106109e6576109e5614c91565b5b90600052602060002090600902016001018054610a0290614c60565b80601f0160208091040260200160405190810160405280929190818152602001828054610a2e90614c60565b8015610a7b5780601f10610a5057610100808354040283529160200191610a7b565b820191906000526020600020905b815481529060010190602001808311610a5e57829003601f168201915b5050505050915050919050565b600080610a9483613937565b9050610aa08333611a09565b610adf576040517f08c379a0000000000000000000000000000000000000000000000000000000008152600401610ad690614d32565b60405180910390fd5b670de0b6b3a764000060008281548110610afc57610afb614c91565b5b906000526020600020906009020160020154610b189190614db0565b915050919050565b60008311610b63576040517f08c379a0000000000000000000000000000000000000000000000000000000008152600401610b5a90614e53565b60405180910390fd5b6000821015610ba7576040517f08c379a0000000000000000000000000000000000000000000000000000000008152600401610b9e90614ee5565b60405180910390fd5b6000610bb16139d5565b90506000600167ffffffffffffffff811115610bd057610bcf6140f6565b5b604051908082528060200260200182016040528015610bfe5781602001602082028036833780820191505090505b5090503381600081518110610c1657610c15614c91565b5b602002602001019073ffffffffffffffffffffffffffffffffffffffff16908173ffffffffffffffffffffffffffffffffffffffff16815250506000604051806101200160405280848152602001858152602001600081526020013373ffffffffffffffffffffffffffffffffffffffff168152602001670de0b6b3a764000088610ca19190614f05565b8152602001670de0b6b3a764000087610cba9190614f05565b8152602001838152602001600067ffffffffffffffff811115610ce057610cdf6140f6565b5b604051908082528060200260200182016040528015610d0e5781602001602082028036833780820191505090505b508152602001600067ffffffffffffffff811115610d2f57610d2e6140f6565b5b604051908082528060200260200182016040528015610d5d5781602001602082028036833780820191505090505b5081525090506000819080600181540180825580915050600190039060005260206000209060090201600090919091909150600082015181600001556020820151816001019081610dae91906150f3565b506040820151816002015560608201518160030160006101000a81548173ffffffffffffffffffffffffffffffffffffffff021916908373ffffffffffffffffffffffffffffffffffffffff1602179055506080820151816004015560a0820151816005015560c0820151816006019080519060200190610e30929190613deb565b5060e0820151816007019080519060200190610e4d929190613deb565b50610100820151816008019080519060200190610e6b929190613e75565b50505060016003600085815260200190815260200160002060006101000a81548160ff0219169083151502179055503373ffffffffffffffffffffffffffffffffffffffff16837fbb22188d95efa8c4f325d45db9224a8e37daca69776a24623d5851833076f6ed888886604051610ee5939291906151c5565b60405180910390a3505050505050565b60606000805480602002602001604051908101604052809291908181526020016000905b828210156111d057838290600052602060002090600902016040518061012001604052908160008201548152602001600182018054610f5790614c60565b80601f0160208091040260200160405190810160405280929190818152602001828054610f8390614c60565b8015610fd05780601f10610fa557610100808354040283529160200191610fd0565b820191906000526020600020905b815481529060010190602001808311610fb357829003601f168201915b50505050508152602001600282015481526020016003820160009054906101000a900473ffffffffffffffffffffffffffffffffffffffff1673ffffffffffffffffffffffffffffffffffffffff1673ffffffffffffffffffffffffffffffffffffffff1681526020016004820154815260200160058201548152602001600682018054806020026020016040519081016040528092919081815260200182805480156110d257602002820191906000526020600020905b8160009054906101000a900473ffffffffffffffffffffffffffffffffffffffff1673ffffffffffffffffffffffffffffffffffffffff1681526020019060010190808311611088575b505050505081526020016007820180548060200260200160405190810160405280929190818152602001828054801561116057602002820191906000526020600020905b8160009054906101000a900473ffffffffffffffffffffffffffffffffffffffff1673ffffffffffffffffffffffffffffffffffffffff1681526020019060010190808311611116575b50505050508152602001600882018054806020026020016040519081016040528092919081815260200182805480156111b857602002820191906000526020600020905b8154815260200190600101908083116111a4575b50505050508152505081526020019060010190610f19565b50505050905090565b60036020528060005260406000206000915054906101000a900460ff1681565b60606003600083815260200190815260200160002060009054906101000a900460ff1661125b576040517f08c379a000000000000000000000000000000000000000000000000000000000815260040161125290615275565b60405180910390fd5b600061126683613937565b9050600080828154811061127d5761127c614c91565b5b90600052602060002090600902016008018054806020026020016040519081016040528092919081815260200182805480156112d857602002820191906000526020600020905b8154815260200190600101908083116112c4575b5050505050905060008151905060008167ffffffffffffffff811115611301576113006140f6565b5b60405190808252806020026020018201604052801561133a57816020015b611327613ec2565b81526020019060019003908161131f5790505b50905060005b8281101561158a57600184828151811061135d5761135c614c91565b5b60200260200101518154811061137657611375614c91565b5b90600052602060002090600502016040518060a001604052908160008201805461139f90614c60565b80601f01602080910402602001604051908101604052809291908181526020018280546113cb90614c60565b80156114185780601f106113ed57610100808354040283529160200191611418565b820191906000526020600020905b8154815290600101906020018083116113fb57829003601f168201915b5050505050815260200160018201805461143190614c60565b80601f016020809104026020016040519081016040528092919081815260200182805461145d90614c60565b80156114aa5780601f1061147f576101008083540402835291602001916114aa565b820191906000526020600020905b81548152906001019060200180831161148d57829003601f168201915b50505050508152602001600282015481526020016003820180546114cd90614c60565b80601f01602080910402602001604051908101604052809291908181526020018280546114f990614c60565b80156115465780601f1061151b57610100808354040283529160200191611546565b820191906000526020600020905b81548152906001019060200180831161152957829003601f168201915b5050505050815260200160048201548152505082828151811061156c5761156b614c91565b5b6020026020010181905250808061158290615295565b915050611340565b5080945050505050919050565b6060806003600084815260200190815260200160002060009054906101000a900460ff166115fa576040517f08c379a00000000000000000000000000000000000000000000000000000000081526004016115f190615275565b60405180910390fd5b600061160584613937565b9050600080828154811061161c5761161b614c91565b5b906000526020600020906009020160060180549050905060008167ffffffffffffffff81111561164f5761164e6140f6565b5b60405190808252806020026020018201604052801561167d5781602001602082028036833780820191505090505b50905060008267ffffffffffffffff81111561169c5761169b6140f6565b5b6040519080825280602002602001820160405280156116cf57816020015b60608152602001906001900390816116ba5790505b50905060005b8381101561188a5760008086815481106116f2576116f1614c91565b5b9060005260206000209060090201600601828154811061171557611714614c91565b5b9060005260206000200160009054906101000a900473ffffffffffffffffffffffffffffffffffffffff1690508084838151811061175657611755614c91565b5b602002602001019073ffffffffffffffffffffffffffffffffffffffff16908173ffffffffffffffffffffffffffffffffffffffff1681525050600460008273ffffffffffffffffffffffffffffffffffffffff1673ffffffffffffffffffffffffffffffffffffffff16815260200190815260200160002080546117da90614c60565b80601f016020809104026020016040519081016040528092919081815260200182805461180690614c60565b80156118535780601f1061182857610100808354040283529160200191611853565b820191906000526020600020905b81548152906001019060200180831161183657829003601f168201915b505050505083838151811061186b5761186a614c91565b5b602002602001018190525050808061188290615295565b9150506116d5565b5081819550955050505050915091565b60006003600083815260200190815260200160002060009054906101000a900460ff166118fc576040517f08c379a00000000000000000000000000000000000000000000000000000000081526004016118f390615275565b60405180910390fd5b600061190783613937565b90506000818154811061191d5761191c614c91565b5b906000526020600020906009020160060180549050915050919050565b6060600460003373ffffffffffffffffffffffffffffffffffffffff1673ffffffffffffffffffffffffffffffffffffffff168152602001908152602001600020805461198690614c60565b80601f01602080910402602001604051908101604052809291908181526020018280546119b290614c60565b80156119ff5780601f106119d4576101008083540402835291602001916119ff565b820191906000526020600020905b8154815290600101906020018083116119e257829003601f168201915b5050505050905090565b600080611a1584613937565b905060005b60008281548110611a2e57611a2d614c91565b5b906000526020600020906009020160060180549050811015611afc578373ffffffffffffffffffffffffffffffffffffffff1660008381548110611a7557611a74614c91565b5b90600052602060002090600902016006018281548110611a9857611a97614c91565b5b9060005260206000200160009054906101000a900473ffffffffffffffffffffffffffffffffffffffff1673ffffffffffffffffffffffffffffffffffffffff1603611ae957600192505050611b03565b8080611af490615295565b915050611a1a565b5060009150505b92915050565b60088181548110611b1957600080fd5b906000526020600020016000915090508054611b3490614c60565b80601f0160208091040260200160405190810160405280929190818152602001828054611b6090614c60565b8015611bad5780601f10611b8257610100808354040283529160200191611bad565b820191906000526020600020905b815481529060010190602001808311611b9057829003601f168201915b505050505081565b60008281548110611bc957611bc8614c91565b5b906000526020600020906009020160030160009054906101000a900473ffffffffffffffffffffffffffffffffffffffff1673ffffffffffffffffffffffffffffffffffffffff163373ffffffffffffffffffffffffffffffffffffffff1614611c68576040517f08c379a0000000000000000000000000000000000000000000000000000000008152600401611c5f9061534f565b60405180910390fd5b611c728282613a8e565b611cb1576040517f08c379a0000000000000000000000000000000000000000000000000000000008152600401611ca8906153bb565b60405180910390fd5b6000611cbc83613937565b9050611cec60008281548110611cd557611cd4614c91565b5b906000526020600020906009020160070183613b8e565b8173ffffffffffffffffffffffffffffffffffffffff16837f8903f797b9477780cd04a7e575d254f82d9ebb89d859f46f60604c575f2ba27e60405160405180910390a3505050565b6003600082815260200190815260200160002060009054906101000a900460ff16611d95576040517f08c379a0000000000000000000000000000000000000000000000000000000008152600401611d8c90615275565b60405180910390fd5b611d9f8133611a09565b15611ddf576040517f08c379a0000000000000000000000000000000000000000000000000000000008152600401611dd690615427565b60405180910390fd5b611de98133613a8e565b15611e29576040517f08c379a0000000000000000000000000000000000000000000000000000000008152600401611e2090615493565b60405180910390fd5b6000611e3482613937565b905060008181548110611e4a57611e49614c91565b5b9060005260206000209060090201600701339080600181540180825580915050600190039060005260206000200160009091909190916101000a81548173ffffffffffffffffffffffffffffffffffffffff021916908373ffffffffffffffffffffffffffffffffffffffff1602179055503373ffffffffffffffffffffffffffffffffffffffff16827f0e1d9310fd77f81b5bf5dbde6ee0c770054dd4f36103e23a85db7ac00f73d41360405160405180910390a35050565b6000611f0f84613937565b90506003600085815260200190815260200160002060009054906101000a900460ff16611f71576040517f08c379a0000000000000000000000000000000000000000000000000000000008152600401611f6890615275565b60405180910390fd5b611f7b8433611a09565b611fba576040517f08c379a0000000000000000000000000000000000000000000000000000000008152600401611fb190615525565b60405180910390fd5b60008181548110611fce57611fcd614c91565b5b906000526020600020906009020160050154670de0b6b3a764000084611ff49190614f05565b1115612035576040517f08c379a000000000000000000000000000000000000000000000000000000000815260040161202c906155b7565b60405180910390fd5b6000818154811061204957612048614c91565b5b906000526020600020906009020160020154670de0b6b3a76400008461206f9190614f05565b11156120b0576040517f08c379a00000000000000000000000000000000000000000000000000000000081526004016120a790615649565b60405180910390fd5b6000670de0b6b3a7640000846120c69190614f05565b905080600083815481106120dd576120dc614c91565b5b906000526020600020906009020160020160008282546120fd9190615669565b92505081905550806000838154811061211957612118614c91565b5b90600052602060002090600902016004016000828254612139919061569d565b925050819055503373ffffffffffffffffffffffffffffffffffffffff166108fc829081150290604051600060405180830381858888f19350505050158015612186573d6000803e3d6000fd5b506000600180549050905060016040518060a001604052806040518060400160405280600d81526020017f7368617265642077616c6c6574000000000000000000000000000000000000008152508152602001600460003373ffffffffffffffffffffffffffffffffffffffff1673ffffffffffffffffffffffffffffffffffffffff168152602001908152602001600020805461222390614c60565b80601f016020809104026020016040519081016040528092919081815260200182805461224f90614c60565b801561229c5780601f106122715761010080835404028352916020019161229c565b820191906000526020600020905b81548152906001019060200180831161227f57829003601f168201915b5050505050815260200184815260200186815260200142815250908060018154018082558091505060019003906000526020600020906005020160009091909190915060008201518160000190816122f491906150f3565b50602082015181600101908161230a91906150f3565b5060408201518160020155606082015181600301908161232a91906150f3565b506080820151816004015550506000838154811061234b5761234a614c91565b5b9060005260206000209060090201600801819080600181540180825580915050600190039060005260206000200160009091909190915055600460003373ffffffffffffffffffffffffffffffffffffffff1673ffffffffffffffffffffffffffffffffffffffff1681526020019081526020016000206040516123cf919061575f565b6040518091039020867f1da1e862b49d474681f4eaecdcb8e1ae3bb314cf38ac7b1726d8eb3e8618b3108460405161240791906140d1565b60405180910390a3505050505050565b6060806003600084815260200190815260200160002060009054906101000a900460ff1661247a576040517f08c379a000000000000000000000000000000000000000000000000000000000815260040161247190615275565b60405180910390fd5b600061248584613937565b9050600080828154811061249c5761249b614c91565b5b906000526020600020906009020160070180549050905060008167ffffffffffffffff8111156124cf576124ce6140f6565b5b6040519080825280602002602001820160405280156124fd5781602001602082028036833780820191505090505b50905060008267ffffffffffffffff81111561251c5761251b6140f6565b5b60405190808252806020026020018201604052801561254f57816020015b606081526020019060019003908161253a5790505b50905060005b8381101561270a57600080868154811061257257612571614c91565b5b9060005260206000209060090201600701828154811061259557612594614c91565b5b9060005260206000200160009054906101000a900473ffffffffffffffffffffffffffffffffffffffff169050808483815181106125d6576125d5614c91565b5b602002602001019073ffffffffffffffffffffffffffffffffffffffff16908173ffffffffffffffffffffffffffffffffffffffff1681525050600460008273ffffffffffffffffffffffffffffffffffffffff1673ffffffffffffffffffffffffffffffffffffffff168152602001908152602001600020805461265a90614c60565b80601f016020809104026020016040519081016040528092919081815260200182805461268690614c60565b80156126d35780601f106126a8576101008083540402835291602001916126d3565b820191906000526020600020905b8154815290600101906020018083116126b657829003601f168201915b50505050508383815181106126eb576126ea614c91565b5b602002602001018190525050808061270290615295565b915050612555565b5081819550955050505050915091565b60606002805480602002602001604051908101604052809291908181526020016000905b828210156128ea57838290600052602060002090600302016040518060600160405290816000820160009054906101000a900473ffffffffffffffffffffffffffffffffffffffff1673ffffffffffffffffffffffffffffffffffffffff1673ffffffffffffffffffffffffffffffffffffffff1681526020016001820180546127c790614c60565b80601f01602080910402602001604051908101604052809291908181526020018280546127f390614c60565b80156128405780601f1061281557610100808354040283529160200191612840565b820191906000526020600020905b81548152906001019060200180831161282357829003601f168201915b5050505050815260200160028201805461285990614c60565b80601f016020809104026020016040519081016040528092919081815260200182805461288590614c60565b80156128d25780601f106128a7576101008083540402835291602001916128d2565b820191906000526020600020905b8154815290600101906020018083116128b557829003601f168201915b5050505050815250508152602001906001019061273e565b50505050905090565b60076020528060005260406000206000915054906101000a900460ff1681565b600061291e83613937565b90506000818154811061293457612933614c91565b5b906000526020600020906009020160030160009054906101000a900473ffffffffffffffffffffffffffffffffffffffff1673ffffffffffffffffffffffffffffffffffffffff163373ffffffffffffffffffffffffffffffffffffffff16146129d3576040517f08c379a00000000000000000000000000000000000000000000000000000000081526004016129ca906157e8565b60405180910390fd5b6129dd8383613a8e565b612a1c576040517f08c379a0000000000000000000000000000000000000000000000000000000008152600401612a13906153bb565b60405180910390fd5b60008181548110612a3057612a2f614c91565b5b9060005260206000209060090201600601829080600181540180825580915050600190039060005260206000200160009091909190916101000a81548173ffffffffffffffffffffffffffffffffffffffff021916908373ffffffffffffffffffffffffffffffffffffffff160217905550612ad060008281548110612ab957612ab8614c91565b5b906000526020600020906009020160070183613b8e565b8173ffffffffffffffffffffffffffffffffffffffff16837f55db954dfe09b91087e0919cb7fb06e3642e0d393ed967f4192c27de59293c7260405160405180910390a3505050565b6000612b2483613937565b905060008181548110612b3a57612b39614c91565b5b906000526020600020906009020160030160009054906101000a900473ffffffffffffffffffffffffffffffffffffffff1673ffffffffffffffffffffffffffffffffffffffff163373ffffffffffffffffffffffffffffffffffffffff1614612bd9576040517f08c379a0000000000000000000000000000000000000000000000000000000008152600401612bd09061587a565b60405180910390fd5b612be38383611a09565b612c22576040517f08c379a0000000000000000000000000000000000000000000000000000000008152600401612c19906158e6565b60405180910390fd5b612c5060008281548110612c3957612c38614c91565b5b906000526020600020906009020160060183613b8e565b8173ffffffffffffffffffffffffffffffffffffffff16837fcef8fac05afb87995942422eac900de6af11a555d80d075340af81db492119fe60405160405180910390a3505050565b6000600460003373ffffffffffffffffffffffffffffffffffffffff1673ffffffffffffffffffffffffffffffffffffffff1681526020019081526020016000208054612ce590614c60565b905014612d27576040517f08c379a0000000000000000000000000000000000000000000000000000000008152600401612d1e90615952565b60405180910390fd5b612d3081613d6e565b15612d70576040517f08c379a0000000000000000000000000000000000000000000000000000000008152600401612d67906159e4565b60405180910390fd5b81600560003373ffffffffffffffffffffffffffffffffffffffff1673ffffffffffffffffffffffffffffffffffffffff1681526020019081526020016000209081612dbc91906150f3565b5080600460003373ffffffffffffffffffffffffffffffffffffffff1673ffffffffffffffffffffffffffffffffffffffff1681526020019081526020016000209081612e0991906150f3565b50600881908060018154018082558091505060019003906000526020600020016000909190919091509081612e3e91906150f3565b505050565b60018181548110612e5357600080fd5b9060005260206000209060050201600091509050806000018054612e7690614c60565b80601f0160208091040260200160405190810160405280929190818152602001828054612ea290614c60565b8015612eef5780601f10612ec457610100808354040283529160200191612eef565b820191906000526020600020905b815481529060010190602001808311612ed257829003601f168201915b505050505090806001018054612f0490614c60565b80601f0160208091040260200160405190810160405280929190818152602001828054612f3090614c60565b8015612f7d5780601f10612f5257610100808354040283529160200191612f7d565b820191906000526020600020905b815481529060010190602001808311612f6057829003601f168201915b505050505090806002015490806003018054612f9890614c60565b80601f0160208091040260200160405190810160405280929190818152602001828054612fc490614c60565b80156130115780601f10612fe657610100808354040283529160200191613011565b820191906000526020600020905b815481529060010190602001808311612ff457829003601f168201915b5050505050908060040154905085565b60066020528060005260406000206000915090505481565b6000818154811061304957600080fd5b906000526020600020906009020160009150905080600001549080600101805461307290614c60565b80601f016020809104026020016040519081016040528092919081815260200182805461309e90614c60565b80156130eb5780601f106130c0576101008083540402835291602001916130eb565b820191906000526020600020905b8154815290600101906020018083116130ce57829003601f168201915b5050505050908060020154908060030160009054906101000a900473ffffffffffffffffffffffffffffffffffffffff16908060040154908060050154905086565b600061313882613937565b90506003600083815260200190815260200160002060009054906101000a900460ff1661319a576040517f08c379a000000000000000000000000000000000000000000000000000000000815260040161319190615275565b60405180910390fd5b6131a48233611a09565b6131e3576040517f08c379a00000000000000000000000000000000000000000000000000000000081526004016131da90615a50565b60405180910390fd5b60003411613226576040517f08c379a000000000000000000000000000000000000000000000000000000000815260040161321d90615abc565b60405180910390fd5b346000828154811061323b5761323a614c91565b5b9060005260206000209060090201600201600082825461325b919061569d565b92505081905550346000828154811061327757613276614c91565b5b90600052602060002090600902016004015411156132d05734600082815481106132a4576132a3614c91565b5b906000526020600020906009020160040160008282546132c49190615669565b925050819055506132fb565b60008082815481106132e5576132e4614c91565b5b9060005260206000209060090201600401819055505b6000600180549050905060016040518060a00160405280600460003373ffffffffffffffffffffffffffffffffffffffff1673ffffffffffffffffffffffffffffffffffffffff168152602001908152602001600020805461335c90614c60565b80601f016020809104026020016040519081016040528092919081815260200182805461338890614c60565b80156133d55780601f106133aa576101008083540402835291602001916133d5565b820191906000526020600020905b8154815290600101906020018083116133b857829003601f168201915b505050505081526020016040518060400160405280600d81526020017f7368617265642077616c6c65740000000000000000000000000000000000000081525081526020013481526020016040518060400160405280601c81526020017f46756e647320616464656420746f207368617265642077616c6c6574000000008152508152602001428152509080600181540180825580915050600190039060005260206000209060050201600090919091909150600082015181600001908161349d91906150f3565b5060208201518160010190816134b391906150f3565b506040820151816002015560608201518160030190816134d391906150f3565b50608082015181600401555050600082815481106134f4576134f3614c91565b5b9060005260206000209060090201600801819080600181540180825580915050600190039060005260206000200160009091909190915055600460003373ffffffffffffffffffffffffffffffffffffffff1673ffffffffffffffffffffffffffffffffffffffff168152602001908152602001600020604051613578919061575f565b6040518091039020837f15b3997472c689f4d1336348cbf0980da653dddde6a52fa7e787650c4f3ec7c9346040516135b091906140d1565b60405180910390a3505050565b600281815481106135cd57600080fd5b90600052602060002090600302016000915090508060000160009054906101000a900473ffffffffffffffffffffffffffffffffffffffff169080600101805461361690614c60565b80601f016020809104026020016040519081016040528092919081815260200182805461364290614c60565b801561368f5780601f106136645761010080835404028352916020019161368f565b820191906000526020600020905b81548152906001019060200180831161367257829003601f168201915b5050505050908060020180546136a490614c60565b80601f01602080910402602001604051908101604052809291908181526020018280546136d090614c60565b801561371d5780601f106136f25761010080835404028352916020019161371d565b820191906000526020600020905b81548152906001019060200180831161370057829003601f168201915b5050505050905083565b600760003373ffffffffffffffffffffffffffffffffffffffff1673ffffffffffffffffffffffffffffffffffffffff16815260200190815260200160002060009054906101000a900460ff16156137b4576040517f08c379a00000000000000000000000000000000000000000000000000000000081526004016137ab90615b28565b60405180910390fd5b600060405180606001604052803373ffffffffffffffffffffffffffffffffffffffff168152602001848152602001838152509050600281908060018154018082558091505060019003906000526020600020906003020160009091909190915060008201518160000160006101000a81548173ffffffffffffffffffffffffffffffffffffffff021916908373ffffffffffffffffffffffffffffffffffffffff160217905550602082015181600101908161387191906150f3565b50604082015181600201908161388791906150f3565b5050506001600760003373ffffffffffffffffffffffffffffffffffffffff1673ffffffffffffffffffffffffffffffffffffffff16815260200190815260200160002060006101000a81548160ff0219169083151502179055503373ffffffffffffffffffffffffffffffffffffffff167fd98e142226aaa094e0d82c09885e86172e376383ae815a4b512a594ff762bb56848460405161392a929190615b48565b60405180910390a2505050565b600080600090505b60008054905081101561399457826000828154811061396157613960614c91565b5b9060005260206000209060090201600001540361398157809150506139d0565b808061398c90615295565b91505061393f565b506040517f08c379a00000000000000000000000000000000000000000000000000000000081526004016139c790615bcb565b60405180910390fd5b919050565b60008044426001436139e79190615669565b406040516020016139fa93929190615c37565b6040516020818303038152906040528051906020012060001c90506103e861232882613a269190615c74565b613a30919061569d565b90505b6003600082815260200190815260200160002060009054906101000a900460ff1615613a87576103e8612328600183613a6c919061569d565b613a769190615c74565b613a80919061569d565b9050613a33565b8091505090565b600080613a9a84613937565b905060005b60008281548110613ab357613ab2614c91565b5b906000526020600020906009020160070180549050811015613b81578373ffffffffffffffffffffffffffffffffffffffff1660008381548110613afa57613af9614c91565b5b90600052602060002090600902016007018281548110613b1d57613b1c614c91565b5b9060005260206000200160009054906101000a900473ffffffffffffffffffffffffffffffffffffffff1673ffffffffffffffffffffffffffffffffffffffff1603613b6e57600192505050613b88565b8080613b7990615295565b915050613a9f565b5060009150505b92915050565b60005b8280549050811015613d2e578173ffffffffffffffffffffffffffffffffffffffff16838281548110613bc757613bc6614c91565b5b9060005260206000200160009054906101000a900473ffffffffffffffffffffffffffffffffffffffff1673ffffffffffffffffffffffffffffffffffffffff1603613d1b5760018380549050613c1e9190615669565b811015613ccf578260018480549050613c379190615669565b81548110613c4857613c47614c91565b5b9060005260206000200160009054906101000a900473ffffffffffffffffffffffffffffffffffffffff16838281548110613c8657613c85614c91565b5b9060005260206000200160006101000a81548173ffffffffffffffffffffffffffffffffffffffff021916908373ffffffffffffffffffffffffffffffffffffffff1602179055505b82805480613ce057613cdf615ca5565b5b6001900381819060005260206000200160006101000a81549073ffffffffffffffffffffffffffffffffffffffff0219169055905550613d6a565b8080613d2690615295565b915050613b91565b506040517f08c379a0000000000000000000000000000000000000000000000000000000008152600401613d6190615d20565b60405180910390fd5b5050565b600080600090505b600880549050811015613de057828051906020012060088281548110613d9f57613d9e614c91565b5b90600052602060002001604051613db69190615de3565b604051809103902003613dcd576001915050613de6565b8080613dd890615295565b915050613d76565b50600090505b919050565b828054828255906000526020600020908101928215613e64579160200282015b82811115613e635782518260006101000a81548173ffffffffffffffffffffffffffffffffffffffff021916908373ffffffffffffffffffffffffffffffffffffffff16021790555091602001919060010190613e0b565b5b509050613e719190613ef1565b5090565b828054828255906000526020600020908101928215613eb1579160200282015b82811115613eb0578251825591602001919060010190613e95565b5b509050613ebe9190613ef1565b5090565b6040518060a0016040528060608152602001606081526020016000815260200160608152602001600081525090565b5b80821115613f0a576000816000905550600101613ef2565b5090565b6000604051905090565b600080fd5b600080fd5b600073ffffffffffffffffffffffffffffffffffffffff82169050919050565b6000613f4d82613f22565b9050919050565b613f5d81613f42565b8114613f6857600080fd5b50565b600081359050613f7a81613f54565b92915050565b600060208284031215613f9657613f95613f18565b5b6000613fa484828501613f6b565b91505092915050565b600081519050919050565b600082825260208201905092915050565b60005b83811015613fe7578082015181840152602081019050613fcc565b60008484015250505050565b6000601f19601f8301169050919050565b600061400f82613fad565b6140198185613fb8565b9350614029818560208601613fc9565b61403281613ff3565b840191505092915050565b600060208201905081810360008301526140578184614004565b905092915050565b6000819050919050565b6140728161405f565b811461407d57600080fd5b50565b60008135905061408f81614069565b92915050565b6000602082840312156140ab576140aa613f18565b5b60006140b984828501614080565b91505092915050565b6140cb8161405f565b82525050565b60006020820190506140e660008301846140c2565b92915050565b600080fd5b600080fd5b7f4e487b7100000000000000000000000000000000000000000000000000000000600052604160045260246000fd5b61412e82613ff3565b810181811067ffffffffffffffff8211171561414d5761414c6140f6565b5b80604052505050565b6000614160613f0e565b905061416c8282614125565b919050565b600067ffffffffffffffff82111561418c5761418b6140f6565b5b61419582613ff3565b9050602081019050919050565b82818337600083830152505050565b60006141c46141bf84614171565b614156565b9050828152602081018484840111156141e0576141df6140f1565b5b6141eb8482856141a2565b509392505050565b600082601f830112614208576142076140ec565b5b81356142188482602086016141b1565b91505092915050565b60008060006060848603121561423a57614239613f18565b5b600061424886828701614080565b935050602061425986828701614080565b925050604084013567ffffffffffffffff81111561427a57614279613f1d565b5b614286868287016141f3565b9150509250925092565b600081519050919050565b600082825260208201905092915050565b6000819050602082019050919050565b6142c58161405f565b82525050565b600082825260208201905092915050565b60006142e782613fad565b6142f181856142cb565b9350614301818560208601613fc9565b61430a81613ff3565b840191505092915050565b61431e81613f42565b82525050565b600081519050919050565b600082825260208201905092915050565b6000819050602082019050919050565b600061435c8383614315565b60208301905092915050565b6000602082019050919050565b600061438082614324565b61438a818561432f565b935061439583614340565b8060005b838110156143c65781516143ad8882614350565b97506143b883614368565b925050600181019050614399565b5085935050505092915050565b600081519050919050565b600082825260208201905092915050565b6000819050602082019050919050565b600061440b83836142bc565b60208301905092915050565b6000602082019050919050565b600061442f826143d3565b61443981856143de565b9350614444836143ef565b8060005b8381101561447557815161445c88826143ff565b975061446783614417565b925050600181019050614448565b5085935050505092915050565b60006101208301600083015161449b60008601826142bc565b50602083015184820360208601526144b382826142dc565b91505060408301516144c860408601826142bc565b5060608301516144db6060860182614315565b5060808301516144ee60808601826142bc565b5060a083015161450160a08601826142bc565b5060c083015184820360c08601526145198282614375565b91505060e083015184820360e08601526145338282614375565b91505061010083015184820361010086015261454f8282614424565b9150508091505092915050565b60006145688383614482565b905092915050565b6000602082019050919050565b600061458882614290565b614592818561429b565b9350836020820285016145a4856142ac565b8060005b858110156145e057848403895281516145c1858261455c565b94506145cc83614570565b925060208a019950506001810190506145a8565b50829750879550505050505092915050565b6000602082019050818103600083015261460c818461457d565b905092915050565b60008115159050919050565b61462981614614565b82525050565b60006020820190506146446000830184614620565b92915050565b600081519050919050565b600082825260208201905092915050565b6000819050602082019050919050565b600060a083016000830151848203600086015261469382826142dc565b915050602083015184820360208601526146ad82826142dc565b91505060408301516146c260408601826142bc565b50606083015184820360608601526146da82826142dc565b91505060808301516146ef60808601826142bc565b508091505092915050565b60006147068383614676565b905092915050565b6000602082019050919050565b60006147268261464a565b6147308185614655565b93508360208202850161474285614666565b8060005b8581101561477e578484038952815161475f85826146fa565b945061476a8361470e565b925060208a01995050600181019050614746565b50829750879550505050505092915050565b600060208201905081810360008301526147aa818461471b565b905092915050565b600082825260208201905092915050565b60006147ce82614324565b6147d881856147b2565b93506147e383614340565b8060005b838110156148145781516147fb8882614350565b975061480683614368565b9250506001810190506147e7565b5085935050505092915050565b600081519050919050565b600082825260208201905092915050565b6000819050602082019050919050565b600061485983836142dc565b905092915050565b6000602082019050919050565b600061487982614821565b614883818561482c565b9350836020820285016148958561483d565b8060005b858110156148d157848403895281516148b2858261484d565b94506148bd83614861565b925060208a01995050600181019050614899565b50829750879550505050505092915050565b600060408201905081810360008301526148fd81856147c3565b90508181036020830152614911818461486e565b90509392505050565b6000806040838503121561493157614930613f18565b5b600061493f85828601614080565b925050602061495085828601613f6b565b9150509250929050565b600081519050919050565b600082825260208201905092915050565b6000819050602082019050919050565b600060608301600083015161499e6000860182614315565b50602083015184820360208601526149b682826142dc565b915050604083015184820360408601526149d082826142dc565b9150508091505092915050565b60006149e98383614986565b905092915050565b6000602082019050919050565b6000614a098261495a565b614a138185614965565b935083602082028501614a2585614976565b8060005b85811015614a615784840389528151614a4285826149dd565b9450614a4d836149f1565b925060208a01995050600181019050614a29565b50829750879550505050505092915050565b60006020820190508181036000830152614a8d81846149fe565b905092915050565b60008060408385031215614aac57614aab613f18565b5b600083013567ffffffffffffffff811115614aca57614ac9613f1d565b5b614ad6858286016141f3565b925050602083013567ffffffffffffffff811115614af757614af6613f1d565b5b614b03858286016141f3565b9150509250929050565b600060a0820190508181036000830152614b278188614004565b90508181036020830152614b3b8187614004565b9050614b4a60408301866140c2565b8181036060830152614b5c8185614004565b9050614b6b60808301846140c2565b9695505050505050565b614b7e81613f42565b82525050565b600060c082019050614b9960008301896140c2565b8181036020830152614bab8188614004565b9050614bba60408301876140c2565b614bc76060830186614b75565b614bd460808301856140c2565b614be160a08301846140c2565b979650505050505050565b6000606082019050614c016000830186614b75565b8181036020830152614c138185614004565b90508181036040830152614c278184614004565b9050949350505050565b7f4e487b7100000000000000000000000000000000000000000000000000000000600052602260045260246000fd5b60006002820490506001821680614c7857607f821691505b602082108103614c8b57614c8a614c31565b5b50919050565b7f4e487b7100000000000000000000000000000000000000000000000000000000600052603260045260246000fd5b7f596f7520617265206e6f7420612070617274696370616e74206f66207468652060008201527f7370656369666965642077616c6c657420696400000000000000000000000000602082015250565b6000614d1c603383613fb8565b9150614d2782614cc0565b604082019050919050565b60006020820190508181036000830152614d4b81614d0f565b9050919050565b7f4e487b7100000000000000000000000000000000000000000000000000000000600052601260045260246000fd5b7f4e487b7100000000000000000000000000000000000000000000000000000000600052601160045260246000fd5b6000614dbb8261405f565b9150614dc68361405f565b925082614dd657614dd5614d52565b5b828204905092915050565b7f476f616c20616d6f756e74206d7573742062652067726561746572207468616e60008201527f2030000000000000000000000000000000000000000000000000000000000000602082015250565b6000614e3d602283613fb8565b9150614e4882614de1565b604082019050919050565b60006020820190508181036000830152614e6c81614e30565b9050919050565b7f426f72726f77206c696d6974206d757374206265206e6f6e2d6e65676174697660008201527f6500000000000000000000000000000000000000000000000000000000000000602082015250565b6000614ecf602183613fb8565b9150614eda82614e73565b604082019050919050565b60006020820190508181036000830152614efe81614ec2565b9050919050565b6000614f108261405f565b9150614f1b8361405f565b9250828202614f298161405f565b91508282048414831517614f4057614f3f614d81565b5b5092915050565b60008190508160005260206000209050919050565b60006020601f8301049050919050565b600082821b905092915050565b600060088302614fa97fffffffffffffffffffffffffffffffffffffffffffffffffffffffffffffffff82614f6c565b614fb38683614f6c565b95508019841693508086168417925050509392505050565b6000819050919050565b6000614ff0614feb614fe68461405f565b614fcb565b61405f565b9050919050565b6000819050919050565b61500a83614fd5565b61501e61501682614ff7565b848454614f79565b825550505050565b600090565b615033615026565b61503e818484615001565b505050565b5b818110156150625761505760008261502b565b600181019050615044565b5050565b601f8211156150a75761507881614f47565b61508184614f5c565b81016020851015615090578190505b6150a461509c85614f5c565b830182615043565b50505b505050565b600082821c905092915050565b60006150ca600019846008026150ac565b1980831691505092915050565b60006150e383836150b9565b9150826002028217905092915050565b6150fc82613fad565b67ffffffffffffffff811115615115576151146140f6565b5b61511f8254614c60565b61512a828285615066565b600060209050601f83116001811461515d576000841561514b578287015190505b61515585826150d7565b8655506151bd565b601f19841661516b86614f47565b60005b828110156151935784890151825560018201915060208501945060208101905061516e565b868310156151b057848901516151ac601f8916826150b9565b8355505b6001600288020188555050505b505050505050565b60006060820190506151da60008301866140c2565b6151e760208301856140c2565b81810360408301526151f981846147c3565b9050949350505050565b7f57616c6c6574207769746820676976656e20494420646f6573206e6f7420657860008201527f6973740000000000000000000000000000000000000000000000000000000000602082015250565b600061525f602383613fb8565b915061526a82615203565b604082019050919050565b6000602082019050818103600083015261528e81615252565b9050919050565b60006152a08261405f565b91507fffffffffffffffffffffffffffffffffffffffffffffffffffffffffffffffff82036152d2576152d1614d81565b5b600182019050919050565b7f4f6e6c792061646d696e2063616e2072656a656374207061727469636970616e60008201527f7473000000000000000000000000000000000000000000000000000000000000602082015250565b6000615339602283613fb8565b9150615344826152dd565b604082019050919050565b600060208201905081810360008301526153688161532c565b9050919050565b7f5061727469636970616e742072657175657374206e6f7420666f756e64000000600082015250565b60006153a5601d83613fb8565b91506153b08261536f565b602082019050919050565b600060208201905081810360008301526153d481615398565b9050919050565b7f416c72656164792061207061727469636970616e740000000000000000000000600082015250565b6000615411601583613fb8565b915061541c826153db565b602082019050919050565b6000602082019050818103600083015261544081615404565b9050919050565b7f5265717565737420616c7265616479207375626d697474656400000000000000600082015250565b600061547d601983613fb8565b915061548882615447565b602082019050919050565b600060208201905081810360008301526154ac81615470565b9050919050565b7f4f6e6c79207061727469636970616e74732063616e207769746864726177206660008201527f756e647300000000000000000000000000000000000000000000000000000000602082015250565b600061550f602483613fb8565b915061551a826154b3565b604082019050919050565b6000602082019050818103600083015261553e81615502565b9050919050565b7f5769746864726177616c20616d6f756e7420657863656564732074686520626f60008201527f72726f77206c696d697400000000000000000000000000000000000000000000602082015250565b60006155a1602a83613fb8565b91506155ac82615545565b604082019050919050565b600060208201905081810360008301526155d081615594565b9050919050565b7f496e73756666696369656e742066756e647320696e207468652073686172656460008201527f2077616c6c657400000000000000000000000000000000000000000000000000602082015250565b6000615633602783613fb8565b915061563e826155d7565b604082019050919050565b6000602082019050818103600083015261566281615626565b9050919050565b60006156748261405f565b915061567f8361405f565b925082820390508181111561569757615696614d81565b5b92915050565b60006156a88261405f565b91506156b38361405f565b92508282019050808211156156cb576156ca614d81565b5b92915050565b600081905092915050565b600081546156e981614c60565b6156f381866156d1565b9450600182166000811461570e576001811461572357615756565b60ff1983168652811515820286019350615756565b61572c85614f47565b60005b8381101561574e5781548189015260018201915060208101905061572f565b838801955050505b50505092915050565b600061576b82846156dc565b915081905092915050565b7f4f6e6c792061646d696e2063616e20616363657074207061727469636970616e60008201527f7473000000000000000000000000000000000000000000000000000000000000602082015250565b60006157d2602283613fb8565b91506157dd82615776565b604082019050919050565b60006020820190508181036000830152615801816157c5565b9050919050565b7f4f6e6c792061646d696e2063616e2072656d6f7665207061727469636970616e60008201527f7473000000000000000000000000000000000000000000000000000000000000602082015250565b6000615864602283613fb8565b915061586f82615808565b604082019050919050565b6000602082019050818103600083015261589381615857565b9050919050565b7f5061727469636970616e74206e6f7420666f756e640000000000000000000000600082015250565b60006158d0601583613fb8565b91506158db8261589a565b602082019050919050565b600060208201905081810360008301526158ff816158c3565b9050919050565b7f557365726e616d6520616c726561647920657869737473212100000000000000600082015250565b600061593c601983613fb8565b915061594782615906565b602082019050919050565b6000602082019050818103600083015261596b8161592f565b9050919050565b7f557365726e616d6520697320616c72656164792074616b656e20627920616e6f60008201527f7468657220757365722100000000000000000000000000000000000000000000602082015250565b60006159ce602a83613fb8565b91506159d982615972565b604082019050919050565b600060208201905081810360008301526159fd816159c1565b9050919050565b7f4f6e6c79207061727469636970616e74732063616e206164642066756e647300600082015250565b6000615a3a601f83613fb8565b9150615a4582615a04565b602082019050919050565b60006020820190508181036000830152615a6981615a2d565b9050919050565b7f496e73756666696369656e742066756e64730000000000000000000000000000600082015250565b6000615aa6601283613fb8565b9150615ab182615a70565b602082019050919050565b60006020820190508181036000830152615ad581615a99565b9050919050565b7f6368617269747920616c72656164792063726561746564000000000000000000600082015250565b6000615b12601783613fb8565b9150615b1d82615adc565b602082019050919050565b60006020820190508181036000830152615b4181615b05565b9050919050565b60006040820190508181036000830152615b628185614004565b90508181036020830152615b768184614004565b90509392505050565b7f57616c6c6574206e6f7420666f756e6400000000000000000000000000000000600082015250565b6000615bb5601083613fb8565b9150615bc082615b7f565b602082019050919050565b60006020820190508181036000830152615be481615ba8565b9050919050565b6000819050919050565b615c06615c018261405f565b615beb565b82525050565b6000819050919050565b6000819050919050565b615c31615c2c82615c0c565b615c16565b82525050565b6000615c438286615bf5565b602082019150615c538285615bf5565b602082019150615c638284615c20565b602082019150819050949350505050565b6000615c7f8261405f565b9150615c8a8361405f565b925082615c9a57615c99614d52565b5b828206905092915050565b7f4e487b7100000000000000000000000000000000000000000000000000000000600052603160045260246000fd5b7f456c656d656e74206e6f7420666f756e6420696e206172726179000000000000600082015250565b6000615d0a601a83613fb8565b9150615d1582615cd4565b602082019050919050565b60006020820190508181036000830152615d3981615cfd565b9050919050565b600081905092915050565b60008190508160005260206000209050919050565b60008154615d6d81614c60565b615d778186615d40565b94506001821660008114615d925760018114615da757615dda565b60ff1983168652811515820286019350615dda565b615db085615d4b565b60005b83811015615dd257815481890152600182019150602081019050615db3565b838801955050505b50505092915050565b6000615def8284615d60565b91508190509291505056fea2646970667358221220a14d07d438294950a0c78dcd084604c27dae96c1ad86f4da71dfd091d3a4f8d364736f6c63430008130033",
  "linkReferences": {},
  "deployedLinkReferences": {}
}