{
  "_format": "hh-sol-artifact-1",
  "contractName": "Shared",
  "sourceName": "contracts/Shared.sol",
  "abi": [
    {
      "anonymous": false,
      "inputs": [
        {
          "indexed": true,
          "internalType": "address",
          "name": "walletId",
          "type": "address"
        },
        {
          "indexed": false,
          "internalType": "string",
          "name": "charityName",
          "type": "string"
        },
        {
          "indexed": false,
          "internalType": "string",
          "name": "description",
          "type": "string"
        }
      ],
      "name": "CharityCreated",
      "type": "event"
    },
    {
      "anonymous": false,
      "inputs": [
        {
          "indexed": true,
          "internalType": "uint256",
          "name": "walletId",
          "type": "uint256"
        },
        {
          "indexed": true,
          "internalType": "string",
          "name": "participant",
          "type": "string"
        },
        {
          "indexed": false,
          "internalType": "uint256",
          "name": "amount",
          "type": "uint256"
        }
      ],
      "name": "FundsAddedToSharedWallet",
      "type": "event"
    },
    {
      "anonymous": false,
      "inputs": [
        {
          "indexed": true,
          "internalType": "uint256",
          "name": "walletId",
          "type": "uint256"
        },
        {
          "indexed": true,
          "internalType": "string",
          "name": "participant",
          "type": "string"
        },
        {
          "indexed": false,
          "internalType": "uint256",
          "name": "amount",
          "type": "uint256"
        }
      ],
      "name": "FundsWithdrawnFromSharedWallet",
      "type": "event"
    },
    {
      "anonymous": false,
      "inputs": [
        {
          "indexed": true,
          "internalType": "uint256",
          "name": "walletId",
          "type": "uint256"
        },
        {
          "indexed": true,
          "internalType": "address",
          "name": "participant",
          "type": "address"
        }
      ],
      "name": "ParticipantAccepted",
      "type": "event"
    },
    {
      "anonymous": false,
      "inputs": [
        {
          "indexed": true,
          "internalType": "uint256",
          "name": "walletId",
          "type": "uint256"
        },
        {
          "indexed": true,
          "internalType": "address",
          "name": "participant",
          "type": "address"
        }
      ],
      "name": "ParticipantRejected",
      "type": "event"
    },
    {
      "anonymous": false,
      "inputs": [
        {
          "indexed": true,
          "internalType": "uint256",
          "name": "walletId",
          "type": "uint256"
        },
        {
          "indexed": true,
          "internalType": "address",
          "name": "participant",
          "type": "address"
        }
      ],
      "name": "ParticipantRemoved",
      "type": "event"
    },
    {
      "anonymous": false,
      "inputs": [
        {
          "indexed": true,
          "internalType": "uint256",
          "name": "walletId",
          "type": "uint256"
        },
        {
          "indexed": true,
          "internalType": "address",
          "name": "participant",
          "type": "address"
        }
      ],
      "name": "ParticipantRequest",
      "type": "event"
    },
    {
      "anonymous": false,
      "inputs": [
        {
          "indexed": true,
          "internalType": "uint256",
          "name": "walletId",
          "type": "uint256"
        },
        {
          "indexed": true,
          "internalType": "address",
          "name": "admin",
          "type": "address"
        },
        {
          "indexed": false,
          "internalType": "uint256",
          "name": "goalAmount",
          "type": "uint256"
        },
        {
          "indexed": false,
          "internalType": "uint256",
          "name": "borrowLimit",
          "type": "uint256"
        },
        {
          "indexed": false,
          "internalType": "address[]",
          "name": "participants",
          "type": "address[]"
        }
      ],
      "name": "SharedWalletCreated",
      "type": "event"
    },
    {
      "inputs": [
        {
          "internalType": "uint256",
          "name": "_walletId",
          "type": "uint256"
        },
        {
          "internalType": "address",
          "name": "_participant",
          "type": "address"
        }
      ],
      "name": "acceptParticipant",
      "outputs": [],
      "stateMutability": "nonpayable",
      "type": "function"
    },
    {
      "inputs": [
        {
          "internalType": "uint256",
          "name": "_walletId",
          "type": "uint256"
        }
      ],
      "name": "addFundsToSharedWallet",
      "outputs": [],
      "stateMutability": "payable",
      "type": "function"
    },
    {
      "inputs": [
        {
          "internalType": "uint256",
          "name": "",
          "type": "uint256"
        }
      ],
      "name": "allTransactions",
      "outputs": [
        {
          "internalType": "string",
          "name": "sender",
          "type": "string"
        },
        {
          "internalType": "string",
          "name": "receiver",
          "type": "string"
        },
        {
          "internalType": "uint256",
          "name": "amount",
          "type": "uint256"
        },
        {
          "internalType": "string",
          "name": "description",
          "type": "string"
        },
        {
          "internalType": "uint256",
          "name": "timestamp",
          "type": "uint256"
        }
      ],
      "stateMutability": "view",
      "type": "function"
    },
    {
      "inputs": [
        {
          "internalType": "uint256",
          "name": "",
          "type": "uint256"
        }
      ],
      "name": "charities",
      "outputs": [
        {
          "internalType": "address",
          "name": "walletId",
          "type": "address"
        },
        {
          "internalType": "string",
          "name": "charityName",
          "type": "string"
        },
        {
          "internalType": "string",
          "name": "description",
          "type": "string"
        }
      ],
      "stateMutability": "view",
      "type": "function"
    },
    {
      "inputs": [
        {
          "internalType": "uint256",
          "name": "",
          "type": "uint256"
        }
      ],
      "name": "charityId",
      "outputs": [
        {
          "internalType": "uint256",
          "name": "",
          "type": "uint256"
        }
      ],
      "stateMutability": "view",
      "type": "function"
    },
    {
      "inputs": [
        {
          "internalType": "string",
          "name": "_name",
          "type": "string"
        },
        {
          "internalType": "string",
          "name": "_description",
          "type": "string"
        }
      ],
      "name": "createOrgCharity",
      "outputs": [],
      "stateMutability": "nonpayable",
      "type": "function"
    },
    {
      "inputs": [
        {
          "internalType": "uint256",
          "name": "_goalAmount",
          "type": "uint256"
        },
        {
          "internalType": "uint256",
          "name": "_borrowLimit",
          "type": "uint256"
        },
        {
          "internalType": "string",
          "name": "_walname",
          "type": "string"
        }
      ],
      "name": "createSharedWallet",
      "outputs": [],
      "stateMutability": "nonpayable",
      "type": "function"
    },
    {
      "inputs": [
        {
          "internalType": "address payable",
          "name": "walletId",
          "type": "address"
        }
      ],
      "name": "donate",
      "outputs": [],
      "stateMutability": "payable",
      "type": "function"
    },
    {
      "inputs": [
        {
          "internalType": "uint256",
          "name": "",
          "type": "uint256"
        }
      ],
      "name": "existingUsernames",
      "outputs": [
        {
          "internalType": "string",
          "name": "",
          "type": "string"
        }
      ],
      "stateMutability": "view",
      "type": "function"
    },
    {
      "inputs": [],
      "name": "getAllCharities",
      "outputs": [
        {
          "components": [
            {
              "internalType": "address",
              "name": "walletId",
              "type": "address"
            },
            {
              "internalType": "string",
              "name": "charityName",
              "type": "string"
            },
            {
              "internalType": "string",
              "name": "description",
              "type": "string"
            }
          ],
          "internalType": "struct Shared.Charity[]",
          "name": "",
          "type": "tuple[]"
        }
      ],
      "stateMutability": "view",
      "type": "function"
    },
    {
      "inputs": [],
      "name": "getAllSharedWallets",
      "outputs": [
        {
          "components": [
            {
              "internalType": "uint256",
              "name": "walletId",
              "type": "uint256"
            },
            {
              "internalType": "string",
              "name": "walletName",
              "type": "string"
            },
            {
              "internalType": "uint256",
              "name": "walletBalance",
              "type": "uint256"
            },
            {
              "internalType": "address",
              "name": "admin",
              "type": "address"
            },
            {
              "internalType": "uint256",
              "name": "goalAmount",
              "type": "uint256"
            },
            {
              "internalType": "uint256",
              "name": "borrowLimit",
              "type": "uint256"
            },
            {
              "internalType": "address[]",
              "name": "participants",
              "type": "address[]"
            },
            {
              "internalType": "address[]",
              "name": "participantRequests",
              "type": "address[]"
            },
            {
              "internalType": "uint256[]",
              "name": "transactionIndices",
              "type": "uint256[]"
            }
          ],
          "internalType": "struct Shared.SharedWallet[]",
          "name": "",
          "type": "tuple[]"
        }
      ],
      "stateMutability": "view",
      "type": "function"
    },
    {
      "inputs": [
        {
          "internalType": "uint256",
          "name": "_walletId",
          "type": "uint256"
        }
      ],
      "name": "getBalance",
      "outputs": [
        {
          "internalType": "uint256",
          "name": "",
          "type": "uint256"
        }
      ],
      "stateMutability": "view",
      "type": "function"
    },
    {
      "inputs": [],
      "name": "getName",
      "outputs": [
        {
          "internalType": "string",
          "name": "",
          "type": "string"
        }
      ],
      "stateMutability": "view",
      "type": "function"
    },
    {
      "inputs": [
        {
          "internalType": "uint256",
          "name": "_walletId",
          "type": "uint256"
        }
      ],
      "name": "getNumberOfParticipants",
      "outputs": [
        {
          "internalType": "uint256",
          "name": "",
          "type": "uint256"
        }
      ],
      "stateMutability": "view",
      "type": "function"
    },
    {
      "inputs": [
        {
          "internalType": "uint256",
          "name": "_walletId",
          "type": "uint256"
        }
      ],
      "name": "getParticipantRequests",
      "outputs": [
        {
          "internalType": "address[]",
          "name": "",
          "type": "address[]"
        },
        {
          "internalType": "string[]",
          "name": "",
          "type": "string[]"
        }
      ],
      "stateMutability": "view",
      "type": "function"
    },
    {
      "inputs": [
        {
          "internalType": "uint256",
          "name": "_walletId",
          "type": "uint256"
        }
      ],
      "name": "getParticipantsWithAddresses",
      "outputs": [
        {
          "internalType": "address[]",
          "name": "",
          "type": "address[]"
        },
        {
          "internalType": "string[]",
          "name": "",
          "type": "string[]"
        }
      ],
      "stateMutability": "view",
      "type": "function"
    },
    {
      "inputs": [],
      "name": "getUsername",
      "outputs": [
        {
          "internalType": "string",
          "name": "",
          "type": "string"
        }
      ],
      "stateMutability": "view",
      "type": "function"
    },
    {
      "inputs": [
        {
          "internalType": "uint256",
          "name": "_walletId",
          "type": "uint256"
        }
      ],
      "name": "getWalName",
      "outputs": [
        {
          "internalType": "string",
          "name": "",
          "type": "string"
        }
      ],
      "stateMutability": "view",
      "type": "function"
    },
    {
      "inputs": [
        {
          "internalType": "uint256",
          "name": "_walletId",
          "type": "uint256"
        }
      ],
      "name": "getWalletTransactions",
      "outputs": [
        {
          "components": [
            {
              "internalType": "string",
              "name": "sender",
              "type": "string"
            },
            {
              "internalType": "string",
              "name": "receiver",
              "type": "string"
            },
            {
              "internalType": "uint256",
              "name": "amount",
              "type": "uint256"
            },
            {
              "internalType": "string",
              "name": "description",
              "type": "string"
            },
            {
              "internalType": "uint256",
              "name": "timestamp",
              "type": "uint256"
            }
          ],
          "internalType": "struct Shared.Transaction[]",
          "name": "",
          "type": "tuple[]"
        }
      ],
      "stateMutability": "view",
      "type": "function"
    },
    {
      "inputs": [
        {
          "internalType": "address",
          "name": "",
          "type": "address"
        }
      ],
      "name": "hasCreatedCharity",
      "outputs": [
        {
          "internalType": "bool",
          "name": "",
          "type": "bool"
        }
      ],
      "stateMutability": "view",
      "type": "function"
    },
    {
      "inputs": [
        {
          "internalType": "uint256",
          "name": "_walletId",
          "type": "uint256"
        },
        {
          "internalType": "address",
          "name": "_participant",
          "type": "address"
        }
      ],
      "name": "isParticipant",
      "outputs": [
        {
          "internalType": "bool",
          "name": "",
          "type": "bool"
        }
      ],
      "stateMutability": "view",
      "type": "function"
    },
    {
      "inputs": [
        {
          "internalType": "string",
          "name": "_name",
          "type": "string"
        },
        {
          "internalType": "string",
          "name": "_username",
          "type": "string"
        }
      ],
      "name": "mapNameAndUsernameToWalletId",
      "outputs": [],
      "stateMutability": "nonpayable",
      "type": "function"
    },
    {
      "inputs": [
        {
          "internalType": "address",
          "name": "",
          "type": "address"
        }
      ],
      "name": "name",
      "outputs": [
        {
          "internalType": "string",
          "name": "",
          "type": "string"
        }
      ],
      "stateMutability": "view",
      "type": "function"
    },
    {
      "inputs": [
        {
          "internalType": "uint256",
          "name": "_walletId",
          "type": "uint256"
        },
        {
          "internalType": "address",
          "name": "_participant",
          "type": "address"
        }
      ],
      "name": "rejectParticipant",
      "outputs": [],
      "stateMutability": "nonpayable",
      "type": "function"
    },
    {
      "inputs": [
        {
          "internalType": "uint256",
          "name": "_walletId",
          "type": "uint256"
        },
        {
          "internalType": "address",
          "name": "_participant",
          "type": "address"
        }
      ],
      "name": "removeParticipant",
      "outputs": [],
      "stateMutability": "nonpayable",
      "type": "function"
    },
    {
      "inputs": [
        {
          "internalType": "uint256",
          "name": "_walletId",
          "type": "uint256"
        }
      ],
      "name": "requestToJoin",
      "outputs": [],
      "stateMutability": "nonpayable",
      "type": "function"
    },
    {
      "inputs": [
        {
          "internalType": "uint256",
          "name": "",
          "type": "uint256"
        }
      ],
      "name": "sharedWallets",
      "outputs": [
        {
          "internalType": "uint256",
          "name": "walletId",
          "type": "uint256"
        },
        {
          "internalType": "string",
          "name": "walletName",
          "type": "string"
        },
        {
          "internalType": "uint256",
          "name": "walletBalance",
          "type": "uint256"
        },
        {
          "internalType": "address",
          "name": "admin",
          "type": "address"
        },
        {
          "internalType": "uint256",
          "name": "goalAmount",
          "type": "uint256"
        },
        {
          "internalType": "uint256",
          "name": "borrowLimit",
          "type": "uint256"
        }
      ],
      "stateMutability": "view",
      "type": "function"
    },
    {
      "inputs": [
        {
          "internalType": "address",
          "name": "",
          "type": "address"
        }
      ],
      "name": "username",
      "outputs": [
        {
          "internalType": "string",
          "name": "",
          "type": "string"
        }
      ],
      "stateMutability": "view",
      "type": "function"
    },
    {
      "inputs": [
        {
          "internalType": "uint256",
          "name": "",
          "type": "uint256"
        }
      ],
      "name": "walletIdExists",
      "outputs": [
        {
          "internalType": "bool",
          "name": "",
          "type": "bool"
        }
      ],
      "stateMutability": "view",
      "type": "function"
    },
    {
      "inputs": [
        {
          "internalType": "uint256",
          "name": "_walletId",
          "type": "uint256"
        },
        {
          "internalType": "uint256",
          "name": "_amount",
          "type": "uint256"
        },
        {
          "internalType": "string",
          "name": "_description",
          "type": "string"
        }
      ],
      "name": "withdrawFundsFromSharedWallet",
      "outputs": [],
      "stateMutability": "nonpayable",
      "type": "function"
    }
  ],
  "bytecode": "0x608060405234801561001057600080fd5b50613c68806100206000396000f3fe6080604052600436106101cc5760003560e01c80637a175f40116100f7578063c4434b8511610095578063ec0106ac11610064578063ec0106ac14610581578063f85a933c146105b3578063fb709d2e146105c6578063fd57959f146105f557600080fd5b8063c4434b85146104e3578063cf4a1f9c14610503578063d7ff071414610523578063dd385cf21461055457600080fd5b8063b38d1dd0116100d1578063b38d1dd014610451578063b5bbd27914610471578063ba09826614610493578063bc003700146104c357600080fd5b80637a175f40146103f15780638402276714610411578063ab1351e51461043157600080fd5b80633688299c1161016f57806364ead1eb1161013e57806364ead1eb1461037c578063681f3e6d1461039c578063758d9b89146103b15780637943e51c146103d157600080fd5b80633688299c146102bf578063423b8e88146102e157806348c7cc81146103215780635e39926e1461034e57600080fd5b806317d7de7c116101ab57806317d7de7c1461023c5780631ca125cf146102515780631e0104391461027157806325c93ab11461029f57600080fd5b8062362a95146101d157806301984892146101e65780630610a7a21461021c575b600080fd5b6101e46101df36600461331e565b610615565b005b3480156101f257600080fd5b5061020661020136600461331e565b6106fe565b6040516102139190613381565b60405180910390f35b34801561022857600080fd5b5061020661023736600461331e565b610798565b34801561024857600080fd5b506102066107b1565b34801561025d57600080fd5b5061020661026c366004613394565b610852565b34801561027d57600080fd5b5061029161028c366004613394565b610916565b604051908152602001610213565b3480156102ab57600080fd5b506101e46102ba366004613450565b6109d5565b3480156102cb57600080fd5b506102d4610c78565b6040516102139190613514565b3480156102ed57600080fd5b506103116102fc366004613394565b60036020526000908152604090205460ff1681565b6040519015158152602001610213565b34801561032d57600080fd5b5061034161033c366004613394565b610edd565b6040516102139190613618565b34801561035a57600080fd5b5061036e610369366004613394565b61126c565b6040516102139291906136c1565b34801561038857600080fd5b50610291610397366004613394565b6114d1565b3480156103a857600080fd5b5061020661153a565b3480156103bd57600080fd5b506103116103cc366004613733565b611558565b3480156103dd57600080fd5b506102066103ec366004613394565b61161b565b3480156103fd57600080fd5b506101e461040c366004613733565b611646565b34801561041d57600080fd5b506101e461042c366004613394565b61179a565b34801561043d57600080fd5b506101e461044c366004613450565b6118f5565b34801561045d57600080fd5b5061036e61046c366004613394565b611d35565b34801561047d57600080fd5b50610486611f8d565b6040516102139190613763565b34801561049f57600080fd5b506103116104ae36600461331e565b60076020526000908152604090205460ff1681565b3480156104cf57600080fd5b506101e46104de366004613733565b61211d565b3480156104ef57600080fd5b506101e46104fe366004613733565b6122ac565b34801561050f57600080fd5b506101e461051e3660046137f1565b6123f8565b34801561052f57600080fd5b5061054361053e366004613394565b61253f565b604051610213959493929190613855565b34801561056057600080fd5b5061029161056f366004613394565b60066020526000908152604090205481565b34801561058d57600080fd5b506105a161059c366004613394565b61271d565b604051610213969594939291906138a7565b6101e46105c1366004613394565b6127f8565b3480156105d257600080fd5b506105e66105e1366004613394565b612bc4565b604051610213939291906138ee565b34801561060157600080fd5b506101e46106103660046137f1565b612d14565b6001600160a01b0381166106635760405162461bcd60e51b815260206004820152601060248201526f24b73b30b634b21030b2323932b9b99760811b60448201526064015b60405180910390fd5b6001600160a01b03811633036106c55760405162461bcd60e51b815260206004820152602160248201527f43616e6e6f7420646f6e61746520746f20796f7572206f776e2077616c6c65746044820152601760f91b606482015260840161065a565b6040516001600160a01b038216903480156108fc02916000818181858888f193505050501580156106fa573d6000803e3d6000fd5b5050565b600560205260009081526040902080546107179061392e565b80601f01602080910402602001604051908101604052809291908181526020018280546107439061392e565b80156107905780601f1061076557610100808354040283529160200191610790565b820191906000526020600020905b81548152906001019060200180831161077357829003601f168201915b505050505081565b600460205260009081526040902080546107179061392e565b3360009081526005602052604090208054606091906107cf9061392e565b80601f01602080910402602001604051908101604052809291908181526020018280546107fb9061392e565b80156108485780601f1061081d57610100808354040283529160200191610848565b820191906000526020600020905b81548152906001019060200180831161082b57829003601f168201915b5050505050905090565b6060600061085f83612e8e565b90506000818154811061087457610874613968565b906000526020600020906009020160010180546108909061392e565b80601f01602080910402602001604051908101604052809291908181526020018280546108bc9061392e565b80156109095780601f106108de57610100808354040283529160200191610909565b820191906000526020600020905b8154815290600101906020018083116108ec57829003601f168201915b5050505050915050919050565b60008061092283612e8e565b905061092e8333611558565b6109965760405162461bcd60e51b815260206004820152603360248201527f596f7520617265206e6f7420612070617274696370616e74206f6620746865206044820152721cdc1958da599a5959081dd85b1b195d081a59606a1b606482015260840161065a565b670de0b6b3a7640000600082815481106109b2576109b2613968565b9060005260206000209060090201600201546109ce91906139aa565b9392505050565b60008311610a305760405162461bcd60e51b815260206004820152602260248201527f476f616c20616d6f756e74206d7573742062652067726561746572207468616e604482015261020360f41b606482015260840161065a565b6000610a3a612f1b565b60408051600180825281830190925291925060009190602080830190803683370190505090503381600081518110610a7457610a74613968565b6001600160a01b03909216602092830291909101820152604080516101208101825284815291820185905260009082018190523360608301529060808101610ac488670de0b6b3a76400006139be565b8152602001610adb87670de0b6b3a76400006139be565b8152602080820185905260408051600080825281840183528285019190915281518181528084019092526060909301528154600181018355918052825160099092027f290decd9548b62a8d60345a988386fc84ba6bc95484008f6362f93160ef3e56381019283559083015192935083927f290decd9548b62a8d60345a988386fc84ba6bc95484008f6362f93160ef3e56490910190610b7b9082613a23565b506040820151600282015560608201516003820180546001600160a01b0319166001600160a01b039092169190911790556080820151600482015560a0820151600582015560c08201518051610bdb916006840191602090910190613251565b5060e08201518051610bf7916007840191602090910190613251565b506101008201518051610c149160088401916020909101906132b6565b50505060008381526003602052604090819020805460ff1916600117905551339084907fbb22188d95efa8c4f325d45db9224a8e37daca69776a24623d5851833076f6ed90610c68908a908a908890613ae3565b60405180910390a3505050505050565b60606000805480602002602001604051908101604052809291908181526020016000905b82821015610ed457838290600052602060002090600902016040518061012001604052908160008201548152602001600182018054610cda9061392e565b80601f0160208091040260200160405190810160405280929190818152602001828054610d069061392e565b8015610d535780601f10610d2857610100808354040283529160200191610d53565b820191906000526020600020905b815481529060010190602001808311610d3657829003601f168201915b50505050508152602001600282015481526020016003820160009054906101000a90046001600160a01b03166001600160a01b03166001600160a01b03168152602001600482015481526020016005820154815260200160068201805480602002602001604051908101604052809291908181526020018280548015610e0257602002820191906000526020600020905b81546001600160a01b03168152600190910190602001808311610de4575b5050505050815260200160078201805480602002602001604051908101604052809291908181526020018280548015610e6457602002820191906000526020600020905b81546001600160a01b03168152600190910190602001808311610e46575b5050505050815260200160088201805480602002602001604051908101604052809291908181526020018280548015610ebc57602002820191906000526020600020905b815481526020019060010190808311610ea8575b50505050508152505081526020019060010190610c9c565b50505050905090565b60008181526003602052604090205460609060ff16610f0e5760405162461bcd60e51b815260040161065a90613b0b565b6000610f1983612e8e565b90506000808281548110610f2f57610f2f613968565b9060005260206000209060090201600801805480602002602001604051908101604052809291908181526020018280548015610f8a57602002820191906000526020600020905b815481526020019060010190808311610f76575b5050505050905060008151905060008167ffffffffffffffff811115610fb257610fb26133ad565b60405190808252806020026020018201604052801561101557816020015b6110026040518060a0016040528060608152602001606081526020016000815260200160608152602001600081525090565b815260200190600190039081610fd05790505b50905060005b8281101561126257600184828151811061103757611037613968565b60200260200101518154811061104f5761104f613968565b90600052602060002090600502016040518060a00160405290816000820180546110789061392e565b80601f01602080910402602001604051908101604052809291908181526020018280546110a49061392e565b80156110f15780601f106110c6576101008083540402835291602001916110f1565b820191906000526020600020905b8154815290600101906020018083116110d457829003601f168201915b5050505050815260200160018201805461110a9061392e565b80601f01602080910402602001604051908101604052809291908181526020018280546111369061392e565b80156111835780601f1061115857610100808354040283529160200191611183565b820191906000526020600020905b81548152906001019060200180831161116657829003601f168201915b50505050508152602001600282015481526020016003820180546111a69061392e565b80601f01602080910402602001604051908101604052809291908181526020018280546111d29061392e565b801561121f5780601f106111f45761010080835404028352916020019161121f565b820191906000526020600020905b81548152906001019060200180831161120257829003601f168201915b5050505050815260200160048201548152505082828151811061124457611244613968565b6020026020010181905250808061125a90613b4e565b91505061101b565b5095945050505050565b600081815260036020526040902054606090819060ff1661129f5760405162461bcd60e51b815260040161065a90613b0b565b60006112aa84612e8e565b905060008082815481106112c0576112c0613968565b6000918252602082206006600990920201015491508167ffffffffffffffff8111156112ee576112ee6133ad565b604051908082528060200260200182016040528015611317578160200160208202803683370190505b50905060008267ffffffffffffffff811115611335576113356133ad565b60405190808252806020026020018201604052801561136857816020015b60608152602001906001900390816113535790505b50905060005b838110156114c457600080868154811061138a5761138a613968565b906000526020600020906009020160060182815481106113ac576113ac613968565b9060005260206000200160009054906101000a90046001600160a01b03169050808483815181106113df576113df613968565b6001600160a01b03928316602091820292909201810191909152908216600090815260049091526040902080546114159061392e565b80601f01602080910402602001604051908101604052809291908181526020018280546114419061392e565b801561148e5780601f106114635761010080835404028352916020019161148e565b820191906000526020600020905b81548152906001019060200180831161147157829003601f168201915b50505050508383815181106114a5576114a5613968565b60200260200101819052505080806114bc90613b4e565b91505061136e565b5090969095509350505050565b60008181526003602052604081205460ff166114ff5760405162461bcd60e51b815260040161065a90613b0b565b600061150a83612e8e565b90506000818154811061151f5761151f613968565b60009182526020909120600660099092020101549392505050565b3360009081526004602052604090208054606091906107cf9061392e565b60008061156484612e8e565b905060005b6000828154811061157c5761157c613968565b90600052602060002090600902016006018054905081101561160e57836001600160a01b0316600083815481106115b5576115b5613968565b906000526020600020906009020160060182815481106115d7576115d7613968565b6000918252602090912001546001600160a01b0316036115fc57600192505050611615565b8061160681613b4e565b915050611569565b5060009150505b92915050565b6008818154811061162b57600080fd5b9060005260206000200160009150905080546107179061392e565b6000828154811061165957611659613968565b60009182526020909120600990910201600301546001600160a01b031633146116cf5760405162461bcd60e51b815260206004820152602260248201527f4f6e6c792061646d696e2063616e2072656a656374207061727469636970616e604482015261747360f01b606482015260840161065a565b6116d98282612fc2565b6117255760405162461bcd60e51b815260206004820152601d60248201527f5061727469636970616e742072657175657374206e6f7420666f756e64000000604482015260640161065a565b600061173083612e8e565b905061175f6000828154811061174857611748613968565b906000526020600020906009020160070183613078565b6040516001600160a01b0383169084907f8903f797b9477780cd04a7e575d254f82d9ebb89d859f46f60604c575f2ba27e90600090a3505050565b60008181526003602052604090205460ff166117c85760405162461bcd60e51b815260040161065a90613b0b565b6117d28133611558565b156118175760405162461bcd60e51b8152602060048201526015602482015274105b1c9958591e4818481c185c9d1a58da5c185b9d605a1b604482015260640161065a565b6118218133612fc2565b1561186e5760405162461bcd60e51b815260206004820152601960248201527f5265717565737420616c7265616479207375626d697474656400000000000000604482015260640161065a565b600061187982612e8e565b90506000818154811061188e5761188e613968565b6000918252602080832060076009909302019190910180546001810182559083529082200180546001600160a01b03191633908117909155604051909184917f0e1d9310fd77f81b5bf5dbde6ee0c770054dd4f36103e23a85db7ac00f73d4139190a35050565b600061190084612e8e565b60008581526003602052604090205490915060ff166119315760405162461bcd60e51b815260040161065a90613b0b565b61193b8433611558565b6119935760405162461bcd60e51b8152602060048201526024808201527f4f6e6c79207061727469636970616e74732063616e2077697468647261772066604482015263756e647360e01b606482015260840161065a565b60006119a784670de0b6b3a76400006139be565b9050600082815481106119bc576119bc613968565b906000526020600020906009020160050154811115611a305760405162461bcd60e51b815260206004820152602a60248201527f5769746864726177616c20616d6f756e7420657863656564732074686520626f6044820152691c9c9bddc81b1a5b5a5d60b21b606482015260840161065a565b60008281548110611a4357611a43613968565b906000526020600020906009020160020154811115611ab45760405162461bcd60e51b815260206004820152602760248201527f496e73756666696369656e742066756e647320696e2074686520736861726564604482015266081dd85b1b195d60ca1b606482015260840161065a565b8060008381548110611ac857611ac8613968565b90600052602060002090600902016002016000828254611ae89190613b67565b925050819055508060008381548110611b0357611b03613968565b90600052602060002090600902016004016000828254611b239190613b7a565b9091555050604051339082156108fc029083906000818181858888f19350505050158015611b55573d6000803e3d6000fd5b50600180546040805160e081018252600d60a082019081526c1cda185c9959081dd85b1b195d609a1b60c083015281523360009081526004602090815292902080549394939192830191611ba89061392e565b80601f0160208091040260200160405190810160405280929190818152602001828054611bd49061392e565b8015611c215780601f10611bf657610100808354040283529160200191611c21565b820191906000526020600020905b815481529060010190602001808311611c0457829003601f168201915b5050509183525050602080820186905260408201889052426060909201919091528254600181018455600093845292208151919260050201908190611c669082613a23565b5060208201516001820190611c7b9082613a23565b506040820151600282015560608201516003820190611c9a9082613a23565b5060808201518160040155505060008381548110611cba57611cba613968565b60009182526020808320600860099093020191909101805460018101825590835281832001839055338252600490526040908190209051611cfb9190613c00565b6040518091039020867f1da1e862b49d474681f4eaecdcb8e1ae3bb314cf38ac7b1726d8eb3e8618b31084604051610c6891815260200190565b600081815260036020526040902054606090819060ff16611d685760405162461bcd60e51b815260040161065a90613b0b565b6000611d7384612e8e565b90506000808281548110611d8957611d89613968565b6000918252602082206007600990920201015491508167ffffffffffffffff811115611db757611db76133ad565b604051908082528060200260200182016040528015611de0578160200160208202803683370190505b50905060008267ffffffffffffffff811115611dfe57611dfe6133ad565b604051908082528060200260200182016040528015611e3157816020015b6060815260200190600190039081611e1c5790505b50905060005b838110156114c4576000808681548110611e5357611e53613968565b90600052602060002090600902016007018281548110611e7557611e75613968565b9060005260206000200160009054906101000a90046001600160a01b0316905080848381518110611ea857611ea8613968565b6001600160a01b0392831660209182029290920181019190915290821660009081526004909152604090208054611ede9061392e565b80601f0160208091040260200160405190810160405280929190818152602001828054611f0a9061392e565b8015611f575780601f10611f2c57610100808354040283529160200191611f57565b820191906000526020600020905b815481529060010190602001808311611f3a57829003601f168201915b5050505050838381518110611f6e57611f6e613968565b6020026020010181905250508080611f8590613b4e565b915050611e37565b60606002805480602002602001604051908101604052809291908181526020016000905b82821015610ed457600084815260209081902060408051606081019091526003850290910180546001600160a01b031682526001810180549293919291840191611ffa9061392e565b80601f01602080910402602001604051908101604052809291908181526020018280546120269061392e565b80156120735780601f1061204857610100808354040283529160200191612073565b820191906000526020600020905b81548152906001019060200180831161205657829003601f168201915b5050505050815260200160028201805461208c9061392e565b80601f01602080910402602001604051908101604052809291908181526020018280546120b89061392e565b80156121055780601f106120da57610100808354040283529160200191612105565b820191906000526020600020905b8154815290600101906020018083116120e857829003601f168201915b50505050508152505081526020019060010190611fb1565b600061212883612e8e565b90506000818154811061213d5761213d613968565b60009182526020909120600990910201600301546001600160a01b031633146121b35760405162461bcd60e51b815260206004820152602260248201527f4f6e6c792061646d696e2063616e20616363657074207061727469636970616e604482015261747360f01b606482015260840161065a565b6121bd8383612fc2565b6122095760405162461bcd60e51b815260206004820152601d60248201527f5061727469636970616e742072657175657374206e6f7420666f756e64000000604482015260640161065a565b6000818154811061221c5761221c613968565b6000918252602080832060099290920290910160060180546001810182559083529082200180546001600160a01b0319166001600160a01b038516179055805461227191908390811061174857611748613968565b6040516001600160a01b0383169084907f55db954dfe09b91087e0919cb7fb06e3642e0d393ed967f4192c27de59293c7290600090a3505050565b60006122b783612e8e565b9050600081815481106122cc576122cc613968565b60009182526020909120600990910201600301546001600160a01b031633146123425760405162461bcd60e51b815260206004820152602260248201527f4f6e6c792061646d696e2063616e2072656d6f7665207061727469636970616e604482015261747360f01b606482015260840161065a565b61234c8383611558565b6123905760405162461bcd60e51b815260206004820152601560248201527414185c9d1a58da5c185b9d081b9bdd08199bdd5b99605a1b604482015260640161065a565b6123bd600082815481106123a6576123a6613968565b906000526020600020906009020160060183613078565b6040516001600160a01b0383169084907fcef8fac05afb87995942422eac900de6af11a555d80d075340af81db492119fe90600090a3505050565b33600090815260046020526040902080546124129061392e565b1590506124615760405162461bcd60e51b815260206004820152601960248201527f557365726e616d6520616c726561647920657869737473212100000000000000604482015260640161065a565b61246a816131e0565b156124ca5760405162461bcd60e51b815260206004820152602a60248201527f557365726e616d6520697320616c72656164792074616b656e20627920616e6f6044820152697468657220757365722160b01b606482015260840161065a565b3360009081526005602052604090206124e38382613a23565b503360009081526004602052604090206124fd8282613a23565b50600880546001810182556000919091527ff3f7a9fe364faab93b216da50a3214154f22a0a2b415b23a84c8169e8b636ee30161253a8282613a23565b505050565b6001818154811061254f57600080fd5b90600052602060002090600502016000915090508060000180546125729061392e565b80601f016020809104026020016040519081016040528092919081815260200182805461259e9061392e565b80156125eb5780601f106125c0576101008083540402835291602001916125eb565b820191906000526020600020905b8154815290600101906020018083116125ce57829003601f168201915b5050505050908060010180546126009061392e565b80601f016020809104026020016040519081016040528092919081815260200182805461262c9061392e565b80156126795780601f1061264e57610100808354040283529160200191612679565b820191906000526020600020905b81548152906001019060200180831161265c57829003601f168201915b5050505050908060020154908060030180546126949061392e565b80601f01602080910402602001604051908101604052809291908181526020018280546126c09061392e565b801561270d5780601f106126e25761010080835404028352916020019161270d565b820191906000526020600020905b8154815290600101906020018083116126f057829003601f168201915b5050505050908060040154905085565b6000818154811061272d57600080fd5b600091825260209091206009909102018054600182018054919350906127529061392e565b80601f016020809104026020016040519081016040528092919081815260200182805461277e9061392e565b80156127cb5780601f106127a0576101008083540402835291602001916127cb565b820191906000526020600020905b8154815290600101906020018083116127ae57829003601f168201915b50505050600283015460038401546004850154600590950154939491936001600160a01b03909116925086565b600061280382612e8e565b60008381526003602052604090205490915060ff166128345760405162461bcd60e51b815260040161065a90613b0b565b61283e8233611558565b61288a5760405162461bcd60e51b815260206004820152601f60248201527f4f6e6c79207061727469636970616e74732063616e206164642066756e647300604482015260640161065a565b600034116128cf5760405162461bcd60e51b8152602060048201526012602482015271496e73756666696369656e742066756e647360701b604482015260640161065a565b34600082815481106128e3576128e3613968565b906000526020600020906009020160020160008282546129039190613b7a565b92505081905550346000828154811061291e5761291e613968565b906000526020600020906009020160040154111561297557346000828154811061294a5761294a613968565b9060005260206000209060090201600401600082825461296a9190613b67565b9091555061299f9050565b600080828154811061298957612989613968565b9060005260206000209060090201600401819055505b600180546040805160a08101825233600090815260046020529190912080549293928291906129cd9061392e565b80601f01602080910402602001604051908101604052809291908181526020018280546129f99061392e565b8015612a465780601f10612a1b57610100808354040283529160200191612a46565b820191906000526020600020905b815481529060010190602001808311612a2957829003601f168201915b5050509183525050604080518082018252600d81526c1cda185c9959081dd85b1b195d609a1b6020828101919091528084019190915234828401528151808301909252601c82527f46756e647320616464656420746f207368617265642077616c6c657400000000828201526060830191909152426080909201919091528254600181018455600093845292208151919260050201908190612ae89082613a23565b5060208201516001820190612afd9082613a23565b506040820151600282015560608201516003820190612b1c9082613a23565b5060808201518160040155505060008281548110612b3c57612b3c613968565b60009182526020808320600860099093020191909101805460018101825590835281832001839055338252600490526040908190209051612b7d9190613c00565b6040518091039020837f15b3997472c689f4d1336348cbf0980da653dddde6a52fa7e787650c4f3ec7c934604051612bb791815260200190565b60405180910390a3505050565b60028181548110612bd457600080fd5b6000918252602090912060039091020180546001820180546001600160a01b03909216935090612c039061392e565b80601f0160208091040260200160405190810160405280929190818152602001828054612c2f9061392e565b8015612c7c5780601f10612c5157610100808354040283529160200191612c7c565b820191906000526020600020905b815481529060010190602001808311612c5f57829003601f168201915b505050505090806002018054612c919061392e565b80601f0160208091040260200160405190810160405280929190818152602001828054612cbd9061392e565b8015612d0a5780601f10612cdf57610100808354040283529160200191612d0a565b820191906000526020600020905b815481529060010190602001808311612ced57829003601f168201915b5050505050905083565b3360009081526007602052604090205460ff1615612d745760405162461bcd60e51b815260206004820152601760248201527f6368617269747920616c72656164792063726561746564000000000000000000604482015260640161065a565b60408051606081018252338152602081018481529181018390526002805460018101825560009190915281517f405787fa12a823e0f2b7631cc41b3ba8828b3321ca811111fa75cd3aa3bb5ace600390920291820180546001600160a01b0319166001600160a01b0390921691909117815592519192839290917f405787fa12a823e0f2b7631cc41b3ba8828b3321ca811111fa75cd3aa3bb5acf0190612e1b9082613a23565b5060408201516002820190612e309082613a23565b50503360008181526007602052604090819020805460ff19166001179055519091507fd98e142226aaa094e0d82c09885e86172e376383ae815a4b512a594ff762bb5690612e819086908690613c0c565b60405180910390a2505050565b6000805b600054811015612edf578260008281548110612eb057612eb0613968565b90600052602060002090600902016000015403612ecd5792915050565b80612ed781613b4e565b915050612e92565b5060405162461bcd60e51b815260206004820152601060248201526f15d85b1b195d081b9bdd08199bdd5b9960821b604482015260640161065a565b6000804442612f2b600143613b67565b60408051602081019490945283019190915240606082015260800160408051601f1981840301815291905280516020909101209050612f6c61232882613c31565b612f78906103e8613b7a565b90505b60008181526003602052604090205460ff1615612fbd57612328612fa0826001613b7a565b612faa9190613c31565b612fb6906103e8613b7a565b9050612f7b565b919050565b600080612fce84612e8e565b905060005b60008281548110612fe657612fe6613968565b90600052602060002090600902016007018054905081101561160e57836001600160a01b03166000838154811061301f5761301f613968565b9060005260206000209060090201600701828154811061304157613041613968565b6000918252602090912001546001600160a01b03160361306657600192505050611615565b8061307081613b4e565b915050612fd3565b60005b825481101561319757816001600160a01b03168382815481106130a0576130a0613968565b6000918252602090912001546001600160a01b0316036131855782546130c890600190613b67565b81101561314e57825483906130df90600190613b67565b815481106130ef576130ef613968565b9060005260206000200160009054906101000a90046001600160a01b031683828154811061311f5761311f613968565b9060005260206000200160006101000a8154816001600160a01b0302191690836001600160a01b031602179055505b8280548061315e5761315e613c45565b600082815260209020810160001990810180546001600160a01b0319169055019055505050565b8061318f81613b4e565b91505061307b565b5060405162461bcd60e51b815260206004820152601a60248201527f456c656d656e74206e6f7420666f756e6420696e206172726179000000000000604482015260640161065a565b6000805b6008548110156132485782805190602001206008828154811061320957613209613968565b906000526020600020016040516132209190613c00565b6040518091039020036132365750600192915050565b8061324081613b4e565b9150506131e4565b50600092915050565b8280548282559060005260206000209081019282156132a6579160200282015b828111156132a657825182546001600160a01b0319166001600160a01b03909116178255602090920191600190910190613271565b506132b29291506132f1565b5090565b8280548282559060005260206000209081019282156132a6579160200282015b828111156132a65782518255916020019190600101906132d6565b5b808211156132b257600081556001016132f2565b6001600160a01b038116811461331b57600080fd5b50565b60006020828403121561333057600080fd5b81356109ce81613306565b6000815180845260005b8181101561336157602081850181015186830182015201613345565b506000602082860101526020601f19601f83011685010191505092915050565b6020815260006109ce602083018461333b565b6000602082840312156133a657600080fd5b5035919050565b634e487b7160e01b600052604160045260246000fd5b600082601f8301126133d457600080fd5b813567ffffffffffffffff808211156133ef576133ef6133ad565b604051601f8301601f19908116603f01168101908282118183101715613417576134176133ad565b8160405283815286602085880101111561343057600080fd5b836020870160208301376000602085830101528094505050505092915050565b60008060006060848603121561346557600080fd5b8335925060208401359150604084013567ffffffffffffffff81111561348a57600080fd5b613496868287016133c3565b9150509250925092565b600081518084526020808501945080840160005b838110156134d95781516001600160a01b0316875295820195908201906001016134b4565b509495945050505050565b600081518084526020808501945080840160005b838110156134d9578151875295820195908201906001016134f8565b60006020808301818452808551808352604092508286019150828160051b87010184880160005b8381101561360a57603f1989840301855281516101208151855288820151818a87015261356a8287018261333b565b915050878201518886015260608083015161358f828801826001600160a01b03169052565b50506080828101519086015260a0808301519086015260c080830151868303828801526135bc83826134a0565b9250505060e080830151868303828801526135d783826134a0565b9250505061010080830151925085820381870152506135f681836134e4565b96890196945050509086019060010161353b565b509098975050505050505050565b60006020808301818452808551808352604092508286019150828160051b87010184880160005b8381101561360a57603f19898403018552815160a081518186526136658287018261333b565b915050888201518582038a87015261367d828261333b565b91505087820151888601526060808301518683038288015261369f838261333b565b608094850151979094019690965250509487019492509086019060010161363f565b6040815260006136d460408301856134a0565b6020838203818501528185518084528284019150828160051b85010183880160005b8381101561372457601f1987840301855261371283835161333b565b948601949250908501906001016136f6565b50909998505050505050505050565b6000806040838503121561374657600080fd5b82359150602083013561375881613306565b809150509250929050565b60006020808301818452808551808352604092508286019150828160051b87010184880160005b8381101561360a57888303603f19018552815180516001600160a01b03168452878101516060898601819052906137c38287018261333b565b915050878201519150848103888601526137dd818361333b565b96890196945050509086019060010161378a565b6000806040838503121561380457600080fd5b823567ffffffffffffffff8082111561381c57600080fd5b613828868387016133c3565b9350602085013591508082111561383e57600080fd5b5061384b858286016133c3565b9150509250929050565b60a08152600061386860a083018861333b565b828103602084015261387a818861333b565b90508560408401528281036060840152613894818661333b565b9150508260808301529695505050505050565b86815260c0602082015260006138c060c083018861333b565b6040830196909652506001600160a01b03939093166060840152608083019190915260a09091015292915050565b6001600160a01b03841681526060602082018190526000906139129083018561333b565b8281036040840152613924818561333b565b9695505050505050565b600181811c9082168061394257607f821691505b60208210810361396257634e487b7160e01b600052602260045260246000fd5b50919050565b634e487b7160e01b600052603260045260246000fd5b634e487b7160e01b600052601260045260246000fd5b634e487b7160e01b600052601160045260246000fd5b6000826139b9576139b961397e565b500490565b808202811582820484141761161557611615613994565b601f82111561253a57600081815260208120601f850160051c810160208610156139fc5750805b601f850160051c820191505b81811015613a1b57828155600101613a08565b505050505050565b815167ffffffffffffffff811115613a3d57613a3d6133ad565b613a5181613a4b845461392e565b846139d5565b602080601f831160018114613a865760008415613a6e5750858301515b600019600386901b1c1916600185901b178555613a1b565b600085815260208120601f198616915b82811015613ab557888601518255948401946001909101908401613a96565b5085821015613ad35787850151600019600388901b60f8161c191681555b5050505050600190811b01905550565b838152826020820152606060408201526000613b0260608301846134a0565b95945050505050565b60208082526023908201527f57616c6c6574207769746820676976656e20494420646f6573206e6f742065786040820152621a5cdd60ea1b606082015260800190565b600060018201613b6057613b60613994565b5060010190565b8181038181111561161557611615613994565b8082018082111561161557611615613994565b60008154613b9a8161392e565b60018281168015613bb25760018114613bc757613bf6565b60ff1984168752821515830287019450613bf6565b8560005260208060002060005b85811015613bed5781548a820152908401908201613bd4565b50505082870194505b5050505092915050565b60006109ce8284613b8d565b604081526000613c1f604083018561333b565b8281036020840152613b02818561333b565b600082613c4057613c4061397e565b500690565b634e487b7160e01b600052603160045260246000fdfea164736f6c6343000813000a",
  "linkReferences": {},
  "deployedLinkReferences": {}
}