{
  "_format": "hh-sol-artifact-1",
  "contractName": "Shared",
  "sourceName": "contracts/Shared.sol",
  "abi": [
    {
      "anonymous": false,
      "inputs": [
        {
          "indexed": true,
          "internalType": "address",
          "name": "walletId",
          "type": "address"
        },
        {
          "indexed": false,
          "internalType": "string",
          "name": "charityName",
          "type": "string"
        },
        {
          "indexed": false,
          "internalType": "string",
          "name": "description",
          "type": "string"
        }
      ],
      "name": "CharityCreated",
      "type": "event"
    },
    {
      "anonymous": false,
      "inputs": [
        {
          "indexed": true,
          "internalType": "uint256",
          "name": "walletId",
          "type": "uint256"
        },
        {
          "indexed": true,
          "internalType": "string",
          "name": "participant",
          "type": "string"
        },
        {
          "indexed": false,
          "internalType": "uint256",
          "name": "amount",
          "type": "uint256"
        }
      ],
      "name": "FundsAddedToSharedWallet",
      "type": "event"
    },
    {
      "anonymous": false,
      "inputs": [
        {
          "indexed": true,
          "internalType": "uint256",
          "name": "walletId",
          "type": "uint256"
        },
        {
          "indexed": true,
          "internalType": "string",
          "name": "participant",
          "type": "string"
        },
        {
          "indexed": false,
          "internalType": "uint256",
          "name": "amount",
          "type": "uint256"
        }
      ],
      "name": "FundsWithdrawnFromSharedWallet",
      "type": "event"
    },
    {
      "anonymous": false,
      "inputs": [
        {
          "indexed": true,
          "internalType": "uint256",
          "name": "walletId",
          "type": "uint256"
        },
        {
          "indexed": true,
          "internalType": "address",
          "name": "participant",
          "type": "address"
        }
      ],
      "name": "ParticipantAccepted",
      "type": "event"
    },
    {
      "anonymous": false,
      "inputs": [
        {
          "indexed": true,
          "internalType": "uint256",
          "name": "walletId",
          "type": "uint256"
        },
        {
          "indexed": true,
          "internalType": "address",
          "name": "participant",
          "type": "address"
        }
      ],
      "name": "ParticipantRejected",
      "type": "event"
    },
    {
      "anonymous": false,
      "inputs": [
        {
          "indexed": true,
          "internalType": "uint256",
          "name": "walletId",
          "type": "uint256"
        },
        {
          "indexed": true,
          "internalType": "address",
          "name": "participant",
          "type": "address"
        }
      ],
      "name": "ParticipantRemoved",
      "type": "event"
    },
    {
      "anonymous": false,
      "inputs": [
        {
          "indexed": true,
          "internalType": "uint256",
          "name": "walletId",
          "type": "uint256"
        },
        {
          "indexed": true,
          "internalType": "address",
          "name": "participant",
          "type": "address"
        }
      ],
      "name": "ParticipantRequest",
      "type": "event"
    },
    {
      "anonymous": false,
      "inputs": [
        {
          "indexed": true,
          "internalType": "uint256",
          "name": "walletId",
          "type": "uint256"
        },
        {
          "indexed": true,
          "internalType": "address",
          "name": "admin",
          "type": "address"
        },
        {
          "indexed": false,
          "internalType": "uint256",
          "name": "goalAmount",
          "type": "uint256"
        },
        {
          "indexed": false,
          "internalType": "uint256",
          "name": "borrowLimit",
          "type": "uint256"
        },
        {
          "indexed": false,
          "internalType": "address[]",
          "name": "participants",
          "type": "address[]"
        }
      ],
      "name": "SharedWalletCreated",
      "type": "event"
    },
    {
      "inputs": [
        {
          "internalType": "uint256",
          "name": "_walletId",
          "type": "uint256"
        },
        {
          "internalType": "address",
          "name": "_participant",
          "type": "address"
        }
      ],
      "name": "acceptParticipant",
      "outputs": [],
      "stateMutability": "nonpayable",
      "type": "function"
    },
    {
      "inputs": [
        {
          "internalType": "uint256",
          "name": "_walletId",
          "type": "uint256"
        }
      ],
      "name": "addFundsToSharedWallet",
      "outputs": [],
      "stateMutability": "payable",
      "type": "function"
    },
    {
      "inputs": [
        {
          "internalType": "uint256",
          "name": "",
          "type": "uint256"
        }
      ],
      "name": "allTransactions",
      "outputs": [
        {
          "internalType": "string",
          "name": "sender",
          "type": "string"
        },
        {
          "internalType": "string",
          "name": "receiver",
          "type": "string"
        },
        {
          "internalType": "uint256",
          "name": "amount",
          "type": "uint256"
        },
        {
          "internalType": "string",
          "name": "description",
          "type": "string"
        },
        {
          "internalType": "uint256",
          "name": "timestamp",
          "type": "uint256"
        }
      ],
      "stateMutability": "view",
      "type": "function"
    },
    {
      "inputs": [
        {
          "internalType": "uint256",
          "name": "",
          "type": "uint256"
        }
      ],
      "name": "charities",
      "outputs": [
        {
          "internalType": "address",
          "name": "walletId",
          "type": "address"
        },
        {
          "internalType": "string",
          "name": "charityName",
          "type": "string"
        },
        {
          "internalType": "string",
          "name": "description",
          "type": "string"
        }
      ],
      "stateMutability": "view",
      "type": "function"
    },
    {
      "inputs": [
        {
          "internalType": "uint256",
          "name": "",
          "type": "uint256"
        }
      ],
      "name": "charityId",
      "outputs": [
        {
          "internalType": "uint256",
          "name": "",
          "type": "uint256"
        }
      ],
      "stateMutability": "view",
      "type": "function"
    },
    {
      "inputs": [
        {
          "internalType": "string",
          "name": "_name",
          "type": "string"
        },
        {
          "internalType": "string",
          "name": "_description",
          "type": "string"
        }
      ],
      "name": "createOrgCharity",
      "outputs": [],
      "stateMutability": "nonpayable",
      "type": "function"
    },
    {
      "inputs": [
        {
          "internalType": "uint256",
          "name": "_goalAmount",
          "type": "uint256"
        },
        {
          "internalType": "uint256",
          "name": "_borrowLimit",
          "type": "uint256"
        },
        {
          "internalType": "string",
          "name": "_walname",
          "type": "string"
        }
      ],
      "name": "createSharedWallet",
      "outputs": [],
      "stateMutability": "nonpayable",
      "type": "function"
    },
    {
      "inputs": [
        {
          "internalType": "address payable",
          "name": "walletId",
          "type": "address"
        }
      ],
      "name": "donate",
      "outputs": [],
      "stateMutability": "payable",
      "type": "function"
    },
    {
      "inputs": [
        {
          "internalType": "uint256",
          "name": "",
          "type": "uint256"
        }
      ],
      "name": "existingUsernames",
      "outputs": [
        {
          "internalType": "string",
          "name": "",
          "type": "string"
        }
      ],
      "stateMutability": "view",
      "type": "function"
    },
    {
      "inputs": [],
      "name": "getAllCharities",
      "outputs": [
        {
          "components": [
            {
              "internalType": "address",
              "name": "walletId",
              "type": "address"
            },
            {
              "internalType": "string",
              "name": "charityName",
              "type": "string"
            },
            {
              "internalType": "string",
              "name": "description",
              "type": "string"
            }
          ],
          "internalType": "struct Shared.Charity[]",
          "name": "",
          "type": "tuple[]"
        }
      ],
      "stateMutability": "view",
      "type": "function"
    },
    {
      "inputs": [],
      "name": "getAllSharedWallets",
      "outputs": [
        {
          "components": [
            {
              "internalType": "uint256",
              "name": "walletId",
              "type": "uint256"
            },
            {
              "internalType": "string",
              "name": "walletName",
              "type": "string"
            },
            {
              "internalType": "uint256",
              "name": "walletBalance",
              "type": "uint256"
            },
            {
              "internalType": "address",
              "name": "admin",
              "type": "address"
            },
            {
              "internalType": "uint256",
              "name": "goalAmount",
              "type": "uint256"
            },
            {
              "internalType": "uint256",
              "name": "borrowLimit",
              "type": "uint256"
            },
            {
              "internalType": "address[]",
              "name": "participants",
              "type": "address[]"
            },
            {
              "internalType": "address[]",
              "name": "participantRequests",
              "type": "address[]"
            },
            {
              "internalType": "uint256[]",
              "name": "transactionIndices",
              "type": "uint256[]"
            }
          ],
          "internalType": "struct Shared.SharedWallet[]",
          "name": "",
          "type": "tuple[]"
        }
      ],
      "stateMutability": "view",
      "type": "function"
    },
    {
      "inputs": [
        {
          "internalType": "uint256",
          "name": "_walletId",
          "type": "uint256"
        }
      ],
      "name": "getBalance",
      "outputs": [
        {
          "internalType": "uint256",
          "name": "",
          "type": "uint256"
        }
      ],
      "stateMutability": "view",
      "type": "function"
    },
    {
      "inputs": [],
      "name": "getName",
      "outputs": [
        {
          "internalType": "string",
          "name": "",
          "type": "string"
        }
      ],
      "stateMutability": "view",
      "type": "function"
    },
    {
      "inputs": [
        {
          "internalType": "uint256",
          "name": "_walletId",
          "type": "uint256"
        }
      ],
      "name": "getNumberOfParticipants",
      "outputs": [
        {
          "internalType": "uint256",
          "name": "",
          "type": "uint256"
        }
      ],
      "stateMutability": "view",
      "type": "function"
    },
    {
      "inputs": [
        {
          "internalType": "uint256",
          "name": "_walletId",
          "type": "uint256"
        }
      ],
      "name": "getParticipantRequests",
      "outputs": [
        {
          "internalType": "address[]",
          "name": "",
          "type": "address[]"
        },
        {
          "internalType": "string[]",
          "name": "",
          "type": "string[]"
        }
      ],
      "stateMutability": "view",
      "type": "function"
    },
    {
      "inputs": [
        {
          "internalType": "uint256",
          "name": "_walletId",
          "type": "uint256"
        }
      ],
      "name": "getParticipantsWithAddresses",
      "outputs": [
        {
          "internalType": "address[]",
          "name": "",
          "type": "address[]"
        },
        {
          "internalType": "string[]",
          "name": "",
          "type": "string[]"
        }
      ],
      "stateMutability": "view",
      "type": "function"
    },
    {
      "inputs": [],
      "name": "getRequestedSharedWallets",
      "outputs": [
        {
          "components": [
            {
              "internalType": "uint256",
              "name": "walletId",
              "type": "uint256"
            },
            {
              "internalType": "string",
              "name": "walletName",
              "type": "string"
            },
            {
              "internalType": "uint256",
              "name": "walletBalance",
              "type": "uint256"
            },
            {
              "internalType": "address",
              "name": "admin",
              "type": "address"
            },
            {
              "internalType": "uint256",
              "name": "goalAmount",
              "type": "uint256"
            },
            {
              "internalType": "uint256",
              "name": "borrowLimit",
              "type": "uint256"
            },
            {
              "internalType": "address[]",
              "name": "participants",
              "type": "address[]"
            },
            {
              "internalType": "address[]",
              "name": "participantRequests",
              "type": "address[]"
            },
            {
              "internalType": "uint256[]",
              "name": "transactionIndices",
              "type": "uint256[]"
            }
          ],
          "internalType": "struct Shared.SharedWallet[]",
          "name": "",
          "type": "tuple[]"
        }
      ],
      "stateMutability": "view",
      "type": "function"
    },
    {
      "inputs": [],
      "name": "getSharedWalletsForUser",
      "outputs": [
        {
          "components": [
            {
              "internalType": "uint256",
              "name": "walletId",
              "type": "uint256"
            },
            {
              "internalType": "string",
              "name": "walletName",
              "type": "string"
            },
            {
              "internalType": "uint256",
              "name": "walletBalance",
              "type": "uint256"
            },
            {
              "internalType": "address",
              "name": "admin",
              "type": "address"
            },
            {
              "internalType": "uint256",
              "name": "goalAmount",
              "type": "uint256"
            },
            {
              "internalType": "uint256",
              "name": "borrowLimit",
              "type": "uint256"
            },
            {
              "internalType": "address[]",
              "name": "participants",
              "type": "address[]"
            },
            {
              "internalType": "address[]",
              "name": "participantRequests",
              "type": "address[]"
            },
            {
              "internalType": "uint256[]",
              "name": "transactionIndices",
              "type": "uint256[]"
            }
          ],
          "internalType": "struct Shared.SharedWallet[]",
          "name": "",
          "type": "tuple[]"
        }
      ],
      "stateMutability": "view",
      "type": "function"
    },
    {
      "inputs": [],
      "name": "getSharedWalletsNotForUser",
      "outputs": [
        {
          "components": [
            {
              "internalType": "uint256",
              "name": "walletId",
              "type": "uint256"
            },
            {
              "internalType": "string",
              "name": "walletName",
              "type": "string"
            },
            {
              "internalType": "uint256",
              "name": "walletBalance",
              "type": "uint256"
            },
            {
              "internalType": "address",
              "name": "admin",
              "type": "address"
            },
            {
              "internalType": "uint256",
              "name": "goalAmount",
              "type": "uint256"
            },
            {
              "internalType": "uint256",
              "name": "borrowLimit",
              "type": "uint256"
            },
            {
              "internalType": "address[]",
              "name": "participants",
              "type": "address[]"
            },
            {
              "internalType": "address[]",
              "name": "participantRequests",
              "type": "address[]"
            },
            {
              "internalType": "uint256[]",
              "name": "transactionIndices",
              "type": "uint256[]"
            }
          ],
          "internalType": "struct Shared.SharedWallet[]",
          "name": "",
          "type": "tuple[]"
        }
      ],
      "stateMutability": "view",
      "type": "function"
    },
    {
      "inputs": [],
      "name": "getUsername",
      "outputs": [
        {
          "internalType": "string",
          "name": "",
          "type": "string"
        }
      ],
      "stateMutability": "view",
      "type": "function"
    },
    {
      "inputs": [
        {
          "internalType": "uint256",
          "name": "_walletId",
          "type": "uint256"
        }
      ],
      "name": "getWalName",
      "outputs": [
        {
          "internalType": "string",
          "name": "",
          "type": "string"
        }
      ],
      "stateMutability": "view",
      "type": "function"
    },
    {
      "inputs": [
        {
          "internalType": "uint256",
          "name": "_walletId",
          "type": "uint256"
        }
      ],
      "name": "getWalletTransactions",
      "outputs": [
        {
          "components": [
            {
              "internalType": "string",
              "name": "sender",
              "type": "string"
            },
            {
              "internalType": "string",
              "name": "receiver",
              "type": "string"
            },
            {
              "internalType": "uint256",
              "name": "amount",
              "type": "uint256"
            },
            {
              "internalType": "string",
              "name": "description",
              "type": "string"
            },
            {
              "internalType": "uint256",
              "name": "timestamp",
              "type": "uint256"
            }
          ],
          "internalType": "struct Shared.Transaction[]",
          "name": "",
          "type": "tuple[]"
        }
      ],
      "stateMutability": "view",
      "type": "function"
    },
    {
      "inputs": [
        {
          "internalType": "address",
          "name": "",
          "type": "address"
        }
      ],
      "name": "hasCreatedCharity",
      "outputs": [
        {
          "internalType": "bool",
          "name": "",
          "type": "bool"
        }
      ],
      "stateMutability": "view",
      "type": "function"
    },
    {
      "inputs": [
        {
          "internalType": "uint256",
          "name": "_walletId",
          "type": "uint256"
        },
        {
          "internalType": "address",
          "name": "_participant",
          "type": "address"
        }
      ],
      "name": "isParticipant",
      "outputs": [
        {
          "internalType": "bool",
          "name": "",
          "type": "bool"
        }
      ],
      "stateMutability": "view",
      "type": "function"
    },
    {
      "inputs": [
        {
          "internalType": "string",
          "name": "_name",
          "type": "string"
        },
        {
          "internalType": "string",
          "name": "_username",
          "type": "string"
        }
      ],
      "name": "mapNameAndUsernameToWalletId",
      "outputs": [],
      "stateMutability": "nonpayable",
      "type": "function"
    },
    {
      "inputs": [
        {
          "internalType": "address",
          "name": "",
          "type": "address"
        }
      ],
      "name": "name",
      "outputs": [
        {
          "internalType": "string",
          "name": "",
          "type": "string"
        }
      ],
      "stateMutability": "view",
      "type": "function"
    },
    {
      "inputs": [
        {
          "internalType": "uint256",
          "name": "_walletId",
          "type": "uint256"
        },
        {
          "internalType": "address",
          "name": "_participant",
          "type": "address"
        }
      ],
      "name": "rejectParticipant",
      "outputs": [],
      "stateMutability": "nonpayable",
      "type": "function"
    },
    {
      "inputs": [
        {
          "internalType": "uint256",
          "name": "_walletId",
          "type": "uint256"
        },
        {
          "internalType": "address",
          "name": "_participant",
          "type": "address"
        }
      ],
      "name": "removeParticipant",
      "outputs": [],
      "stateMutability": "nonpayable",
      "type": "function"
    },
    {
      "inputs": [
        {
          "internalType": "uint256",
          "name": "_walletId",
          "type": "uint256"
        }
      ],
      "name": "requestToJoin",
      "outputs": [],
      "stateMutability": "nonpayable",
      "type": "function"
    },
    {
      "inputs": [
        {
          "internalType": "uint256",
          "name": "",
          "type": "uint256"
        }
      ],
      "name": "sharedWallets",
      "outputs": [
        {
          "internalType": "uint256",
          "name": "walletId",
          "type": "uint256"
        },
        {
          "internalType": "string",
          "name": "walletName",
          "type": "string"
        },
        {
          "internalType": "uint256",
          "name": "walletBalance",
          "type": "uint256"
        },
        {
          "internalType": "address",
          "name": "admin",
          "type": "address"
        },
        {
          "internalType": "uint256",
          "name": "goalAmount",
          "type": "uint256"
        },
        {
          "internalType": "uint256",
          "name": "borrowLimit",
          "type": "uint256"
        }
      ],
      "stateMutability": "view",
      "type": "function"
    },
    {
      "inputs": [
        {
          "internalType": "address",
          "name": "",
          "type": "address"
        }
      ],
      "name": "username",
      "outputs": [
        {
          "internalType": "string",
          "name": "",
          "type": "string"
        }
      ],
      "stateMutability": "view",
      "type": "function"
    },
    {
      "inputs": [
        {
          "internalType": "uint256",
          "name": "",
          "type": "uint256"
        }
      ],
      "name": "walletIdExists",
      "outputs": [
        {
          "internalType": "bool",
          "name": "",
          "type": "bool"
        }
      ],
      "stateMutability": "view",
      "type": "function"
    },
    {
      "inputs": [
        {
          "internalType": "uint256",
          "name": "_walletId",
          "type": "uint256"
        },
        {
          "internalType": "uint256",
          "name": "_amount",
          "type": "uint256"
        },
        {
          "internalType": "string",
          "name": "_description",
          "type": "string"
        }
      ],
      "name": "withdrawFundsFromSharedWallet",
      "outputs": [],
      "stateMutability": "nonpayable",
      "type": "function"
    }
  ],
  "bytecode": "0x608060405234801561001057600080fd5b50614708806100206000396000f3fe6080604052600436106101ed5760003560e01c8063840227671161010d578063bc003700116100a0578063dd385cf21161006f578063dd385cf2146105b4578063ec0106ac146105e1578063f85a933c14610613578063fb709d2e14610626578063fd57959f1461065557600080fd5b8063bc00370014610523578063c4434b8514610543578063cf4a1f9c14610563578063d7ff07141461058357600080fd5b8063b38d1dd0116100dc578063b38d1dd01461049c578063b5bbd279146104bc578063b5c48112146104de578063ba098266146104f357600080fd5b8063840227671461043257806389bf591114610452578063a774b79114610467578063ab1351e51461047c57600080fd5b8063423b8e8811610185578063681f3e6d11610154578063681f3e6d146103bd578063758d9b89146103d25780637943e51c146103f25780637a175f401461041257600080fd5b8063423b8e881461030257806348c7cc81146103425780635e39926e1461036f57806364ead1eb1461039d57600080fd5b80631ca125cf116101c15780631ca125cf146102725780631e0104391461029257806325c93ab1146102c05780633688299c146102e057600080fd5b8062362a95146101f257806301984892146102075780630610a7a21461023d57806317d7de7c1461025d575b600080fd5b610205610200366004613dbe565b610675565b005b34801561021357600080fd5b50610227610222366004613dbe565b61075e565b6040516102349190613e21565b60405180910390f35b34801561024957600080fd5b50610227610258366004613dbe565b6107f8565b34801561026957600080fd5b50610227610811565b34801561027e57600080fd5b5061022761028d366004613e34565b6108b2565b34801561029e57600080fd5b506102b26102ad366004613e34565b610976565b604051908152602001610234565b3480156102cc57600080fd5b506102056102db366004613ef0565b610a35565b3480156102ec57600080fd5b506102f5610cd8565b6040516102349190613fb4565b34801561030e57600080fd5b5061033261031d366004613e34565b60036020526000908152604090205460ff1681565b6040519015158152602001610234565b34801561034e57600080fd5b5061036261035d366004613e34565b610f3d565b60405161023491906140b8565b34801561037b57600080fd5b5061038f61038a366004613e34565b6112cc565b604051610234929190614161565b3480156103a957600080fd5b506102b26103b8366004613e34565b611531565b3480156103c957600080fd5b5061022761159a565b3480156103de57600080fd5b506103326103ed3660046141d3565b6115b8565b3480156103fe57600080fd5b5061022761040d366004613e34565b61167b565b34801561041e57600080fd5b5061020561042d3660046141d3565b6116a6565b34801561043e57600080fd5b5061020561044d366004613e34565b6117fa565b34801561045e57600080fd5b506102f5611955565b34801561047357600080fd5b506102f5611cb2565b34801561048857600080fd5b50610205610497366004613ef0565b611fec565b3480156104a857600080fd5b5061038f6104b7366004613e34565b61242c565b3480156104c857600080fd5b506104d1612684565b6040516102349190614203565b3480156104ea57600080fd5b506102f5612814565b3480156104ff57600080fd5b5061033261050e366004613dbe565b60076020526000908152604090205460ff1681565b34801561052f57600080fd5b5061020561053e3660046141d3565b612b68565b34801561054f57600080fd5b5061020561055e3660046141d3565b612cf7565b34801561056f57600080fd5b5061020561057e366004614291565b612e43565b34801561058f57600080fd5b506105a361059e366004613e34565b612f8a565b6040516102349594939291906142f5565b3480156105c057600080fd5b506102b26105cf366004613e34565b60066020526000908152604090205481565b3480156105ed57600080fd5b506106016105fc366004613e34565b613168565b60405161023496959493929190614347565b610205610621366004613e34565b613243565b34801561063257600080fd5b50610646610641366004613e34565b61360f565b6040516102349392919061438e565b34801561066157600080fd5b50610205610670366004614291565b61375f565b6001600160a01b0381166106c35760405162461bcd60e51b815260206004820152601060248201526f24b73b30b634b21030b2323932b9b99760811b60448201526064015b60405180910390fd5b6001600160a01b03811633036107255760405162461bcd60e51b815260206004820152602160248201527f43616e6e6f7420646f6e61746520746f20796f7572206f776e2077616c6c65746044820152601760f91b60648201526084016106ba565b6040516001600160a01b038216903480156108fc02916000818181858888f1935050505015801561075a573d6000803e3d6000fd5b5050565b60056020526000908152604090208054610777906143ce565b80601f01602080910402602001604051908101604052809291908181526020018280546107a3906143ce565b80156107f05780601f106107c5576101008083540402835291602001916107f0565b820191906000526020600020905b8154815290600101906020018083116107d357829003601f168201915b505050505081565b60046020526000908152604090208054610777906143ce565b33600090815260056020526040902080546060919061082f906143ce565b80601f016020809104026020016040519081016040528092919081815260200182805461085b906143ce565b80156108a85780601f1061087d576101008083540402835291602001916108a8565b820191906000526020600020905b81548152906001019060200180831161088b57829003601f168201915b5050505050905090565b606060006108bf836138d9565b9050600081815481106108d4576108d4614408565b906000526020600020906009020160010180546108f0906143ce565b80601f016020809104026020016040519081016040528092919081815260200182805461091c906143ce565b80156109695780601f1061093e57610100808354040283529160200191610969565b820191906000526020600020905b81548152906001019060200180831161094c57829003601f168201915b5050505050915050919050565b600080610982836138d9565b905061098e83336115b8565b6109f65760405162461bcd60e51b815260206004820152603360248201527f596f7520617265206e6f7420612070617274696370616e74206f6620746865206044820152721cdc1958da599a5959081dd85b1b195d081a59606a1b60648201526084016106ba565b670de0b6b3a764000060008281548110610a1257610a12614408565b906000526020600020906009020160020154610a2e919061444a565b9392505050565b60008311610a905760405162461bcd60e51b815260206004820152602260248201527f476f616c20616d6f756e74206d7573742062652067726561746572207468616e604482015261020360f41b60648201526084016106ba565b6000610a9a613966565b60408051600180825281830190925291925060009190602080830190803683370190505090503381600081518110610ad457610ad4614408565b6001600160a01b03909216602092830291909101820152604080516101208101825284815291820185905260009082018190523360608301529060808101610b2488670de0b6b3a764000061445e565b8152602001610b3b87670de0b6b3a764000061445e565b8152602080820185905260408051600080825281840183528285019190915281518181528084019092526060909301528154600181018355918052825160099092027f290decd9548b62a8d60345a988386fc84ba6bc95484008f6362f93160ef3e56381019283559083015192935083927f290decd9548b62a8d60345a988386fc84ba6bc95484008f6362f93160ef3e56490910190610bdb90826144c3565b506040820151600282015560608201516003820180546001600160a01b0319166001600160a01b039092169190911790556080820151600482015560a0820151600582015560c08201518051610c3b916006840191602090910190613c9c565b5060e08201518051610c57916007840191602090910190613c9c565b506101008201518051610c74916008840191602090910190613d01565b50505060008381526003602052604090819020805460ff1916600117905551339084907fbb22188d95efa8c4f325d45db9224a8e37daca69776a24623d5851833076f6ed90610cc8908a908a908890614583565b60405180910390a3505050505050565b60606000805480602002602001604051908101604052809291908181526020016000905b82821015610f3457838290600052602060002090600902016040518061012001604052908160008201548152602001600182018054610d3a906143ce565b80601f0160208091040260200160405190810160405280929190818152602001828054610d66906143ce565b8015610db35780601f10610d8857610100808354040283529160200191610db3565b820191906000526020600020905b815481529060010190602001808311610d9657829003601f168201915b50505050508152602001600282015481526020016003820160009054906101000a90046001600160a01b03166001600160a01b03166001600160a01b03168152602001600482015481526020016005820154815260200160068201805480602002602001604051908101604052809291908181526020018280548015610e6257602002820191906000526020600020905b81546001600160a01b03168152600190910190602001808311610e44575b5050505050815260200160078201805480602002602001604051908101604052809291908181526020018280548015610ec457602002820191906000526020600020905b81546001600160a01b03168152600190910190602001808311610ea6575b5050505050815260200160088201805480602002602001604051908101604052809291908181526020018280548015610f1c57602002820191906000526020600020905b815481526020019060010190808311610f08575b50505050508152505081526020019060010190610cfc565b50505050905090565b60008181526003602052604090205460609060ff16610f6e5760405162461bcd60e51b81526004016106ba906145ab565b6000610f79836138d9565b90506000808281548110610f8f57610f8f614408565b9060005260206000209060090201600801805480602002602001604051908101604052809291908181526020018280548015610fea57602002820191906000526020600020905b815481526020019060010190808311610fd6575b5050505050905060008151905060008167ffffffffffffffff81111561101257611012613e4d565b60405190808252806020026020018201604052801561107557816020015b6110626040518060a0016040528060608152602001606081526020016000815260200160608152602001600081525090565b8152602001906001900390816110305790505b50905060005b828110156112c257600184828151811061109757611097614408565b6020026020010151815481106110af576110af614408565b90600052602060002090600502016040518060a00160405290816000820180546110d8906143ce565b80601f0160208091040260200160405190810160405280929190818152602001828054611104906143ce565b80156111515780601f1061112657610100808354040283529160200191611151565b820191906000526020600020905b81548152906001019060200180831161113457829003601f168201915b5050505050815260200160018201805461116a906143ce565b80601f0160208091040260200160405190810160405280929190818152602001828054611196906143ce565b80156111e35780601f106111b8576101008083540402835291602001916111e3565b820191906000526020600020905b8154815290600101906020018083116111c657829003601f168201915b5050505050815260200160028201548152602001600382018054611206906143ce565b80601f0160208091040260200160405190810160405280929190818152602001828054611232906143ce565b801561127f5780601f106112545761010080835404028352916020019161127f565b820191906000526020600020905b81548152906001019060200180831161126257829003601f168201915b505050505081526020016004820154815250508282815181106112a4576112a4614408565b602002602001018190525080806112ba906145ee565b91505061107b565b5095945050505050565b600081815260036020526040902054606090819060ff166112ff5760405162461bcd60e51b81526004016106ba906145ab565b600061130a846138d9565b9050600080828154811061132057611320614408565b6000918252602082206006600990920201015491508167ffffffffffffffff81111561134e5761134e613e4d565b604051908082528060200260200182016040528015611377578160200160208202803683370190505b50905060008267ffffffffffffffff81111561139557611395613e4d565b6040519080825280602002602001820160405280156113c857816020015b60608152602001906001900390816113b35790505b50905060005b838110156115245760008086815481106113ea576113ea614408565b9060005260206000209060090201600601828154811061140c5761140c614408565b9060005260206000200160009054906101000a90046001600160a01b031690508084838151811061143f5761143f614408565b6001600160a01b0392831660209182029290920181019190915290821660009081526004909152604090208054611475906143ce565b80601f01602080910402602001604051908101604052809291908181526020018280546114a1906143ce565b80156114ee5780601f106114c3576101008083540402835291602001916114ee565b820191906000526020600020905b8154815290600101906020018083116114d157829003601f168201915b505050505083838151811061150557611505614408565b602002602001018190525050808061151c906145ee565b9150506113ce565b5090969095509350505050565b60008181526003602052604081205460ff1661155f5760405162461bcd60e51b81526004016106ba906145ab565b600061156a836138d9565b90506000818154811061157f5761157f614408565b60009182526020909120600660099092020101549392505050565b33600090815260046020526040902080546060919061082f906143ce565b6000806115c4846138d9565b905060005b600082815481106115dc576115dc614408565b90600052602060002090600902016006018054905081101561166e57836001600160a01b03166000838154811061161557611615614408565b9060005260206000209060090201600601828154811061163757611637614408565b6000918252602090912001546001600160a01b03160361165c57600192505050611675565b80611666816145ee565b9150506115c9565b5060009150505b92915050565b6008818154811061168b57600080fd5b906000526020600020016000915090508054610777906143ce565b600082815481106116b9576116b9614408565b60009182526020909120600990910201600301546001600160a01b0316331461172f5760405162461bcd60e51b815260206004820152602260248201527f4f6e6c792061646d696e2063616e2072656a656374207061727469636970616e604482015261747360f01b60648201526084016106ba565b6117398282613a0d565b6117855760405162461bcd60e51b815260206004820152601d60248201527f5061727469636970616e742072657175657374206e6f7420666f756e6400000060448201526064016106ba565b6000611790836138d9565b90506117bf600082815481106117a8576117a8614408565b906000526020600020906009020160070183613ac3565b6040516001600160a01b0383169084907f8903f797b9477780cd04a7e575d254f82d9ebb89d859f46f60604c575f2ba27e90600090a3505050565b60008181526003602052604090205460ff166118285760405162461bcd60e51b81526004016106ba906145ab565b61183281336115b8565b156118775760405162461bcd60e51b8152602060048201526015602482015274105b1c9958591e4818481c185c9d1a58da5c185b9d605a1b60448201526064016106ba565b6118818133613a0d565b156118ce5760405162461bcd60e51b815260206004820152601960248201527f5265717565737420616c7265616479207375626d69747465640000000000000060448201526064016106ba565b60006118d9826138d9565b9050600081815481106118ee576118ee614408565b6000918252602080832060076009909302019190910180546001810182559083529082200180546001600160a01b03191633908117909155604051909184917f0e1d9310fd77f81b5bf5dbde6ee0c770054dd4f36103e23a85db7ac00f73d4139190a35050565b60606000805b6000548110156119b8576119936000828154811061197b5761197b614408565b906000526020600020906009020160000154336115b8565b156119a657816119a2816145ee565b9250505b806119b0816145ee565b91505061195b565b5060008167ffffffffffffffff8111156119d4576119d4613e4d565b604051908082528060200260200182016040528015611a0d57816020015b6119fa613d3c565b8152602001906001900390816119f25790505b5090506000805b600054811015611ca957611a346000828154811061197b5761197b614408565b15611c975760008181548110611a4c57611a4c614408565b90600052602060002090600902016040518061012001604052908160008201548152602001600182018054611a80906143ce565b80601f0160208091040260200160405190810160405280929190818152602001828054611aac906143ce565b8015611af95780601f10611ace57610100808354040283529160200191611af9565b820191906000526020600020905b815481529060010190602001808311611adc57829003601f168201915b50505050508152602001600282015481526020016003820160009054906101000a90046001600160a01b03166001600160a01b03166001600160a01b03168152602001600482015481526020016005820154815260200160068201805480602002602001604051908101604052809291908181526020018280548015611ba857602002820191906000526020600020905b81546001600160a01b03168152600190910190602001808311611b8a575b5050505050815260200160078201805480602002602001604051908101604052809291908181526020018280548015611c0a57602002820191906000526020600020905b81546001600160a01b03168152600190910190602001808311611bec575b5050505050815260200160088201805480602002602001604051908101604052809291908181526020018280548015611c6257602002820191906000526020600020905b815481526020019060010190808311611c4e575b505050505081525050838381518110611c7d57611c7d614408565b60200260200101819052508180611c93906145ee565b9250505b80611ca1816145ee565b915050611a14565b50909392505050565b60606000805b600054811015611cfc57611cd86000828154811061197b5761197b614408565b611cea5781611ce6816145ee565b9250505b80611cf4816145ee565b915050611cb8565b5060008167ffffffffffffffff811115611d1857611d18613e4d565b604051908082528060200260200182016040528015611d5157816020015b611d3e613d3c565b815260200190600190039081611d365790505b5090506000805b600054811015611ca957611d786000828154811061197b5761197b614408565b611fda5760008181548110611d8f57611d8f614408565b90600052602060002090600902016040518061012001604052908160008201548152602001600182018054611dc3906143ce565b80601f0160208091040260200160405190810160405280929190818152602001828054611def906143ce565b8015611e3c5780601f10611e1157610100808354040283529160200191611e3c565b820191906000526020600020905b815481529060010190602001808311611e1f57829003601f168201915b50505050508152602001600282015481526020016003820160009054906101000a90046001600160a01b03166001600160a01b03166001600160a01b03168152602001600482015481526020016005820154815260200160068201805480602002602001604051908101604052809291908181526020018280548015611eeb57602002820191906000526020600020905b81546001600160a01b03168152600190910190602001808311611ecd575b5050505050815260200160078201805480602002602001604051908101604052809291908181526020018280548015611f4d57602002820191906000526020600020905b81546001600160a01b03168152600190910190602001808311611f2f575b5050505050815260200160088201805480602002602001604051908101604052809291908181526020018280548015611fa557602002820191906000526020600020905b815481526020019060010190808311611f91575b505050505081525050838381518110611fc057611fc0614408565b60200260200101819052508180611fd6906145ee565b9250505b80611fe4816145ee565b915050611d58565b6000611ff7846138d9565b60008581526003602052604090205490915060ff166120285760405162461bcd60e51b81526004016106ba906145ab565b61203284336115b8565b61208a5760405162461bcd60e51b8152602060048201526024808201527f4f6e6c79207061727469636970616e74732063616e2077697468647261772066604482015263756e647360e01b60648201526084016106ba565b600061209e84670de0b6b3a764000061445e565b9050600082815481106120b3576120b3614408565b9060005260206000209060090201600501548111156121275760405162461bcd60e51b815260206004820152602a60248201527f5769746864726177616c20616d6f756e7420657863656564732074686520626f6044820152691c9c9bddc81b1a5b5a5d60b21b60648201526084016106ba565b6000828154811061213a5761213a614408565b9060005260206000209060090201600201548111156121ab5760405162461bcd60e51b815260206004820152602760248201527f496e73756666696369656e742066756e647320696e2074686520736861726564604482015266081dd85b1b195d60ca1b60648201526084016106ba565b80600083815481106121bf576121bf614408565b906000526020600020906009020160020160008282546121df9190614607565b9250508190555080600083815481106121fa576121fa614408565b9060005260206000209060090201600401600082825461221a919061461a565b9091555050604051339082156108fc029083906000818181858888f1935050505015801561224c573d6000803e3d6000fd5b50600180546040805160e081018252600d60a082019081526c1cda185c9959081dd85b1b195d609a1b60c08301528152336000908152600460209081529290208054939493919283019161229f906143ce565b80601f01602080910402602001604051908101604052809291908181526020018280546122cb906143ce565b80156123185780601f106122ed57610100808354040283529160200191612318565b820191906000526020600020905b8154815290600101906020018083116122fb57829003601f168201915b505050918352505060208082018690526040820188905242606090920191909152825460018101845560009384529220815191926005020190819061235d90826144c3565b506020820151600182019061237290826144c3565b50604082015160028201556060820151600382019061239190826144c3565b50608082015181600401555050600083815481106123b1576123b1614408565b600091825260208083206008600990930201919091018054600181018255908352818320018390553382526004905260409081902090516123f291906146a0565b6040518091039020867f1da1e862b49d474681f4eaecdcb8e1ae3bb314cf38ac7b1726d8eb3e8618b31084604051610cc891815260200190565b600081815260036020526040902054606090819060ff1661245f5760405162461bcd60e51b81526004016106ba906145ab565b600061246a846138d9565b9050600080828154811061248057612480614408565b6000918252602082206007600990920201015491508167ffffffffffffffff8111156124ae576124ae613e4d565b6040519080825280602002602001820160405280156124d7578160200160208202803683370190505b50905060008267ffffffffffffffff8111156124f5576124f5613e4d565b60405190808252806020026020018201604052801561252857816020015b60608152602001906001900390816125135790505b50905060005b8381101561152457600080868154811061254a5761254a614408565b9060005260206000209060090201600701828154811061256c5761256c614408565b9060005260206000200160009054906101000a90046001600160a01b031690508084838151811061259f5761259f614408565b6001600160a01b03928316602091820292909201810191909152908216600090815260049091526040902080546125d5906143ce565b80601f0160208091040260200160405190810160405280929190818152602001828054612601906143ce565b801561264e5780601f106126235761010080835404028352916020019161264e565b820191906000526020600020905b81548152906001019060200180831161263157829003601f168201915b505050505083838151811061266557612665614408565b602002602001018190525050808061267c906145ee565b91505061252e565b60606002805480602002602001604051908101604052809291908181526020016000905b82821015610f3457600084815260209081902060408051606081019091526003850290910180546001600160a01b0316825260018101805492939192918401916126f1906143ce565b80601f016020809104026020016040519081016040528092919081815260200182805461271d906143ce565b801561276a5780601f1061273f5761010080835404028352916020019161276a565b820191906000526020600020905b81548152906001019060200180831161274d57829003601f168201915b50505050508152602001600282018054612783906143ce565b80601f01602080910402602001604051908101604052809291908181526020018280546127af906143ce565b80156127fc5780601f106127d1576101008083540402835291602001916127fc565b820191906000526020600020905b8154815290600101906020018083116127df57829003601f168201915b505050505081525050815260200190600101906126a8565b60606000805b600054811015612877576128526000828154811061283a5761283a614408565b90600052602060002090600902016000015433613a0d565b156128655781612861816145ee565b9250505b8061286f816145ee565b91505061281a565b5060008167ffffffffffffffff81111561289357612893613e4d565b6040519080825280602002602001820160405280156128cc57816020015b6128b9613d3c565b8152602001906001900390816128b15790505b5090506000805b600054811015611ca9576128f36000828154811061283a5761283a614408565b15612b56576000818154811061290b5761290b614408565b9060005260206000209060090201604051806101200160405290816000820154815260200160018201805461293f906143ce565b80601f016020809104026020016040519081016040528092919081815260200182805461296b906143ce565b80156129b85780601f1061298d576101008083540402835291602001916129b8565b820191906000526020600020905b81548152906001019060200180831161299b57829003601f168201915b50505050508152602001600282015481526020016003820160009054906101000a90046001600160a01b03166001600160a01b03166001600160a01b03168152602001600482015481526020016005820154815260200160068201805480602002602001604051908101604052809291908181526020018280548015612a6757602002820191906000526020600020905b81546001600160a01b03168152600190910190602001808311612a49575b5050505050815260200160078201805480602002602001604051908101604052809291908181526020018280548015612ac957602002820191906000526020600020905b81546001600160a01b03168152600190910190602001808311612aab575b5050505050815260200160088201805480602002602001604051908101604052809291908181526020018280548015612b2157602002820191906000526020600020905b815481526020019060010190808311612b0d575b505050505081525050838381518110612b3c57612b3c614408565b60200260200101819052508180612b52906145ee565b9250505b80612b60816145ee565b9150506128d3565b6000612b73836138d9565b905060008181548110612b8857612b88614408565b60009182526020909120600990910201600301546001600160a01b03163314612bfe5760405162461bcd60e51b815260206004820152602260248201527f4f6e6c792061646d696e2063616e20616363657074207061727469636970616e604482015261747360f01b60648201526084016106ba565b612c088383613a0d565b612c545760405162461bcd60e51b815260206004820152601d60248201527f5061727469636970616e742072657175657374206e6f7420666f756e6400000060448201526064016106ba565b60008181548110612c6757612c67614408565b6000918252602080832060099290920290910160060180546001810182559083529082200180546001600160a01b0319166001600160a01b0385161790558054612cbc9190839081106117a8576117a8614408565b6040516001600160a01b0383169084907f55db954dfe09b91087e0919cb7fb06e3642e0d393ed967f4192c27de59293c7290600090a3505050565b6000612d02836138d9565b905060008181548110612d1757612d17614408565b60009182526020909120600990910201600301546001600160a01b03163314612d8d5760405162461bcd60e51b815260206004820152602260248201527f4f6e6c792061646d696e2063616e2072656d6f7665207061727469636970616e604482015261747360f01b60648201526084016106ba565b612d9783836115b8565b612ddb5760405162461bcd60e51b815260206004820152601560248201527414185c9d1a58da5c185b9d081b9bdd08199bdd5b99605a1b60448201526064016106ba565b612e0860008281548110612df157612df1614408565b906000526020600020906009020160060183613ac3565b6040516001600160a01b0383169084907fcef8fac05afb87995942422eac900de6af11a555d80d075340af81db492119fe90600090a3505050565b3360009081526004602052604090208054612e5d906143ce565b159050612eac5760405162461bcd60e51b815260206004820152601960248201527f557365726e616d6520616c72656164792065786973747321210000000000000060448201526064016106ba565b612eb581613c2b565b15612f155760405162461bcd60e51b815260206004820152602a60248201527f557365726e616d6520697320616c72656164792074616b656e20627920616e6f6044820152697468657220757365722160b01b60648201526084016106ba565b336000908152600560205260409020612f2e83826144c3565b50336000908152600460205260409020612f4882826144c3565b50600880546001810182556000919091527ff3f7a9fe364faab93b216da50a3214154f22a0a2b415b23a84c8169e8b636ee301612f8582826144c3565b505050565b60018181548110612f9a57600080fd5b9060005260206000209060050201600091509050806000018054612fbd906143ce565b80601f0160208091040260200160405190810160405280929190818152602001828054612fe9906143ce565b80156130365780601f1061300b57610100808354040283529160200191613036565b820191906000526020600020905b81548152906001019060200180831161301957829003601f168201915b50505050509080600101805461304b906143ce565b80601f0160208091040260200160405190810160405280929190818152602001828054613077906143ce565b80156130c45780601f10613099576101008083540402835291602001916130c4565b820191906000526020600020905b8154815290600101906020018083116130a757829003601f168201915b5050505050908060020154908060030180546130df906143ce565b80601f016020809104026020016040519081016040528092919081815260200182805461310b906143ce565b80156131585780601f1061312d57610100808354040283529160200191613158565b820191906000526020600020905b81548152906001019060200180831161313b57829003601f168201915b5050505050908060040154905085565b6000818154811061317857600080fd5b6000918252602090912060099091020180546001820180549193509061319d906143ce565b80601f01602080910402602001604051908101604052809291908181526020018280546131c9906143ce565b80156132165780601f106131eb57610100808354040283529160200191613216565b820191906000526020600020905b8154815290600101906020018083116131f957829003601f168201915b50505050600283015460038401546004850154600590950154939491936001600160a01b03909116925086565b600061324e826138d9565b60008381526003602052604090205490915060ff1661327f5760405162461bcd60e51b81526004016106ba906145ab565b61328982336115b8565b6132d55760405162461bcd60e51b815260206004820152601f60248201527f4f6e6c79207061727469636970616e74732063616e206164642066756e64730060448201526064016106ba565b6000341161331a5760405162461bcd60e51b8152602060048201526012602482015271496e73756666696369656e742066756e647360701b60448201526064016106ba565b346000828154811061332e5761332e614408565b9060005260206000209060090201600201600082825461334e919061461a565b92505081905550346000828154811061336957613369614408565b90600052602060002090600902016004015411156133c057346000828154811061339557613395614408565b906000526020600020906009020160040160008282546133b59190614607565b909155506133ea9050565b60008082815481106133d4576133d4614408565b9060005260206000209060090201600401819055505b600180546040805160a0810182523360009081526004602052919091208054929392829190613418906143ce565b80601f0160208091040260200160405190810160405280929190818152602001828054613444906143ce565b80156134915780601f1061346657610100808354040283529160200191613491565b820191906000526020600020905b81548152906001019060200180831161347457829003601f168201915b5050509183525050604080518082018252600d81526c1cda185c9959081dd85b1b195d609a1b6020828101919091528084019190915234828401528151808301909252601c82527f46756e647320616464656420746f207368617265642077616c6c65740000000082820152606083019190915242608090920191909152825460018101845560009384529220815191926005020190819061353390826144c3565b506020820151600182019061354890826144c3565b50604082015160028201556060820151600382019061356790826144c3565b506080820151816004015550506000828154811061358757613587614408565b600091825260208083206008600990930201919091018054600181018255908352818320018390553382526004905260409081902090516135c891906146a0565b6040518091039020837f15b3997472c689f4d1336348cbf0980da653dddde6a52fa7e787650c4f3ec7c93460405161360291815260200190565b60405180910390a3505050565b6002818154811061361f57600080fd5b6000918252602090912060039091020180546001820180546001600160a01b0390921693509061364e906143ce565b80601f016020809104026020016040519081016040528092919081815260200182805461367a906143ce565b80156136c75780601f1061369c576101008083540402835291602001916136c7565b820191906000526020600020905b8154815290600101906020018083116136aa57829003601f168201915b5050505050908060020180546136dc906143ce565b80601f0160208091040260200160405190810160405280929190818152602001828054613708906143ce565b80156137555780601f1061372a57610100808354040283529160200191613755565b820191906000526020600020905b81548152906001019060200180831161373857829003601f168201915b5050505050905083565b3360009081526007602052604090205460ff16156137bf5760405162461bcd60e51b815260206004820152601760248201527f6368617269747920616c7265616479206372656174656400000000000000000060448201526064016106ba565b60408051606081018252338152602081018481529181018390526002805460018101825560009190915281517f405787fa12a823e0f2b7631cc41b3ba8828b3321ca811111fa75cd3aa3bb5ace600390920291820180546001600160a01b0319166001600160a01b0390921691909117815592519192839290917f405787fa12a823e0f2b7631cc41b3ba8828b3321ca811111fa75cd3aa3bb5acf019061386690826144c3565b506040820151600282019061387b90826144c3565b50503360008181526007602052604090819020805460ff19166001179055519091507fd98e142226aaa094e0d82c09885e86172e376383ae815a4b512a594ff762bb56906138cc90869086906146ac565b60405180910390a2505050565b6000805b60005481101561392a5782600082815481106138fb576138fb614408565b906000526020600020906009020160000154036139185792915050565b80613922816145ee565b9150506138dd565b5060405162461bcd60e51b815260206004820152601060248201526f15d85b1b195d081b9bdd08199bdd5b9960821b60448201526064016106ba565b6000804442613976600143614607565b60408051602081019490945283019190915240606082015260800160408051601f19818403018152919052805160209091012090506139b7612328826146d1565b6139c3906103e861461a565b90505b60008181526003602052604090205460ff1615613a08576123286139eb82600161461a565b6139f591906146d1565b613a01906103e861461a565b90506139c6565b919050565b600080613a19846138d9565b905060005b60008281548110613a3157613a31614408565b90600052602060002090600902016007018054905081101561166e57836001600160a01b031660008381548110613a6a57613a6a614408565b90600052602060002090600902016007018281548110613a8c57613a8c614408565b6000918252602090912001546001600160a01b031603613ab157600192505050611675565b80613abb816145ee565b915050613a1e565b60005b8254811015613be257816001600160a01b0316838281548110613aeb57613aeb614408565b6000918252602090912001546001600160a01b031603613bd0578254613b1390600190614607565b811015613b995782548390613b2a90600190614607565b81548110613b3a57613b3a614408565b9060005260206000200160009054906101000a90046001600160a01b0316838281548110613b6a57613b6a614408565b9060005260206000200160006101000a8154816001600160a01b0302191690836001600160a01b031602179055505b82805480613ba957613ba96146e5565b600082815260209020810160001990810180546001600160a01b0319169055019055505050565b80613bda816145ee565b915050613ac6565b5060405162461bcd60e51b815260206004820152601a60248201527f456c656d656e74206e6f7420666f756e6420696e20617272617900000000000060448201526064016106ba565b6000805b600854811015613c9357828051906020012060088281548110613c5457613c54614408565b90600052602060002001604051613c6b91906146a0565b604051809103902003613c815750600192915050565b80613c8b816145ee565b915050613c2f565b50600092915050565b828054828255906000526020600020908101928215613cf1579160200282015b82811115613cf157825182546001600160a01b0319166001600160a01b03909116178255602090920191600190910190613cbc565b50613cfd929150613d91565b5090565b828054828255906000526020600020908101928215613cf1579160200282015b82811115613cf1578251825591602001919060010190613d21565b60405180610120016040528060008152602001606081526020016000815260200160006001600160a01b0316815260200160008152602001600081526020016060815260200160608152602001606081525090565b5b80821115613cfd5760008155600101613d92565b6001600160a01b0381168114613dbb57600080fd5b50565b600060208284031215613dd057600080fd5b8135610a2e81613da6565b6000815180845260005b81811015613e0157602081850181015186830182015201613de5565b506000602082860101526020601f19601f83011685010191505092915050565b602081526000610a2e6020830184613ddb565b600060208284031215613e4657600080fd5b5035919050565b634e487b7160e01b600052604160045260246000fd5b600082601f830112613e7457600080fd5b813567ffffffffffffffff80821115613e8f57613e8f613e4d565b604051601f8301601f19908116603f01168101908282118183101715613eb757613eb7613e4d565b81604052838152866020858801011115613ed057600080fd5b836020870160208301376000602085830101528094505050505092915050565b600080600060608486031215613f0557600080fd5b8335925060208401359150604084013567ffffffffffffffff811115613f2a57600080fd5b613f3686828701613e63565b9150509250925092565b600081518084526020808501945080840160005b83811015613f795781516001600160a01b031687529582019590820190600101613f54565b509495945050505050565b600081518084526020808501945080840160005b83811015613f7957815187529582019590820190600101613f98565b60006020808301818452808551808352604092508286019150828160051b87010184880160005b838110156140aa57603f1989840301855281516101208151855288820151818a87015261400a82870182613ddb565b915050878201518886015260608083015161402f828801826001600160a01b03169052565b50506080828101519086015260a0808301519086015260c0808301518683038288015261405c8382613f40565b9250505060e080830151868303828801526140778382613f40565b9250505061010080830151925085820381870152506140968183613f84565b968901969450505090860190600101613fdb565b509098975050505050505050565b60006020808301818452808551808352604092508286019150828160051b87010184880160005b838110156140aa57603f19898403018552815160a0815181865261410582870182613ddb565b915050888201518582038a87015261411d8282613ddb565b91505087820151888601526060808301518683038288015261413f8382613ddb565b60809485015197909401969096525050948701949250908601906001016140df565b6040815260006141746040830185613f40565b6020838203818501528185518084528284019150828160051b85010183880160005b838110156141c457601f198784030185526141b2838351613ddb565b94860194925090850190600101614196565b50909998505050505050505050565b600080604083850312156141e657600080fd5b8235915060208301356141f881613da6565b809150509250929050565b60006020808301818452808551808352604092508286019150828160051b87010184880160005b838110156140aa57888303603f19018552815180516001600160a01b031684528781015160608986018190529061426382870182613ddb565b9150508782015191508481038886015261427d8183613ddb565b96890196945050509086019060010161422a565b600080604083850312156142a457600080fd5b823567ffffffffffffffff808211156142bc57600080fd5b6142c886838701613e63565b935060208501359150808211156142de57600080fd5b506142eb85828601613e63565b9150509250929050565b60a08152600061430860a0830188613ddb565b828103602084015261431a8188613ddb565b905085604084015282810360608401526143348186613ddb565b9150508260808301529695505050505050565b86815260c06020820152600061436060c0830188613ddb565b6040830196909652506001600160a01b03939093166060840152608083019190915260a09091015292915050565b6001600160a01b03841681526060602082018190526000906143b290830185613ddb565b82810360408401526143c48185613ddb565b9695505050505050565b600181811c908216806143e257607f821691505b60208210810361440257634e487b7160e01b600052602260045260246000fd5b50919050565b634e487b7160e01b600052603260045260246000fd5b634e487b7160e01b600052601260045260246000fd5b634e487b7160e01b600052601160045260246000fd5b6000826144595761445961441e565b500490565b808202811582820484141761167557611675614434565b601f821115612f8557600081815260208120601f850160051c8101602086101561449c5750805b601f850160051c820191505b818110156144bb578281556001016144a8565b505050505050565b815167ffffffffffffffff8111156144dd576144dd613e4d565b6144f1816144eb84546143ce565b84614475565b602080601f831160018114614526576000841561450e5750858301515b600019600386901b1c1916600185901b1785556144bb565b600085815260208120601f198616915b8281101561455557888601518255948401946001909101908401614536565b50858210156145735787850151600019600388901b60f8161c191681555b5050505050600190811b01905550565b8381528260208201526060604082015260006145a26060830184613f40565b95945050505050565b60208082526023908201527f57616c6c6574207769746820676976656e20494420646f6573206e6f742065786040820152621a5cdd60ea1b606082015260800190565b60006001820161460057614600614434565b5060010190565b8181038181111561167557611675614434565b8082018082111561167557611675614434565b6000815461463a816143ce565b60018281168015614652576001811461466757614696565b60ff1984168752821515830287019450614696565b8560005260208060002060005b8581101561468d5781548a820152908401908201614674565b50505082870194505b5050505092915050565b6000610a2e828461462d565b6040815260006146bf6040830185613ddb565b82810360208401526145a28185613ddb565b6000826146e0576146e061441e565b500690565b634e487b7160e01b600052603160045260246000fdfea164736f6c6343000813000a",
  "linkReferences": {},
  "deployedLinkReferences": {}
}