{
  "_format": "hh-sol-artifact-1",
  "contractName": "Shared",
  "sourceName": "contracts/Shared.sol",
  "abi": [
    {
      "anonymous": false,
      "inputs": [
        {
          "indexed": true,
          "internalType": "address",
          "name": "walletId",
          "type": "address"
        },
        {
          "indexed": false,
          "internalType": "string",
          "name": "charityName",
          "type": "string"
        },
        {
          "indexed": false,
          "internalType": "string",
          "name": "description",
          "type": "string"
        }
      ],
      "name": "CharityCreated",
      "type": "event"
    },
    {
      "anonymous": false,
      "inputs": [
        {
          "indexed": true,
          "internalType": "uint256",
          "name": "walletId",
          "type": "uint256"
        },
        {
          "indexed": true,
          "internalType": "string",
          "name": "participant",
          "type": "string"
        },
        {
          "indexed": false,
          "internalType": "uint256",
          "name": "amount",
          "type": "uint256"
        }
      ],
      "name": "FundsAddedToSharedWallet",
      "type": "event"
    },
    {
      "anonymous": false,
      "inputs": [
        {
          "indexed": true,
          "internalType": "uint256",
          "name": "walletId",
          "type": "uint256"
        },
        {
          "indexed": true,
          "internalType": "string",
          "name": "participant",
          "type": "string"
        },
        {
          "indexed": false,
          "internalType": "uint256",
          "name": "amount",
          "type": "uint256"
        }
      ],
      "name": "FundsWithdrawnFromSharedWallet",
      "type": "event"
    },
    {
      "anonymous": false,
      "inputs": [
        {
          "indexed": true,
          "internalType": "uint256",
          "name": "walletId",
          "type": "uint256"
        },
        {
          "indexed": true,
          "internalType": "address",
          "name": "participant",
          "type": "address"
        }
      ],
      "name": "ParticipantAccepted",
      "type": "event"
    },
    {
      "anonymous": false,
      "inputs": [
        {
          "indexed": true,
          "internalType": "uint256",
          "name": "walletId",
          "type": "uint256"
        },
        {
          "indexed": true,
          "internalType": "address",
          "name": "participant",
          "type": "address"
        }
      ],
      "name": "ParticipantRejected",
      "type": "event"
    },
    {
      "anonymous": false,
      "inputs": [
        {
          "indexed": true,
          "internalType": "uint256",
          "name": "walletId",
          "type": "uint256"
        },
        {
          "indexed": true,
          "internalType": "address",
          "name": "participant",
          "type": "address"
        }
      ],
      "name": "ParticipantRemoved",
      "type": "event"
    },
    {
      "anonymous": false,
      "inputs": [
        {
          "indexed": true,
          "internalType": "uint256",
          "name": "walletId",
          "type": "uint256"
        },
        {
          "indexed": true,
          "internalType": "address",
          "name": "participant",
          "type": "address"
        }
      ],
      "name": "ParticipantRequest",
      "type": "event"
    },
    {
      "anonymous": false,
      "inputs": [
        {
          "indexed": true,
          "internalType": "uint256",
          "name": "walletId",
          "type": "uint256"
        },
        {
          "indexed": true,
          "internalType": "address",
          "name": "admin",
          "type": "address"
        },
        {
          "indexed": false,
          "internalType": "uint256",
          "name": "goalAmount",
          "type": "uint256"
        },
        {
          "indexed": false,
          "internalType": "uint256",
          "name": "borrowLimit",
          "type": "uint256"
        },
        {
          "indexed": false,
          "internalType": "address[]",
          "name": "participants",
          "type": "address[]"
        }
      ],
      "name": "SharedWalletCreated",
      "type": "event"
    },
    {
      "inputs": [
        {
          "internalType": "uint256",
          "name": "_walletId",
          "type": "uint256"
        },
        {
          "internalType": "address",
          "name": "_participant",
          "type": "address"
        }
      ],
      "name": "acceptParticipant",
      "outputs": [],
      "stateMutability": "nonpayable",
      "type": "function"
    },
    {
      "inputs": [
        {
          "internalType": "uint256",
          "name": "_walletId",
          "type": "uint256"
        }
      ],
      "name": "addFundsToSharedWallet",
      "outputs": [],
      "stateMutability": "payable",
      "type": "function"
    },
    {
      "inputs": [
        {
          "internalType": "uint256",
          "name": "",
          "type": "uint256"
        }
      ],
      "name": "allTransactions",
      "outputs": [
        {
          "internalType": "string",
          "name": "sender",
          "type": "string"
        },
        {
          "internalType": "string",
          "name": "receiver",
          "type": "string"
        },
        {
          "internalType": "uint256",
          "name": "amount",
          "type": "uint256"
        },
        {
          "internalType": "string",
          "name": "description",
          "type": "string"
        },
        {
          "internalType": "uint256",
          "name": "timestamp",
          "type": "uint256"
        }
      ],
      "stateMutability": "view",
      "type": "function"
    },
    {
      "inputs": [
        {
          "internalType": "uint256",
          "name": "",
          "type": "uint256"
        }
      ],
      "name": "charities",
      "outputs": [
        {
          "internalType": "address",
          "name": "walletId",
          "type": "address"
        },
        {
          "internalType": "string",
          "name": "charityName",
          "type": "string"
        },
        {
          "internalType": "string",
          "name": "description",
          "type": "string"
        }
      ],
      "stateMutability": "view",
      "type": "function"
    },
    {
      "inputs": [
        {
          "internalType": "uint256",
          "name": "",
          "type": "uint256"
        }
      ],
      "name": "charityId",
      "outputs": [
        {
          "internalType": "uint256",
          "name": "",
          "type": "uint256"
        }
      ],
      "stateMutability": "view",
      "type": "function"
    },
    {
      "inputs": [
        {
          "internalType": "string",
          "name": "_name",
          "type": "string"
        },
        {
          "internalType": "string",
          "name": "_description",
          "type": "string"
        }
      ],
      "name": "createOrgCharity",
      "outputs": [],
      "stateMutability": "nonpayable",
      "type": "function"
    },
    {
      "inputs": [
        {
          "internalType": "uint256",
          "name": "_goalAmount",
          "type": "uint256"
        },
        {
          "internalType": "uint256",
          "name": "_borrowLimit",
          "type": "uint256"
        },
        {
          "internalType": "string",
          "name": "_walname",
          "type": "string"
        }
      ],
      "name": "createSharedWallet",
      "outputs": [],
      "stateMutability": "nonpayable",
      "type": "function"
    },
    {
      "inputs": [
        {
          "internalType": "uint256",
          "name": "",
          "type": "uint256"
        }
      ],
      "name": "existingUsernames",
      "outputs": [
        {
          "internalType": "string",
          "name": "",
          "type": "string"
        }
      ],
      "stateMutability": "view",
      "type": "function"
    },
    {
      "inputs": [],
      "name": "getAllCharities",
      "outputs": [
        {
          "components": [
            {
              "internalType": "address",
              "name": "walletId",
              "type": "address"
            },
            {
              "internalType": "string",
              "name": "charityName",
              "type": "string"
            },
            {
              "internalType": "string",
              "name": "description",
              "type": "string"
            }
          ],
          "internalType": "struct Shared.Charity[]",
          "name": "",
          "type": "tuple[]"
        }
      ],
      "stateMutability": "view",
      "type": "function"
    },
    {
      "inputs": [],
      "name": "getAllSharedWallets",
      "outputs": [
        {
          "components": [
            {
              "internalType": "uint256",
              "name": "walletId",
              "type": "uint256"
            },
            {
              "internalType": "string",
              "name": "walletName",
              "type": "string"
            },
            {
              "internalType": "uint256",
              "name": "walletBalance",
              "type": "uint256"
            },
            {
              "internalType": "address",
              "name": "admin",
              "type": "address"
            },
            {
              "internalType": "uint256",
              "name": "goalAmount",
              "type": "uint256"
            },
            {
              "internalType": "uint256",
              "name": "borrowLimit",
              "type": "uint256"
            },
            {
              "internalType": "address[]",
              "name": "participants",
              "type": "address[]"
            },
            {
              "internalType": "address[]",
              "name": "participantRequests",
              "type": "address[]"
            },
            {
              "internalType": "uint256[]",
              "name": "transactionIndices",
              "type": "uint256[]"
            }
          ],
          "internalType": "struct Shared.SharedWallet[]",
          "name": "",
          "type": "tuple[]"
        }
      ],
      "stateMutability": "view",
      "type": "function"
    },
    {
      "inputs": [
        {
          "internalType": "uint256",
          "name": "_walletId",
          "type": "uint256"
        }
      ],
      "name": "getBalance",
      "outputs": [
        {
          "internalType": "uint256",
          "name": "",
          "type": "uint256"
        }
      ],
      "stateMutability": "view",
      "type": "function"
    },
    {
      "inputs": [],
      "name": "getName",
      "outputs": [
        {
          "internalType": "string",
          "name": "",
          "type": "string"
        }
      ],
      "stateMutability": "view",
      "type": "function"
    },
    {
      "inputs": [
        {
          "internalType": "uint256",
          "name": "_walletId",
          "type": "uint256"
        }
      ],
      "name": "getNumberOfParticipants",
      "outputs": [
        {
          "internalType": "uint256",
          "name": "",
          "type": "uint256"
        }
      ],
      "stateMutability": "view",
      "type": "function"
    },
    {
      "inputs": [],
      "name": "getUsername",
      "outputs": [
        {
          "internalType": "string",
          "name": "",
          "type": "string"
        }
      ],
      "stateMutability": "view",
      "type": "function"
    },
    {
      "inputs": [
        {
          "internalType": "uint256",
          "name": "_walletId",
          "type": "uint256"
        }
      ],
      "name": "getWalName",
      "outputs": [
        {
          "internalType": "string",
          "name": "",
          "type": "string"
        }
      ],
      "stateMutability": "view",
      "type": "function"
    },
    {
      "inputs": [
        {
          "internalType": "uint256",
          "name": "_walletId",
          "type": "uint256"
        }
      ],
      "name": "getWalletTransactions",
      "outputs": [
        {
          "components": [
            {
              "internalType": "string",
              "name": "sender",
              "type": "string"
            },
            {
              "internalType": "string",
              "name": "receiver",
              "type": "string"
            },
            {
              "internalType": "uint256",
              "name": "amount",
              "type": "uint256"
            },
            {
              "internalType": "string",
              "name": "description",
              "type": "string"
            },
            {
              "internalType": "uint256",
              "name": "timestamp",
              "type": "uint256"
            }
          ],
          "internalType": "struct Shared.Transaction[]",
          "name": "",
          "type": "tuple[]"
        }
      ],
      "stateMutability": "view",
      "type": "function"
    },
    {
      "inputs": [
        {
          "internalType": "address",
          "name": "",
          "type": "address"
        }
      ],
      "name": "hasCreatedCharity",
      "outputs": [
        {
          "internalType": "bool",
          "name": "",
          "type": "bool"
        }
      ],
      "stateMutability": "view",
      "type": "function"
    },
    {
      "inputs": [
        {
          "internalType": "uint256",
          "name": "_walletId",
          "type": "uint256"
        },
        {
          "internalType": "address",
          "name": "_participant",
          "type": "address"
        }
      ],
      "name": "isParticipant",
      "outputs": [
        {
          "internalType": "bool",
          "name": "",
          "type": "bool"
        }
      ],
      "stateMutability": "view",
      "type": "function"
    },
    {
      "inputs": [
        {
          "internalType": "address",
          "name": "",
          "type": "address"
        }
      ],
      "name": "name",
      "outputs": [
        {
          "internalType": "string",
          "name": "",
          "type": "string"
        }
      ],
      "stateMutability": "view",
      "type": "function"
    },
    {
      "inputs": [
        {
          "internalType": "uint256",
          "name": "_walletId",
          "type": "uint256"
        },
        {
          "internalType": "address",
          "name": "_participant",
          "type": "address"
        }
      ],
      "name": "rejectParticipant",
      "outputs": [],
      "stateMutability": "nonpayable",
      "type": "function"
    },
    {
      "inputs": [
        {
          "internalType": "uint256",
          "name": "_walletId",
          "type": "uint256"
        },
        {
          "internalType": "address",
          "name": "_participant",
          "type": "address"
        }
      ],
      "name": "removeParticipant",
      "outputs": [],
      "stateMutability": "nonpayable",
      "type": "function"
    },
    {
      "inputs": [
        {
          "internalType": "uint256",
          "name": "_walletId",
          "type": "uint256"
        }
      ],
      "name": "requestToJoin",
      "outputs": [],
      "stateMutability": "nonpayable",
      "type": "function"
    },
    {
      "inputs": [
        {
          "internalType": "string",
          "name": "_name",
          "type": "string"
        }
      ],
      "name": "setName",
      "outputs": [],
      "stateMutability": "nonpayable",
      "type": "function"
    },
    {
      "inputs": [
        {
          "internalType": "string",
          "name": "_username",
          "type": "string"
        }
      ],
      "name": "setUsername",
      "outputs": [],
      "stateMutability": "nonpayable",
      "type": "function"
    },
    {
      "inputs": [
        {
          "internalType": "uint256",
          "name": "",
          "type": "uint256"
        }
      ],
      "name": "sharedWallets",
      "outputs": [
        {
          "internalType": "uint256",
          "name": "walletId",
          "type": "uint256"
        },
        {
          "internalType": "string",
          "name": "walletName",
          "type": "string"
        },
        {
          "internalType": "uint256",
          "name": "walletBalance",
          "type": "uint256"
        },
        {
          "internalType": "address",
          "name": "admin",
          "type": "address"
        },
        {
          "internalType": "uint256",
          "name": "goalAmount",
          "type": "uint256"
        },
        {
          "internalType": "uint256",
          "name": "borrowLimit",
          "type": "uint256"
        }
      ],
      "stateMutability": "view",
      "type": "function"
    },
    {
      "inputs": [
        {
          "internalType": "address",
          "name": "",
          "type": "address"
        }
      ],
      "name": "username",
      "outputs": [
        {
          "internalType": "string",
          "name": "",
          "type": "string"
        }
      ],
      "stateMutability": "view",
      "type": "function"
    },
    {
      "inputs": [
        {
          "internalType": "uint256",
          "name": "",
          "type": "uint256"
        }
      ],
      "name": "walletIdExists",
      "outputs": [
        {
          "internalType": "bool",
          "name": "",
          "type": "bool"
        }
      ],
      "stateMutability": "view",
      "type": "function"
    },
    {
      "inputs": [
        {
          "internalType": "uint256",
          "name": "_walletId",
          "type": "uint256"
        },
        {
          "internalType": "uint256",
          "name": "_amount",
          "type": "uint256"
        },
        {
          "internalType": "string",
          "name": "_description",
          "type": "string"
        }
      ],
      "name": "withdrawFundsFromSharedWallet",
      "outputs": [],
      "stateMutability": "nonpayable",
      "type": "function"
    }
  ],
  "bytecode": "0x608060405234801561001057600080fd5b5061571e80620000216000396000f3fe6080604052600436106101b75760003560e01c806384022767116100ec578063d7ff07141161008a578063ed59313a11610064578063ed59313a146106a9578063f85a933c146106d2578063fb709d2e146106ee578063fd57959f1461072d576101b7565b8063d7ff0714146105e9578063dd385cf21461062a578063ec0106ac14610667576101b7565b8063ba098266116100c6578063ba09826614610531578063bc0037001461056e578063c4434b8514610597578063c47f0027146105c0576101b7565b806384022767146104b4578063ab1351e5146104dd578063b5bbd27914610506576101b7565b8063423b8e8811610159578063681f3e6d11610133578063681f3e6d146103e6578063758d9b89146104115780637943e51c1461044e5780637a175f401461048b576101b7565b8063423b8e881461032f57806348c7cc811461036c57806364ead1eb146103a9576101b7565b80631ca125cf116101955780631ca125cf146102615780631e0104391461029e57806325c93ab1146102db5780633688299c14610304576101b7565b806301984892146101bc5780630610a7a2146101f957806317d7de7c14610236575b600080fd5b3480156101c857600080fd5b506101e360048036038101906101de919061391e565b610756565b6040516101f091906139db565b60405180910390f35b34801561020557600080fd5b50610220600480360381019061021b919061391e565b6107f6565b60405161022d91906139db565b60405180910390f35b34801561024257600080fd5b5061024b610896565b60405161025891906139db565b60405180910390f35b34801561026d57600080fd5b5061028860048036038101906102839190613a33565b610965565b60405161029591906139db565b60405180910390f35b3480156102aa57600080fd5b506102c560048036038101906102c09190613a33565b610a2a565b6040516102d29190613a6f565b60405180910390f35b3480156102e757600080fd5b5061030260048036038101906102fd9190613bbf565b610ac2565b005b34801561031057600080fd5b50610319610e97565b6040516103269190613f90565b60405180910390f35b34801561033b57600080fd5b5061035660048036038101906103519190613a33565b61117b565b6040516103639190613fcd565b60405180910390f35b34801561037857600080fd5b50610393600480360381019061038e9190613a33565b61119b565b6040516103a0919061412e565b60405180910390f35b3480156103b557600080fd5b506103d060048036038101906103cb9190613a33565b611539565b6040516103dd9190613a6f565b60405180910390f35b3480156103f257600080fd5b506103fb6115d9565b60405161040891906139db565b60405180910390f35b34801561041d57600080fd5b5061043860048036038101906104339190614150565b6116a8565b6040516104459190613fcd565b60405180910390f35b34801561045a57600080fd5b5061047560048036038101906104709190613a33565b6117a8565b60405161048291906139db565b60405180910390f35b34801561049757600080fd5b506104b260048036038101906104ad9190614150565b611854565b005b3480156104c057600080fd5b506104db60048036038101906104d69190613a33565b6119d4565b005b3480156104e957600080fd5b5061050460048036038101906104ff9190613bbf565b611ba3565b005b34801561051257600080fd5b5061051b6120b6565b60405161052891906142a9565b60405180910390f35b34801561053d57600080fd5b506105586004803603810190610553919061391e565b61228f565b6040516105659190613fcd565b60405180910390f35b34801561057a57600080fd5b5061059560048036038101906105909190614150565b6122af565b005b3480156105a357600080fd5b506105be60048036038101906105b99190614150565b6124b5565b005b3480156105cc57600080fd5b506105e760048036038101906105e291906142cb565b612635565b005b3480156105f557600080fd5b50610610600480360381019061060b9190613a33565b612685565b604051610621959493929190614314565b60405180910390f35b34801561063657600080fd5b50610651600480360381019061064c9190613a33565b612863565b60405161065e9190613a6f565b60405180910390f35b34801561067357600080fd5b5061068e60048036038101906106899190613a33565b61287b565b6040516106a09695949392919061438b565b60405180910390f35b3480156106b557600080fd5b506106d060048036038101906106cb91906142cb565b61296f565b005b6106ec60048036038101906106e79190613a33565b612acb565b005b3480156106fa57600080fd5b5061071560048036038101906107109190613a33565b612f5b565b604051610724939291906143f3565b60405180910390f35b34801561073957600080fd5b50610754600480360381019061074f9190614438565b6130c5565b005b60056020528060005260406000206000915090508054610775906144df565b80601f01602080910402602001604051908101604052809291908181526020018280546107a1906144df565b80156107ee5780601f106107c3576101008083540402835291602001916107ee565b820191906000526020600020905b8154815290600101906020018083116107d157829003601f168201915b505050505081565b60046020528060005260406000206000915090508054610815906144df565b80601f0160208091040260200160405190810160405280929190818152602001828054610841906144df565b801561088e5780601f106108635761010080835404028352916020019161088e565b820191906000526020600020905b81548152906001019060200180831161087157829003601f168201915b505050505081565b6060600560003373ffffffffffffffffffffffffffffffffffffffff1673ffffffffffffffffffffffffffffffffffffffff16815260200190815260200160002080546108e2906144df565b80601f016020809104026020016040519081016040528092919081815260200182805461090e906144df565b801561095b5780601f106109305761010080835404028352916020019161095b565b820191906000526020600020905b81548152906001019060200180831161093e57829003601f168201915b5050505050905090565b60606000610972836132d5565b90506000818154811061098857610987614510565b5b906000526020600020906009020160010180546109a4906144df565b80601f01602080910402602001604051908101604052809291908181526020018280546109d0906144df565b8015610a1d5780601f106109f257610100808354040283529160200191610a1d565b820191906000526020600020905b815481529060010190602001808311610a0057829003601f168201915b5050505050915050919050565b600080610a36836132d5565b9050610a4283336116a8565b610a81576040517f08c379a0000000000000000000000000000000000000000000000000000000008152600401610a78906145b1565b60405180910390fd5b670de0b6b3a764000060008281548110610a9e57610a9d614510565b5b906000526020600020906009020160020154610aba919061462f565b915050919050565b60008311610b05576040517f08c379a0000000000000000000000000000000000000000000000000000000008152600401610afc906146d2565b60405180910390fd5b6000821015610b49576040517f08c379a0000000000000000000000000000000000000000000000000000000008152600401610b4090614764565b60405180910390fd5b6000610b53613373565b90506000600167ffffffffffffffff811115610b7257610b71613a94565b5b604051908082528060200260200182016040528015610ba05781602001602082028036833780820191505090505b5090503381600081518110610bb857610bb7614510565b5b602002602001019073ffffffffffffffffffffffffffffffffffffffff16908173ffffffffffffffffffffffffffffffffffffffff16815250506000604051806101200160405280848152602001858152602001600081526020013373ffffffffffffffffffffffffffffffffffffffff168152602001670de0b6b3a764000088610c439190614784565b8152602001670de0b6b3a764000087610c5c9190614784565b8152602001838152602001600067ffffffffffffffff811115610c8257610c81613a94565b5b604051908082528060200260200182016040528015610cb05781602001602082028036833780820191505090505b508152602001600067ffffffffffffffff811115610cd157610cd0613a94565b5b604051908082528060200260200182016040528015610cff5781602001602082028036833780820191505090505b5081525090506000819080600181540180825580915050600190039060005260206000209060090201600090919091909150600082015181600001556020820151816001019081610d509190614972565b506040820151816002015560608201518160030160006101000a81548173ffffffffffffffffffffffffffffffffffffffff021916908373ffffffffffffffffffffffffffffffffffffffff1602179055506080820151816004015560a0820151816005015560c0820151816006019080519060200190610dd2929190613789565b5060e0820151816007019080519060200190610def929190613789565b50610100820151816008019080519060200190610e0d929190613813565b50505060016003600085815260200190815260200160002060006101000a81548160ff0219169083151502179055503373ffffffffffffffffffffffffffffffffffffffff16837fbb22188d95efa8c4f325d45db9224a8e37daca69776a24623d5851833076f6ed888886604051610e8793929190614ab3565b60405180910390a3505050505050565b60606000805480602002602001604051908101604052809291908181526020016000905b8282101561117257838290600052602060002090600902016040518061012001604052908160008201548152602001600182018054610ef9906144df565b80601f0160208091040260200160405190810160405280929190818152602001828054610f25906144df565b8015610f725780601f10610f4757610100808354040283529160200191610f72565b820191906000526020600020905b815481529060010190602001808311610f5557829003601f168201915b50505050508152602001600282015481526020016003820160009054906101000a900473ffffffffffffffffffffffffffffffffffffffff1673ffffffffffffffffffffffffffffffffffffffff1673ffffffffffffffffffffffffffffffffffffffff16815260200160048201548152602001600582015481526020016006820180548060200260200160405190810160405280929190818152602001828054801561107457602002820191906000526020600020905b8160009054906101000a900473ffffffffffffffffffffffffffffffffffffffff1673ffffffffffffffffffffffffffffffffffffffff168152602001906001019080831161102a575b505050505081526020016007820180548060200260200160405190810160405280929190818152602001828054801561110257602002820191906000526020600020905b8160009054906101000a900473ffffffffffffffffffffffffffffffffffffffff1673ffffffffffffffffffffffffffffffffffffffff16815260200190600101908083116110b8575b505050505081526020016008820180548060200260200160405190810160405280929190818152602001828054801561115a57602002820191906000526020600020905b815481526020019060010190808311611146575b50505050508152505081526020019060010190610ebb565b50505050905090565b60036020528060005260406000206000915054906101000a900460ff1681565b60606003600083815260200190815260200160002060009054906101000a900460ff166111fd576040517f08c379a00000000000000000000000000000000000000000000000000000000081526004016111f490614b63565b60405180910390fd5b6000611208836132d5565b9050600080828154811061121f5761121e614510565b5b906000526020600020906009020160080180548060200260200160405190810160405280929190818152602001828054801561127a57602002820191906000526020600020905b815481526020019060010190808311611266575b5050505050905060008151905060008167ffffffffffffffff8111156112a3576112a2613a94565b5b6040519080825280602002602001820160405280156112dc57816020015b6112c9613860565b8152602001906001900390816112c15790505b50905060005b8281101561152c5760018482815181106112ff576112fe614510565b5b60200260200101518154811061131857611317614510565b5b90600052602060002090600502016040518060a0016040529081600082018054611341906144df565b80601f016020809104026020016040519081016040528092919081815260200182805461136d906144df565b80156113ba5780601f1061138f576101008083540402835291602001916113ba565b820191906000526020600020905b81548152906001019060200180831161139d57829003601f168201915b505050505081526020016001820180546113d3906144df565b80601f01602080910402602001604051908101604052809291908181526020018280546113ff906144df565b801561144c5780601f106114215761010080835404028352916020019161144c565b820191906000526020600020905b81548152906001019060200180831161142f57829003601f168201915b505050505081526020016002820154815260200160038201805461146f906144df565b80601f016020809104026020016040519081016040528092919081815260200182805461149b906144df565b80156114e85780601f106114bd576101008083540402835291602001916114e8565b820191906000526020600020905b8154815290600101906020018083116114cb57829003601f168201915b5050505050815260200160048201548152505082828151811061150e5761150d614510565b5b6020026020010181905250808061152490614b83565b9150506112e2565b5080945050505050919050565b60006003600083815260200190815260200160002060009054906101000a900460ff1661159b576040517f08c379a000000000000000000000000000000000000000000000000000000000815260040161159290614b63565b60405180910390fd5b60006115a6836132d5565b9050600081815481106115bc576115bb614510565b5b906000526020600020906009020160060180549050915050919050565b6060600460003373ffffffffffffffffffffffffffffffffffffffff1673ffffffffffffffffffffffffffffffffffffffff1681526020019081526020016000208054611625906144df565b80601f0160208091040260200160405190810160405280929190818152602001828054611651906144df565b801561169e5780601f106116735761010080835404028352916020019161169e565b820191906000526020600020905b81548152906001019060200180831161168157829003601f168201915b5050505050905090565b6000806116b4846132d5565b905060005b600082815481106116cd576116cc614510565b5b90600052602060002090600902016006018054905081101561179b578373ffffffffffffffffffffffffffffffffffffffff166000838154811061171457611713614510565b5b9060005260206000209060090201600601828154811061173757611736614510565b5b9060005260206000200160009054906101000a900473ffffffffffffffffffffffffffffffffffffffff1673ffffffffffffffffffffffffffffffffffffffff1603611788576001925050506117a2565b808061179390614b83565b9150506116b9565b5060009150505b92915050565b600881815481106117b857600080fd5b9060005260206000200160009150905080546117d3906144df565b80601f01602080910402602001604051908101604052809291908181526020018280546117ff906144df565b801561184c5780601f106118215761010080835404028352916020019161184c565b820191906000526020600020905b81548152906001019060200180831161182f57829003601f168201915b505050505081565b6000828154811061186857611867614510565b5b906000526020600020906009020160030160009054906101000a900473ffffffffffffffffffffffffffffffffffffffff1673ffffffffffffffffffffffffffffffffffffffff163373ffffffffffffffffffffffffffffffffffffffff1614611907576040517f08c379a00000000000000000000000000000000000000000000000000000000081526004016118fe90614c3d565b60405180910390fd5b611911828261342c565b611950576040517f08c379a000000000000000000000000000000000000000000000000000000000815260040161194790614ca9565b60405180910390fd5b600061195b836132d5565b905061198b6000828154811061197457611973614510565b5b90600052602060002090600902016007018361352c565b8173ffffffffffffffffffffffffffffffffffffffff16837f8903f797b9477780cd04a7e575d254f82d9ebb89d859f46f60604c575f2ba27e60405160405180910390a3505050565b6003600082815260200190815260200160002060009054906101000a900460ff16611a34576040517f08c379a0000000000000000000000000000000000000000000000000000000008152600401611a2b90614b63565b60405180910390fd5b611a3e81336116a8565b15611a7e576040517f08c379a0000000000000000000000000000000000000000000000000000000008152600401611a7590614d15565b60405180910390fd5b611a88813361342c565b15611ac8576040517f08c379a0000000000000000000000000000000000000000000000000000000008152600401611abf90614d81565b60405180910390fd5b6000611ad3826132d5565b905060008181548110611ae957611ae8614510565b5b9060005260206000209060090201600701339080600181540180825580915050600190039060005260206000200160009091909190916101000a81548173ffffffffffffffffffffffffffffffffffffffff021916908373ffffffffffffffffffffffffffffffffffffffff1602179055503373ffffffffffffffffffffffffffffffffffffffff16827f0e1d9310fd77f81b5bf5dbde6ee0c770054dd4f36103e23a85db7ac00f73d41360405160405180910390a35050565b6000611bae846132d5565b90506003600085815260200190815260200160002060009054906101000a900460ff16611c10576040517f08c379a0000000000000000000000000000000000000000000000000000000008152600401611c0790614b63565b60405180910390fd5b611c1a84336116a8565b611c59576040517f08c379a0000000000000000000000000000000000000000000000000000000008152600401611c5090614e13565b60405180910390fd5b60008181548110611c6d57611c6c614510565b5b906000526020600020906009020160050154670de0b6b3a764000084611c939190614784565b1115611cd4576040517f08c379a0000000000000000000000000000000000000000000000000000000008152600401611ccb90614ea5565b60405180910390fd5b60008181548110611ce857611ce7614510565b5b906000526020600020906009020160020154670de0b6b3a764000084611d0e9190614784565b1115611d4f576040517f08c379a0000000000000000000000000000000000000000000000000000000008152600401611d4690614f37565b60405180910390fd5b6000670de0b6b3a764000084611d659190614784565b90508060008381548110611d7c57611d7b614510565b5b90600052602060002090600902016002016000828254611d9c9190614f57565b925050819055508060008381548110611db857611db7614510565b5b90600052602060002090600902016004016000828254611dd89190614f8b565b925050819055503373ffffffffffffffffffffffffffffffffffffffff166108fc829081150290604051600060405180830381858888f19350505050158015611e25573d6000803e3d6000fd5b506000600180549050905060016040518060a001604052806040518060400160405280600d81526020017f7368617265642077616c6c6574000000000000000000000000000000000000008152508152602001600460003373ffffffffffffffffffffffffffffffffffffffff1673ffffffffffffffffffffffffffffffffffffffff1681526020019081526020016000208054611ec2906144df565b80601f0160208091040260200160405190810160405280929190818152602001828054611eee906144df565b8015611f3b5780601f10611f1057610100808354040283529160200191611f3b565b820191906000526020600020905b815481529060010190602001808311611f1e57829003601f168201915b505050505081526020018481526020018681526020014281525090806001815401808255809150506001900390600052602060002090600502016000909190919091506000820151816000019081611f939190614972565b506020820151816001019081611fa99190614972565b50604082015181600201556060820151816003019081611fc99190614972565b5060808201518160040155505060008381548110611fea57611fe9614510565b5b9060005260206000209060090201600801819080600181540180825580915050600190039060005260206000200160009091909190915055600460003373ffffffffffffffffffffffffffffffffffffffff1673ffffffffffffffffffffffffffffffffffffffff16815260200190815260200160002060405161206e919061504d565b6040518091039020867f1da1e862b49d474681f4eaecdcb8e1ae3bb314cf38ac7b1726d8eb3e8618b310846040516120a69190613a6f565b60405180910390a3505050505050565b60606002805480602002602001604051908101604052809291908181526020016000905b8282101561228657838290600052602060002090600302016040518060600160405290816000820160009054906101000a900473ffffffffffffffffffffffffffffffffffffffff1673ffffffffffffffffffffffffffffffffffffffff1673ffffffffffffffffffffffffffffffffffffffff168152602001600182018054612163906144df565b80601f016020809104026020016040519081016040528092919081815260200182805461218f906144df565b80156121dc5780601f106121b1576101008083540402835291602001916121dc565b820191906000526020600020905b8154815290600101906020018083116121bf57829003601f168201915b505050505081526020016002820180546121f5906144df565b80601f0160208091040260200160405190810160405280929190818152602001828054612221906144df565b801561226e5780601f106122435761010080835404028352916020019161226e565b820191906000526020600020905b81548152906001019060200180831161225157829003601f168201915b505050505081525050815260200190600101906120da565b50505050905090565b60076020528060005260406000206000915054906101000a900460ff1681565b60006122ba836132d5565b9050600081815481106122d0576122cf614510565b5b906000526020600020906009020160030160009054906101000a900473ffffffffffffffffffffffffffffffffffffffff1673ffffffffffffffffffffffffffffffffffffffff163373ffffffffffffffffffffffffffffffffffffffff161461236f576040517f08c379a0000000000000000000000000000000000000000000000000000000008152600401612366906150d6565b60405180910390fd5b612379838361342c565b6123b8576040517f08c379a00000000000000000000000000000000000000000000000000000000081526004016123af90614ca9565b60405180910390fd5b600081815481106123cc576123cb614510565b5b9060005260206000209060090201600601829080600181540180825580915050600190039060005260206000200160009091909190916101000a81548173ffffffffffffffffffffffffffffffffffffffff021916908373ffffffffffffffffffffffffffffffffffffffff16021790555061246c6000828154811061245557612454614510565b5b90600052602060002090600902016007018361352c565b8173ffffffffffffffffffffffffffffffffffffffff16837f55db954dfe09b91087e0919cb7fb06e3642e0d393ed967f4192c27de59293c7260405160405180910390a3505050565b60006124c0836132d5565b9050600081815481106124d6576124d5614510565b5b906000526020600020906009020160030160009054906101000a900473ffffffffffffffffffffffffffffffffffffffff1673ffffffffffffffffffffffffffffffffffffffff163373ffffffffffffffffffffffffffffffffffffffff1614612575576040517f08c379a000000000000000000000000000000000000000000000000000000000815260040161256c90615168565b60405180910390fd5b61257f83836116a8565b6125be576040517f08c379a00000000000000000000000000000000000000000000000000000000081526004016125b5906151d4565b60405180910390fd5b6125ec600082815481106125d5576125d4614510565b5b90600052602060002090600902016006018361352c565b8173ffffffffffffffffffffffffffffffffffffffff16837fcef8fac05afb87995942422eac900de6af11a555d80d075340af81db492119fe60405160405180910390a3505050565b80600560003373ffffffffffffffffffffffffffffffffffffffff1673ffffffffffffffffffffffffffffffffffffffff16815260200190815260200160002090816126819190614972565b5050565b6001818154811061269557600080fd5b90600052602060002090600502016000915090508060000180546126b8906144df565b80601f01602080910402602001604051908101604052809291908181526020018280546126e4906144df565b80156127315780601f1061270657610100808354040283529160200191612731565b820191906000526020600020905b81548152906001019060200180831161271457829003601f168201915b505050505090806001018054612746906144df565b80601f0160208091040260200160405190810160405280929190818152602001828054612772906144df565b80156127bf5780601f10612794576101008083540402835291602001916127bf565b820191906000526020600020905b8154815290600101906020018083116127a257829003601f168201915b5050505050908060020154908060030180546127da906144df565b80601f0160208091040260200160405190810160405280929190818152602001828054612806906144df565b80156128535780601f1061282857610100808354040283529160200191612853565b820191906000526020600020905b81548152906001019060200180831161283657829003601f168201915b5050505050908060040154905085565b60066020528060005260406000206000915090505481565b6000818154811061288b57600080fd5b90600052602060002090600902016000915090508060000154908060010180546128b4906144df565b80601f01602080910402602001604051908101604052809291908181526020018280546128e0906144df565b801561292d5780601f106129025761010080835404028352916020019161292d565b820191906000526020600020905b81548152906001019060200180831161291057829003601f168201915b5050505050908060020154908060030160009054906101000a900473ffffffffffffffffffffffffffffffffffffffff16908060040154908060050154905086565b6000600460003373ffffffffffffffffffffffffffffffffffffffff1673ffffffffffffffffffffffffffffffffffffffff16815260200190815260200160002080546129bb906144df565b9050146129fd576040517f08c379a00000000000000000000000000000000000000000000000000000000081526004016129f490615240565b60405180910390fd5b612a068161370c565b15612a46576040517f08c379a0000000000000000000000000000000000000000000000000000000008152600401612a3d906152d2565b60405180910390fd5b600881908060018154018082558091505060019003906000526020600020016000909190919091509081612a7a9190614972565b5080600460003373ffffffffffffffffffffffffffffffffffffffff1673ffffffffffffffffffffffffffffffffffffffff1681526020019081526020016000209081612ac79190614972565b5050565b6000612ad6826132d5565b90506003600083815260200190815260200160002060009054906101000a900460ff16612b38576040517f08c379a0000000000000000000000000000000000000000000000000000000008152600401612b2f90614b63565b60405180910390fd5b612b4282336116a8565b612b81576040517f08c379a0000000000000000000000000000000000000000000000000000000008152600401612b789061533e565b60405180910390fd5b60003411612bc4576040517f08c379a0000000000000000000000000000000000000000000000000000000008152600401612bbb906153aa565b60405180910390fd5b3460008281548110612bd957612bd8614510565b5b90600052602060002090600902016002016000828254612bf99190614f8b565b925050819055503460008281548110612c1557612c14614510565b5b9060005260206000209060090201600401541115612c6e573460008281548110612c4257612c41614510565b5b90600052602060002090600902016004016000828254612c629190614f57565b92505081905550612c99565b6000808281548110612c8357612c82614510565b5b9060005260206000209060090201600401819055505b6000600180549050905060016040518060a00160405280600460003373ffffffffffffffffffffffffffffffffffffffff1673ffffffffffffffffffffffffffffffffffffffff1681526020019081526020016000208054612cfa906144df565b80601f0160208091040260200160405190810160405280929190818152602001828054612d26906144df565b8015612d735780601f10612d4857610100808354040283529160200191612d73565b820191906000526020600020905b815481529060010190602001808311612d5657829003601f168201915b505050505081526020016040518060400160405280600d81526020017f7368617265642077616c6c65740000000000000000000000000000000000000081525081526020013481526020016040518060400160405280601c81526020017f46756e647320616464656420746f207368617265642077616c6c65740000000081525081526020014281525090806001815401808255809150506001900390600052602060002090600502016000909190919091506000820151816000019081612e3b9190614972565b506020820151816001019081612e519190614972565b50604082015181600201556060820151816003019081612e719190614972565b5060808201518160040155505060008281548110612e9257612e91614510565b5b9060005260206000209060090201600801819080600181540180825580915050600190039060005260206000200160009091909190915055600460003373ffffffffffffffffffffffffffffffffffffffff1673ffffffffffffffffffffffffffffffffffffffff168152602001908152602001600020604051612f16919061504d565b6040518091039020837f15b3997472c689f4d1336348cbf0980da653dddde6a52fa7e787650c4f3ec7c934604051612f4e9190613a6f565b60405180910390a3505050565b60028181548110612f6b57600080fd5b90600052602060002090600302016000915090508060000160009054906101000a900473ffffffffffffffffffffffffffffffffffffffff1690806001018054612fb4906144df565b80601f0160208091040260200160405190810160405280929190818152602001828054612fe0906144df565b801561302d5780601f106130025761010080835404028352916020019161302d565b820191906000526020600020905b81548152906001019060200180831161301057829003601f168201915b505050505090806002018054613042906144df565b80601f016020809104026020016040519081016040528092919081815260200182805461306e906144df565b80156130bb5780601f10613090576101008083540402835291602001916130bb565b820191906000526020600020905b81548152906001019060200180831161309e57829003601f168201915b5050505050905083565b600760003373ffffffffffffffffffffffffffffffffffffffff1673ffffffffffffffffffffffffffffffffffffffff16815260200190815260200160002060009054906101000a900460ff1615613152576040517f08c379a000000000000000000000000000000000000000000000000000000000815260040161314990615416565b60405180910390fd5b600060405180606001604052803373ffffffffffffffffffffffffffffffffffffffff168152602001848152602001838152509050600281908060018154018082558091505060019003906000526020600020906003020160009091909190915060008201518160000160006101000a81548173ffffffffffffffffffffffffffffffffffffffff021916908373ffffffffffffffffffffffffffffffffffffffff160217905550602082015181600101908161320f9190614972565b5060408201518160020190816132259190614972565b5050506001600760003373ffffffffffffffffffffffffffffffffffffffff1673ffffffffffffffffffffffffffffffffffffffff16815260200190815260200160002060006101000a81548160ff0219169083151502179055503373ffffffffffffffffffffffffffffffffffffffff167fd98e142226aaa094e0d82c09885e86172e376383ae815a4b512a594ff762bb5684846040516132c8929190615436565b60405180910390a2505050565b600080600090505b6000805490508110156133325782600082815481106132ff576132fe614510565b5b9060005260206000209060090201600001540361331f578091505061336e565b808061332a90614b83565b9150506132dd565b506040517f08c379a0000000000000000000000000000000000000000000000000000000008152600401613365906154b9565b60405180910390fd5b919050565b60008044426001436133859190614f57565b4060405160200161339893929190615525565b6040516020818303038152906040528051906020012060001c90506103e8612328826133c49190615562565b6133ce9190614f8b565b90505b6003600082815260200190815260200160002060009054906101000a900460ff1615613425576103e861232860018361340a9190614f8b565b6134149190615562565b61341e9190614f8b565b90506133d1565b8091505090565b600080613438846132d5565b905060005b6000828154811061345157613450614510565b5b90600052602060002090600902016007018054905081101561351f578373ffffffffffffffffffffffffffffffffffffffff166000838154811061349857613497614510565b5b906000526020600020906009020160070182815481106134bb576134ba614510565b5b9060005260206000200160009054906101000a900473ffffffffffffffffffffffffffffffffffffffff1673ffffffffffffffffffffffffffffffffffffffff160361350c57600192505050613526565b808061351790614b83565b91505061343d565b5060009150505b92915050565b60005b82805490508110156136cc578173ffffffffffffffffffffffffffffffffffffffff1683828154811061356557613564614510565b5b9060005260206000200160009054906101000a900473ffffffffffffffffffffffffffffffffffffffff1673ffffffffffffffffffffffffffffffffffffffff16036136b957600183805490506135bc9190614f57565b81101561366d5782600184805490506135d59190614f57565b815481106135e6576135e5614510565b5b9060005260206000200160009054906101000a900473ffffffffffffffffffffffffffffffffffffffff1683828154811061362457613623614510565b5b9060005260206000200160006101000a81548173ffffffffffffffffffffffffffffffffffffffff021916908373ffffffffffffffffffffffffffffffffffffffff1602179055505b8280548061367e5761367d615593565b5b6001900381819060005260206000200160006101000a81549073ffffffffffffffffffffffffffffffffffffffff0219169055905550613708565b80806136c490614b83565b91505061352f565b506040517f08c379a00000000000000000000000000000000000000000000000000000000081526004016136ff9061560e565b60405180910390fd5b5050565b600080600090505b60088054905081101561377e5782805190602001206008828154811061373d5761373c614510565b5b9060005260206000200160405161375491906156d1565b60405180910390200361376b576001915050613784565b808061377690614b83565b915050613714565b50600090505b919050565b828054828255906000526020600020908101928215613802579160200282015b828111156138015782518260006101000a81548173ffffffffffffffffffffffffffffffffffffffff021916908373ffffffffffffffffffffffffffffffffffffffff160217905550916020019190600101906137a9565b5b50905061380f919061388f565b5090565b82805482825590600052602060002090810192821561384f579160200282015b8281111561384e578251825591602001919060010190613833565b5b50905061385c919061388f565b5090565b6040518060a0016040528060608152602001606081526020016000815260200160608152602001600081525090565b5b808211156138a8576000816000905550600101613890565b5090565b6000604051905090565b600080fd5b600080fd5b600073ffffffffffffffffffffffffffffffffffffffff82169050919050565b60006138eb826138c0565b9050919050565b6138fb816138e0565b811461390657600080fd5b50565b600081359050613918816138f2565b92915050565b600060208284031215613934576139336138b6565b5b600061394284828501613909565b91505092915050565b600081519050919050565b600082825260208201905092915050565b60005b8381101561398557808201518184015260208101905061396a565b60008484015250505050565b6000601f19601f8301169050919050565b60006139ad8261394b565b6139b78185613956565b93506139c7818560208601613967565b6139d081613991565b840191505092915050565b600060208201905081810360008301526139f581846139a2565b905092915050565b6000819050919050565b613a10816139fd565b8114613a1b57600080fd5b50565b600081359050613a2d81613a07565b92915050565b600060208284031215613a4957613a486138b6565b5b6000613a5784828501613a1e565b91505092915050565b613a69816139fd565b82525050565b6000602082019050613a846000830184613a60565b92915050565b600080fd5b600080fd5b7f4e487b7100000000000000000000000000000000000000000000000000000000600052604160045260246000fd5b613acc82613991565b810181811067ffffffffffffffff82111715613aeb57613aea613a94565b5b80604052505050565b6000613afe6138ac565b9050613b0a8282613ac3565b919050565b600067ffffffffffffffff821115613b2a57613b29613a94565b5b613b3382613991565b9050602081019050919050565b82818337600083830152505050565b6000613b62613b5d84613b0f565b613af4565b905082815260208101848484011115613b7e57613b7d613a8f565b5b613b89848285613b40565b509392505050565b600082601f830112613ba657613ba5613a8a565b5b8135613bb6848260208601613b4f565b91505092915050565b600080600060608486031215613bd857613bd76138b6565b5b6000613be686828701613a1e565b9350506020613bf786828701613a1e565b925050604084013567ffffffffffffffff811115613c1857613c176138bb565b5b613c2486828701613b91565b9150509250925092565b600081519050919050565b600082825260208201905092915050565b6000819050602082019050919050565b613c63816139fd565b82525050565b600082825260208201905092915050565b6000613c858261394b565b613c8f8185613c69565b9350613c9f818560208601613967565b613ca881613991565b840191505092915050565b613cbc816138e0565b82525050565b600081519050919050565b600082825260208201905092915050565b6000819050602082019050919050565b6000613cfa8383613cb3565b60208301905092915050565b6000602082019050919050565b6000613d1e82613cc2565b613d288185613ccd565b9350613d3383613cde565b8060005b83811015613d64578151613d4b8882613cee565b9750613d5683613d06565b925050600181019050613d37565b5085935050505092915050565b600081519050919050565b600082825260208201905092915050565b6000819050602082019050919050565b6000613da98383613c5a565b60208301905092915050565b6000602082019050919050565b6000613dcd82613d71565b613dd78185613d7c565b9350613de283613d8d565b8060005b83811015613e13578151613dfa8882613d9d565b9750613e0583613db5565b925050600181019050613de6565b5085935050505092915050565b600061012083016000830151613e396000860182613c5a565b5060208301518482036020860152613e518282613c7a565b9150506040830151613e666040860182613c5a565b506060830151613e796060860182613cb3565b506080830151613e8c6080860182613c5a565b5060a0830151613e9f60a0860182613c5a565b5060c083015184820360c0860152613eb78282613d13565b91505060e083015184820360e0860152613ed18282613d13565b915050610100830151848203610100860152613eed8282613dc2565b9150508091505092915050565b6000613f068383613e20565b905092915050565b6000602082019050919050565b6000613f2682613c2e565b613f308185613c39565b935083602082028501613f4285613c4a565b8060005b85811015613f7e5784840389528151613f5f8582613efa565b9450613f6a83613f0e565b925060208a01995050600181019050613f46565b50829750879550505050505092915050565b60006020820190508181036000830152613faa8184613f1b565b905092915050565b60008115159050919050565b613fc781613fb2565b82525050565b6000602082019050613fe26000830184613fbe565b92915050565b600081519050919050565b600082825260208201905092915050565b6000819050602082019050919050565b600060a08301600083015184820360008601526140318282613c7a565b9150506020830151848203602086015261404b8282613c7a565b91505060408301516140606040860182613c5a565b50606083015184820360608601526140788282613c7a565b915050608083015161408d6080860182613c5a565b508091505092915050565b60006140a48383614014565b905092915050565b6000602082019050919050565b60006140c482613fe8565b6140ce8185613ff3565b9350836020820285016140e085614004565b8060005b8581101561411c57848403895281516140fd8582614098565b9450614108836140ac565b925060208a019950506001810190506140e4565b50829750879550505050505092915050565b6000602082019050818103600083015261414881846140b9565b905092915050565b60008060408385031215614167576141666138b6565b5b600061417585828601613a1e565b925050602061418685828601613909565b9150509250929050565b600081519050919050565b600082825260208201905092915050565b6000819050602082019050919050565b60006060830160008301516141d46000860182613cb3565b50602083015184820360208601526141ec8282613c7a565b915050604083015184820360408601526142068282613c7a565b9150508091505092915050565b600061421f83836141bc565b905092915050565b6000602082019050919050565b600061423f82614190565b614249818561419b565b93508360208202850161425b856141ac565b8060005b8581101561429757848403895281516142788582614213565b945061428383614227565b925060208a0199505060018101905061425f565b50829750879550505050505092915050565b600060208201905081810360008301526142c38184614234565b905092915050565b6000602082840312156142e1576142e06138b6565b5b600082013567ffffffffffffffff8111156142ff576142fe6138bb565b5b61430b84828501613b91565b91505092915050565b600060a082019050818103600083015261432e81886139a2565b9050818103602083015261434281876139a2565b90506143516040830186613a60565b818103606083015261436381856139a2565b90506143726080830184613a60565b9695505050505050565b614385816138e0565b82525050565b600060c0820190506143a06000830189613a60565b81810360208301526143b281886139a2565b90506143c16040830187613a60565b6143ce606083018661437c565b6143db6080830185613a60565b6143e860a0830184613a60565b979650505050505050565b6000606082019050614408600083018661437c565b818103602083015261441a81856139a2565b9050818103604083015261442e81846139a2565b9050949350505050565b6000806040838503121561444f5761444e6138b6565b5b600083013567ffffffffffffffff81111561446d5761446c6138bb565b5b61447985828601613b91565b925050602083013567ffffffffffffffff81111561449a576144996138bb565b5b6144a685828601613b91565b9150509250929050565b7f4e487b7100000000000000000000000000000000000000000000000000000000600052602260045260246000fd5b600060028204905060018216806144f757607f821691505b60208210810361450a576145096144b0565b5b50919050565b7f4e487b7100000000000000000000000000000000000000000000000000000000600052603260045260246000fd5b7f596f7520617265206e6f7420612070617274696370616e74206f66207468652060008201527f7370656369666965642077616c6c657420696400000000000000000000000000602082015250565b600061459b603383613956565b91506145a68261453f565b604082019050919050565b600060208201905081810360008301526145ca8161458e565b9050919050565b7f4e487b7100000000000000000000000000000000000000000000000000000000600052601260045260246000fd5b7f4e487b7100000000000000000000000000000000000000000000000000000000600052601160045260246000fd5b600061463a826139fd565b9150614645836139fd565b925082614655576146546145d1565b5b828204905092915050565b7f476f616c20616d6f756e74206d7573742062652067726561746572207468616e60008201527f2030000000000000000000000000000000000000000000000000000000000000602082015250565b60006146bc602283613956565b91506146c782614660565b604082019050919050565b600060208201905081810360008301526146eb816146af565b9050919050565b7f426f72726f77206c696d6974206d757374206265206e6f6e2d6e65676174697660008201527f6500000000000000000000000000000000000000000000000000000000000000602082015250565b600061474e602183613956565b9150614759826146f2565b604082019050919050565b6000602082019050818103600083015261477d81614741565b9050919050565b600061478f826139fd565b915061479a836139fd565b92508282026147a8816139fd565b915082820484148315176147bf576147be614600565b5b5092915050565b60008190508160005260206000209050919050565b60006020601f8301049050919050565b600082821b905092915050565b6000600883026148287fffffffffffffffffffffffffffffffffffffffffffffffffffffffffffffffff826147eb565b61483286836147eb565b95508019841693508086168417925050509392505050565b6000819050919050565b600061486f61486a614865846139fd565b61484a565b6139fd565b9050919050565b6000819050919050565b61488983614854565b61489d61489582614876565b8484546147f8565b825550505050565b600090565b6148b26148a5565b6148bd818484614880565b505050565b5b818110156148e1576148d66000826148aa565b6001810190506148c3565b5050565b601f821115614926576148f7816147c6565b614900846147db565b8101602085101561490f578190505b61492361491b856147db565b8301826148c2565b50505b505050565b600082821c905092915050565b60006149496000198460080261492b565b1980831691505092915050565b60006149628383614938565b9150826002028217905092915050565b61497b8261394b565b67ffffffffffffffff81111561499457614993613a94565b5b61499e82546144df565b6149a98282856148e5565b600060209050601f8311600181146149dc57600084156149ca578287015190505b6149d48582614956565b865550614a3c565b601f1984166149ea866147c6565b60005b82811015614a12578489015182556001820191506020850194506020810190506149ed565b86831015614a2f5784890151614a2b601f891682614938565b8355505b6001600288020188555050505b505050505050565b600082825260208201905092915050565b6000614a6082613cc2565b614a6a8185614a44565b9350614a7583613cde565b8060005b83811015614aa6578151614a8d8882613cee565b9750614a9883613d06565b925050600181019050614a79565b5085935050505092915050565b6000606082019050614ac86000830186613a60565b614ad56020830185613a60565b8181036040830152614ae78184614a55565b9050949350505050565b7f57616c6c6574207769746820676976656e20494420646f6573206e6f7420657860008201527f6973740000000000000000000000000000000000000000000000000000000000602082015250565b6000614b4d602383613956565b9150614b5882614af1565b604082019050919050565b60006020820190508181036000830152614b7c81614b40565b9050919050565b6000614b8e826139fd565b91507fffffffffffffffffffffffffffffffffffffffffffffffffffffffffffffffff8203614bc057614bbf614600565b5b600182019050919050565b7f4f6e6c792061646d696e2063616e2072656a656374207061727469636970616e60008201527f7473000000000000000000000000000000000000000000000000000000000000602082015250565b6000614c27602283613956565b9150614c3282614bcb565b604082019050919050565b60006020820190508181036000830152614c5681614c1a565b9050919050565b7f5061727469636970616e742072657175657374206e6f7420666f756e64000000600082015250565b6000614c93601d83613956565b9150614c9e82614c5d565b602082019050919050565b60006020820190508181036000830152614cc281614c86565b9050919050565b7f416c72656164792061207061727469636970616e740000000000000000000000600082015250565b6000614cff601583613956565b9150614d0a82614cc9565b602082019050919050565b60006020820190508181036000830152614d2e81614cf2565b9050919050565b7f5265717565737420616c7265616479207375626d697474656400000000000000600082015250565b6000614d6b601983613956565b9150614d7682614d35565b602082019050919050565b60006020820190508181036000830152614d9a81614d5e565b9050919050565b7f4f6e6c79207061727469636970616e74732063616e207769746864726177206660008201527f756e647300000000000000000000000000000000000000000000000000000000602082015250565b6000614dfd602483613956565b9150614e0882614da1565b604082019050919050565b60006020820190508181036000830152614e2c81614df0565b9050919050565b7f5769746864726177616c20616d6f756e7420657863656564732074686520626f60008201527f72726f77206c696d697400000000000000000000000000000000000000000000602082015250565b6000614e8f602a83613956565b9150614e9a82614e33565b604082019050919050565b60006020820190508181036000830152614ebe81614e82565b9050919050565b7f496e73756666696369656e742066756e647320696e207468652073686172656460008201527f2077616c6c657400000000000000000000000000000000000000000000000000602082015250565b6000614f21602783613956565b9150614f2c82614ec5565b604082019050919050565b60006020820190508181036000830152614f5081614f14565b9050919050565b6000614f62826139fd565b9150614f6d836139fd565b9250828203905081811115614f8557614f84614600565b5b92915050565b6000614f96826139fd565b9150614fa1836139fd565b9250828201905080821115614fb957614fb8614600565b5b92915050565b600081905092915050565b60008154614fd7816144df565b614fe18186614fbf565b94506001821660008114614ffc576001811461501157615044565b60ff1983168652811515820286019350615044565b61501a856147c6565b60005b8381101561503c5781548189015260018201915060208101905061501d565b838801955050505b50505092915050565b60006150598284614fca565b915081905092915050565b7f4f6e6c792061646d696e2063616e20616363657074207061727469636970616e60008201527f7473000000000000000000000000000000000000000000000000000000000000602082015250565b60006150c0602283613956565b91506150cb82615064565b604082019050919050565b600060208201905081810360008301526150ef816150b3565b9050919050565b7f4f6e6c792061646d696e2063616e2072656d6f7665207061727469636970616e60008201527f7473000000000000000000000000000000000000000000000000000000000000602082015250565b6000615152602283613956565b915061515d826150f6565b604082019050919050565b6000602082019050818103600083015261518181615145565b9050919050565b7f5061727469636970616e74206e6f7420666f756e640000000000000000000000600082015250565b60006151be601583613956565b91506151c982615188565b602082019050919050565b600060208201905081810360008301526151ed816151b1565b9050919050565b7f557365726e616d6520616c726561647920657869737473212100000000000000600082015250565b600061522a601983613956565b9150615235826151f4565b602082019050919050565b600060208201905081810360008301526152598161521d565b9050919050565b7f557365726e616d6520697320616c72656164792074616b656e20627920616e6f60008201527f7468657220757365722100000000000000000000000000000000000000000000602082015250565b60006152bc602a83613956565b91506152c782615260565b604082019050919050565b600060208201905081810360008301526152eb816152af565b9050919050565b7f4f6e6c79207061727469636970616e74732063616e206164642066756e647300600082015250565b6000615328601f83613956565b9150615333826152f2565b602082019050919050565b600060208201905081810360008301526153578161531b565b9050919050565b7f496e73756666696369656e742066756e64730000000000000000000000000000600082015250565b6000615394601283613956565b915061539f8261535e565b602082019050919050565b600060208201905081810360008301526153c381615387565b9050919050565b7f6368617269747920616c72656164792063726561746564000000000000000000600082015250565b6000615400601783613956565b915061540b826153ca565b602082019050919050565b6000602082019050818103600083015261542f816153f3565b9050919050565b6000604082019050818103600083015261545081856139a2565b9050818103602083015261546481846139a2565b90509392505050565b7f57616c6c6574206e6f7420666f756e6400000000000000000000000000000000600082015250565b60006154a3601083613956565b91506154ae8261546d565b602082019050919050565b600060208201905081810360008301526154d281615496565b9050919050565b6000819050919050565b6154f46154ef826139fd565b6154d9565b82525050565b6000819050919050565b6000819050919050565b61551f61551a826154fa565b615504565b82525050565b600061553182866154e3565b60208201915061554182856154e3565b602082019150615551828461550e565b602082019150819050949350505050565b600061556d826139fd565b9150615578836139fd565b925082615588576155876145d1565b5b828206905092915050565b7f4e487b7100000000000000000000000000000000000000000000000000000000600052603160045260246000fd5b7f456c656d656e74206e6f7420666f756e6420696e206172726179000000000000600082015250565b60006155f8601a83613956565b9150615603826155c2565b602082019050919050565b60006020820190508181036000830152615627816155eb565b9050919050565b600081905092915050565b60008190508160005260206000209050919050565b6000815461565b816144df565b615665818661562e565b945060018216600081146156805760018114615695576156c8565b60ff19831686528115158202860193506156c8565b61569e85615639565b60005b838110156156c0578154818901526001820191506020810190506156a1565b838801955050505b50505092915050565b60006156dd828461564e565b91508190509291505056fea264697066735822122022fe5b7542f42fd0f328f69faaf9217be4716e5c32b45dea5e0dec5677c3fef264736f6c63430008130033",
  "linkReferences": {},
  "deployedLinkReferences": {}
}