{
  "_format": "hh-sol-artifact-1",
  "contractName": "Shared",
  "sourceName": "contracts/Shared.sol",
  "abi": [
    {
      "anonymous": false,
      "inputs": [
        {
          "indexed": true,
          "internalType": "address",
          "name": "walletId",
          "type": "address"
        },
        {
          "indexed": false,
          "internalType": "string",
          "name": "charityName",
          "type": "string"
        },
        {
          "indexed": false,
          "internalType": "string",
          "name": "description",
          "type": "string"
        }
      ],
      "name": "CharityCreated",
      "type": "event"
    },
    {
      "anonymous": false,
      "inputs": [
        {
          "indexed": true,
          "internalType": "uint256",
          "name": "walletId",
          "type": "uint256"
        },
        {
          "indexed": true,
          "internalType": "string",
          "name": "participant",
          "type": "string"
        },
        {
          "indexed": false,
          "internalType": "uint256",
          "name": "amount",
          "type": "uint256"
        }
      ],
      "name": "FundsAddedToSharedWallet",
      "type": "event"
    },
    {
      "anonymous": false,
      "inputs": [
        {
          "indexed": true,
          "internalType": "uint256",
          "name": "walletId",
          "type": "uint256"
        },
        {
          "indexed": true,
          "internalType": "string",
          "name": "participant",
          "type": "string"
        },
        {
          "indexed": false,
          "internalType": "uint256",
          "name": "amount",
          "type": "uint256"
        }
      ],
      "name": "FundsWithdrawnFromSharedWallet",
      "type": "event"
    },
    {
      "anonymous": false,
      "inputs": [
        {
          "indexed": true,
          "internalType": "uint256",
          "name": "walletId",
          "type": "uint256"
        },
        {
          "indexed": true,
          "internalType": "address",
          "name": "participant",
          "type": "address"
        }
      ],
      "name": "ParticipantAccepted",
      "type": "event"
    },
    {
      "anonymous": false,
      "inputs": [
        {
          "indexed": true,
          "internalType": "uint256",
          "name": "walletId",
          "type": "uint256"
        },
        {
          "indexed": true,
          "internalType": "address",
          "name": "participant",
          "type": "address"
        }
      ],
      "name": "ParticipantRejected",
      "type": "event"
    },
    {
      "anonymous": false,
      "inputs": [
        {
          "indexed": true,
          "internalType": "uint256",
          "name": "walletId",
          "type": "uint256"
        },
        {
          "indexed": true,
          "internalType": "address",
          "name": "participant",
          "type": "address"
        }
      ],
      "name": "ParticipantRemoved",
      "type": "event"
    },
    {
      "anonymous": false,
      "inputs": [
        {
          "indexed": true,
          "internalType": "uint256",
          "name": "walletId",
          "type": "uint256"
        },
        {
          "indexed": true,
          "internalType": "address",
          "name": "participant",
          "type": "address"
        }
      ],
      "name": "ParticipantRequest",
      "type": "event"
    },
    {
      "anonymous": false,
      "inputs": [
        {
          "indexed": true,
          "internalType": "uint256",
          "name": "walletId",
          "type": "uint256"
        },
        {
          "indexed": true,
          "internalType": "address",
          "name": "admin",
          "type": "address"
        },
        {
          "indexed": false,
          "internalType": "uint256",
          "name": "goalAmount",
          "type": "uint256"
        },
        {
          "indexed": false,
          "internalType": "uint256",
          "name": "borrowLimit",
          "type": "uint256"
        },
        {
          "indexed": false,
          "internalType": "address[]",
          "name": "participants",
          "type": "address[]"
        }
      ],
      "name": "SharedWalletCreated",
      "type": "event"
    },
    {
      "inputs": [
        {
          "internalType": "uint256",
          "name": "_walletId",
          "type": "uint256"
        },
        {
          "internalType": "address",
          "name": "_participant",
          "type": "address"
        }
      ],
      "name": "acceptParticipant",
      "outputs": [],
      "stateMutability": "nonpayable",
      "type": "function"
    },
    {
      "inputs": [
        {
          "internalType": "uint256",
          "name": "_walletId",
          "type": "uint256"
        }
      ],
      "name": "addFundsToSharedWallet",
      "outputs": [],
      "stateMutability": "payable",
      "type": "function"
    },
    {
      "inputs": [
        {
          "internalType": "uint256",
          "name": "",
          "type": "uint256"
        }
      ],
      "name": "allTransactions",
      "outputs": [
        {
          "internalType": "string",
          "name": "sender",
          "type": "string"
        },
        {
          "internalType": "string",
          "name": "receiver",
          "type": "string"
        },
        {
          "internalType": "uint256",
          "name": "amount",
          "type": "uint256"
        },
        {
          "internalType": "string",
          "name": "description",
          "type": "string"
        },
        {
          "internalType": "uint256",
          "name": "timestamp",
          "type": "uint256"
        }
      ],
      "stateMutability": "view",
      "type": "function"
    },
    {
      "inputs": [
        {
          "internalType": "uint256",
          "name": "",
          "type": "uint256"
        }
      ],
      "name": "charities",
      "outputs": [
        {
          "internalType": "address",
          "name": "walletId",
          "type": "address"
        },
        {
          "internalType": "string",
          "name": "charityName",
          "type": "string"
        },
        {
          "internalType": "string",
          "name": "description",
          "type": "string"
        }
      ],
      "stateMutability": "view",
      "type": "function"
    },
    {
      "inputs": [
        {
          "internalType": "uint256",
          "name": "",
          "type": "uint256"
        }
      ],
      "name": "charityId",
      "outputs": [
        {
          "internalType": "uint256",
          "name": "",
          "type": "uint256"
        }
      ],
      "stateMutability": "view",
      "type": "function"
    },
    {
      "inputs": [
        {
          "internalType": "string",
          "name": "_name",
          "type": "string"
        },
        {
          "internalType": "string",
          "name": "_description",
          "type": "string"
        }
      ],
      "name": "createOrgCharity",
      "outputs": [],
      "stateMutability": "nonpayable",
      "type": "function"
    },
    {
      "inputs": [
        {
          "internalType": "uint256",
          "name": "_goalAmount",
          "type": "uint256"
        },
        {
          "internalType": "uint256",
          "name": "_borrowLimit",
          "type": "uint256"
        },
        {
          "internalType": "string",
          "name": "_walname",
          "type": "string"
        }
      ],
      "name": "createSharedWallet",
      "outputs": [],
      "stateMutability": "nonpayable",
      "type": "function"
    },
    {
      "inputs": [
        {
          "internalType": "uint256",
          "name": "",
          "type": "uint256"
        }
      ],
      "name": "existingUsernames",
      "outputs": [
        {
          "internalType": "string",
          "name": "",
          "type": "string"
        }
      ],
      "stateMutability": "view",
      "type": "function"
    },
    {
      "inputs": [],
      "name": "getAllCharities",
      "outputs": [
        {
          "components": [
            {
              "internalType": "address",
              "name": "walletId",
              "type": "address"
            },
            {
              "internalType": "string",
              "name": "charityName",
              "type": "string"
            },
            {
              "internalType": "string",
              "name": "description",
              "type": "string"
            }
          ],
          "internalType": "struct Shared.Charity[]",
          "name": "",
          "type": "tuple[]"
        }
      ],
      "stateMutability": "view",
      "type": "function"
    },
    {
      "inputs": [],
      "name": "getAllSharedWallets",
      "outputs": [
        {
          "components": [
            {
              "internalType": "uint256",
              "name": "walletId",
              "type": "uint256"
            },
            {
              "internalType": "string",
              "name": "walletName",
              "type": "string"
            },
            {
              "internalType": "uint256",
              "name": "walletBalance",
              "type": "uint256"
            },
            {
              "internalType": "address",
              "name": "admin",
              "type": "address"
            },
            {
              "internalType": "uint256",
              "name": "goalAmount",
              "type": "uint256"
            },
            {
              "internalType": "uint256",
              "name": "borrowLimit",
              "type": "uint256"
            },
            {
              "internalType": "address[]",
              "name": "participants",
              "type": "address[]"
            },
            {
              "internalType": "address[]",
              "name": "participantRequests",
              "type": "address[]"
            },
            {
              "internalType": "uint256[]",
              "name": "transactionIndices",
              "type": "uint256[]"
            }
          ],
          "internalType": "struct Shared.SharedWallet[]",
          "name": "",
          "type": "tuple[]"
        }
      ],
      "stateMutability": "view",
      "type": "function"
    },
    {
      "inputs": [
        {
          "internalType": "uint256",
          "name": "_walletId",
          "type": "uint256"
        }
      ],
      "name": "getBalance",
      "outputs": [
        {
          "internalType": "uint256",
          "name": "",
          "type": "uint256"
        }
      ],
      "stateMutability": "view",
      "type": "function"
    },
    {
      "inputs": [],
      "name": "getName",
      "outputs": [
        {
          "internalType": "string",
          "name": "",
          "type": "string"
        }
      ],
      "stateMutability": "view",
      "type": "function"
    },
    {
      "inputs": [
        {
          "internalType": "uint256",
          "name": "_walletId",
          "type": "uint256"
        }
      ],
      "name": "getNumberOfParticipants",
      "outputs": [
        {
          "internalType": "uint256",
          "name": "",
          "type": "uint256"
        }
      ],
      "stateMutability": "view",
      "type": "function"
    },
    {
      "inputs": [
        {
          "internalType": "uint256",
          "name": "_walletId",
          "type": "uint256"
        }
      ],
      "name": "getParticipantsWithAddresses",
      "outputs": [
        {
          "internalType": "address[]",
          "name": "",
          "type": "address[]"
        },
        {
          "internalType": "string[]",
          "name": "",
          "type": "string[]"
        }
      ],
      "stateMutability": "view",
      "type": "function"
    },
    {
      "inputs": [],
      "name": "getUsername",
      "outputs": [
        {
          "internalType": "string",
          "name": "",
          "type": "string"
        }
      ],
      "stateMutability": "view",
      "type": "function"
    },
    {
      "inputs": [
        {
          "internalType": "uint256",
          "name": "_walletId",
          "type": "uint256"
        }
      ],
      "name": "getWalName",
      "outputs": [
        {
          "internalType": "string",
          "name": "",
          "type": "string"
        }
      ],
      "stateMutability": "view",
      "type": "function"
    },
    {
      "inputs": [
        {
          "internalType": "uint256",
          "name": "_walletId",
          "type": "uint256"
        }
      ],
      "name": "getWalletTransactions",
      "outputs": [
        {
          "components": [
            {
              "internalType": "string",
              "name": "sender",
              "type": "string"
            },
            {
              "internalType": "string",
              "name": "receiver",
              "type": "string"
            },
            {
              "internalType": "uint256",
              "name": "amount",
              "type": "uint256"
            },
            {
              "internalType": "string",
              "name": "description",
              "type": "string"
            },
            {
              "internalType": "uint256",
              "name": "timestamp",
              "type": "uint256"
            }
          ],
          "internalType": "struct Shared.Transaction[]",
          "name": "",
          "type": "tuple[]"
        }
      ],
      "stateMutability": "view",
      "type": "function"
    },
    {
      "inputs": [
        {
          "internalType": "address",
          "name": "",
          "type": "address"
        }
      ],
      "name": "hasCreatedCharity",
      "outputs": [
        {
          "internalType": "bool",
          "name": "",
          "type": "bool"
        }
      ],
      "stateMutability": "view",
      "type": "function"
    },
    {
      "inputs": [
        {
          "internalType": "uint256",
          "name": "_walletId",
          "type": "uint256"
        },
        {
          "internalType": "address",
          "name": "_participant",
          "type": "address"
        }
      ],
      "name": "isParticipant",
      "outputs": [
        {
          "internalType": "bool",
          "name": "",
          "type": "bool"
        }
      ],
      "stateMutability": "view",
      "type": "function"
    },
    {
      "inputs": [
        {
          "internalType": "string",
          "name": "_name",
          "type": "string"
        },
        {
          "internalType": "string",
          "name": "_username",
          "type": "string"
        }
      ],
      "name": "mapNameAndUsernameToWalletId",
      "outputs": [],
      "stateMutability": "nonpayable",
      "type": "function"
    },
    {
      "inputs": [
        {
          "internalType": "address",
          "name": "",
          "type": "address"
        }
      ],
      "name": "name",
      "outputs": [
        {
          "internalType": "string",
          "name": "",
          "type": "string"
        }
      ],
      "stateMutability": "view",
      "type": "function"
    },
    {
      "inputs": [
        {
          "internalType": "uint256",
          "name": "_walletId",
          "type": "uint256"
        },
        {
          "internalType": "address",
          "name": "_participant",
          "type": "address"
        }
      ],
      "name": "rejectParticipant",
      "outputs": [],
      "stateMutability": "nonpayable",
      "type": "function"
    },
    {
      "inputs": [
        {
          "internalType": "uint256",
          "name": "_walletId",
          "type": "uint256"
        },
        {
          "internalType": "address",
          "name": "_participant",
          "type": "address"
        }
      ],
      "name": "removeParticipant",
      "outputs": [],
      "stateMutability": "nonpayable",
      "type": "function"
    },
    {
      "inputs": [
        {
          "internalType": "uint256",
          "name": "_walletId",
          "type": "uint256"
        }
      ],
      "name": "requestToJoin",
      "outputs": [],
      "stateMutability": "nonpayable",
      "type": "function"
    },
    {
      "inputs": [
        {
          "internalType": "uint256",
          "name": "",
          "type": "uint256"
        }
      ],
      "name": "sharedWallets",
      "outputs": [
        {
          "internalType": "uint256",
          "name": "walletId",
          "type": "uint256"
        },
        {
          "internalType": "string",
          "name": "walletName",
          "type": "string"
        },
        {
          "internalType": "uint256",
          "name": "walletBalance",
          "type": "uint256"
        },
        {
          "internalType": "address",
          "name": "admin",
          "type": "address"
        },
        {
          "internalType": "uint256",
          "name": "goalAmount",
          "type": "uint256"
        },
        {
          "internalType": "uint256",
          "name": "borrowLimit",
          "type": "uint256"
        }
      ],
      "stateMutability": "view",
      "type": "function"
    },
    {
      "inputs": [
        {
          "internalType": "address",
          "name": "",
          "type": "address"
        }
      ],
      "name": "username",
      "outputs": [
        {
          "internalType": "string",
          "name": "",
          "type": "string"
        }
      ],
      "stateMutability": "view",
      "type": "function"
    },
    {
      "inputs": [
        {
          "internalType": "uint256",
          "name": "",
          "type": "uint256"
        }
      ],
      "name": "walletIdExists",
      "outputs": [
        {
          "internalType": "bool",
          "name": "",
          "type": "bool"
        }
      ],
      "stateMutability": "view",
      "type": "function"
    },
    {
      "inputs": [
        {
          "internalType": "uint256",
          "name": "_walletId",
          "type": "uint256"
        },
        {
          "internalType": "uint256",
          "name": "_amount",
          "type": "uint256"
        },
        {
          "internalType": "string",
          "name": "_description",
          "type": "string"
        }
      ],
      "name": "withdrawFundsFromSharedWallet",
      "outputs": [],
      "stateMutability": "nonpayable",
      "type": "function"
    }
  ],
  "bytecode": "0x608060405234801561001057600080fd5b50615ae480620000216000396000f3fe6080604052600436106101b75760003560e01c80637a175f40116100ec578063cf4a1f9c1161008a578063ec0106ac11610064578063ec0106ac146106a5578063f85a933c146106e7578063fb709d2e14610703578063fd57959f14610742576101b7565b8063cf4a1f9c146105fe578063d7ff071414610627578063dd385cf214610668576101b7565b8063b5bbd279116100c6578063b5bbd27914610544578063ba0982661461056f578063bc003700146105ac578063c4434b85146105d5576101b7565b80637a175f40146104c957806384022767146104f2578063ab1351e51461051b576101b7565b8063423b8e881161015957806364ead1eb1161013357806364ead1eb146103e7578063681f3e6d14610424578063758d9b891461044f5780637943e51c1461048c576101b7565b8063423b8e881461032f57806348c7cc811461036c5780635e39926e146103a9576101b7565b80631ca125cf116101955780631ca125cf146102615780631e0104391461029e57806325c93ab1146102db5780633688299c14610304576101b7565b806301984892146101bc5780630610a7a2146101f957806317d7de7c14610236575b600080fd5b3480156101c857600080fd5b506101e360048036038101906101de9190613c34565b61076b565b6040516101f09190613cf1565b60405180910390f35b34801561020557600080fd5b50610220600480360381019061021b9190613c34565b61080b565b60405161022d9190613cf1565b60405180910390f35b34801561024257600080fd5b5061024b6108ab565b6040516102589190613cf1565b60405180910390f35b34801561026d57600080fd5b5061028860048036038101906102839190613d49565b61097a565b6040516102959190613cf1565b60405180910390f35b3480156102aa57600080fd5b506102c560048036038101906102c09190613d49565b610a3f565b6040516102d29190613d85565b60405180910390f35b3480156102e757600080fd5b5061030260048036038101906102fd9190613ed5565b610ad7565b005b34801561031057600080fd5b50610319610eac565b60405161032691906142a6565b60405180910390f35b34801561033b57600080fd5b5061035660048036038101906103519190613d49565b611190565b60405161036391906142e3565b60405180910390f35b34801561037857600080fd5b50610393600480360381019061038e9190613d49565b6111b0565b6040516103a09190614444565b60405180910390f35b3480156103b557600080fd5b506103d060048036038101906103cb9190613d49565b61154e565b6040516103de929190614597565b60405180910390f35b3480156103f357600080fd5b5061040e60048036038101906104099190613d49565b611851565b60405161041b9190613d85565b60405180910390f35b34801561043057600080fd5b506104396118f1565b6040516104469190613cf1565b60405180910390f35b34801561045b57600080fd5b50610476600480360381019061047191906145ce565b6119c0565b60405161048391906142e3565b60405180910390f35b34801561049857600080fd5b506104b360048036038101906104ae9190613d49565b611ac0565b6040516104c09190613cf1565b60405180910390f35b3480156104d557600080fd5b506104f060048036038101906104eb91906145ce565b611b6c565b005b3480156104fe57600080fd5b5061051960048036038101906105149190613d49565b611cec565b005b34801561052757600080fd5b50610542600480360381019061053d9190613ed5565b611ebb565b005b34801561055057600080fd5b506105596123ce565b6040516105669190614727565b60405180910390f35b34801561057b57600080fd5b5061059660048036038101906105919190613c34565b6125a7565b6040516105a391906142e3565b60405180910390f35b3480156105b857600080fd5b506105d360048036038101906105ce91906145ce565b6125c7565b005b3480156105e157600080fd5b506105fc60048036038101906105f791906145ce565b6127cd565b005b34801561060a57600080fd5b5061062560048036038101906106209190614749565b61294d565b005b34801561063357600080fd5b5061064e60048036038101906106499190613d49565b612af7565b60405161065f9594939291906147c1565b60405180910390f35b34801561067457600080fd5b5061068f600480360381019061068a9190613d49565b612cd5565b60405161069c9190613d85565b60405180910390f35b3480156106b157600080fd5b506106cc60048036038101906106c79190613d49565b612ced565b6040516106de96959493929190614838565b60405180910390f35b61070160048036038101906106fc9190613d49565b612de1565b005b34801561070f57600080fd5b5061072a60048036038101906107259190613d49565b613271565b604051610739939291906148a0565b60405180910390f35b34801561074e57600080fd5b5061076960048036038101906107649190614749565b6133db565b005b6005602052806000526040600020600091509050805461078a90614914565b80601f01602080910402602001604051908101604052809291908181526020018280546107b690614914565b80156108035780601f106107d857610100808354040283529160200191610803565b820191906000526020600020905b8154815290600101906020018083116107e657829003601f168201915b505050505081565b6004602052806000526040600020600091509050805461082a90614914565b80601f016020809104026020016040519081016040528092919081815260200182805461085690614914565b80156108a35780601f10610878576101008083540402835291602001916108a3565b820191906000526020600020905b81548152906001019060200180831161088657829003601f168201915b505050505081565b6060600560003373ffffffffffffffffffffffffffffffffffffffff1673ffffffffffffffffffffffffffffffffffffffff16815260200190815260200160002080546108f790614914565b80601f016020809104026020016040519081016040528092919081815260200182805461092390614914565b80156109705780601f1061094557610100808354040283529160200191610970565b820191906000526020600020905b81548152906001019060200180831161095357829003601f168201915b5050505050905090565b60606000610987836135eb565b90506000818154811061099d5761099c614945565b5b906000526020600020906009020160010180546109b990614914565b80601f01602080910402602001604051908101604052809291908181526020018280546109e590614914565b8015610a325780601f10610a0757610100808354040283529160200191610a32565b820191906000526020600020905b815481529060010190602001808311610a1557829003601f168201915b5050505050915050919050565b600080610a4b836135eb565b9050610a5783336119c0565b610a96576040517f08c379a0000000000000000000000000000000000000000000000000000000008152600401610a8d906149e6565b60405180910390fd5b670de0b6b3a764000060008281548110610ab357610ab2614945565b5b906000526020600020906009020160020154610acf9190614a64565b915050919050565b60008311610b1a576040517f08c379a0000000000000000000000000000000000000000000000000000000008152600401610b1190614b07565b60405180910390fd5b6000821015610b5e576040517f08c379a0000000000000000000000000000000000000000000000000000000008152600401610b5590614b99565b60405180910390fd5b6000610b68613689565b90506000600167ffffffffffffffff811115610b8757610b86613daa565b5b604051908082528060200260200182016040528015610bb55781602001602082028036833780820191505090505b5090503381600081518110610bcd57610bcc614945565b5b602002602001019073ffffffffffffffffffffffffffffffffffffffff16908173ffffffffffffffffffffffffffffffffffffffff16815250506000604051806101200160405280848152602001858152602001600081526020013373ffffffffffffffffffffffffffffffffffffffff168152602001670de0b6b3a764000088610c589190614bb9565b8152602001670de0b6b3a764000087610c719190614bb9565b8152602001838152602001600067ffffffffffffffff811115610c9757610c96613daa565b5b604051908082528060200260200182016040528015610cc55781602001602082028036833780820191505090505b508152602001600067ffffffffffffffff811115610ce657610ce5613daa565b5b604051908082528060200260200182016040528015610d145781602001602082028036833780820191505090505b5081525090506000819080600181540180825580915050600190039060005260206000209060090201600090919091909150600082015181600001556020820151816001019081610d659190614da7565b506040820151816002015560608201518160030160006101000a81548173ffffffffffffffffffffffffffffffffffffffff021916908373ffffffffffffffffffffffffffffffffffffffff1602179055506080820151816004015560a0820151816005015560c0820151816006019080519060200190610de7929190613a9f565b5060e0820151816007019080519060200190610e04929190613a9f565b50610100820151816008019080519060200190610e22929190613b29565b50505060016003600085815260200190815260200160002060006101000a81548160ff0219169083151502179055503373ffffffffffffffffffffffffffffffffffffffff16837fbb22188d95efa8c4f325d45db9224a8e37daca69776a24623d5851833076f6ed888886604051610e9c93929190614e79565b60405180910390a3505050505050565b60606000805480602002602001604051908101604052809291908181526020016000905b8282101561118757838290600052602060002090600902016040518061012001604052908160008201548152602001600182018054610f0e90614914565b80601f0160208091040260200160405190810160405280929190818152602001828054610f3a90614914565b8015610f875780601f10610f5c57610100808354040283529160200191610f87565b820191906000526020600020905b815481529060010190602001808311610f6a57829003601f168201915b50505050508152602001600282015481526020016003820160009054906101000a900473ffffffffffffffffffffffffffffffffffffffff1673ffffffffffffffffffffffffffffffffffffffff1673ffffffffffffffffffffffffffffffffffffffff16815260200160048201548152602001600582015481526020016006820180548060200260200160405190810160405280929190818152602001828054801561108957602002820191906000526020600020905b8160009054906101000a900473ffffffffffffffffffffffffffffffffffffffff1673ffffffffffffffffffffffffffffffffffffffff168152602001906001019080831161103f575b505050505081526020016007820180548060200260200160405190810160405280929190818152602001828054801561111757602002820191906000526020600020905b8160009054906101000a900473ffffffffffffffffffffffffffffffffffffffff1673ffffffffffffffffffffffffffffffffffffffff16815260200190600101908083116110cd575b505050505081526020016008820180548060200260200160405190810160405280929190818152602001828054801561116f57602002820191906000526020600020905b81548152602001906001019080831161115b575b50505050508152505081526020019060010190610ed0565b50505050905090565b60036020528060005260406000206000915054906101000a900460ff1681565b60606003600083815260200190815260200160002060009054906101000a900460ff16611212576040517f08c379a000000000000000000000000000000000000000000000000000000000815260040161120990614f29565b60405180910390fd5b600061121d836135eb565b9050600080828154811061123457611233614945565b5b906000526020600020906009020160080180548060200260200160405190810160405280929190818152602001828054801561128f57602002820191906000526020600020905b81548152602001906001019080831161127b575b5050505050905060008151905060008167ffffffffffffffff8111156112b8576112b7613daa565b5b6040519080825280602002602001820160405280156112f157816020015b6112de613b76565b8152602001906001900390816112d65790505b50905060005b8281101561154157600184828151811061131457611313614945565b5b60200260200101518154811061132d5761132c614945565b5b90600052602060002090600502016040518060a001604052908160008201805461135690614914565b80601f016020809104026020016040519081016040528092919081815260200182805461138290614914565b80156113cf5780601f106113a4576101008083540402835291602001916113cf565b820191906000526020600020905b8154815290600101906020018083116113b257829003601f168201915b505050505081526020016001820180546113e890614914565b80601f016020809104026020016040519081016040528092919081815260200182805461141490614914565b80156114615780601f1061143657610100808354040283529160200191611461565b820191906000526020600020905b81548152906001019060200180831161144457829003601f168201915b505050505081526020016002820154815260200160038201805461148490614914565b80601f01602080910402602001604051908101604052809291908181526020018280546114b090614914565b80156114fd5780601f106114d2576101008083540402835291602001916114fd565b820191906000526020600020905b8154815290600101906020018083116114e057829003601f168201915b5050505050815260200160048201548152505082828151811061152357611522614945565b5b6020026020010181905250808061153990614f49565b9150506112f7565b5080945050505050919050565b6060806003600084815260200190815260200160002060009054906101000a900460ff166115b1576040517f08c379a00000000000000000000000000000000000000000000000000000000081526004016115a890614f29565b60405180910390fd5b60006115bc846135eb565b905060008082815481106115d3576115d2614945565b5b906000526020600020906009020160060180549050905060008167ffffffffffffffff81111561160657611605613daa565b5b6040519080825280602002602001820160405280156116345781602001602082028036833780820191505090505b50905060008267ffffffffffffffff81111561165357611652613daa565b5b60405190808252806020026020018201604052801561168657816020015b60608152602001906001900390816116715790505b50905060005b838110156118415760008086815481106116a9576116a8614945565b5b906000526020600020906009020160060182815481106116cc576116cb614945565b5b9060005260206000200160009054906101000a900473ffffffffffffffffffffffffffffffffffffffff1690508084838151811061170d5761170c614945565b5b602002602001019073ffffffffffffffffffffffffffffffffffffffff16908173ffffffffffffffffffffffffffffffffffffffff1681525050600460008273ffffffffffffffffffffffffffffffffffffffff1673ffffffffffffffffffffffffffffffffffffffff168152602001908152602001600020805461179190614914565b80601f01602080910402602001604051908101604052809291908181526020018280546117bd90614914565b801561180a5780601f106117df5761010080835404028352916020019161180a565b820191906000526020600020905b8154815290600101906020018083116117ed57829003601f168201915b505050505083838151811061182257611821614945565b5b602002602001018190525050808061183990614f49565b91505061168c565b5081819550955050505050915091565b60006003600083815260200190815260200160002060009054906101000a900460ff166118b3576040517f08c379a00000000000000000000000000000000000000000000000000000000081526004016118aa90614f29565b60405180910390fd5b60006118be836135eb565b9050600081815481106118d4576118d3614945565b5b906000526020600020906009020160060180549050915050919050565b6060600460003373ffffffffffffffffffffffffffffffffffffffff1673ffffffffffffffffffffffffffffffffffffffff168152602001908152602001600020805461193d90614914565b80601f016020809104026020016040519081016040528092919081815260200182805461196990614914565b80156119b65780601f1061198b576101008083540402835291602001916119b6565b820191906000526020600020905b81548152906001019060200180831161199957829003601f168201915b5050505050905090565b6000806119cc846135eb565b905060005b600082815481106119e5576119e4614945565b5b906000526020600020906009020160060180549050811015611ab3578373ffffffffffffffffffffffffffffffffffffffff1660008381548110611a2c57611a2b614945565b5b90600052602060002090600902016006018281548110611a4f57611a4e614945565b5b9060005260206000200160009054906101000a900473ffffffffffffffffffffffffffffffffffffffff1673ffffffffffffffffffffffffffffffffffffffff1603611aa057600192505050611aba565b8080611aab90614f49565b9150506119d1565b5060009150505b92915050565b60088181548110611ad057600080fd5b906000526020600020016000915090508054611aeb90614914565b80601f0160208091040260200160405190810160405280929190818152602001828054611b1790614914565b8015611b645780601f10611b3957610100808354040283529160200191611b64565b820191906000526020600020905b815481529060010190602001808311611b4757829003601f168201915b505050505081565b60008281548110611b8057611b7f614945565b5b906000526020600020906009020160030160009054906101000a900473ffffffffffffffffffffffffffffffffffffffff1673ffffffffffffffffffffffffffffffffffffffff163373ffffffffffffffffffffffffffffffffffffffff1614611c1f576040517f08c379a0000000000000000000000000000000000000000000000000000000008152600401611c1690615003565b60405180910390fd5b611c298282613742565b611c68576040517f08c379a0000000000000000000000000000000000000000000000000000000008152600401611c5f9061506f565b60405180910390fd5b6000611c73836135eb565b9050611ca360008281548110611c8c57611c8b614945565b5b906000526020600020906009020160070183613842565b8173ffffffffffffffffffffffffffffffffffffffff16837f8903f797b9477780cd04a7e575d254f82d9ebb89d859f46f60604c575f2ba27e60405160405180910390a3505050565b6003600082815260200190815260200160002060009054906101000a900460ff16611d4c576040517f08c379a0000000000000000000000000000000000000000000000000000000008152600401611d4390614f29565b60405180910390fd5b611d5681336119c0565b15611d96576040517f08c379a0000000000000000000000000000000000000000000000000000000008152600401611d8d906150db565b60405180910390fd5b611da08133613742565b15611de0576040517f08c379a0000000000000000000000000000000000000000000000000000000008152600401611dd790615147565b60405180910390fd5b6000611deb826135eb565b905060008181548110611e0157611e00614945565b5b9060005260206000209060090201600701339080600181540180825580915050600190039060005260206000200160009091909190916101000a81548173ffffffffffffffffffffffffffffffffffffffff021916908373ffffffffffffffffffffffffffffffffffffffff1602179055503373ffffffffffffffffffffffffffffffffffffffff16827f0e1d9310fd77f81b5bf5dbde6ee0c770054dd4f36103e23a85db7ac00f73d41360405160405180910390a35050565b6000611ec6846135eb565b90506003600085815260200190815260200160002060009054906101000a900460ff16611f28576040517f08c379a0000000000000000000000000000000000000000000000000000000008152600401611f1f90614f29565b60405180910390fd5b611f3284336119c0565b611f71576040517f08c379a0000000000000000000000000000000000000000000000000000000008152600401611f68906151d9565b60405180910390fd5b60008181548110611f8557611f84614945565b5b906000526020600020906009020160050154670de0b6b3a764000084611fab9190614bb9565b1115611fec576040517f08c379a0000000000000000000000000000000000000000000000000000000008152600401611fe39061526b565b60405180910390fd5b6000818154811061200057611fff614945565b5b906000526020600020906009020160020154670de0b6b3a7640000846120269190614bb9565b1115612067576040517f08c379a000000000000000000000000000000000000000000000000000000000815260040161205e906152fd565b60405180910390fd5b6000670de0b6b3a76400008461207d9190614bb9565b9050806000838154811061209457612093614945565b5b906000526020600020906009020160020160008282546120b4919061531d565b9250508190555080600083815481106120d0576120cf614945565b5b906000526020600020906009020160040160008282546120f09190615351565b925050819055503373ffffffffffffffffffffffffffffffffffffffff166108fc829081150290604051600060405180830381858888f1935050505015801561213d573d6000803e3d6000fd5b506000600180549050905060016040518060a001604052806040518060400160405280600d81526020017f7368617265642077616c6c6574000000000000000000000000000000000000008152508152602001600460003373ffffffffffffffffffffffffffffffffffffffff1673ffffffffffffffffffffffffffffffffffffffff16815260200190815260200160002080546121da90614914565b80601f016020809104026020016040519081016040528092919081815260200182805461220690614914565b80156122535780601f1061222857610100808354040283529160200191612253565b820191906000526020600020905b81548152906001019060200180831161223657829003601f168201915b5050505050815260200184815260200186815260200142815250908060018154018082558091505060019003906000526020600020906005020160009091909190915060008201518160000190816122ab9190614da7565b5060208201518160010190816122c19190614da7565b506040820151816002015560608201518160030190816122e19190614da7565b506080820151816004015550506000838154811061230257612301614945565b5b9060005260206000209060090201600801819080600181540180825580915050600190039060005260206000200160009091909190915055600460003373ffffffffffffffffffffffffffffffffffffffff1673ffffffffffffffffffffffffffffffffffffffff1681526020019081526020016000206040516123869190615413565b6040518091039020867f1da1e862b49d474681f4eaecdcb8e1ae3bb314cf38ac7b1726d8eb3e8618b310846040516123be9190613d85565b60405180910390a3505050505050565b60606002805480602002602001604051908101604052809291908181526020016000905b8282101561259e57838290600052602060002090600302016040518060600160405290816000820160009054906101000a900473ffffffffffffffffffffffffffffffffffffffff1673ffffffffffffffffffffffffffffffffffffffff1673ffffffffffffffffffffffffffffffffffffffff16815260200160018201805461247b90614914565b80601f01602080910402602001604051908101604052809291908181526020018280546124a790614914565b80156124f45780601f106124c9576101008083540402835291602001916124f4565b820191906000526020600020905b8154815290600101906020018083116124d757829003601f168201915b5050505050815260200160028201805461250d90614914565b80601f016020809104026020016040519081016040528092919081815260200182805461253990614914565b80156125865780601f1061255b57610100808354040283529160200191612586565b820191906000526020600020905b81548152906001019060200180831161256957829003601f168201915b505050505081525050815260200190600101906123f2565b50505050905090565b60076020528060005260406000206000915054906101000a900460ff1681565b60006125d2836135eb565b9050600081815481106125e8576125e7614945565b5b906000526020600020906009020160030160009054906101000a900473ffffffffffffffffffffffffffffffffffffffff1673ffffffffffffffffffffffffffffffffffffffff163373ffffffffffffffffffffffffffffffffffffffff1614612687576040517f08c379a000000000000000000000000000000000000000000000000000000000815260040161267e9061549c565b60405180910390fd5b6126918383613742565b6126d0576040517f08c379a00000000000000000000000000000000000000000000000000000000081526004016126c79061506f565b60405180910390fd5b600081815481106126e4576126e3614945565b5b9060005260206000209060090201600601829080600181540180825580915050600190039060005260206000200160009091909190916101000a81548173ffffffffffffffffffffffffffffffffffffffff021916908373ffffffffffffffffffffffffffffffffffffffff1602179055506127846000828154811061276d5761276c614945565b5b906000526020600020906009020160070183613842565b8173ffffffffffffffffffffffffffffffffffffffff16837f55db954dfe09b91087e0919cb7fb06e3642e0d393ed967f4192c27de59293c7260405160405180910390a3505050565b60006127d8836135eb565b9050600081815481106127ee576127ed614945565b5b906000526020600020906009020160030160009054906101000a900473ffffffffffffffffffffffffffffffffffffffff1673ffffffffffffffffffffffffffffffffffffffff163373ffffffffffffffffffffffffffffffffffffffff161461288d576040517f08c379a00000000000000000000000000000000000000000000000000000000081526004016128849061552e565b60405180910390fd5b61289783836119c0565b6128d6576040517f08c379a00000000000000000000000000000000000000000000000000000000081526004016128cd9061559a565b60405180910390fd5b612904600082815481106128ed576128ec614945565b5b906000526020600020906009020160060183613842565b8173ffffffffffffffffffffffffffffffffffffffff16837fcef8fac05afb87995942422eac900de6af11a555d80d075340af81db492119fe60405160405180910390a3505050565b6000600460003373ffffffffffffffffffffffffffffffffffffffff1673ffffffffffffffffffffffffffffffffffffffff168152602001908152602001600020805461299990614914565b9050146129db576040517f08c379a00000000000000000000000000000000000000000000000000000000081526004016129d290615606565b60405180910390fd5b6129e481613a22565b15612a24576040517f08c379a0000000000000000000000000000000000000000000000000000000008152600401612a1b90615698565b60405180910390fd5b81600560003373ffffffffffffffffffffffffffffffffffffffff1673ffffffffffffffffffffffffffffffffffffffff1681526020019081526020016000209081612a709190614da7565b5080600460003373ffffffffffffffffffffffffffffffffffffffff1673ffffffffffffffffffffffffffffffffffffffff1681526020019081526020016000209081612abd9190614da7565b50600881908060018154018082558091505060019003906000526020600020016000909190919091509081612af29190614da7565b505050565b60018181548110612b0757600080fd5b9060005260206000209060050201600091509050806000018054612b2a90614914565b80601f0160208091040260200160405190810160405280929190818152602001828054612b5690614914565b8015612ba35780601f10612b7857610100808354040283529160200191612ba3565b820191906000526020600020905b815481529060010190602001808311612b8657829003601f168201915b505050505090806001018054612bb890614914565b80601f0160208091040260200160405190810160405280929190818152602001828054612be490614914565b8015612c315780601f10612c0657610100808354040283529160200191612c31565b820191906000526020600020905b815481529060010190602001808311612c1457829003601f168201915b505050505090806002015490806003018054612c4c90614914565b80601f0160208091040260200160405190810160405280929190818152602001828054612c7890614914565b8015612cc55780601f10612c9a57610100808354040283529160200191612cc5565b820191906000526020600020905b815481529060010190602001808311612ca857829003601f168201915b5050505050908060040154905085565b60066020528060005260406000206000915090505481565b60008181548110612cfd57600080fd5b9060005260206000209060090201600091509050806000015490806001018054612d2690614914565b80601f0160208091040260200160405190810160405280929190818152602001828054612d5290614914565b8015612d9f5780601f10612d7457610100808354040283529160200191612d9f565b820191906000526020600020905b815481529060010190602001808311612d8257829003601f168201915b5050505050908060020154908060030160009054906101000a900473ffffffffffffffffffffffffffffffffffffffff16908060040154908060050154905086565b6000612dec826135eb565b90506003600083815260200190815260200160002060009054906101000a900460ff16612e4e576040517f08c379a0000000000000000000000000000000000000000000000000000000008152600401612e4590614f29565b60405180910390fd5b612e5882336119c0565b612e97576040517f08c379a0000000000000000000000000000000000000000000000000000000008152600401612e8e90615704565b60405180910390fd5b60003411612eda576040517f08c379a0000000000000000000000000000000000000000000000000000000008152600401612ed190615770565b60405180910390fd5b3460008281548110612eef57612eee614945565b5b90600052602060002090600902016002016000828254612f0f9190615351565b925050819055503460008281548110612f2b57612f2a614945565b5b9060005260206000209060090201600401541115612f84573460008281548110612f5857612f57614945565b5b90600052602060002090600902016004016000828254612f78919061531d565b92505081905550612faf565b6000808281548110612f9957612f98614945565b5b9060005260206000209060090201600401819055505b6000600180549050905060016040518060a00160405280600460003373ffffffffffffffffffffffffffffffffffffffff1673ffffffffffffffffffffffffffffffffffffffff168152602001908152602001600020805461301090614914565b80601f016020809104026020016040519081016040528092919081815260200182805461303c90614914565b80156130895780601f1061305e57610100808354040283529160200191613089565b820191906000526020600020905b81548152906001019060200180831161306c57829003601f168201915b505050505081526020016040518060400160405280600d81526020017f7368617265642077616c6c65740000000000000000000000000000000000000081525081526020013481526020016040518060400160405280601c81526020017f46756e647320616464656420746f207368617265642077616c6c657400000000815250815260200142815250908060018154018082558091505060019003906000526020600020906005020160009091909190915060008201518160000190816131519190614da7565b5060208201518160010190816131679190614da7565b506040820151816002015560608201518160030190816131879190614da7565b50608082015181600401555050600082815481106131a8576131a7614945565b5b9060005260206000209060090201600801819080600181540180825580915050600190039060005260206000200160009091909190915055600460003373ffffffffffffffffffffffffffffffffffffffff1673ffffffffffffffffffffffffffffffffffffffff16815260200190815260200160002060405161322c9190615413565b6040518091039020837f15b3997472c689f4d1336348cbf0980da653dddde6a52fa7e787650c4f3ec7c9346040516132649190613d85565b60405180910390a3505050565b6002818154811061328157600080fd5b90600052602060002090600302016000915090508060000160009054906101000a900473ffffffffffffffffffffffffffffffffffffffff16908060010180546132ca90614914565b80601f01602080910402602001604051908101604052809291908181526020018280546132f690614914565b80156133435780601f1061331857610100808354040283529160200191613343565b820191906000526020600020905b81548152906001019060200180831161332657829003601f168201915b50505050509080600201805461335890614914565b80601f016020809104026020016040519081016040528092919081815260200182805461338490614914565b80156133d15780601f106133a6576101008083540402835291602001916133d1565b820191906000526020600020905b8154815290600101906020018083116133b457829003601f168201915b5050505050905083565b600760003373ffffffffffffffffffffffffffffffffffffffff1673ffffffffffffffffffffffffffffffffffffffff16815260200190815260200160002060009054906101000a900460ff1615613468576040517f08c379a000000000000000000000000000000000000000000000000000000000815260040161345f906157dc565b60405180910390fd5b600060405180606001604052803373ffffffffffffffffffffffffffffffffffffffff168152602001848152602001838152509050600281908060018154018082558091505060019003906000526020600020906003020160009091909190915060008201518160000160006101000a81548173ffffffffffffffffffffffffffffffffffffffff021916908373ffffffffffffffffffffffffffffffffffffffff16021790555060208201518160010190816135259190614da7565b50604082015181600201908161353b9190614da7565b5050506001600760003373ffffffffffffffffffffffffffffffffffffffff1673ffffffffffffffffffffffffffffffffffffffff16815260200190815260200160002060006101000a81548160ff0219169083151502179055503373ffffffffffffffffffffffffffffffffffffffff167fd98e142226aaa094e0d82c09885e86172e376383ae815a4b512a594ff762bb5684846040516135de9291906157fc565b60405180910390a2505050565b600080600090505b60008054905081101561364857826000828154811061361557613614614945565b5b906000526020600020906009020160000154036136355780915050613684565b808061364090614f49565b9150506135f3565b506040517f08c379a000000000000000000000000000000000000000000000000000000000815260040161367b9061587f565b60405180910390fd5b919050565b600080444260014361369b919061531d565b406040516020016136ae939291906158eb565b6040516020818303038152906040528051906020012060001c90506103e8612328826136da9190615928565b6136e49190615351565b90505b6003600082815260200190815260200160002060009054906101000a900460ff161561373b576103e86123286001836137209190615351565b61372a9190615928565b6137349190615351565b90506136e7565b8091505090565b60008061374e846135eb565b905060005b6000828154811061376757613766614945565b5b906000526020600020906009020160070180549050811015613835578373ffffffffffffffffffffffffffffffffffffffff16600083815481106137ae576137ad614945565b5b906000526020600020906009020160070182815481106137d1576137d0614945565b5b9060005260206000200160009054906101000a900473ffffffffffffffffffffffffffffffffffffffff1673ffffffffffffffffffffffffffffffffffffffff16036138225760019250505061383c565b808061382d90614f49565b915050613753565b5060009150505b92915050565b60005b82805490508110156139e2578173ffffffffffffffffffffffffffffffffffffffff1683828154811061387b5761387a614945565b5b9060005260206000200160009054906101000a900473ffffffffffffffffffffffffffffffffffffffff1673ffffffffffffffffffffffffffffffffffffffff16036139cf57600183805490506138d2919061531d565b8110156139835782600184805490506138eb919061531d565b815481106138fc576138fb614945565b5b9060005260206000200160009054906101000a900473ffffffffffffffffffffffffffffffffffffffff1683828154811061393a57613939614945565b5b9060005260206000200160006101000a81548173ffffffffffffffffffffffffffffffffffffffff021916908373ffffffffffffffffffffffffffffffffffffffff1602179055505b8280548061399457613993615959565b5b6001900381819060005260206000200160006101000a81549073ffffffffffffffffffffffffffffffffffffffff0219169055905550613a1e565b80806139da90614f49565b915050613845565b506040517f08c379a0000000000000000000000000000000000000000000000000000000008152600401613a15906159d4565b60405180910390fd5b5050565b600080600090505b600880549050811015613a9457828051906020012060088281548110613a5357613a52614945565b5b90600052602060002001604051613a6a9190615a97565b604051809103902003613a81576001915050613a9a565b8080613a8c90614f49565b915050613a2a565b50600090505b919050565b828054828255906000526020600020908101928215613b18579160200282015b82811115613b175782518260006101000a81548173ffffffffffffffffffffffffffffffffffffffff021916908373ffffffffffffffffffffffffffffffffffffffff16021790555091602001919060010190613abf565b5b509050613b259190613ba5565b5090565b828054828255906000526020600020908101928215613b65579160200282015b82811115613b64578251825591602001919060010190613b49565b5b509050613b729190613ba5565b5090565b6040518060a0016040528060608152602001606081526020016000815260200160608152602001600081525090565b5b80821115613bbe576000816000905550600101613ba6565b5090565b6000604051905090565b600080fd5b600080fd5b600073ffffffffffffffffffffffffffffffffffffffff82169050919050565b6000613c0182613bd6565b9050919050565b613c1181613bf6565b8114613c1c57600080fd5b50565b600081359050613c2e81613c08565b92915050565b600060208284031215613c4a57613c49613bcc565b5b6000613c5884828501613c1f565b91505092915050565b600081519050919050565b600082825260208201905092915050565b60005b83811015613c9b578082015181840152602081019050613c80565b60008484015250505050565b6000601f19601f8301169050919050565b6000613cc382613c61565b613ccd8185613c6c565b9350613cdd818560208601613c7d565b613ce681613ca7565b840191505092915050565b60006020820190508181036000830152613d0b8184613cb8565b905092915050565b6000819050919050565b613d2681613d13565b8114613d3157600080fd5b50565b600081359050613d4381613d1d565b92915050565b600060208284031215613d5f57613d5e613bcc565b5b6000613d6d84828501613d34565b91505092915050565b613d7f81613d13565b82525050565b6000602082019050613d9a6000830184613d76565b92915050565b600080fd5b600080fd5b7f4e487b7100000000000000000000000000000000000000000000000000000000600052604160045260246000fd5b613de282613ca7565b810181811067ffffffffffffffff82111715613e0157613e00613daa565b5b80604052505050565b6000613e14613bc2565b9050613e208282613dd9565b919050565b600067ffffffffffffffff821115613e4057613e3f613daa565b5b613e4982613ca7565b9050602081019050919050565b82818337600083830152505050565b6000613e78613e7384613e25565b613e0a565b905082815260208101848484011115613e9457613e93613da5565b5b613e9f848285613e56565b509392505050565b600082601f830112613ebc57613ebb613da0565b5b8135613ecc848260208601613e65565b91505092915050565b600080600060608486031215613eee57613eed613bcc565b5b6000613efc86828701613d34565b9350506020613f0d86828701613d34565b925050604084013567ffffffffffffffff811115613f2e57613f2d613bd1565b5b613f3a86828701613ea7565b9150509250925092565b600081519050919050565b600082825260208201905092915050565b6000819050602082019050919050565b613f7981613d13565b82525050565b600082825260208201905092915050565b6000613f9b82613c61565b613fa58185613f7f565b9350613fb5818560208601613c7d565b613fbe81613ca7565b840191505092915050565b613fd281613bf6565b82525050565b600081519050919050565b600082825260208201905092915050565b6000819050602082019050919050565b60006140108383613fc9565b60208301905092915050565b6000602082019050919050565b600061403482613fd8565b61403e8185613fe3565b935061404983613ff4565b8060005b8381101561407a5781516140618882614004565b975061406c8361401c565b92505060018101905061404d565b5085935050505092915050565b600081519050919050565b600082825260208201905092915050565b6000819050602082019050919050565b60006140bf8383613f70565b60208301905092915050565b6000602082019050919050565b60006140e382614087565b6140ed8185614092565b93506140f8836140a3565b8060005b8381101561412957815161411088826140b3565b975061411b836140cb565b9250506001810190506140fc565b5085935050505092915050565b60006101208301600083015161414f6000860182613f70565b50602083015184820360208601526141678282613f90565b915050604083015161417c6040860182613f70565b50606083015161418f6060860182613fc9565b5060808301516141a26080860182613f70565b5060a08301516141b560a0860182613f70565b5060c083015184820360c08601526141cd8282614029565b91505060e083015184820360e08601526141e78282614029565b91505061010083015184820361010086015261420382826140d8565b9150508091505092915050565b600061421c8383614136565b905092915050565b6000602082019050919050565b600061423c82613f44565b6142468185613f4f565b93508360208202850161425885613f60565b8060005b8581101561429457848403895281516142758582614210565b945061428083614224565b925060208a0199505060018101905061425c565b50829750879550505050505092915050565b600060208201905081810360008301526142c08184614231565b905092915050565b60008115159050919050565b6142dd816142c8565b82525050565b60006020820190506142f860008301846142d4565b92915050565b600081519050919050565b600082825260208201905092915050565b6000819050602082019050919050565b600060a08301600083015184820360008601526143478282613f90565b915050602083015184820360208601526143618282613f90565b91505060408301516143766040860182613f70565b506060830151848203606086015261438e8282613f90565b91505060808301516143a36080860182613f70565b508091505092915050565b60006143ba838361432a565b905092915050565b6000602082019050919050565b60006143da826142fe565b6143e48185614309565b9350836020820285016143f68561431a565b8060005b85811015614432578484038952815161441385826143ae565b945061441e836143c2565b925060208a019950506001810190506143fa565b50829750879550505050505092915050565b6000602082019050818103600083015261445e81846143cf565b905092915050565b600082825260208201905092915050565b600061448282613fd8565b61448c8185614466565b935061449783613ff4565b8060005b838110156144c85781516144af8882614004565b97506144ba8361401c565b92505060018101905061449b565b5085935050505092915050565b600081519050919050565b600082825260208201905092915050565b6000819050602082019050919050565b600061450d8383613f90565b905092915050565b6000602082019050919050565b600061452d826144d5565b61453781856144e0565b935083602082028501614549856144f1565b8060005b8581101561458557848403895281516145668582614501565b945061457183614515565b925060208a0199505060018101905061454d565b50829750879550505050505092915050565b600060408201905081810360008301526145b18185614477565b905081810360208301526145c58184614522565b90509392505050565b600080604083850312156145e5576145e4613bcc565b5b60006145f385828601613d34565b925050602061460485828601613c1f565b9150509250929050565b600081519050919050565b600082825260208201905092915050565b6000819050602082019050919050565b60006060830160008301516146526000860182613fc9565b506020830151848203602086015261466a8282613f90565b915050604083015184820360408601526146848282613f90565b9150508091505092915050565b600061469d838361463a565b905092915050565b6000602082019050919050565b60006146bd8261460e565b6146c78185614619565b9350836020820285016146d98561462a565b8060005b8581101561471557848403895281516146f68582614691565b9450614701836146a5565b925060208a019950506001810190506146dd565b50829750879550505050505092915050565b6000602082019050818103600083015261474181846146b2565b905092915050565b600080604083850312156147605761475f613bcc565b5b600083013567ffffffffffffffff81111561477e5761477d613bd1565b5b61478a85828601613ea7565b925050602083013567ffffffffffffffff8111156147ab576147aa613bd1565b5b6147b785828601613ea7565b9150509250929050565b600060a08201905081810360008301526147db8188613cb8565b905081810360208301526147ef8187613cb8565b90506147fe6040830186613d76565b81810360608301526148108185613cb8565b905061481f6080830184613d76565b9695505050505050565b61483281613bf6565b82525050565b600060c08201905061484d6000830189613d76565b818103602083015261485f8188613cb8565b905061486e6040830187613d76565b61487b6060830186614829565b6148886080830185613d76565b61489560a0830184613d76565b979650505050505050565b60006060820190506148b56000830186614829565b81810360208301526148c78185613cb8565b905081810360408301526148db8184613cb8565b9050949350505050565b7f4e487b7100000000000000000000000000000000000000000000000000000000600052602260045260246000fd5b6000600282049050600182168061492c57607f821691505b60208210810361493f5761493e6148e5565b5b50919050565b7f4e487b7100000000000000000000000000000000000000000000000000000000600052603260045260246000fd5b7f596f7520617265206e6f7420612070617274696370616e74206f66207468652060008201527f7370656369666965642077616c6c657420696400000000000000000000000000602082015250565b60006149d0603383613c6c565b91506149db82614974565b604082019050919050565b600060208201905081810360008301526149ff816149c3565b9050919050565b7f4e487b7100000000000000000000000000000000000000000000000000000000600052601260045260246000fd5b7f4e487b7100000000000000000000000000000000000000000000000000000000600052601160045260246000fd5b6000614a6f82613d13565b9150614a7a83613d13565b925082614a8a57614a89614a06565b5b828204905092915050565b7f476f616c20616d6f756e74206d7573742062652067726561746572207468616e60008201527f2030000000000000000000000000000000000000000000000000000000000000602082015250565b6000614af1602283613c6c565b9150614afc82614a95565b604082019050919050565b60006020820190508181036000830152614b2081614ae4565b9050919050565b7f426f72726f77206c696d6974206d757374206265206e6f6e2d6e65676174697660008201527f6500000000000000000000000000000000000000000000000000000000000000602082015250565b6000614b83602183613c6c565b9150614b8e82614b27565b604082019050919050565b60006020820190508181036000830152614bb281614b76565b9050919050565b6000614bc482613d13565b9150614bcf83613d13565b9250828202614bdd81613d13565b91508282048414831517614bf457614bf3614a35565b5b5092915050565b60008190508160005260206000209050919050565b60006020601f8301049050919050565b600082821b905092915050565b600060088302614c5d7fffffffffffffffffffffffffffffffffffffffffffffffffffffffffffffffff82614c20565b614c678683614c20565b95508019841693508086168417925050509392505050565b6000819050919050565b6000614ca4614c9f614c9a84613d13565b614c7f565b613d13565b9050919050565b6000819050919050565b614cbe83614c89565b614cd2614cca82614cab565b848454614c2d565b825550505050565b600090565b614ce7614cda565b614cf2818484614cb5565b505050565b5b81811015614d1657614d0b600082614cdf565b600181019050614cf8565b5050565b601f821115614d5b57614d2c81614bfb565b614d3584614c10565b81016020851015614d44578190505b614d58614d5085614c10565b830182614cf7565b50505b505050565b600082821c905092915050565b6000614d7e60001984600802614d60565b1980831691505092915050565b6000614d978383614d6d565b9150826002028217905092915050565b614db082613c61565b67ffffffffffffffff811115614dc957614dc8613daa565b5b614dd38254614914565b614dde828285614d1a565b600060209050601f831160018114614e115760008415614dff578287015190505b614e098582614d8b565b865550614e71565b601f198416614e1f86614bfb565b60005b82811015614e4757848901518255600182019150602085019450602081019050614e22565b86831015614e645784890151614e60601f891682614d6d565b8355505b6001600288020188555050505b505050505050565b6000606082019050614e8e6000830186613d76565b614e9b6020830185613d76565b8181036040830152614ead8184614477565b9050949350505050565b7f57616c6c6574207769746820676976656e20494420646f6573206e6f7420657860008201527f6973740000000000000000000000000000000000000000000000000000000000602082015250565b6000614f13602383613c6c565b9150614f1e82614eb7565b604082019050919050565b60006020820190508181036000830152614f4281614f06565b9050919050565b6000614f5482613d13565b91507fffffffffffffffffffffffffffffffffffffffffffffffffffffffffffffffff8203614f8657614f85614a35565b5b600182019050919050565b7f4f6e6c792061646d696e2063616e2072656a656374207061727469636970616e60008201527f7473000000000000000000000000000000000000000000000000000000000000602082015250565b6000614fed602283613c6c565b9150614ff882614f91565b604082019050919050565b6000602082019050818103600083015261501c81614fe0565b9050919050565b7f5061727469636970616e742072657175657374206e6f7420666f756e64000000600082015250565b6000615059601d83613c6c565b915061506482615023565b602082019050919050565b600060208201905081810360008301526150888161504c565b9050919050565b7f416c72656164792061207061727469636970616e740000000000000000000000600082015250565b60006150c5601583613c6c565b91506150d08261508f565b602082019050919050565b600060208201905081810360008301526150f4816150b8565b9050919050565b7f5265717565737420616c7265616479207375626d697474656400000000000000600082015250565b6000615131601983613c6c565b915061513c826150fb565b602082019050919050565b6000602082019050818103600083015261516081615124565b9050919050565b7f4f6e6c79207061727469636970616e74732063616e207769746864726177206660008201527f756e647300000000000000000000000000000000000000000000000000000000602082015250565b60006151c3602483613c6c565b91506151ce82615167565b604082019050919050565b600060208201905081810360008301526151f2816151b6565b9050919050565b7f5769746864726177616c20616d6f756e7420657863656564732074686520626f60008201527f72726f77206c696d697400000000000000000000000000000000000000000000602082015250565b6000615255602a83613c6c565b9150615260826151f9565b604082019050919050565b6000602082019050818103600083015261528481615248565b9050919050565b7f496e73756666696369656e742066756e647320696e207468652073686172656460008201527f2077616c6c657400000000000000000000000000000000000000000000000000602082015250565b60006152e7602783613c6c565b91506152f28261528b565b604082019050919050565b60006020820190508181036000830152615316816152da565b9050919050565b600061532882613d13565b915061533383613d13565b925082820390508181111561534b5761534a614a35565b5b92915050565b600061535c82613d13565b915061536783613d13565b925082820190508082111561537f5761537e614a35565b5b92915050565b600081905092915050565b6000815461539d81614914565b6153a78186615385565b945060018216600081146153c257600181146153d75761540a565b60ff198316865281151582028601935061540a565b6153e085614bfb565b60005b83811015615402578154818901526001820191506020810190506153e3565b838801955050505b50505092915050565b600061541f8284615390565b915081905092915050565b7f4f6e6c792061646d696e2063616e20616363657074207061727469636970616e60008201527f7473000000000000000000000000000000000000000000000000000000000000602082015250565b6000615486602283613c6c565b91506154918261542a565b604082019050919050565b600060208201905081810360008301526154b581615479565b9050919050565b7f4f6e6c792061646d696e2063616e2072656d6f7665207061727469636970616e60008201527f7473000000000000000000000000000000000000000000000000000000000000602082015250565b6000615518602283613c6c565b9150615523826154bc565b604082019050919050565b600060208201905081810360008301526155478161550b565b9050919050565b7f5061727469636970616e74206e6f7420666f756e640000000000000000000000600082015250565b6000615584601583613c6c565b915061558f8261554e565b602082019050919050565b600060208201905081810360008301526155b381615577565b9050919050565b7f557365726e616d6520616c726561647920657869737473212100000000000000600082015250565b60006155f0601983613c6c565b91506155fb826155ba565b602082019050919050565b6000602082019050818103600083015261561f816155e3565b9050919050565b7f557365726e616d6520697320616c72656164792074616b656e20627920616e6f60008201527f7468657220757365722100000000000000000000000000000000000000000000602082015250565b6000615682602a83613c6c565b915061568d82615626565b604082019050919050565b600060208201905081810360008301526156b181615675565b9050919050565b7f4f6e6c79207061727469636970616e74732063616e206164642066756e647300600082015250565b60006156ee601f83613c6c565b91506156f9826156b8565b602082019050919050565b6000602082019050818103600083015261571d816156e1565b9050919050565b7f496e73756666696369656e742066756e64730000000000000000000000000000600082015250565b600061575a601283613c6c565b915061576582615724565b602082019050919050565b600060208201905081810360008301526157898161574d565b9050919050565b7f6368617269747920616c72656164792063726561746564000000000000000000600082015250565b60006157c6601783613c6c565b91506157d182615790565b602082019050919050565b600060208201905081810360008301526157f5816157b9565b9050919050565b600060408201905081810360008301526158168185613cb8565b9050818103602083015261582a8184613cb8565b90509392505050565b7f57616c6c6574206e6f7420666f756e6400000000000000000000000000000000600082015250565b6000615869601083613c6c565b915061587482615833565b602082019050919050565b600060208201905081810360008301526158988161585c565b9050919050565b6000819050919050565b6158ba6158b582613d13565b61589f565b82525050565b6000819050919050565b6000819050919050565b6158e56158e0826158c0565b6158ca565b82525050565b60006158f782866158a9565b60208201915061590782856158a9565b60208201915061591782846158d4565b602082019150819050949350505050565b600061593382613d13565b915061593e83613d13565b92508261594e5761594d614a06565b5b828206905092915050565b7f4e487b7100000000000000000000000000000000000000000000000000000000600052603160045260246000fd5b7f456c656d656e74206e6f7420666f756e6420696e206172726179000000000000600082015250565b60006159be601a83613c6c565b91506159c982615988565b602082019050919050565b600060208201905081810360008301526159ed816159b1565b9050919050565b600081905092915050565b60008190508160005260206000209050919050565b60008154615a2181614914565b615a2b81866159f4565b94506001821660008114615a465760018114615a5b57615a8e565b60ff1983168652811515820286019350615a8e565b615a64856159ff565b60005b83811015615a8657815481890152600182019150602081019050615a67565b838801955050505b50505092915050565b6000615aa38284615a14565b91508190509291505056fea2646970667358221220dfead080e89456afa63a25e316ba2918d9be7a8c9178a14a296b58f3fe7cca5764736f6c63430008130033",
  "linkReferences": {},
  "deployedLinkReferences": {}
}