{
  "_format": "hh-sol-artifact-1",
  "contractName": "Shared",
  "sourceName": "contracts/Shared.sol",
  "abi": [
    {
      "anonymous": false,
      "inputs": [
        {
          "indexed": true,
          "internalType": "address",
          "name": "walletId",
          "type": "address"
        },
        {
          "indexed": false,
          "internalType": "string",
          "name": "charityName",
          "type": "string"
        },
        {
          "indexed": false,
          "internalType": "string",
          "name": "description",
          "type": "string"
        }
      ],
      "name": "CharityCreated",
      "type": "event"
    },
    {
      "anonymous": false,
      "inputs": [
        {
          "indexed": true,
          "internalType": "uint256",
          "name": "walletId",
          "type": "uint256"
        },
        {
          "indexed": true,
          "internalType": "string",
          "name": "participant",
          "type": "string"
        },
        {
          "indexed": false,
          "internalType": "uint256",
          "name": "amount",
          "type": "uint256"
        }
      ],
      "name": "FundsAddedToSharedWallet",
      "type": "event"
    },
    {
      "anonymous": false,
      "inputs": [
        {
          "indexed": true,
          "internalType": "uint256",
          "name": "walletId",
          "type": "uint256"
        },
        {
          "indexed": true,
          "internalType": "string",
          "name": "participant",
          "type": "string"
        },
        {
          "indexed": false,
          "internalType": "uint256",
          "name": "amount",
          "type": "uint256"
        },
        {
          "indexed": false,
          "internalType": "string",
          "name": "description",
          "type": "string"
        }
      ],
      "name": "FundsWithdrawnFromSharedWallet",
      "type": "event"
    },
    {
      "anonymous": false,
      "inputs": [
        {
          "indexed": true,
          "internalType": "uint256",
          "name": "walletId",
          "type": "uint256"
        },
        {
          "indexed": true,
          "internalType": "address",
          "name": "participant",
          "type": "address"
        }
      ],
      "name": "ParticipantAccepted",
      "type": "event"
    },
    {
      "anonymous": false,
      "inputs": [
        {
          "indexed": true,
          "internalType": "uint256",
          "name": "walletId",
          "type": "uint256"
        },
        {
          "indexed": true,
          "internalType": "address",
          "name": "participant",
          "type": "address"
        }
      ],
      "name": "ParticipantRejected",
      "type": "event"
    },
    {
      "anonymous": false,
      "inputs": [
        {
          "indexed": true,
          "internalType": "uint256",
          "name": "walletId",
          "type": "uint256"
        },
        {
          "indexed": true,
          "internalType": "address",
          "name": "participant",
          "type": "address"
        }
      ],
      "name": "ParticipantRemoved",
      "type": "event"
    },
    {
      "anonymous": false,
      "inputs": [
        {
          "indexed": true,
          "internalType": "uint256",
          "name": "walletId",
          "type": "uint256"
        },
        {
          "indexed": true,
          "internalType": "address",
          "name": "participant",
          "type": "address"
        }
      ],
      "name": "ParticipantRequest",
      "type": "event"
    },
    {
      "anonymous": false,
      "inputs": [
        {
          "indexed": true,
          "internalType": "uint256",
          "name": "walletId",
          "type": "uint256"
        },
        {
          "indexed": true,
          "internalType": "address",
          "name": "admin",
          "type": "address"
        },
        {
          "indexed": false,
          "internalType": "uint256",
          "name": "goalAmount",
          "type": "uint256"
        },
        {
          "indexed": false,
          "internalType": "uint256",
          "name": "borrowLimit",
          "type": "uint256"
        },
        {
          "indexed": false,
          "internalType": "address[]",
          "name": "participants",
          "type": "address[]"
        }
      ],
      "name": "SharedWalletCreated",
      "type": "event"
    },
    {
      "inputs": [
        {
          "internalType": "uint256",
          "name": "_walletId",
          "type": "uint256"
        },
        {
          "internalType": "address",
          "name": "_participant",
          "type": "address"
        }
      ],
      "name": "acceptParticipant",
      "outputs": [],
      "stateMutability": "nonpayable",
      "type": "function"
    },
    {
      "inputs": [
        {
          "internalType": "uint256",
          "name": "_walletId",
          "type": "uint256"
        }
      ],
      "name": "addFundsToSharedWallet",
      "outputs": [],
      "stateMutability": "payable",
      "type": "function"
    },
    {
      "inputs": [
        {
          "internalType": "uint256",
          "name": "",
          "type": "uint256"
        }
      ],
      "name": "allTransactions",
      "outputs": [
        {
          "internalType": "string",
          "name": "sender",
          "type": "string"
        },
        {
          "internalType": "string",
          "name": "receiver",
          "type": "string"
        },
        {
          "internalType": "uint256",
          "name": "amount",
          "type": "uint256"
        },
        {
          "internalType": "string",
          "name": "description",
          "type": "string"
        },
        {
          "internalType": "uint256",
          "name": "timestamp",
          "type": "uint256"
        }
      ],
      "stateMutability": "view",
      "type": "function"
    },
    {
      "inputs": [
        {
          "internalType": "uint256",
          "name": "",
          "type": "uint256"
        }
      ],
      "name": "charities",
      "outputs": [
        {
          "internalType": "address",
          "name": "walletId",
          "type": "address"
        },
        {
          "internalType": "string",
          "name": "charityName",
          "type": "string"
        },
        {
          "internalType": "string",
          "name": "description",
          "type": "string"
        }
      ],
      "stateMutability": "view",
      "type": "function"
    },
    {
      "inputs": [
        {
          "internalType": "uint256",
          "name": "",
          "type": "uint256"
        }
      ],
      "name": "charityId",
      "outputs": [
        {
          "internalType": "uint256",
          "name": "",
          "type": "uint256"
        }
      ],
      "stateMutability": "view",
      "type": "function"
    },
    {
      "inputs": [
        {
          "internalType": "string",
          "name": "_name",
          "type": "string"
        },
        {
          "internalType": "string",
          "name": "_description",
          "type": "string"
        }
      ],
      "name": "createOrgCharity",
      "outputs": [],
      "stateMutability": "nonpayable",
      "type": "function"
    },
    {
      "inputs": [
        {
          "internalType": "uint256",
          "name": "_goalAmount",
          "type": "uint256"
        },
        {
          "internalType": "uint256",
          "name": "_borrowLimit",
          "type": "uint256"
        },
        {
          "internalType": "string",
          "name": "_walname",
          "type": "string"
        }
      ],
      "name": "createSharedWallet",
      "outputs": [],
      "stateMutability": "nonpayable",
      "type": "function"
    },
    {
      "inputs": [
        {
          "internalType": "uint256",
          "name": "",
          "type": "uint256"
        }
      ],
      "name": "existingUsernames",
      "outputs": [
        {
          "internalType": "string",
          "name": "",
          "type": "string"
        }
      ],
      "stateMutability": "view",
      "type": "function"
    },
    {
      "inputs": [],
      "name": "getAllCharities",
      "outputs": [
        {
          "components": [
            {
              "internalType": "address",
              "name": "walletId",
              "type": "address"
            },
            {
              "internalType": "string",
              "name": "charityName",
              "type": "string"
            },
            {
              "internalType": "string",
              "name": "description",
              "type": "string"
            }
          ],
          "internalType": "struct Shared.Charity[]",
          "name": "",
          "type": "tuple[]"
        }
      ],
      "stateMutability": "view",
      "type": "function"
    },
    {
      "inputs": [],
      "name": "getAllSharedWallets",
      "outputs": [
        {
          "components": [
            {
              "internalType": "uint256",
              "name": "walletId",
              "type": "uint256"
            },
            {
              "internalType": "string",
              "name": "walletName",
              "type": "string"
            },
            {
              "internalType": "uint256",
              "name": "walletBalance",
              "type": "uint256"
            },
            {
              "internalType": "address",
              "name": "admin",
              "type": "address"
            },
            {
              "internalType": "uint256",
              "name": "goalAmount",
              "type": "uint256"
            },
            {
              "internalType": "uint256",
              "name": "borrowLimit",
              "type": "uint256"
            },
            {
              "internalType": "address[]",
              "name": "participants",
              "type": "address[]"
            },
            {
              "internalType": "address[]",
              "name": "participantRequests",
              "type": "address[]"
            },
            {
              "internalType": "uint256[]",
              "name": "transactionIndices",
              "type": "uint256[]"
            }
          ],
          "internalType": "struct Shared.SharedWallet[]",
          "name": "",
          "type": "tuple[]"
        }
      ],
      "stateMutability": "view",
      "type": "function"
    },
    {
      "inputs": [
        {
          "internalType": "uint256",
          "name": "_walletId",
          "type": "uint256"
        }
      ],
      "name": "getBalance",
      "outputs": [
        {
          "internalType": "uint256",
          "name": "",
          "type": "uint256"
        }
      ],
      "stateMutability": "view",
      "type": "function"
    },
    {
      "inputs": [],
      "name": "getName",
      "outputs": [
        {
          "internalType": "string",
          "name": "",
          "type": "string"
        }
      ],
      "stateMutability": "view",
      "type": "function"
    },
    {
      "inputs": [
        {
          "internalType": "uint256",
          "name": "_walletId",
          "type": "uint256"
        }
      ],
      "name": "getNumberOfParticipants",
      "outputs": [
        {
          "internalType": "uint256",
          "name": "",
          "type": "uint256"
        }
      ],
      "stateMutability": "view",
      "type": "function"
    },
    {
      "inputs": [],
      "name": "getUsername",
      "outputs": [
        {
          "internalType": "string",
          "name": "",
          "type": "string"
        }
      ],
      "stateMutability": "view",
      "type": "function"
    },
    {
      "inputs": [
        {
          "internalType": "uint256",
          "name": "_walletId",
          "type": "uint256"
        }
      ],
      "name": "getWalName",
      "outputs": [
        {
          "internalType": "string",
          "name": "",
          "type": "string"
        }
      ],
      "stateMutability": "view",
      "type": "function"
    },
    {
      "inputs": [
        {
          "internalType": "uint256",
          "name": "_walletId",
          "type": "uint256"
        }
      ],
      "name": "getWalletTransactions",
      "outputs": [
        {
          "components": [
            {
              "internalType": "string",
              "name": "sender",
              "type": "string"
            },
            {
              "internalType": "string",
              "name": "receiver",
              "type": "string"
            },
            {
              "internalType": "uint256",
              "name": "amount",
              "type": "uint256"
            },
            {
              "internalType": "string",
              "name": "description",
              "type": "string"
            },
            {
              "internalType": "uint256",
              "name": "timestamp",
              "type": "uint256"
            }
          ],
          "internalType": "struct Shared.Transaction[]",
          "name": "",
          "type": "tuple[]"
        }
      ],
      "stateMutability": "view",
      "type": "function"
    },
    {
      "inputs": [
        {
          "internalType": "address",
          "name": "",
          "type": "address"
        }
      ],
      "name": "hasCreatedCharity",
      "outputs": [
        {
          "internalType": "bool",
          "name": "",
          "type": "bool"
        }
      ],
      "stateMutability": "view",
      "type": "function"
    },
    {
      "inputs": [
        {
          "internalType": "uint256",
          "name": "_walletId",
          "type": "uint256"
        },
        {
          "internalType": "address",
          "name": "_participant",
          "type": "address"
        }
      ],
      "name": "isParticipant",
      "outputs": [
        {
          "internalType": "bool",
          "name": "",
          "type": "bool"
        }
      ],
      "stateMutability": "view",
      "type": "function"
    },
    {
      "inputs": [
        {
          "internalType": "string",
          "name": "_name",
          "type": "string"
        },
        {
          "internalType": "string",
          "name": "_username",
          "type": "string"
        }
      ],
      "name": "mapNameAndUsernameToWalletId",
      "outputs": [],
      "stateMutability": "nonpayable",
      "type": "function"
    },
    {
      "inputs": [
        {
          "internalType": "address",
          "name": "",
          "type": "address"
        }
      ],
      "name": "name",
      "outputs": [
        {
          "internalType": "string",
          "name": "",
          "type": "string"
        }
      ],
      "stateMutability": "view",
      "type": "function"
    },
    {
      "inputs": [
        {
          "internalType": "uint256",
          "name": "_walletId",
          "type": "uint256"
        },
        {
          "internalType": "address",
          "name": "_participant",
          "type": "address"
        }
      ],
      "name": "rejectParticipant",
      "outputs": [],
      "stateMutability": "nonpayable",
      "type": "function"
    },
    {
      "inputs": [
        {
          "internalType": "uint256",
          "name": "_walletId",
          "type": "uint256"
        },
        {
          "internalType": "address",
          "name": "_participant",
          "type": "address"
        }
      ],
      "name": "removeParticipant",
      "outputs": [],
      "stateMutability": "nonpayable",
      "type": "function"
    },
    {
      "inputs": [
        {
          "internalType": "uint256",
          "name": "_walletId",
          "type": "uint256"
        }
      ],
      "name": "requestToJoin",
      "outputs": [],
      "stateMutability": "nonpayable",
      "type": "function"
    },
    {
      "inputs": [
        {
          "internalType": "uint256",
          "name": "",
          "type": "uint256"
        }
      ],
      "name": "sharedWallets",
      "outputs": [
        {
          "internalType": "uint256",
          "name": "walletId",
          "type": "uint256"
        },
        {
          "internalType": "string",
          "name": "walletName",
          "type": "string"
        },
        {
          "internalType": "uint256",
          "name": "walletBalance",
          "type": "uint256"
        },
        {
          "internalType": "address",
          "name": "admin",
          "type": "address"
        },
        {
          "internalType": "uint256",
          "name": "goalAmount",
          "type": "uint256"
        },
        {
          "internalType": "uint256",
          "name": "borrowLimit",
          "type": "uint256"
        }
      ],
      "stateMutability": "view",
      "type": "function"
    },
    {
      "inputs": [
        {
          "internalType": "address",
          "name": "",
          "type": "address"
        }
      ],
      "name": "username",
      "outputs": [
        {
          "internalType": "string",
          "name": "",
          "type": "string"
        }
      ],
      "stateMutability": "view",
      "type": "function"
    },
    {
      "inputs": [
        {
          "internalType": "uint256",
          "name": "",
          "type": "uint256"
        }
      ],
      "name": "walletIdExists",
      "outputs": [
        {
          "internalType": "bool",
          "name": "",
          "type": "bool"
        }
      ],
      "stateMutability": "view",
      "type": "function"
    },
    {
      "inputs": [
        {
          "internalType": "uint256",
          "name": "_walletId",
          "type": "uint256"
        },
        {
          "internalType": "uint256",
          "name": "_amount",
          "type": "uint256"
        },
        {
          "internalType": "string",
          "name": "_description",
          "type": "string"
        }
      ],
      "name": "withdrawFundsFromSharedWallet",
      "outputs": [],
      "stateMutability": "nonpayable",
      "type": "function"
    }
  ],
  "bytecode": "0x608060405234801561001057600080fd5b506156c180620000216000396000f3fe60806040526004361061019c5760003560e01c80637a175f40116100ec578063cf4a1f9c1161008a578063ec0106ac11610064578063ec0106ac1461064c578063f85a933c1461068e578063fb709d2e146106aa578063fd57959f146106e95761019c565b8063cf4a1f9c146105a5578063d7ff0714146105ce578063dd385cf21461060f5761019c565b8063b5bbd279116100c6578063b5bbd279146104eb578063ba09826614610516578063bc00370014610553578063c4434b851461057c5761019c565b80637a175f40146104705780638402276714610499578063ab1351e5146104c25761019c565b80633688299c1161015957806364ead1eb1161013357806364ead1eb1461038e578063681f3e6d146103cb578063758d9b89146103f65780637943e51c146104335761019c565b80633688299c146102e9578063423b8e881461031457806348c7cc81146103515761019c565b806301984892146101a15780630610a7a2146101de57806317d7de7c1461021b5780631ca125cf146102465780631e0104391461028357806325c93ab1146102c0575b600080fd5b3480156101ad57600080fd5b506101c860048036038101906101c391906138da565b610712565b6040516101d59190613997565b60405180910390f35b3480156101ea57600080fd5b50610205600480360381019061020091906138da565b6107b2565b6040516102129190613997565b60405180910390f35b34801561022757600080fd5b50610230610852565b60405161023d9190613997565b60405180910390f35b34801561025257600080fd5b5061026d600480360381019061026891906139ef565b610921565b60405161027a9190613997565b60405180910390f35b34801561028f57600080fd5b506102aa60048036038101906102a591906139ef565b6109e6565b6040516102b79190613a2b565b60405180910390f35b3480156102cc57600080fd5b506102e760048036038101906102e29190613b7b565b610a7e565b005b3480156102f557600080fd5b506102fe610e53565b60405161030b9190613f4c565b60405180910390f35b34801561032057600080fd5b5061033b600480360381019061033691906139ef565b611137565b6040516103489190613f89565b60405180910390f35b34801561035d57600080fd5b50610378600480360381019061037391906139ef565b611157565b60405161038591906140ea565b60405180910390f35b34801561039a57600080fd5b506103b560048036038101906103b091906139ef565b6114f5565b6040516103c29190613a2b565b60405180910390f35b3480156103d757600080fd5b506103e0611595565b6040516103ed9190613997565b60405180910390f35b34801561040257600080fd5b5061041d6004803603810190610418919061410c565b611664565b60405161042a9190613f89565b60405180910390f35b34801561043f57600080fd5b5061045a600480360381019061045591906139ef565b611764565b6040516104679190613997565b60405180910390f35b34801561047c57600080fd5b506104976004803603810190610492919061410c565b611810565b005b3480156104a557600080fd5b506104c060048036038101906104bb91906139ef565b611990565b005b3480156104ce57600080fd5b506104e960048036038101906104e49190613b7b565b611b5f565b005b3480156104f757600080fd5b50610500612074565b60405161050d9190614265565b60405180910390f35b34801561052257600080fd5b5061053d600480360381019061053891906138da565b61224d565b60405161054a9190613f89565b60405180910390f35b34801561055f57600080fd5b5061057a6004803603810190610575919061410c565b61226d565b005b34801561058857600080fd5b506105a3600480360381019061059e919061410c565b612473565b005b3480156105b157600080fd5b506105cc60048036038101906105c79190614287565b6125f3565b005b3480156105da57600080fd5b506105f560048036038101906105f091906139ef565b61279d565b6040516106069594939291906142ff565b60405180910390f35b34801561061b57600080fd5b50610636600480360381019061063191906139ef565b61297b565b6040516106439190613a2b565b60405180910390f35b34801561065857600080fd5b50610673600480360381019061066e91906139ef565b612993565b60405161068596959493929190614376565b60405180910390f35b6106a860048036038101906106a391906139ef565b612a87565b005b3480156106b657600080fd5b506106d160048036038101906106cc91906139ef565b612f17565b6040516106e0939291906143de565b60405180910390f35b3480156106f557600080fd5b50610710600480360381019061070b9190614287565b613081565b005b6005602052806000526040600020600091509050805461073190614452565b80601f016020809104026020016040519081016040528092919081815260200182805461075d90614452565b80156107aa5780601f1061077f576101008083540402835291602001916107aa565b820191906000526020600020905b81548152906001019060200180831161078d57829003601f168201915b505050505081565b600460205280600052604060002060009150905080546107d190614452565b80601f01602080910402602001604051908101604052809291908181526020018280546107fd90614452565b801561084a5780601f1061081f5761010080835404028352916020019161084a565b820191906000526020600020905b81548152906001019060200180831161082d57829003601f168201915b505050505081565b6060600560003373ffffffffffffffffffffffffffffffffffffffff1673ffffffffffffffffffffffffffffffffffffffff168152602001908152602001600020805461089e90614452565b80601f01602080910402602001604051908101604052809291908181526020018280546108ca90614452565b80156109175780601f106108ec57610100808354040283529160200191610917565b820191906000526020600020905b8154815290600101906020018083116108fa57829003601f168201915b5050505050905090565b6060600061092e83613291565b90506000818154811061094457610943614483565b5b9060005260206000209060090201600101805461096090614452565b80601f016020809104026020016040519081016040528092919081815260200182805461098c90614452565b80156109d95780601f106109ae576101008083540402835291602001916109d9565b820191906000526020600020905b8154815290600101906020018083116109bc57829003601f168201915b5050505050915050919050565b6000806109f283613291565b90506109fe8333611664565b610a3d576040517f08c379a0000000000000000000000000000000000000000000000000000000008152600401610a3490614524565b60405180910390fd5b670de0b6b3a764000060008281548110610a5a57610a59614483565b5b906000526020600020906009020160020154610a7691906145a2565b915050919050565b60008311610ac1576040517f08c379a0000000000000000000000000000000000000000000000000000000008152600401610ab890614645565b60405180910390fd5b6000821015610b05576040517f08c379a0000000000000000000000000000000000000000000000000000000008152600401610afc906146d7565b60405180910390fd5b6000610b0f61332f565b90506000600167ffffffffffffffff811115610b2e57610b2d613a50565b5b604051908082528060200260200182016040528015610b5c5781602001602082028036833780820191505090505b5090503381600081518110610b7457610b73614483565b5b602002602001019073ffffffffffffffffffffffffffffffffffffffff16908173ffffffffffffffffffffffffffffffffffffffff16815250506000604051806101200160405280848152602001858152602001600081526020013373ffffffffffffffffffffffffffffffffffffffff168152602001670de0b6b3a764000088610bff91906146f7565b8152602001670de0b6b3a764000087610c1891906146f7565b8152602001838152602001600067ffffffffffffffff811115610c3e57610c3d613a50565b5b604051908082528060200260200182016040528015610c6c5781602001602082028036833780820191505090505b508152602001600067ffffffffffffffff811115610c8d57610c8c613a50565b5b604051908082528060200260200182016040528015610cbb5781602001602082028036833780820191505090505b5081525090506000819080600181540180825580915050600190039060005260206000209060090201600090919091909150600082015181600001556020820151816001019081610d0c91906148e5565b506040820151816002015560608201518160030160006101000a81548173ffffffffffffffffffffffffffffffffffffffff021916908373ffffffffffffffffffffffffffffffffffffffff1602179055506080820151816004015560a0820151816005015560c0820151816006019080519060200190610d8e929190613745565b5060e0820151816007019080519060200190610dab929190613745565b50610100820151816008019080519060200190610dc99291906137cf565b50505060016003600085815260200190815260200160002060006101000a81548160ff0219169083151502179055503373ffffffffffffffffffffffffffffffffffffffff16837fbb22188d95efa8c4f325d45db9224a8e37daca69776a24623d5851833076f6ed888886604051610e4393929190614a26565b60405180910390a3505050505050565b60606000805480602002602001604051908101604052809291908181526020016000905b8282101561112e57838290600052602060002090600902016040518061012001604052908160008201548152602001600182018054610eb590614452565b80601f0160208091040260200160405190810160405280929190818152602001828054610ee190614452565b8015610f2e5780601f10610f0357610100808354040283529160200191610f2e565b820191906000526020600020905b815481529060010190602001808311610f1157829003601f168201915b50505050508152602001600282015481526020016003820160009054906101000a900473ffffffffffffffffffffffffffffffffffffffff1673ffffffffffffffffffffffffffffffffffffffff1673ffffffffffffffffffffffffffffffffffffffff16815260200160048201548152602001600582015481526020016006820180548060200260200160405190810160405280929190818152602001828054801561103057602002820191906000526020600020905b8160009054906101000a900473ffffffffffffffffffffffffffffffffffffffff1673ffffffffffffffffffffffffffffffffffffffff1681526020019060010190808311610fe6575b50505050508152602001600782018054806020026020016040519081016040528092919081815260200182805480156110be57602002820191906000526020600020905b8160009054906101000a900473ffffffffffffffffffffffffffffffffffffffff1673ffffffffffffffffffffffffffffffffffffffff1681526020019060010190808311611074575b505050505081526020016008820180548060200260200160405190810160405280929190818152602001828054801561111657602002820191906000526020600020905b815481526020019060010190808311611102575b50505050508152505081526020019060010190610e77565b50505050905090565b60036020528060005260406000206000915054906101000a900460ff1681565b60606003600083815260200190815260200160002060009054906101000a900460ff166111b9576040517f08c379a00000000000000000000000000000000000000000000000000000000081526004016111b090614ad6565b60405180910390fd5b60006111c483613291565b905060008082815481106111db576111da614483565b5b906000526020600020906009020160080180548060200260200160405190810160405280929190818152602001828054801561123657602002820191906000526020600020905b815481526020019060010190808311611222575b5050505050905060008151905060008167ffffffffffffffff81111561125f5761125e613a50565b5b60405190808252806020026020018201604052801561129857816020015b61128561381c565b81526020019060019003908161127d5790505b50905060005b828110156114e85760018482815181106112bb576112ba614483565b5b6020026020010151815481106112d4576112d3614483565b5b90600052602060002090600502016040518060a00160405290816000820180546112fd90614452565b80601f016020809104026020016040519081016040528092919081815260200182805461132990614452565b80156113765780601f1061134b57610100808354040283529160200191611376565b820191906000526020600020905b81548152906001019060200180831161135957829003601f168201915b5050505050815260200160018201805461138f90614452565b80601f01602080910402602001604051908101604052809291908181526020018280546113bb90614452565b80156114085780601f106113dd57610100808354040283529160200191611408565b820191906000526020600020905b8154815290600101906020018083116113eb57829003601f168201915b505050505081526020016002820154815260200160038201805461142b90614452565b80601f016020809104026020016040519081016040528092919081815260200182805461145790614452565b80156114a45780601f10611479576101008083540402835291602001916114a4565b820191906000526020600020905b81548152906001019060200180831161148757829003601f168201915b505050505081526020016004820154815250508282815181106114ca576114c9614483565b5b602002602001018190525080806114e090614af6565b91505061129e565b5080945050505050919050565b60006003600083815260200190815260200160002060009054906101000a900460ff16611557576040517f08c379a000000000000000000000000000000000000000000000000000000000815260040161154e90614ad6565b60405180910390fd5b600061156283613291565b90506000818154811061157857611577614483565b5b906000526020600020906009020160060180549050915050919050565b6060600460003373ffffffffffffffffffffffffffffffffffffffff1673ffffffffffffffffffffffffffffffffffffffff16815260200190815260200160002080546115e190614452565b80601f016020809104026020016040519081016040528092919081815260200182805461160d90614452565b801561165a5780601f1061162f5761010080835404028352916020019161165a565b820191906000526020600020905b81548152906001019060200180831161163d57829003601f168201915b5050505050905090565b60008061167084613291565b905060005b6000828154811061168957611688614483565b5b906000526020600020906009020160060180549050811015611757578373ffffffffffffffffffffffffffffffffffffffff16600083815481106116d0576116cf614483565b5b906000526020600020906009020160060182815481106116f3576116f2614483565b5b9060005260206000200160009054906101000a900473ffffffffffffffffffffffffffffffffffffffff1673ffffffffffffffffffffffffffffffffffffffff16036117445760019250505061175e565b808061174f90614af6565b915050611675565b5060009150505b92915050565b6008818154811061177457600080fd5b90600052602060002001600091509050805461178f90614452565b80601f01602080910402602001604051908101604052809291908181526020018280546117bb90614452565b80156118085780601f106117dd57610100808354040283529160200191611808565b820191906000526020600020905b8154815290600101906020018083116117eb57829003601f168201915b505050505081565b6000828154811061182457611823614483565b5b906000526020600020906009020160030160009054906101000a900473ffffffffffffffffffffffffffffffffffffffff1673ffffffffffffffffffffffffffffffffffffffff163373ffffffffffffffffffffffffffffffffffffffff16146118c3576040517f08c379a00000000000000000000000000000000000000000000000000000000081526004016118ba90614bb0565b60405180910390fd5b6118cd82826133e8565b61190c576040517f08c379a000000000000000000000000000000000000000000000000000000000815260040161190390614c1c565b60405180910390fd5b600061191783613291565b9050611947600082815481106119305761192f614483565b5b9060005260206000209060090201600701836134e8565b8173ffffffffffffffffffffffffffffffffffffffff16837f8903f797b9477780cd04a7e575d254f82d9ebb89d859f46f60604c575f2ba27e60405160405180910390a3505050565b6003600082815260200190815260200160002060009054906101000a900460ff166119f0576040517f08c379a00000000000000000000000000000000000000000000000000000000081526004016119e790614ad6565b60405180910390fd5b6119fa8133611664565b15611a3a576040517f08c379a0000000000000000000000000000000000000000000000000000000008152600401611a3190614c88565b60405180910390fd5b611a4481336133e8565b15611a84576040517f08c379a0000000000000000000000000000000000000000000000000000000008152600401611a7b90614cf4565b60405180910390fd5b6000611a8f82613291565b905060008181548110611aa557611aa4614483565b5b9060005260206000209060090201600701339080600181540180825580915050600190039060005260206000200160009091909190916101000a81548173ffffffffffffffffffffffffffffffffffffffff021916908373ffffffffffffffffffffffffffffffffffffffff1602179055503373ffffffffffffffffffffffffffffffffffffffff16827f0e1d9310fd77f81b5bf5dbde6ee0c770054dd4f36103e23a85db7ac00f73d41360405160405180910390a35050565b6000611b6a84613291565b90506003600085815260200190815260200160002060009054906101000a900460ff16611bcc576040517f08c379a0000000000000000000000000000000000000000000000000000000008152600401611bc390614ad6565b60405180910390fd5b611bd68433611664565b611c15576040517f08c379a0000000000000000000000000000000000000000000000000000000008152600401611c0c90614d86565b60405180910390fd5b60008181548110611c2957611c28614483565b5b906000526020600020906009020160050154670de0b6b3a764000084611c4f91906146f7565b1115611c90576040517f08c379a0000000000000000000000000000000000000000000000000000000008152600401611c8790614e18565b60405180910390fd5b60008181548110611ca457611ca3614483565b5b906000526020600020906009020160020154670de0b6b3a764000084611cca91906146f7565b1115611d0b576040517f08c379a0000000000000000000000000000000000000000000000000000000008152600401611d0290614eaa565b60405180910390fd5b6000670de0b6b3a764000084611d2191906146f7565b90508060008381548110611d3857611d37614483565b5b90600052602060002090600902016002016000828254611d589190614eca565b925050819055508060008381548110611d7457611d73614483565b5b90600052602060002090600902016004016000828254611d949190614efe565b925050819055503373ffffffffffffffffffffffffffffffffffffffff166108fc829081150290604051600060405180830381858888f19350505050158015611de1573d6000803e3d6000fd5b506000600180549050905060016040518060a001604052806040518060400160405280600d81526020017f7368617265642077616c6c6574000000000000000000000000000000000000008152508152602001600460003373ffffffffffffffffffffffffffffffffffffffff1673ffffffffffffffffffffffffffffffffffffffff1681526020019081526020016000208054611e7e90614452565b80601f0160208091040260200160405190810160405280929190818152602001828054611eaa90614452565b8015611ef75780601f10611ecc57610100808354040283529160200191611ef7565b820191906000526020600020905b815481529060010190602001808311611eda57829003601f168201915b505050505081526020018481526020018681526020014281525090806001815401808255809150506001900390600052602060002090600502016000909190919091506000820151816000019081611f4f91906148e5565b506020820151816001019081611f6591906148e5565b50604082015181600201556060820151816003019081611f8591906148e5565b5060808201518160040155505060008381548110611fa657611fa5614483565b5b9060005260206000209060090201600801819080600181540180825580915050600190039060005260206000200160009091909190915055600460003373ffffffffffffffffffffffffffffffffffffffff1673ffffffffffffffffffffffffffffffffffffffff16815260200190815260200160002060405161202a9190614fc0565b6040518091039020867fbb31fe6d54c0eff79d3b8ec5ea0ce9f193fdd4d4fd265163499f26672fe3e3138787604051612064929190614fd7565b60405180910390a3505050505050565b60606002805480602002602001604051908101604052809291908181526020016000905b8282101561224457838290600052602060002090600302016040518060600160405290816000820160009054906101000a900473ffffffffffffffffffffffffffffffffffffffff1673ffffffffffffffffffffffffffffffffffffffff1673ffffffffffffffffffffffffffffffffffffffff16815260200160018201805461212190614452565b80601f016020809104026020016040519081016040528092919081815260200182805461214d90614452565b801561219a5780601f1061216f5761010080835404028352916020019161219a565b820191906000526020600020905b81548152906001019060200180831161217d57829003601f168201915b505050505081526020016002820180546121b390614452565b80601f01602080910402602001604051908101604052809291908181526020018280546121df90614452565b801561222c5780601f106122015761010080835404028352916020019161222c565b820191906000526020600020905b81548152906001019060200180831161220f57829003601f168201915b50505050508152505081526020019060010190612098565b50505050905090565b60076020528060005260406000206000915054906101000a900460ff1681565b600061227883613291565b90506000818154811061228e5761228d614483565b5b906000526020600020906009020160030160009054906101000a900473ffffffffffffffffffffffffffffffffffffffff1673ffffffffffffffffffffffffffffffffffffffff163373ffffffffffffffffffffffffffffffffffffffff161461232d576040517f08c379a000000000000000000000000000000000000000000000000000000000815260040161232490615079565b60405180910390fd5b61233783836133e8565b612376576040517f08c379a000000000000000000000000000000000000000000000000000000000815260040161236d90614c1c565b60405180910390fd5b6000818154811061238a57612389614483565b5b9060005260206000209060090201600601829080600181540180825580915050600190039060005260206000200160009091909190916101000a81548173ffffffffffffffffffffffffffffffffffffffff021916908373ffffffffffffffffffffffffffffffffffffffff16021790555061242a6000828154811061241357612412614483565b5b9060005260206000209060090201600701836134e8565b8173ffffffffffffffffffffffffffffffffffffffff16837f55db954dfe09b91087e0919cb7fb06e3642e0d393ed967f4192c27de59293c7260405160405180910390a3505050565b600061247e83613291565b90506000818154811061249457612493614483565b5b906000526020600020906009020160030160009054906101000a900473ffffffffffffffffffffffffffffffffffffffff1673ffffffffffffffffffffffffffffffffffffffff163373ffffffffffffffffffffffffffffffffffffffff1614612533576040517f08c379a000000000000000000000000000000000000000000000000000000000815260040161252a9061510b565b60405180910390fd5b61253d8383611664565b61257c576040517f08c379a000000000000000000000000000000000000000000000000000000000815260040161257390615177565b60405180910390fd5b6125aa6000828154811061259357612592614483565b5b9060005260206000209060090201600601836134e8565b8173ffffffffffffffffffffffffffffffffffffffff16837fcef8fac05afb87995942422eac900de6af11a555d80d075340af81db492119fe60405160405180910390a3505050565b6000600460003373ffffffffffffffffffffffffffffffffffffffff1673ffffffffffffffffffffffffffffffffffffffff168152602001908152602001600020805461263f90614452565b905014612681576040517f08c379a0000000000000000000000000000000000000000000000000000000008152600401612678906151e3565b60405180910390fd5b61268a816136c8565b156126ca576040517f08c379a00000000000000000000000000000000000000000000000000000000081526004016126c190615275565b60405180910390fd5b81600560003373ffffffffffffffffffffffffffffffffffffffff1673ffffffffffffffffffffffffffffffffffffffff168152602001908152602001600020908161271691906148e5565b5080600460003373ffffffffffffffffffffffffffffffffffffffff1673ffffffffffffffffffffffffffffffffffffffff168152602001908152602001600020908161276391906148e5565b5060088190806001815401808255809150506001900390600052602060002001600090919091909150908161279891906148e5565b505050565b600181815481106127ad57600080fd5b90600052602060002090600502016000915090508060000180546127d090614452565b80601f01602080910402602001604051908101604052809291908181526020018280546127fc90614452565b80156128495780601f1061281e57610100808354040283529160200191612849565b820191906000526020600020905b81548152906001019060200180831161282c57829003601f168201915b50505050509080600101805461285e90614452565b80601f016020809104026020016040519081016040528092919081815260200182805461288a90614452565b80156128d75780601f106128ac576101008083540402835291602001916128d7565b820191906000526020600020905b8154815290600101906020018083116128ba57829003601f168201915b5050505050908060020154908060030180546128f290614452565b80601f016020809104026020016040519081016040528092919081815260200182805461291e90614452565b801561296b5780601f106129405761010080835404028352916020019161296b565b820191906000526020600020905b81548152906001019060200180831161294e57829003601f168201915b5050505050908060040154905085565b60066020528060005260406000206000915090505481565b600081815481106129a357600080fd5b90600052602060002090600902016000915090508060000154908060010180546129cc90614452565b80601f01602080910402602001604051908101604052809291908181526020018280546129f890614452565b8015612a455780601f10612a1a57610100808354040283529160200191612a45565b820191906000526020600020905b815481529060010190602001808311612a2857829003601f168201915b5050505050908060020154908060030160009054906101000a900473ffffffffffffffffffffffffffffffffffffffff16908060040154908060050154905086565b6000612a9282613291565b90506003600083815260200190815260200160002060009054906101000a900460ff16612af4576040517f08c379a0000000000000000000000000000000000000000000000000000000008152600401612aeb90614ad6565b60405180910390fd5b612afe8233611664565b612b3d576040517f08c379a0000000000000000000000000000000000000000000000000000000008152600401612b34906152e1565b60405180910390fd5b60003411612b80576040517f08c379a0000000000000000000000000000000000000000000000000000000008152600401612b779061534d565b60405180910390fd5b3460008281548110612b9557612b94614483565b5b90600052602060002090600902016002016000828254612bb59190614efe565b925050819055503460008281548110612bd157612bd0614483565b5b9060005260206000209060090201600401541115612c2a573460008281548110612bfe57612bfd614483565b5b90600052602060002090600902016004016000828254612c1e9190614eca565b92505081905550612c55565b6000808281548110612c3f57612c3e614483565b5b9060005260206000209060090201600401819055505b6000600180549050905060016040518060a00160405280600460003373ffffffffffffffffffffffffffffffffffffffff1673ffffffffffffffffffffffffffffffffffffffff1681526020019081526020016000208054612cb690614452565b80601f0160208091040260200160405190810160405280929190818152602001828054612ce290614452565b8015612d2f5780601f10612d0457610100808354040283529160200191612d2f565b820191906000526020600020905b815481529060010190602001808311612d1257829003601f168201915b505050505081526020016040518060400160405280600d81526020017f7368617265642077616c6c65740000000000000000000000000000000000000081525081526020013481526020016040518060400160405280601c81526020017f46756e647320616464656420746f207368617265642077616c6c65740000000081525081526020014281525090806001815401808255809150506001900390600052602060002090600502016000909190919091506000820151816000019081612df791906148e5565b506020820151816001019081612e0d91906148e5565b50604082015181600201556060820151816003019081612e2d91906148e5565b5060808201518160040155505060008281548110612e4e57612e4d614483565b5b9060005260206000209060090201600801819080600181540180825580915050600190039060005260206000200160009091909190915055600460003373ffffffffffffffffffffffffffffffffffffffff1673ffffffffffffffffffffffffffffffffffffffff168152602001908152602001600020604051612ed29190614fc0565b6040518091039020837f15b3997472c689f4d1336348cbf0980da653dddde6a52fa7e787650c4f3ec7c934604051612f0a9190613a2b565b60405180910390a3505050565b60028181548110612f2757600080fd5b90600052602060002090600302016000915090508060000160009054906101000a900473ffffffffffffffffffffffffffffffffffffffff1690806001018054612f7090614452565b80601f0160208091040260200160405190810160405280929190818152602001828054612f9c90614452565b8015612fe95780601f10612fbe57610100808354040283529160200191612fe9565b820191906000526020600020905b815481529060010190602001808311612fcc57829003601f168201915b505050505090806002018054612ffe90614452565b80601f016020809104026020016040519081016040528092919081815260200182805461302a90614452565b80156130775780601f1061304c57610100808354040283529160200191613077565b820191906000526020600020905b81548152906001019060200180831161305a57829003601f168201915b5050505050905083565b600760003373ffffffffffffffffffffffffffffffffffffffff1673ffffffffffffffffffffffffffffffffffffffff16815260200190815260200160002060009054906101000a900460ff161561310e576040517f08c379a0000000000000000000000000000000000000000000000000000000008152600401613105906153b9565b60405180910390fd5b600060405180606001604052803373ffffffffffffffffffffffffffffffffffffffff168152602001848152602001838152509050600281908060018154018082558091505060019003906000526020600020906003020160009091909190915060008201518160000160006101000a81548173ffffffffffffffffffffffffffffffffffffffff021916908373ffffffffffffffffffffffffffffffffffffffff16021790555060208201518160010190816131cb91906148e5565b5060408201518160020190816131e191906148e5565b5050506001600760003373ffffffffffffffffffffffffffffffffffffffff1673ffffffffffffffffffffffffffffffffffffffff16815260200190815260200160002060006101000a81548160ff0219169083151502179055503373ffffffffffffffffffffffffffffffffffffffff167fd98e142226aaa094e0d82c09885e86172e376383ae815a4b512a594ff762bb5684846040516132849291906153d9565b60405180910390a2505050565b600080600090505b6000805490508110156132ee5782600082815481106132bb576132ba614483565b5b906000526020600020906009020160000154036132db578091505061332a565b80806132e690614af6565b915050613299565b506040517f08c379a00000000000000000000000000000000000000000000000000000000081526004016133219061545c565b60405180910390fd5b919050565b60008044426001436133419190614eca565b40604051602001613354939291906154c8565b6040516020818303038152906040528051906020012060001c90506103e8612328826133809190615505565b61338a9190614efe565b90505b6003600082815260200190815260200160002060009054906101000a900460ff16156133e1576103e86123286001836133c69190614efe565b6133d09190615505565b6133da9190614efe565b905061338d565b8091505090565b6000806133f484613291565b905060005b6000828154811061340d5761340c614483565b5b9060005260206000209060090201600701805490508110156134db578373ffffffffffffffffffffffffffffffffffffffff166000838154811061345457613453614483565b5b9060005260206000209060090201600701828154811061347757613476614483565b5b9060005260206000200160009054906101000a900473ffffffffffffffffffffffffffffffffffffffff1673ffffffffffffffffffffffffffffffffffffffff16036134c8576001925050506134e2565b80806134d390614af6565b9150506133f9565b5060009150505b92915050565b60005b8280549050811015613688578173ffffffffffffffffffffffffffffffffffffffff1683828154811061352157613520614483565b5b9060005260206000200160009054906101000a900473ffffffffffffffffffffffffffffffffffffffff1673ffffffffffffffffffffffffffffffffffffffff160361367557600183805490506135789190614eca565b8110156136295782600184805490506135919190614eca565b815481106135a2576135a1614483565b5b9060005260206000200160009054906101000a900473ffffffffffffffffffffffffffffffffffffffff168382815481106135e0576135df614483565b5b9060005260206000200160006101000a81548173ffffffffffffffffffffffffffffffffffffffff021916908373ffffffffffffffffffffffffffffffffffffffff1602179055505b8280548061363a57613639615536565b5b6001900381819060005260206000200160006101000a81549073ffffffffffffffffffffffffffffffffffffffff02191690559055506136c4565b808061368090614af6565b9150506134eb565b506040517f08c379a00000000000000000000000000000000000000000000000000000000081526004016136bb906155b1565b60405180910390fd5b5050565b600080600090505b60088054905081101561373a578280519060200120600882815481106136f9576136f8614483565b5b906000526020600020016040516137109190615674565b604051809103902003613727576001915050613740565b808061373290614af6565b9150506136d0565b50600090505b919050565b8280548282559060005260206000209081019282156137be579160200282015b828111156137bd5782518260006101000a81548173ffffffffffffffffffffffffffffffffffffffff021916908373ffffffffffffffffffffffffffffffffffffffff16021790555091602001919060010190613765565b5b5090506137cb919061384b565b5090565b82805482825590600052602060002090810192821561380b579160200282015b8281111561380a5782518255916020019190600101906137ef565b5b509050613818919061384b565b5090565b6040518060a0016040528060608152602001606081526020016000815260200160608152602001600081525090565b5b8082111561386457600081600090555060010161384c565b5090565b6000604051905090565b600080fd5b600080fd5b600073ffffffffffffffffffffffffffffffffffffffff82169050919050565b60006138a78261387c565b9050919050565b6138b78161389c565b81146138c257600080fd5b50565b6000813590506138d4816138ae565b92915050565b6000602082840312156138f0576138ef613872565b5b60006138fe848285016138c5565b91505092915050565b600081519050919050565b600082825260208201905092915050565b60005b83811015613941578082015181840152602081019050613926565b60008484015250505050565b6000601f19601f8301169050919050565b600061396982613907565b6139738185613912565b9350613983818560208601613923565b61398c8161394d565b840191505092915050565b600060208201905081810360008301526139b1818461395e565b905092915050565b6000819050919050565b6139cc816139b9565b81146139d757600080fd5b50565b6000813590506139e9816139c3565b92915050565b600060208284031215613a0557613a04613872565b5b6000613a13848285016139da565b91505092915050565b613a25816139b9565b82525050565b6000602082019050613a406000830184613a1c565b92915050565b600080fd5b600080fd5b7f4e487b7100000000000000000000000000000000000000000000000000000000600052604160045260246000fd5b613a888261394d565b810181811067ffffffffffffffff82111715613aa757613aa6613a50565b5b80604052505050565b6000613aba613868565b9050613ac68282613a7f565b919050565b600067ffffffffffffffff821115613ae657613ae5613a50565b5b613aef8261394d565b9050602081019050919050565b82818337600083830152505050565b6000613b1e613b1984613acb565b613ab0565b905082815260208101848484011115613b3a57613b39613a4b565b5b613b45848285613afc565b509392505050565b600082601f830112613b6257613b61613a46565b5b8135613b72848260208601613b0b565b91505092915050565b600080600060608486031215613b9457613b93613872565b5b6000613ba2868287016139da565b9350506020613bb3868287016139da565b925050604084013567ffffffffffffffff811115613bd457613bd3613877565b5b613be086828701613b4d565b9150509250925092565b600081519050919050565b600082825260208201905092915050565b6000819050602082019050919050565b613c1f816139b9565b82525050565b600082825260208201905092915050565b6000613c4182613907565b613c4b8185613c25565b9350613c5b818560208601613923565b613c648161394d565b840191505092915050565b613c788161389c565b82525050565b600081519050919050565b600082825260208201905092915050565b6000819050602082019050919050565b6000613cb68383613c6f565b60208301905092915050565b6000602082019050919050565b6000613cda82613c7e565b613ce48185613c89565b9350613cef83613c9a565b8060005b83811015613d20578151613d078882613caa565b9750613d1283613cc2565b925050600181019050613cf3565b5085935050505092915050565b600081519050919050565b600082825260208201905092915050565b6000819050602082019050919050565b6000613d658383613c16565b60208301905092915050565b6000602082019050919050565b6000613d8982613d2d565b613d938185613d38565b9350613d9e83613d49565b8060005b83811015613dcf578151613db68882613d59565b9750613dc183613d71565b925050600181019050613da2565b5085935050505092915050565b600061012083016000830151613df56000860182613c16565b5060208301518482036020860152613e0d8282613c36565b9150506040830151613e226040860182613c16565b506060830151613e356060860182613c6f565b506080830151613e486080860182613c16565b5060a0830151613e5b60a0860182613c16565b5060c083015184820360c0860152613e738282613ccf565b91505060e083015184820360e0860152613e8d8282613ccf565b915050610100830151848203610100860152613ea98282613d7e565b9150508091505092915050565b6000613ec28383613ddc565b905092915050565b6000602082019050919050565b6000613ee282613bea565b613eec8185613bf5565b935083602082028501613efe85613c06565b8060005b85811015613f3a5784840389528151613f1b8582613eb6565b9450613f2683613eca565b925060208a01995050600181019050613f02565b50829750879550505050505092915050565b60006020820190508181036000830152613f668184613ed7565b905092915050565b60008115159050919050565b613f8381613f6e565b82525050565b6000602082019050613f9e6000830184613f7a565b92915050565b600081519050919050565b600082825260208201905092915050565b6000819050602082019050919050565b600060a0830160008301518482036000860152613fed8282613c36565b915050602083015184820360208601526140078282613c36565b915050604083015161401c6040860182613c16565b50606083015184820360608601526140348282613c36565b91505060808301516140496080860182613c16565b508091505092915050565b60006140608383613fd0565b905092915050565b6000602082019050919050565b600061408082613fa4565b61408a8185613faf565b93508360208202850161409c85613fc0565b8060005b858110156140d857848403895281516140b98582614054565b94506140c483614068565b925060208a019950506001810190506140a0565b50829750879550505050505092915050565b600060208201905081810360008301526141048184614075565b905092915050565b6000806040838503121561412357614122613872565b5b6000614131858286016139da565b9250506020614142858286016138c5565b9150509250929050565b600081519050919050565b600082825260208201905092915050565b6000819050602082019050919050565b60006060830160008301516141906000860182613c6f565b50602083015184820360208601526141a88282613c36565b915050604083015184820360408601526141c28282613c36565b9150508091505092915050565b60006141db8383614178565b905092915050565b6000602082019050919050565b60006141fb8261414c565b6142058185614157565b93508360208202850161421785614168565b8060005b85811015614253578484038952815161423485826141cf565b945061423f836141e3565b925060208a0199505060018101905061421b565b50829750879550505050505092915050565b6000602082019050818103600083015261427f81846141f0565b905092915050565b6000806040838503121561429e5761429d613872565b5b600083013567ffffffffffffffff8111156142bc576142bb613877565b5b6142c885828601613b4d565b925050602083013567ffffffffffffffff8111156142e9576142e8613877565b5b6142f585828601613b4d565b9150509250929050565b600060a0820190508181036000830152614319818861395e565b9050818103602083015261432d818761395e565b905061433c6040830186613a1c565b818103606083015261434e818561395e565b905061435d6080830184613a1c565b9695505050505050565b6143708161389c565b82525050565b600060c08201905061438b6000830189613a1c565b818103602083015261439d818861395e565b90506143ac6040830187613a1c565b6143b96060830186614367565b6143c66080830185613a1c565b6143d360a0830184613a1c565b979650505050505050565b60006060820190506143f36000830186614367565b8181036020830152614405818561395e565b90508181036040830152614419818461395e565b9050949350505050565b7f4e487b7100000000000000000000000000000000000000000000000000000000600052602260045260246000fd5b6000600282049050600182168061446a57607f821691505b60208210810361447d5761447c614423565b5b50919050565b7f4e487b7100000000000000000000000000000000000000000000000000000000600052603260045260246000fd5b7f596f7520617265206e6f7420612070617274696370616e74206f66207468652060008201527f7370656369666965642077616c6c657420696400000000000000000000000000602082015250565b600061450e603383613912565b9150614519826144b2565b604082019050919050565b6000602082019050818103600083015261453d81614501565b9050919050565b7f4e487b7100000000000000000000000000000000000000000000000000000000600052601260045260246000fd5b7f4e487b7100000000000000000000000000000000000000000000000000000000600052601160045260246000fd5b60006145ad826139b9565b91506145b8836139b9565b9250826145c8576145c7614544565b5b828204905092915050565b7f476f616c20616d6f756e74206d7573742062652067726561746572207468616e60008201527f2030000000000000000000000000000000000000000000000000000000000000602082015250565b600061462f602283613912565b915061463a826145d3565b604082019050919050565b6000602082019050818103600083015261465e81614622565b9050919050565b7f426f72726f77206c696d6974206d757374206265206e6f6e2d6e65676174697660008201527f6500000000000000000000000000000000000000000000000000000000000000602082015250565b60006146c1602183613912565b91506146cc82614665565b604082019050919050565b600060208201905081810360008301526146f0816146b4565b9050919050565b6000614702826139b9565b915061470d836139b9565b925082820261471b816139b9565b9150828204841483151761473257614731614573565b5b5092915050565b60008190508160005260206000209050919050565b60006020601f8301049050919050565b600082821b905092915050565b60006008830261479b7fffffffffffffffffffffffffffffffffffffffffffffffffffffffffffffffff8261475e565b6147a5868361475e565b95508019841693508086168417925050509392505050565b6000819050919050565b60006147e26147dd6147d8846139b9565b6147bd565b6139b9565b9050919050565b6000819050919050565b6147fc836147c7565b614810614808826147e9565b84845461476b565b825550505050565b600090565b614825614818565b6148308184846147f3565b505050565b5b818110156148545761484960008261481d565b600181019050614836565b5050565b601f8211156148995761486a81614739565b6148738461474e565b81016020851015614882578190505b61489661488e8561474e565b830182614835565b50505b505050565b600082821c905092915050565b60006148bc6000198460080261489e565b1980831691505092915050565b60006148d583836148ab565b9150826002028217905092915050565b6148ee82613907565b67ffffffffffffffff81111561490757614906613a50565b5b6149118254614452565b61491c828285614858565b600060209050601f83116001811461494f576000841561493d578287015190505b61494785826148c9565b8655506149af565b601f19841661495d86614739565b60005b8281101561498557848901518255600182019150602085019450602081019050614960565b868310156149a2578489015161499e601f8916826148ab565b8355505b6001600288020188555050505b505050505050565b600082825260208201905092915050565b60006149d382613c7e565b6149dd81856149b7565b93506149e883613c9a565b8060005b83811015614a19578151614a008882613caa565b9750614a0b83613cc2565b9250506001810190506149ec565b5085935050505092915050565b6000606082019050614a3b6000830186613a1c565b614a486020830185613a1c565b8181036040830152614a5a81846149c8565b9050949350505050565b7f57616c6c6574207769746820676976656e20494420646f6573206e6f7420657860008201527f6973740000000000000000000000000000000000000000000000000000000000602082015250565b6000614ac0602383613912565b9150614acb82614a64565b604082019050919050565b60006020820190508181036000830152614aef81614ab3565b9050919050565b6000614b01826139b9565b91507fffffffffffffffffffffffffffffffffffffffffffffffffffffffffffffffff8203614b3357614b32614573565b5b600182019050919050565b7f4f6e6c792061646d696e2063616e2072656a656374207061727469636970616e60008201527f7473000000000000000000000000000000000000000000000000000000000000602082015250565b6000614b9a602283613912565b9150614ba582614b3e565b604082019050919050565b60006020820190508181036000830152614bc981614b8d565b9050919050565b7f5061727469636970616e742072657175657374206e6f7420666f756e64000000600082015250565b6000614c06601d83613912565b9150614c1182614bd0565b602082019050919050565b60006020820190508181036000830152614c3581614bf9565b9050919050565b7f416c72656164792061207061727469636970616e740000000000000000000000600082015250565b6000614c72601583613912565b9150614c7d82614c3c565b602082019050919050565b60006020820190508181036000830152614ca181614c65565b9050919050565b7f5265717565737420616c7265616479207375626d697474656400000000000000600082015250565b6000614cde601983613912565b9150614ce982614ca8565b602082019050919050565b60006020820190508181036000830152614d0d81614cd1565b9050919050565b7f4f6e6c79207061727469636970616e74732063616e207769746864726177206660008201527f756e647300000000000000000000000000000000000000000000000000000000602082015250565b6000614d70602483613912565b9150614d7b82614d14565b604082019050919050565b60006020820190508181036000830152614d9f81614d63565b9050919050565b7f5769746864726177616c20616d6f756e7420657863656564732074686520626f60008201527f72726f77206c696d697400000000000000000000000000000000000000000000602082015250565b6000614e02602a83613912565b9150614e0d82614da6565b604082019050919050565b60006020820190508181036000830152614e3181614df5565b9050919050565b7f496e73756666696369656e742066756e647320696e207468652073686172656460008201527f2077616c6c657400000000000000000000000000000000000000000000000000602082015250565b6000614e94602783613912565b9150614e9f82614e38565b604082019050919050565b60006020820190508181036000830152614ec381614e87565b9050919050565b6000614ed5826139b9565b9150614ee0836139b9565b9250828203905081811115614ef857614ef7614573565b5b92915050565b6000614f09826139b9565b9150614f14836139b9565b9250828201905080821115614f2c57614f2b614573565b5b92915050565b600081905092915050565b60008154614f4a81614452565b614f548186614f32565b94506001821660008114614f6f5760018114614f8457614fb7565b60ff1983168652811515820286019350614fb7565b614f8d85614739565b60005b83811015614faf57815481890152600182019150602081019050614f90565b838801955050505b50505092915050565b6000614fcc8284614f3d565b915081905092915050565b6000604082019050614fec6000830185613a1c565b8181036020830152614ffe818461395e565b90509392505050565b7f4f6e6c792061646d696e2063616e20616363657074207061727469636970616e60008201527f7473000000000000000000000000000000000000000000000000000000000000602082015250565b6000615063602283613912565b915061506e82615007565b604082019050919050565b6000602082019050818103600083015261509281615056565b9050919050565b7f4f6e6c792061646d696e2063616e2072656d6f7665207061727469636970616e60008201527f7473000000000000000000000000000000000000000000000000000000000000602082015250565b60006150f5602283613912565b915061510082615099565b604082019050919050565b60006020820190508181036000830152615124816150e8565b9050919050565b7f5061727469636970616e74206e6f7420666f756e640000000000000000000000600082015250565b6000615161601583613912565b915061516c8261512b565b602082019050919050565b6000602082019050818103600083015261519081615154565b9050919050565b7f557365726e616d6520616c726561647920657869737473212100000000000000600082015250565b60006151cd601983613912565b91506151d882615197565b602082019050919050565b600060208201905081810360008301526151fc816151c0565b9050919050565b7f557365726e616d6520697320616c72656164792074616b656e20627920616e6f60008201527f7468657220757365722100000000000000000000000000000000000000000000602082015250565b600061525f602a83613912565b915061526a82615203565b604082019050919050565b6000602082019050818103600083015261528e81615252565b9050919050565b7f4f6e6c79207061727469636970616e74732063616e206164642066756e647300600082015250565b60006152cb601f83613912565b91506152d682615295565b602082019050919050565b600060208201905081810360008301526152fa816152be565b9050919050565b7f496e73756666696369656e742066756e64730000000000000000000000000000600082015250565b6000615337601283613912565b915061534282615301565b602082019050919050565b600060208201905081810360008301526153668161532a565b9050919050565b7f6368617269747920616c72656164792063726561746564000000000000000000600082015250565b60006153a3601783613912565b91506153ae8261536d565b602082019050919050565b600060208201905081810360008301526153d281615396565b9050919050565b600060408201905081810360008301526153f3818561395e565b90508181036020830152615407818461395e565b90509392505050565b7f57616c6c6574206e6f7420666f756e6400000000000000000000000000000000600082015250565b6000615446601083613912565b915061545182615410565b602082019050919050565b6000602082019050818103600083015261547581615439565b9050919050565b6000819050919050565b615497615492826139b9565b61547c565b82525050565b6000819050919050565b6000819050919050565b6154c26154bd8261549d565b6154a7565b82525050565b60006154d48286615486565b6020820191506154e48285615486565b6020820191506154f482846154b1565b602082019150819050949350505050565b6000615510826139b9565b915061551b836139b9565b92508261552b5761552a614544565b5b828206905092915050565b7f4e487b7100000000000000000000000000000000000000000000000000000000600052603160045260246000fd5b7f456c656d656e74206e6f7420666f756e6420696e206172726179000000000000600082015250565b600061559b601a83613912565b91506155a682615565565b602082019050919050565b600060208201905081810360008301526155ca8161558e565b9050919050565b600081905092915050565b60008190508160005260206000209050919050565b600081546155fe81614452565b61560881866155d1565b9450600182166000811461562357600181146156385761566b565b60ff198316865281151582028601935061566b565b615641856155dc565b60005b8381101561566357815481890152600182019150602081019050615644565b838801955050505b50505092915050565b600061568082846155f1565b91508190509291505056fea264697066735822122079cf07ec49bf38027d7cdede73156b7556707bc2cef0e383467d75b7c0b247a464736f6c63430008130033",
  "linkReferences": {},
  "deployedLinkReferences": {}
}