{
  "_format": "hh-sol-artifact-1",
  "contractName": "Shared",
  "sourceName": "contracts/Shared.sol",
  "abi": [
    {
      "anonymous": false,
      "inputs": [
        {
          "indexed": true,
          "internalType": "address",
          "name": "walletId",
          "type": "address"
        },
        {
          "indexed": false,
          "internalType": "string",
          "name": "charityName",
          "type": "string"
        },
        {
          "indexed": false,
          "internalType": "string",
          "name": "description",
          "type": "string"
        }
      ],
      "name": "CharityCreated",
      "type": "event"
    },
    {
      "anonymous": false,
      "inputs": [
        {
          "indexed": true,
          "internalType": "uint256",
          "name": "walletId",
          "type": "uint256"
        },
        {
          "indexed": true,
          "internalType": "string",
          "name": "participant",
          "type": "string"
        },
        {
          "indexed": false,
          "internalType": "uint256",
          "name": "amount",
          "type": "uint256"
        }
      ],
      "name": "FundsAddedToSharedWallet",
      "type": "event"
    },
    {
      "anonymous": false,
      "inputs": [
        {
          "indexed": true,
          "internalType": "uint256",
          "name": "walletId",
          "type": "uint256"
        },
        {
          "indexed": true,
          "internalType": "string",
          "name": "participant",
          "type": "string"
        },
        {
          "indexed": false,
          "internalType": "uint256",
          "name": "amount",
          "type": "uint256"
        }
      ],
      "name": "FundsWithdrawnFromSharedWallet",
      "type": "event"
    },
    {
      "anonymous": false,
      "inputs": [
        {
          "indexed": true,
          "internalType": "uint256",
          "name": "walletId",
          "type": "uint256"
        },
        {
          "indexed": true,
          "internalType": "address",
          "name": "participant",
          "type": "address"
        }
      ],
      "name": "ParticipantAccepted",
      "type": "event"
    },
    {
      "anonymous": false,
      "inputs": [
        {
          "indexed": true,
          "internalType": "uint256",
          "name": "walletId",
          "type": "uint256"
        },
        {
          "indexed": true,
          "internalType": "address",
          "name": "participant",
          "type": "address"
        }
      ],
      "name": "ParticipantRejected",
      "type": "event"
    },
    {
      "anonymous": false,
      "inputs": [
        {
          "indexed": true,
          "internalType": "uint256",
          "name": "walletId",
          "type": "uint256"
        },
        {
          "indexed": true,
          "internalType": "address",
          "name": "participant",
          "type": "address"
        }
      ],
      "name": "ParticipantRemoved",
      "type": "event"
    },
    {
      "anonymous": false,
      "inputs": [
        {
          "indexed": true,
          "internalType": "uint256",
          "name": "walletId",
          "type": "uint256"
        },
        {
          "indexed": true,
          "internalType": "address",
          "name": "participant",
          "type": "address"
        }
      ],
      "name": "ParticipantRequest",
      "type": "event"
    },
    {
      "anonymous": false,
      "inputs": [
        {
          "indexed": true,
          "internalType": "uint256",
          "name": "walletId",
          "type": "uint256"
        },
        {
          "indexed": true,
          "internalType": "address",
          "name": "admin",
          "type": "address"
        },
        {
          "indexed": false,
          "internalType": "uint256",
          "name": "goalAmount",
          "type": "uint256"
        },
        {
          "indexed": false,
          "internalType": "uint256",
          "name": "borrowLimit",
          "type": "uint256"
        },
        {
          "indexed": false,
          "internalType": "address[]",
          "name": "participants",
          "type": "address[]"
        }
      ],
      "name": "SharedWalletCreated",
      "type": "event"
    },
    {
      "inputs": [
        {
          "internalType": "uint256",
          "name": "_walletId",
          "type": "uint256"
        },
        {
          "internalType": "address",
          "name": "_participant",
          "type": "address"
        }
      ],
      "name": "acceptParticipant",
      "outputs": [],
      "stateMutability": "nonpayable",
      "type": "function"
    },
    {
      "inputs": [
        {
          "internalType": "uint256",
          "name": "_walletId",
          "type": "uint256"
        }
      ],
      "name": "addFundsToSharedWallet",
      "outputs": [],
      "stateMutability": "payable",
      "type": "function"
    },
    {
      "inputs": [
        {
          "internalType": "uint256",
          "name": "",
          "type": "uint256"
        }
      ],
      "name": "allTransactions",
      "outputs": [
        {
          "internalType": "string",
          "name": "sender",
          "type": "string"
        },
        {
          "internalType": "string",
          "name": "receiver",
          "type": "string"
        },
        {
          "internalType": "uint256",
          "name": "amount",
          "type": "uint256"
        },
        {
          "internalType": "string",
          "name": "description",
          "type": "string"
        },
        {
          "internalType": "uint256",
          "name": "timestamp",
          "type": "uint256"
        }
      ],
      "stateMutability": "view",
      "type": "function"
    },
    {
      "inputs": [
        {
          "internalType": "uint256",
          "name": "",
          "type": "uint256"
        }
      ],
      "name": "charities",
      "outputs": [
        {
          "internalType": "address",
          "name": "walletId",
          "type": "address"
        },
        {
          "internalType": "string",
          "name": "charityName",
          "type": "string"
        },
        {
          "internalType": "string",
          "name": "description",
          "type": "string"
        }
      ],
      "stateMutability": "view",
      "type": "function"
    },
    {
      "inputs": [
        {
          "internalType": "uint256",
          "name": "",
          "type": "uint256"
        }
      ],
      "name": "charityId",
      "outputs": [
        {
          "internalType": "uint256",
          "name": "",
          "type": "uint256"
        }
      ],
      "stateMutability": "view",
      "type": "function"
    },
    {
      "inputs": [
        {
          "internalType": "string",
          "name": "_name",
          "type": "string"
        },
        {
          "internalType": "string",
          "name": "_description",
          "type": "string"
        }
      ],
      "name": "createOrgCharity",
      "outputs": [],
      "stateMutability": "nonpayable",
      "type": "function"
    },
    {
      "inputs": [
        {
          "internalType": "uint256",
          "name": "_goalAmount",
          "type": "uint256"
        },
        {
          "internalType": "uint256",
          "name": "_borrowLimit",
          "type": "uint256"
        },
        {
          "internalType": "string",
          "name": "_walname",
          "type": "string"
        }
      ],
      "name": "createSharedWallet",
      "outputs": [],
      "stateMutability": "nonpayable",
      "type": "function"
    },
    {
      "inputs": [
        {
          "internalType": "uint256",
          "name": "",
          "type": "uint256"
        }
      ],
      "name": "existingUsernames",
      "outputs": [
        {
          "internalType": "string",
          "name": "",
          "type": "string"
        }
      ],
      "stateMutability": "view",
      "type": "function"
    },
    {
      "inputs": [],
      "name": "getAllCharities",
      "outputs": [
        {
          "components": [
            {
              "internalType": "address",
              "name": "walletId",
              "type": "address"
            },
            {
              "internalType": "string",
              "name": "charityName",
              "type": "string"
            },
            {
              "internalType": "string",
              "name": "description",
              "type": "string"
            }
          ],
          "internalType": "struct Shared.Charity[]",
          "name": "",
          "type": "tuple[]"
        }
      ],
      "stateMutability": "view",
      "type": "function"
    },
    {
      "inputs": [],
      "name": "getAllSharedWallets",
      "outputs": [
        {
          "components": [
            {
              "internalType": "uint256",
              "name": "walletId",
              "type": "uint256"
            },
            {
              "internalType": "string",
              "name": "walletName",
              "type": "string"
            },
            {
              "internalType": "uint256",
              "name": "walletBalance",
              "type": "uint256"
            },
            {
              "internalType": "address",
              "name": "admin",
              "type": "address"
            },
            {
              "internalType": "uint256",
              "name": "goalAmount",
              "type": "uint256"
            },
            {
              "internalType": "uint256",
              "name": "borrowLimit",
              "type": "uint256"
            },
            {
              "internalType": "address[]",
              "name": "participants",
              "type": "address[]"
            },
            {
              "internalType": "address[]",
              "name": "participantRequests",
              "type": "address[]"
            },
            {
              "internalType": "uint256[]",
              "name": "transactionIndices",
              "type": "uint256[]"
            }
          ],
          "internalType": "struct Shared.SharedWallet[]",
          "name": "",
          "type": "tuple[]"
        }
      ],
      "stateMutability": "view",
      "type": "function"
    },
    {
      "inputs": [
        {
          "internalType": "uint256",
          "name": "_walletId",
          "type": "uint256"
        }
      ],
      "name": "getBalance",
      "outputs": [
        {
          "internalType": "uint256",
          "name": "",
          "type": "uint256"
        }
      ],
      "stateMutability": "view",
      "type": "function"
    },
    {
      "inputs": [],
      "name": "getName",
      "outputs": [
        {
          "internalType": "string",
          "name": "",
          "type": "string"
        }
      ],
      "stateMutability": "view",
      "type": "function"
    },
    {
      "inputs": [
        {
          "internalType": "uint256",
          "name": "_walletId",
          "type": "uint256"
        }
      ],
      "name": "getNumberOfParticipants",
      "outputs": [
        {
          "internalType": "uint256",
          "name": "",
          "type": "uint256"
        }
      ],
      "stateMutability": "view",
      "type": "function"
    },
    {
      "inputs": [
        {
          "internalType": "uint256",
          "name": "_walletId",
          "type": "uint256"
        }
      ],
      "name": "getParticipantRequests",
      "outputs": [
        {
          "internalType": "address[]",
          "name": "",
          "type": "address[]"
        },
        {
          "internalType": "string[]",
          "name": "",
          "type": "string[]"
        }
      ],
      "stateMutability": "view",
      "type": "function"
    },
    {
      "inputs": [
        {
          "internalType": "uint256",
          "name": "_walletId",
          "type": "uint256"
        }
      ],
      "name": "getParticipantsWithAddresses",
      "outputs": [
        {
          "internalType": "address[]",
          "name": "",
          "type": "address[]"
        },
        {
          "internalType": "string[]",
          "name": "",
          "type": "string[]"
        }
      ],
      "stateMutability": "view",
      "type": "function"
    },
    {
      "inputs": [],
      "name": "getUsername",
      "outputs": [
        {
          "internalType": "string",
          "name": "",
          "type": "string"
        }
      ],
      "stateMutability": "view",
      "type": "function"
    },
    {
      "inputs": [
        {
          "internalType": "uint256",
          "name": "_walletId",
          "type": "uint256"
        }
      ],
      "name": "getWalName",
      "outputs": [
        {
          "internalType": "string",
          "name": "",
          "type": "string"
        }
      ],
      "stateMutability": "view",
      "type": "function"
    },
    {
      "inputs": [
        {
          "internalType": "uint256",
          "name": "_walletId",
          "type": "uint256"
        }
      ],
      "name": "getWalletTransactions",
      "outputs": [
        {
          "components": [
            {
              "internalType": "string",
              "name": "sender",
              "type": "string"
            },
            {
              "internalType": "string",
              "name": "receiver",
              "type": "string"
            },
            {
              "internalType": "uint256",
              "name": "amount",
              "type": "uint256"
            },
            {
              "internalType": "string",
              "name": "description",
              "type": "string"
            },
            {
              "internalType": "uint256",
              "name": "timestamp",
              "type": "uint256"
            }
          ],
          "internalType": "struct Shared.Transaction[]",
          "name": "",
          "type": "tuple[]"
        }
      ],
      "stateMutability": "view",
      "type": "function"
    },
    {
      "inputs": [
        {
          "internalType": "address",
          "name": "",
          "type": "address"
        }
      ],
      "name": "hasCreatedCharity",
      "outputs": [
        {
          "internalType": "bool",
          "name": "",
          "type": "bool"
        }
      ],
      "stateMutability": "view",
      "type": "function"
    },
    {
      "inputs": [
        {
          "internalType": "uint256",
          "name": "_walletId",
          "type": "uint256"
        },
        {
          "internalType": "address",
          "name": "_participant",
          "type": "address"
        }
      ],
      "name": "isParticipant",
      "outputs": [
        {
          "internalType": "bool",
          "name": "",
          "type": "bool"
        }
      ],
      "stateMutability": "view",
      "type": "function"
    },
    {
      "inputs": [
        {
          "internalType": "string",
          "name": "_name",
          "type": "string"
        },
        {
          "internalType": "string",
          "name": "_username",
          "type": "string"
        }
      ],
      "name": "mapNameAndUsernameToWalletId",
      "outputs": [],
      "stateMutability": "nonpayable",
      "type": "function"
    },
    {
      "inputs": [
        {
          "internalType": "address",
          "name": "",
          "type": "address"
        }
      ],
      "name": "name",
      "outputs": [
        {
          "internalType": "string",
          "name": "",
          "type": "string"
        }
      ],
      "stateMutability": "view",
      "type": "function"
    },
    {
      "inputs": [
        {
          "internalType": "uint256",
          "name": "_walletId",
          "type": "uint256"
        },
        {
          "internalType": "address",
          "name": "_participant",
          "type": "address"
        }
      ],
      "name": "rejectParticipant",
      "outputs": [],
      "stateMutability": "nonpayable",
      "type": "function"
    },
    {
      "inputs": [
        {
          "internalType": "uint256",
          "name": "_walletId",
          "type": "uint256"
        },
        {
          "internalType": "address",
          "name": "_participant",
          "type": "address"
        }
      ],
      "name": "removeParticipant",
      "outputs": [],
      "stateMutability": "nonpayable",
      "type": "function"
    },
    {
      "inputs": [
        {
          "internalType": "uint256",
          "name": "_walletId",
          "type": "uint256"
        }
      ],
      "name": "requestToJoin",
      "outputs": [],
      "stateMutability": "nonpayable",
      "type": "function"
    },
    {
      "inputs": [
        {
          "internalType": "uint256",
          "name": "",
          "type": "uint256"
        }
      ],
      "name": "sharedWallets",
      "outputs": [
        {
          "internalType": "uint256",
          "name": "walletId",
          "type": "uint256"
        },
        {
          "internalType": "string",
          "name": "walletName",
          "type": "string"
        },
        {
          "internalType": "uint256",
          "name": "walletBalance",
          "type": "uint256"
        },
        {
          "internalType": "address",
          "name": "admin",
          "type": "address"
        },
        {
          "internalType": "uint256",
          "name": "goalAmount",
          "type": "uint256"
        },
        {
          "internalType": "uint256",
          "name": "borrowLimit",
          "type": "uint256"
        }
      ],
      "stateMutability": "view",
      "type": "function"
    },
    {
      "inputs": [
        {
          "internalType": "address",
          "name": "",
          "type": "address"
        }
      ],
      "name": "username",
      "outputs": [
        {
          "internalType": "string",
          "name": "",
          "type": "string"
        }
      ],
      "stateMutability": "view",
      "type": "function"
    },
    {
      "inputs": [
        {
          "internalType": "uint256",
          "name": "",
          "type": "uint256"
        }
      ],
      "name": "walletIdExists",
      "outputs": [
        {
          "internalType": "bool",
          "name": "",
          "type": "bool"
        }
      ],
      "stateMutability": "view",
      "type": "function"
    },
    {
      "inputs": [
        {
          "internalType": "uint256",
          "name": "_walletId",
          "type": "uint256"
        },
        {
          "internalType": "uint256",
          "name": "_amount",
          "type": "uint256"
        },
        {
          "internalType": "string",
          "name": "_description",
          "type": "string"
        }
      ],
      "name": "withdrawFundsFromSharedWallet",
      "outputs": [],
      "stateMutability": "nonpayable",
      "type": "function"
    }
  ],
  "bytecode": "0x608060405234801561001057600080fd5b50615e0a80620000216000396000f3fe6080604052600436106101c25760003560e01c80637a175f40116100f7578063c4434b8511610095578063ec0106ac11610064578063ec0106ac146106ee578063f85a933c14610730578063fb709d2e1461074c578063fd57959f1461078b576101c2565b8063c4434b851461061e578063cf4a1f9c14610647578063d7ff071414610670578063dd385cf2146106b1576101c2565b8063b38d1dd0116100d1578063b38d1dd01461054f578063b5bbd2791461058d578063ba098266146105b8578063bc003700146105f5576101c2565b80637a175f40146104d457806384022767146104fd578063ab1351e514610526576101c2565b8063423b8e881161016457806364ead1eb1161013e57806364ead1eb146103f2578063681f3e6d1461042f578063758d9b891461045a5780637943e51c14610497576101c2565b8063423b8e881461033a57806348c7cc81146103775780635e39926e146103b4576101c2565b80631ca125cf116101a05780631ca125cf1461026c5780631e010439146102a957806325c93ab1146102e65780633688299c1461030f576101c2565b806301984892146101c75780630610a7a21461020457806317d7de7c14610241575b600080fd5b3480156101d357600080fd5b506101ee60048036038101906101e99190613f5a565b6107b4565b6040516101fb9190614017565b60405180910390f35b34801561021057600080fd5b5061022b60048036038101906102269190613f5a565b610854565b6040516102389190614017565b60405180910390f35b34801561024d57600080fd5b506102566108f4565b6040516102639190614017565b60405180910390f35b34801561027857600080fd5b50610293600480360381019061028e919061406f565b6109c3565b6040516102a09190614017565b60405180910390f35b3480156102b557600080fd5b506102d060048036038101906102cb919061406f565b610a88565b6040516102dd91906140ab565b60405180910390f35b3480156102f257600080fd5b5061030d600480360381019061030891906141fb565b610b20565b005b34801561031b57600080fd5b50610324610ef5565b60405161033191906145cc565b60405180910390f35b34801561034657600080fd5b50610361600480360381019061035c919061406f565b6111d9565b60405161036e9190614609565b60405180910390f35b34801561038357600080fd5b5061039e6004803603810190610399919061406f565b6111f9565b6040516103ab919061476a565b60405180910390f35b3480156103c057600080fd5b506103db60048036038101906103d6919061406f565b611597565b6040516103e99291906148bd565b60405180910390f35b3480156103fe57600080fd5b506104196004803603810190610414919061406f565b61189a565b60405161042691906140ab565b60405180910390f35b34801561043b57600080fd5b5061044461193a565b6040516104519190614017565b60405180910390f35b34801561046657600080fd5b50610481600480360381019061047c91906148f4565b611a09565b60405161048e9190614609565b60405180910390f35b3480156104a357600080fd5b506104be60048036038101906104b9919061406f565b611b09565b6040516104cb9190614017565b60405180910390f35b3480156104e057600080fd5b506104fb60048036038101906104f691906148f4565b611bb5565b005b34801561050957600080fd5b50610524600480360381019061051f919061406f565b611d35565b005b34801561053257600080fd5b5061054d600480360381019061054891906141fb565b611f04565b005b34801561055b57600080fd5b506105766004803603810190610571919061406f565b6123f1565b6040516105849291906148bd565b60405180910390f35b34801561059957600080fd5b506105a26126f4565b6040516105af9190614a4d565b60405180910390f35b3480156105c457600080fd5b506105df60048036038101906105da9190613f5a565b6128cd565b6040516105ec9190614609565b60405180910390f35b34801561060157600080fd5b5061061c600480360381019061061791906148f4565b6128ed565b005b34801561062a57600080fd5b50610645600480360381019061064091906148f4565b612af3565b005b34801561065357600080fd5b5061066e60048036038101906106699190614a6f565b612c73565b005b34801561067c57600080fd5b506106976004803603810190610692919061406f565b612e1d565b6040516106a8959493929190614ae7565b60405180910390f35b3480156106bd57600080fd5b506106d860048036038101906106d3919061406f565b612ffb565b6040516106e591906140ab565b60405180910390f35b3480156106fa57600080fd5b506107156004803603810190610710919061406f565b613013565b60405161072796959493929190614b5e565b60405180910390f35b61074a6004803603810190610745919061406f565b613107565b005b34801561075857600080fd5b50610773600480360381019061076e919061406f565b613597565b60405161078293929190614bc6565b60405180910390f35b34801561079757600080fd5b506107b260048036038101906107ad9190614a6f565b613701565b005b600560205280600052604060002060009150905080546107d390614c3a565b80601f01602080910402602001604051908101604052809291908181526020018280546107ff90614c3a565b801561084c5780601f106108215761010080835404028352916020019161084c565b820191906000526020600020905b81548152906001019060200180831161082f57829003601f168201915b505050505081565b6004602052806000526040600020600091509050805461087390614c3a565b80601f016020809104026020016040519081016040528092919081815260200182805461089f90614c3a565b80156108ec5780601f106108c1576101008083540402835291602001916108ec565b820191906000526020600020905b8154815290600101906020018083116108cf57829003601f168201915b505050505081565b6060600560003373ffffffffffffffffffffffffffffffffffffffff1673ffffffffffffffffffffffffffffffffffffffff168152602001908152602001600020805461094090614c3a565b80601f016020809104026020016040519081016040528092919081815260200182805461096c90614c3a565b80156109b95780601f1061098e576101008083540402835291602001916109b9565b820191906000526020600020905b81548152906001019060200180831161099c57829003601f168201915b5050505050905090565b606060006109d083613911565b9050600081815481106109e6576109e5614c6b565b5b90600052602060002090600902016001018054610a0290614c3a565b80601f0160208091040260200160405190810160405280929190818152602001828054610a2e90614c3a565b8015610a7b5780601f10610a5057610100808354040283529160200191610a7b565b820191906000526020600020905b815481529060010190602001808311610a5e57829003601f168201915b5050505050915050919050565b600080610a9483613911565b9050610aa08333611a09565b610adf576040517f08c379a0000000000000000000000000000000000000000000000000000000008152600401610ad690614d0c565b60405180910390fd5b670de0b6b3a764000060008281548110610afc57610afb614c6b565b5b906000526020600020906009020160020154610b189190614d8a565b915050919050565b60008311610b63576040517f08c379a0000000000000000000000000000000000000000000000000000000008152600401610b5a90614e2d565b60405180910390fd5b6000821015610ba7576040517f08c379a0000000000000000000000000000000000000000000000000000000008152600401610b9e90614ebf565b60405180910390fd5b6000610bb16139af565b90506000600167ffffffffffffffff811115610bd057610bcf6140d0565b5b604051908082528060200260200182016040528015610bfe5781602001602082028036833780820191505090505b5090503381600081518110610c1657610c15614c6b565b5b602002602001019073ffffffffffffffffffffffffffffffffffffffff16908173ffffffffffffffffffffffffffffffffffffffff16815250506000604051806101200160405280848152602001858152602001600081526020013373ffffffffffffffffffffffffffffffffffffffff168152602001670de0b6b3a764000088610ca19190614edf565b8152602001670de0b6b3a764000087610cba9190614edf565b8152602001838152602001600067ffffffffffffffff811115610ce057610cdf6140d0565b5b604051908082528060200260200182016040528015610d0e5781602001602082028036833780820191505090505b508152602001600067ffffffffffffffff811115610d2f57610d2e6140d0565b5b604051908082528060200260200182016040528015610d5d5781602001602082028036833780820191505090505b5081525090506000819080600181540180825580915050600190039060005260206000209060090201600090919091909150600082015181600001556020820151816001019081610dae91906150cd565b506040820151816002015560608201518160030160006101000a81548173ffffffffffffffffffffffffffffffffffffffff021916908373ffffffffffffffffffffffffffffffffffffffff1602179055506080820151816004015560a0820151816005015560c0820151816006019080519060200190610e30929190613dc5565b5060e0820151816007019080519060200190610e4d929190613dc5565b50610100820151816008019080519060200190610e6b929190613e4f565b50505060016003600085815260200190815260200160002060006101000a81548160ff0219169083151502179055503373ffffffffffffffffffffffffffffffffffffffff16837fbb22188d95efa8c4f325d45db9224a8e37daca69776a24623d5851833076f6ed888886604051610ee59392919061519f565b60405180910390a3505050505050565b60606000805480602002602001604051908101604052809291908181526020016000905b828210156111d057838290600052602060002090600902016040518061012001604052908160008201548152602001600182018054610f5790614c3a565b80601f0160208091040260200160405190810160405280929190818152602001828054610f8390614c3a565b8015610fd05780601f10610fa557610100808354040283529160200191610fd0565b820191906000526020600020905b815481529060010190602001808311610fb357829003601f168201915b50505050508152602001600282015481526020016003820160009054906101000a900473ffffffffffffffffffffffffffffffffffffffff1673ffffffffffffffffffffffffffffffffffffffff1673ffffffffffffffffffffffffffffffffffffffff1681526020016004820154815260200160058201548152602001600682018054806020026020016040519081016040528092919081815260200182805480156110d257602002820191906000526020600020905b8160009054906101000a900473ffffffffffffffffffffffffffffffffffffffff1673ffffffffffffffffffffffffffffffffffffffff1681526020019060010190808311611088575b505050505081526020016007820180548060200260200160405190810160405280929190818152602001828054801561116057602002820191906000526020600020905b8160009054906101000a900473ffffffffffffffffffffffffffffffffffffffff1673ffffffffffffffffffffffffffffffffffffffff1681526020019060010190808311611116575b50505050508152602001600882018054806020026020016040519081016040528092919081815260200182805480156111b857602002820191906000526020600020905b8154815260200190600101908083116111a4575b50505050508152505081526020019060010190610f19565b50505050905090565b60036020528060005260406000206000915054906101000a900460ff1681565b60606003600083815260200190815260200160002060009054906101000a900460ff1661125b576040517f08c379a00000000000000000000000000000000000000000000000000000000081526004016112529061524f565b60405180910390fd5b600061126683613911565b9050600080828154811061127d5761127c614c6b565b5b90600052602060002090600902016008018054806020026020016040519081016040528092919081815260200182805480156112d857602002820191906000526020600020905b8154815260200190600101908083116112c4575b5050505050905060008151905060008167ffffffffffffffff811115611301576113006140d0565b5b60405190808252806020026020018201604052801561133a57816020015b611327613e9c565b81526020019060019003908161131f5790505b50905060005b8281101561158a57600184828151811061135d5761135c614c6b565b5b60200260200101518154811061137657611375614c6b565b5b90600052602060002090600502016040518060a001604052908160008201805461139f90614c3a565b80601f01602080910402602001604051908101604052809291908181526020018280546113cb90614c3a565b80156114185780601f106113ed57610100808354040283529160200191611418565b820191906000526020600020905b8154815290600101906020018083116113fb57829003601f168201915b5050505050815260200160018201805461143190614c3a565b80601f016020809104026020016040519081016040528092919081815260200182805461145d90614c3a565b80156114aa5780601f1061147f576101008083540402835291602001916114aa565b820191906000526020600020905b81548152906001019060200180831161148d57829003601f168201915b50505050508152602001600282015481526020016003820180546114cd90614c3a565b80601f01602080910402602001604051908101604052809291908181526020018280546114f990614c3a565b80156115465780601f1061151b57610100808354040283529160200191611546565b820191906000526020600020905b81548152906001019060200180831161152957829003601f168201915b5050505050815260200160048201548152505082828151811061156c5761156b614c6b565b5b602002602001018190525080806115829061526f565b915050611340565b5080945050505050919050565b6060806003600084815260200190815260200160002060009054906101000a900460ff166115fa576040517f08c379a00000000000000000000000000000000000000000000000000000000081526004016115f19061524f565b60405180910390fd5b600061160584613911565b9050600080828154811061161c5761161b614c6b565b5b906000526020600020906009020160060180549050905060008167ffffffffffffffff81111561164f5761164e6140d0565b5b60405190808252806020026020018201604052801561167d5781602001602082028036833780820191505090505b50905060008267ffffffffffffffff81111561169c5761169b6140d0565b5b6040519080825280602002602001820160405280156116cf57816020015b60608152602001906001900390816116ba5790505b50905060005b8381101561188a5760008086815481106116f2576116f1614c6b565b5b9060005260206000209060090201600601828154811061171557611714614c6b565b5b9060005260206000200160009054906101000a900473ffffffffffffffffffffffffffffffffffffffff1690508084838151811061175657611755614c6b565b5b602002602001019073ffffffffffffffffffffffffffffffffffffffff16908173ffffffffffffffffffffffffffffffffffffffff1681525050600460008273ffffffffffffffffffffffffffffffffffffffff1673ffffffffffffffffffffffffffffffffffffffff16815260200190815260200160002080546117da90614c3a565b80601f016020809104026020016040519081016040528092919081815260200182805461180690614c3a565b80156118535780601f1061182857610100808354040283529160200191611853565b820191906000526020600020905b81548152906001019060200180831161183657829003601f168201915b505050505083838151811061186b5761186a614c6b565b5b60200260200101819052505080806118829061526f565b9150506116d5565b5081819550955050505050915091565b60006003600083815260200190815260200160002060009054906101000a900460ff166118fc576040517f08c379a00000000000000000000000000000000000000000000000000000000081526004016118f39061524f565b60405180910390fd5b600061190783613911565b90506000818154811061191d5761191c614c6b565b5b906000526020600020906009020160060180549050915050919050565b6060600460003373ffffffffffffffffffffffffffffffffffffffff1673ffffffffffffffffffffffffffffffffffffffff168152602001908152602001600020805461198690614c3a565b80601f01602080910402602001604051908101604052809291908181526020018280546119b290614c3a565b80156119ff5780601f106119d4576101008083540402835291602001916119ff565b820191906000526020600020905b8154815290600101906020018083116119e257829003601f168201915b5050505050905090565b600080611a1584613911565b905060005b60008281548110611a2e57611a2d614c6b565b5b906000526020600020906009020160060180549050811015611afc578373ffffffffffffffffffffffffffffffffffffffff1660008381548110611a7557611a74614c6b565b5b90600052602060002090600902016006018281548110611a9857611a97614c6b565b5b9060005260206000200160009054906101000a900473ffffffffffffffffffffffffffffffffffffffff1673ffffffffffffffffffffffffffffffffffffffff1603611ae957600192505050611b03565b8080611af49061526f565b915050611a1a565b5060009150505b92915050565b60088181548110611b1957600080fd5b906000526020600020016000915090508054611b3490614c3a565b80601f0160208091040260200160405190810160405280929190818152602001828054611b6090614c3a565b8015611bad5780601f10611b8257610100808354040283529160200191611bad565b820191906000526020600020905b815481529060010190602001808311611b9057829003601f168201915b505050505081565b60008281548110611bc957611bc8614c6b565b5b906000526020600020906009020160030160009054906101000a900473ffffffffffffffffffffffffffffffffffffffff1673ffffffffffffffffffffffffffffffffffffffff163373ffffffffffffffffffffffffffffffffffffffff1614611c68576040517f08c379a0000000000000000000000000000000000000000000000000000000008152600401611c5f90615329565b60405180910390fd5b611c728282613a68565b611cb1576040517f08c379a0000000000000000000000000000000000000000000000000000000008152600401611ca890615395565b60405180910390fd5b6000611cbc83613911565b9050611cec60008281548110611cd557611cd4614c6b565b5b906000526020600020906009020160070183613b68565b8173ffffffffffffffffffffffffffffffffffffffff16837f8903f797b9477780cd04a7e575d254f82d9ebb89d859f46f60604c575f2ba27e60405160405180910390a3505050565b6003600082815260200190815260200160002060009054906101000a900460ff16611d95576040517f08c379a0000000000000000000000000000000000000000000000000000000008152600401611d8c9061524f565b60405180910390fd5b611d9f8133611a09565b15611ddf576040517f08c379a0000000000000000000000000000000000000000000000000000000008152600401611dd690615401565b60405180910390fd5b611de98133613a68565b15611e29576040517f08c379a0000000000000000000000000000000000000000000000000000000008152600401611e209061546d565b60405180910390fd5b6000611e3482613911565b905060008181548110611e4a57611e49614c6b565b5b9060005260206000209060090201600701339080600181540180825580915050600190039060005260206000200160009091909190916101000a81548173ffffffffffffffffffffffffffffffffffffffff021916908373ffffffffffffffffffffffffffffffffffffffff1602179055503373ffffffffffffffffffffffffffffffffffffffff16827f0e1d9310fd77f81b5bf5dbde6ee0c770054dd4f36103e23a85db7ac00f73d41360405160405180910390a35050565b6000611f0f84613911565b90506003600085815260200190815260200160002060009054906101000a900460ff16611f71576040517f08c379a0000000000000000000000000000000000000000000000000000000008152600401611f689061524f565b60405180910390fd5b611f7b8433611a09565b611fba576040517f08c379a0000000000000000000000000000000000000000000000000000000008152600401611fb1906154ff565b60405180910390fd5b6000670de0b6b3a764000084611fd09190614edf565b905060008281548110611fe657611fe5614c6b565b5b90600052602060002090600902016005015481111561203a576040517f08c379a000000000000000000000000000000000000000000000000000000000815260040161203190615591565b60405180910390fd5b6000828154811061204e5761204d614c6b565b5b9060005260206000209060090201600201548111156120a2576040517f08c379a000000000000000000000000000000000000000000000000000000000815260040161209990615623565b60405180910390fd5b80600083815481106120b7576120b6614c6b565b5b906000526020600020906009020160020160008282546120d79190615643565b9250508190555080600083815481106120f3576120f2614c6b565b5b906000526020600020906009020160040160008282546121139190615677565b925050819055503373ffffffffffffffffffffffffffffffffffffffff166108fc829081150290604051600060405180830381858888f19350505050158015612160573d6000803e3d6000fd5b506000600180549050905060016040518060a001604052806040518060400160405280600d81526020017f7368617265642077616c6c6574000000000000000000000000000000000000008152508152602001600460003373ffffffffffffffffffffffffffffffffffffffff1673ffffffffffffffffffffffffffffffffffffffff16815260200190815260200160002080546121fd90614c3a565b80601f016020809104026020016040519081016040528092919081815260200182805461222990614c3a565b80156122765780601f1061224b57610100808354040283529160200191612276565b820191906000526020600020905b81548152906001019060200180831161225957829003601f168201915b5050505050815260200184815260200186815260200142815250908060018154018082558091505060019003906000526020600020906005020160009091909190915060008201518160000190816122ce91906150cd565b5060208201518160010190816122e491906150cd565b5060408201518160020155606082015181600301908161230491906150cd565b506080820151816004015550506000838154811061232557612324614c6b565b5b9060005260206000209060090201600801819080600181540180825580915050600190039060005260206000200160009091909190915055600460003373ffffffffffffffffffffffffffffffffffffffff1673ffffffffffffffffffffffffffffffffffffffff1681526020019081526020016000206040516123a99190615739565b6040518091039020867f1da1e862b49d474681f4eaecdcb8e1ae3bb314cf38ac7b1726d8eb3e8618b310846040516123e191906140ab565b60405180910390a3505050505050565b6060806003600084815260200190815260200160002060009054906101000a900460ff16612454576040517f08c379a000000000000000000000000000000000000000000000000000000000815260040161244b9061524f565b60405180910390fd5b600061245f84613911565b9050600080828154811061247657612475614c6b565b5b906000526020600020906009020160070180549050905060008167ffffffffffffffff8111156124a9576124a86140d0565b5b6040519080825280602002602001820160405280156124d75781602001602082028036833780820191505090505b50905060008267ffffffffffffffff8111156124f6576124f56140d0565b5b60405190808252806020026020018201604052801561252957816020015b60608152602001906001900390816125145790505b50905060005b838110156126e457600080868154811061254c5761254b614c6b565b5b9060005260206000209060090201600701828154811061256f5761256e614c6b565b5b9060005260206000200160009054906101000a900473ffffffffffffffffffffffffffffffffffffffff169050808483815181106125b0576125af614c6b565b5b602002602001019073ffffffffffffffffffffffffffffffffffffffff16908173ffffffffffffffffffffffffffffffffffffffff1681525050600460008273ffffffffffffffffffffffffffffffffffffffff1673ffffffffffffffffffffffffffffffffffffffff168152602001908152602001600020805461263490614c3a565b80601f016020809104026020016040519081016040528092919081815260200182805461266090614c3a565b80156126ad5780601f10612682576101008083540402835291602001916126ad565b820191906000526020600020905b81548152906001019060200180831161269057829003601f168201915b50505050508383815181106126c5576126c4614c6b565b5b60200260200101819052505080806126dc9061526f565b91505061252f565b5081819550955050505050915091565b60606002805480602002602001604051908101604052809291908181526020016000905b828210156128c457838290600052602060002090600302016040518060600160405290816000820160009054906101000a900473ffffffffffffffffffffffffffffffffffffffff1673ffffffffffffffffffffffffffffffffffffffff1673ffffffffffffffffffffffffffffffffffffffff1681526020016001820180546127a190614c3a565b80601f01602080910402602001604051908101604052809291908181526020018280546127cd90614c3a565b801561281a5780601f106127ef5761010080835404028352916020019161281a565b820191906000526020600020905b8154815290600101906020018083116127fd57829003601f168201915b5050505050815260200160028201805461283390614c3a565b80601f016020809104026020016040519081016040528092919081815260200182805461285f90614c3a565b80156128ac5780601f10612881576101008083540402835291602001916128ac565b820191906000526020600020905b81548152906001019060200180831161288f57829003601f168201915b50505050508152505081526020019060010190612718565b50505050905090565b60076020528060005260406000206000915054906101000a900460ff1681565b60006128f883613911565b90506000818154811061290e5761290d614c6b565b5b906000526020600020906009020160030160009054906101000a900473ffffffffffffffffffffffffffffffffffffffff1673ffffffffffffffffffffffffffffffffffffffff163373ffffffffffffffffffffffffffffffffffffffff16146129ad576040517f08c379a00000000000000000000000000000000000000000000000000000000081526004016129a4906157c2565b60405180910390fd5b6129b78383613a68565b6129f6576040517f08c379a00000000000000000000000000000000000000000000000000000000081526004016129ed90615395565b60405180910390fd5b60008181548110612a0a57612a09614c6b565b5b9060005260206000209060090201600601829080600181540180825580915050600190039060005260206000200160009091909190916101000a81548173ffffffffffffffffffffffffffffffffffffffff021916908373ffffffffffffffffffffffffffffffffffffffff160217905550612aaa60008281548110612a9357612a92614c6b565b5b906000526020600020906009020160070183613b68565b8173ffffffffffffffffffffffffffffffffffffffff16837f55db954dfe09b91087e0919cb7fb06e3642e0d393ed967f4192c27de59293c7260405160405180910390a3505050565b6000612afe83613911565b905060008181548110612b1457612b13614c6b565b5b906000526020600020906009020160030160009054906101000a900473ffffffffffffffffffffffffffffffffffffffff1673ffffffffffffffffffffffffffffffffffffffff163373ffffffffffffffffffffffffffffffffffffffff1614612bb3576040517f08c379a0000000000000000000000000000000000000000000000000000000008152600401612baa90615854565b60405180910390fd5b612bbd8383611a09565b612bfc576040517f08c379a0000000000000000000000000000000000000000000000000000000008152600401612bf3906158c0565b60405180910390fd5b612c2a60008281548110612c1357612c12614c6b565b5b906000526020600020906009020160060183613b68565b8173ffffffffffffffffffffffffffffffffffffffff16837fcef8fac05afb87995942422eac900de6af11a555d80d075340af81db492119fe60405160405180910390a3505050565b6000600460003373ffffffffffffffffffffffffffffffffffffffff1673ffffffffffffffffffffffffffffffffffffffff1681526020019081526020016000208054612cbf90614c3a565b905014612d01576040517f08c379a0000000000000000000000000000000000000000000000000000000008152600401612cf89061592c565b60405180910390fd5b612d0a81613d48565b15612d4a576040517f08c379a0000000000000000000000000000000000000000000000000000000008152600401612d41906159be565b60405180910390fd5b81600560003373ffffffffffffffffffffffffffffffffffffffff1673ffffffffffffffffffffffffffffffffffffffff1681526020019081526020016000209081612d9691906150cd565b5080600460003373ffffffffffffffffffffffffffffffffffffffff1673ffffffffffffffffffffffffffffffffffffffff1681526020019081526020016000209081612de391906150cd565b50600881908060018154018082558091505060019003906000526020600020016000909190919091509081612e1891906150cd565b505050565b60018181548110612e2d57600080fd5b9060005260206000209060050201600091509050806000018054612e5090614c3a565b80601f0160208091040260200160405190810160405280929190818152602001828054612e7c90614c3a565b8015612ec95780601f10612e9e57610100808354040283529160200191612ec9565b820191906000526020600020905b815481529060010190602001808311612eac57829003601f168201915b505050505090806001018054612ede90614c3a565b80601f0160208091040260200160405190810160405280929190818152602001828054612f0a90614c3a565b8015612f575780601f10612f2c57610100808354040283529160200191612f57565b820191906000526020600020905b815481529060010190602001808311612f3a57829003601f168201915b505050505090806002015490806003018054612f7290614c3a565b80601f0160208091040260200160405190810160405280929190818152602001828054612f9e90614c3a565b8015612feb5780601f10612fc057610100808354040283529160200191612feb565b820191906000526020600020905b815481529060010190602001808311612fce57829003601f168201915b5050505050908060040154905085565b60066020528060005260406000206000915090505481565b6000818154811061302357600080fd5b906000526020600020906009020160009150905080600001549080600101805461304c90614c3a565b80601f016020809104026020016040519081016040528092919081815260200182805461307890614c3a565b80156130c55780601f1061309a576101008083540402835291602001916130c5565b820191906000526020600020905b8154815290600101906020018083116130a857829003601f168201915b5050505050908060020154908060030160009054906101000a900473ffffffffffffffffffffffffffffffffffffffff16908060040154908060050154905086565b600061311282613911565b90506003600083815260200190815260200160002060009054906101000a900460ff16613174576040517f08c379a000000000000000000000000000000000000000000000000000000000815260040161316b9061524f565b60405180910390fd5b61317e8233611a09565b6131bd576040517f08c379a00000000000000000000000000000000000000000000000000000000081526004016131b490615a2a565b60405180910390fd5b60003411613200576040517f08c379a00000000000000000000000000000000000000000000000000000000081526004016131f790615a96565b60405180910390fd5b346000828154811061321557613214614c6b565b5b906000526020600020906009020160020160008282546132359190615677565b92505081905550346000828154811061325157613250614c6b565b5b90600052602060002090600902016004015411156132aa57346000828154811061327e5761327d614c6b565b5b9060005260206000209060090201600401600082825461329e9190615643565b925050819055506132d5565b60008082815481106132bf576132be614c6b565b5b9060005260206000209060090201600401819055505b6000600180549050905060016040518060a00160405280600460003373ffffffffffffffffffffffffffffffffffffffff1673ffffffffffffffffffffffffffffffffffffffff168152602001908152602001600020805461333690614c3a565b80601f016020809104026020016040519081016040528092919081815260200182805461336290614c3a565b80156133af5780601f10613384576101008083540402835291602001916133af565b820191906000526020600020905b81548152906001019060200180831161339257829003601f168201915b505050505081526020016040518060400160405280600d81526020017f7368617265642077616c6c65740000000000000000000000000000000000000081525081526020013481526020016040518060400160405280601c81526020017f46756e647320616464656420746f207368617265642077616c6c6574000000008152508152602001428152509080600181540180825580915050600190039060005260206000209060050201600090919091909150600082015181600001908161347791906150cd565b50602082015181600101908161348d91906150cd565b506040820151816002015560608201518160030190816134ad91906150cd565b50608082015181600401555050600082815481106134ce576134cd614c6b565b5b9060005260206000209060090201600801819080600181540180825580915050600190039060005260206000200160009091909190915055600460003373ffffffffffffffffffffffffffffffffffffffff1673ffffffffffffffffffffffffffffffffffffffff1681526020019081526020016000206040516135529190615739565b6040518091039020837f15b3997472c689f4d1336348cbf0980da653dddde6a52fa7e787650c4f3ec7c93460405161358a91906140ab565b60405180910390a3505050565b600281815481106135a757600080fd5b90600052602060002090600302016000915090508060000160009054906101000a900473ffffffffffffffffffffffffffffffffffffffff16908060010180546135f090614c3a565b80601f016020809104026020016040519081016040528092919081815260200182805461361c90614c3a565b80156136695780601f1061363e57610100808354040283529160200191613669565b820191906000526020600020905b81548152906001019060200180831161364c57829003601f168201915b50505050509080600201805461367e90614c3a565b80601f01602080910402602001604051908101604052809291908181526020018280546136aa90614c3a565b80156136f75780601f106136cc576101008083540402835291602001916136f7565b820191906000526020600020905b8154815290600101906020018083116136da57829003601f168201915b5050505050905083565b600760003373ffffffffffffffffffffffffffffffffffffffff1673ffffffffffffffffffffffffffffffffffffffff16815260200190815260200160002060009054906101000a900460ff161561378e576040517f08c379a000000000000000000000000000000000000000000000000000000000815260040161378590615b02565b60405180910390fd5b600060405180606001604052803373ffffffffffffffffffffffffffffffffffffffff168152602001848152602001838152509050600281908060018154018082558091505060019003906000526020600020906003020160009091909190915060008201518160000160006101000a81548173ffffffffffffffffffffffffffffffffffffffff021916908373ffffffffffffffffffffffffffffffffffffffff160217905550602082015181600101908161384b91906150cd565b50604082015181600201908161386191906150cd565b5050506001600760003373ffffffffffffffffffffffffffffffffffffffff1673ffffffffffffffffffffffffffffffffffffffff16815260200190815260200160002060006101000a81548160ff0219169083151502179055503373ffffffffffffffffffffffffffffffffffffffff167fd98e142226aaa094e0d82c09885e86172e376383ae815a4b512a594ff762bb568484604051613904929190615b22565b60405180910390a2505050565b600080600090505b60008054905081101561396e57826000828154811061393b5761393a614c6b565b5b9060005260206000209060090201600001540361395b57809150506139aa565b80806139669061526f565b915050613919565b506040517f08c379a00000000000000000000000000000000000000000000000000000000081526004016139a190615ba5565b60405180910390fd5b919050565b60008044426001436139c19190615643565b406040516020016139d493929190615c11565b6040516020818303038152906040528051906020012060001c90506103e861232882613a009190615c4e565b613a0a9190615677565b90505b6003600082815260200190815260200160002060009054906101000a900460ff1615613a61576103e8612328600183613a469190615677565b613a509190615c4e565b613a5a9190615677565b9050613a0d565b8091505090565b600080613a7484613911565b905060005b60008281548110613a8d57613a8c614c6b565b5b906000526020600020906009020160070180549050811015613b5b578373ffffffffffffffffffffffffffffffffffffffff1660008381548110613ad457613ad3614c6b565b5b90600052602060002090600902016007018281548110613af757613af6614c6b565b5b9060005260206000200160009054906101000a900473ffffffffffffffffffffffffffffffffffffffff1673ffffffffffffffffffffffffffffffffffffffff1603613b4857600192505050613b62565b8080613b539061526f565b915050613a79565b5060009150505b92915050565b60005b8280549050811015613d08578173ffffffffffffffffffffffffffffffffffffffff16838281548110613ba157613ba0614c6b565b5b9060005260206000200160009054906101000a900473ffffffffffffffffffffffffffffffffffffffff1673ffffffffffffffffffffffffffffffffffffffff1603613cf55760018380549050613bf89190615643565b811015613ca9578260018480549050613c119190615643565b81548110613c2257613c21614c6b565b5b9060005260206000200160009054906101000a900473ffffffffffffffffffffffffffffffffffffffff16838281548110613c6057613c5f614c6b565b5b9060005260206000200160006101000a81548173ffffffffffffffffffffffffffffffffffffffff021916908373ffffffffffffffffffffffffffffffffffffffff1602179055505b82805480613cba57613cb9615c7f565b5b6001900381819060005260206000200160006101000a81549073ffffffffffffffffffffffffffffffffffffffff0219169055905550613d44565b8080613d009061526f565b915050613b6b565b506040517f08c379a0000000000000000000000000000000000000000000000000000000008152600401613d3b90615cfa565b60405180910390fd5b5050565b600080600090505b600880549050811015613dba57828051906020012060088281548110613d7957613d78614c6b565b5b90600052602060002001604051613d909190615dbd565b604051809103902003613da7576001915050613dc0565b8080613db29061526f565b915050613d50565b50600090505b919050565b828054828255906000526020600020908101928215613e3e579160200282015b82811115613e3d5782518260006101000a81548173ffffffffffffffffffffffffffffffffffffffff021916908373ffffffffffffffffffffffffffffffffffffffff16021790555091602001919060010190613de5565b5b509050613e4b9190613ecb565b5090565b828054828255906000526020600020908101928215613e8b579160200282015b82811115613e8a578251825591602001919060010190613e6f565b5b509050613e989190613ecb565b5090565b6040518060a0016040528060608152602001606081526020016000815260200160608152602001600081525090565b5b80821115613ee4576000816000905550600101613ecc565b5090565b6000604051905090565b600080fd5b600080fd5b600073ffffffffffffffffffffffffffffffffffffffff82169050919050565b6000613f2782613efc565b9050919050565b613f3781613f1c565b8114613f4257600080fd5b50565b600081359050613f5481613f2e565b92915050565b600060208284031215613f7057613f6f613ef2565b5b6000613f7e84828501613f45565b91505092915050565b600081519050919050565b600082825260208201905092915050565b60005b83811015613fc1578082015181840152602081019050613fa6565b60008484015250505050565b6000601f19601f8301169050919050565b6000613fe982613f87565b613ff38185613f92565b9350614003818560208601613fa3565b61400c81613fcd565b840191505092915050565b600060208201905081810360008301526140318184613fde565b905092915050565b6000819050919050565b61404c81614039565b811461405757600080fd5b50565b60008135905061406981614043565b92915050565b60006020828403121561408557614084613ef2565b5b60006140938482850161405a565b91505092915050565b6140a581614039565b82525050565b60006020820190506140c0600083018461409c565b92915050565b600080fd5b600080fd5b7f4e487b7100000000000000000000000000000000000000000000000000000000600052604160045260246000fd5b61410882613fcd565b810181811067ffffffffffffffff82111715614127576141266140d0565b5b80604052505050565b600061413a613ee8565b905061414682826140ff565b919050565b600067ffffffffffffffff821115614166576141656140d0565b5b61416f82613fcd565b9050602081019050919050565b82818337600083830152505050565b600061419e6141998461414b565b614130565b9050828152602081018484840111156141ba576141b96140cb565b5b6141c584828561417c565b509392505050565b600082601f8301126141e2576141e16140c6565b5b81356141f284826020860161418b565b91505092915050565b60008060006060848603121561421457614213613ef2565b5b60006142228682870161405a565b93505060206142338682870161405a565b925050604084013567ffffffffffffffff81111561425457614253613ef7565b5b614260868287016141cd565b9150509250925092565b600081519050919050565b600082825260208201905092915050565b6000819050602082019050919050565b61429f81614039565b82525050565b600082825260208201905092915050565b60006142c182613f87565b6142cb81856142a5565b93506142db818560208601613fa3565b6142e481613fcd565b840191505092915050565b6142f881613f1c565b82525050565b600081519050919050565b600082825260208201905092915050565b6000819050602082019050919050565b600061433683836142ef565b60208301905092915050565b6000602082019050919050565b600061435a826142fe565b6143648185614309565b935061436f8361431a565b8060005b838110156143a0578151614387888261432a565b975061439283614342565b925050600181019050614373565b5085935050505092915050565b600081519050919050565b600082825260208201905092915050565b6000819050602082019050919050565b60006143e58383614296565b60208301905092915050565b6000602082019050919050565b6000614409826143ad565b61441381856143b8565b935061441e836143c9565b8060005b8381101561444f57815161443688826143d9565b9750614441836143f1565b925050600181019050614422565b5085935050505092915050565b6000610120830160008301516144756000860182614296565b506020830151848203602086015261448d82826142b6565b91505060408301516144a26040860182614296565b5060608301516144b560608601826142ef565b5060808301516144c86080860182614296565b5060a08301516144db60a0860182614296565b5060c083015184820360c08601526144f3828261434f565b91505060e083015184820360e086015261450d828261434f565b91505061010083015184820361010086015261452982826143fe565b9150508091505092915050565b6000614542838361445c565b905092915050565b6000602082019050919050565b60006145628261426a565b61456c8185614275565b93508360208202850161457e85614286565b8060005b858110156145ba578484038952815161459b8582614536565b94506145a68361454a565b925060208a01995050600181019050614582565b50829750879550505050505092915050565b600060208201905081810360008301526145e68184614557565b905092915050565b60008115159050919050565b614603816145ee565b82525050565b600060208201905061461e60008301846145fa565b92915050565b600081519050919050565b600082825260208201905092915050565b6000819050602082019050919050565b600060a083016000830151848203600086015261466d82826142b6565b9150506020830151848203602086015261468782826142b6565b915050604083015161469c6040860182614296565b50606083015184820360608601526146b482826142b6565b91505060808301516146c96080860182614296565b508091505092915050565b60006146e08383614650565b905092915050565b6000602082019050919050565b600061470082614624565b61470a818561462f565b93508360208202850161471c85614640565b8060005b85811015614758578484038952815161473985826146d4565b9450614744836146e8565b925060208a01995050600181019050614720565b50829750879550505050505092915050565b6000602082019050818103600083015261478481846146f5565b905092915050565b600082825260208201905092915050565b60006147a8826142fe565b6147b2818561478c565b93506147bd8361431a565b8060005b838110156147ee5781516147d5888261432a565b97506147e083614342565b9250506001810190506147c1565b5085935050505092915050565b600081519050919050565b600082825260208201905092915050565b6000819050602082019050919050565b600061483383836142b6565b905092915050565b6000602082019050919050565b6000614853826147fb565b61485d8185614806565b93508360208202850161486f85614817565b8060005b858110156148ab578484038952815161488c8582614827565b94506148978361483b565b925060208a01995050600181019050614873565b50829750879550505050505092915050565b600060408201905081810360008301526148d7818561479d565b905081810360208301526148eb8184614848565b90509392505050565b6000806040838503121561490b5761490a613ef2565b5b60006149198582860161405a565b925050602061492a85828601613f45565b9150509250929050565b600081519050919050565b600082825260208201905092915050565b6000819050602082019050919050565b600060608301600083015161497860008601826142ef565b506020830151848203602086015261499082826142b6565b915050604083015184820360408601526149aa82826142b6565b9150508091505092915050565b60006149c38383614960565b905092915050565b6000602082019050919050565b60006149e382614934565b6149ed818561493f565b9350836020820285016149ff85614950565b8060005b85811015614a3b5784840389528151614a1c85826149b7565b9450614a27836149cb565b925060208a01995050600181019050614a03565b50829750879550505050505092915050565b60006020820190508181036000830152614a6781846149d8565b905092915050565b60008060408385031215614a8657614a85613ef2565b5b600083013567ffffffffffffffff811115614aa457614aa3613ef7565b5b614ab0858286016141cd565b925050602083013567ffffffffffffffff811115614ad157614ad0613ef7565b5b614add858286016141cd565b9150509250929050565b600060a0820190508181036000830152614b018188613fde565b90508181036020830152614b158187613fde565b9050614b24604083018661409c565b8181036060830152614b368185613fde565b9050614b45608083018461409c565b9695505050505050565b614b5881613f1c565b82525050565b600060c082019050614b73600083018961409c565b8181036020830152614b858188613fde565b9050614b94604083018761409c565b614ba16060830186614b4f565b614bae608083018561409c565b614bbb60a083018461409c565b979650505050505050565b6000606082019050614bdb6000830186614b4f565b8181036020830152614bed8185613fde565b90508181036040830152614c018184613fde565b9050949350505050565b7f4e487b7100000000000000000000000000000000000000000000000000000000600052602260045260246000fd5b60006002820490506001821680614c5257607f821691505b602082108103614c6557614c64614c0b565b5b50919050565b7f4e487b7100000000000000000000000000000000000000000000000000000000600052603260045260246000fd5b7f596f7520617265206e6f7420612070617274696370616e74206f66207468652060008201527f7370656369666965642077616c6c657420696400000000000000000000000000602082015250565b6000614cf6603383613f92565b9150614d0182614c9a565b604082019050919050565b60006020820190508181036000830152614d2581614ce9565b9050919050565b7f4e487b7100000000000000000000000000000000000000000000000000000000600052601260045260246000fd5b7f4e487b7100000000000000000000000000000000000000000000000000000000600052601160045260246000fd5b6000614d9582614039565b9150614da083614039565b925082614db057614daf614d2c565b5b828204905092915050565b7f476f616c20616d6f756e74206d7573742062652067726561746572207468616e60008201527f2030000000000000000000000000000000000000000000000000000000000000602082015250565b6000614e17602283613f92565b9150614e2282614dbb565b604082019050919050565b60006020820190508181036000830152614e4681614e0a565b9050919050565b7f426f72726f77206c696d6974206d757374206265206e6f6e2d6e65676174697660008201527f6500000000000000000000000000000000000000000000000000000000000000602082015250565b6000614ea9602183613f92565b9150614eb482614e4d565b604082019050919050565b60006020820190508181036000830152614ed881614e9c565b9050919050565b6000614eea82614039565b9150614ef583614039565b9250828202614f0381614039565b91508282048414831517614f1a57614f19614d5b565b5b5092915050565b60008190508160005260206000209050919050565b60006020601f8301049050919050565b600082821b905092915050565b600060088302614f837fffffffffffffffffffffffffffffffffffffffffffffffffffffffffffffffff82614f46565b614f8d8683614f46565b95508019841693508086168417925050509392505050565b6000819050919050565b6000614fca614fc5614fc084614039565b614fa5565b614039565b9050919050565b6000819050919050565b614fe483614faf565b614ff8614ff082614fd1565b848454614f53565b825550505050565b600090565b61500d615000565b615018818484614fdb565b505050565b5b8181101561503c57615031600082615005565b60018101905061501e565b5050565b601f8211156150815761505281614f21565b61505b84614f36565b8101602085101561506a578190505b61507e61507685614f36565b83018261501d565b50505b505050565b600082821c905092915050565b60006150a460001984600802615086565b1980831691505092915050565b60006150bd8383615093565b9150826002028217905092915050565b6150d682613f87565b67ffffffffffffffff8111156150ef576150ee6140d0565b5b6150f98254614c3a565b615104828285615040565b600060209050601f8311600181146151375760008415615125578287015190505b61512f85826150b1565b865550615197565b601f19841661514586614f21565b60005b8281101561516d57848901518255600182019150602085019450602081019050615148565b8683101561518a5784890151615186601f891682615093565b8355505b6001600288020188555050505b505050505050565b60006060820190506151b4600083018661409c565b6151c1602083018561409c565b81810360408301526151d3818461479d565b9050949350505050565b7f57616c6c6574207769746820676976656e20494420646f6573206e6f7420657860008201527f6973740000000000000000000000000000000000000000000000000000000000602082015250565b6000615239602383613f92565b9150615244826151dd565b604082019050919050565b600060208201905081810360008301526152688161522c565b9050919050565b600061527a82614039565b91507fffffffffffffffffffffffffffffffffffffffffffffffffffffffffffffffff82036152ac576152ab614d5b565b5b600182019050919050565b7f4f6e6c792061646d696e2063616e2072656a656374207061727469636970616e60008201527f7473000000000000000000000000000000000000000000000000000000000000602082015250565b6000615313602283613f92565b915061531e826152b7565b604082019050919050565b6000602082019050818103600083015261534281615306565b9050919050565b7f5061727469636970616e742072657175657374206e6f7420666f756e64000000600082015250565b600061537f601d83613f92565b915061538a82615349565b602082019050919050565b600060208201905081810360008301526153ae81615372565b9050919050565b7f416c72656164792061207061727469636970616e740000000000000000000000600082015250565b60006153eb601583613f92565b91506153f6826153b5565b602082019050919050565b6000602082019050818103600083015261541a816153de565b9050919050565b7f5265717565737420616c7265616479207375626d697474656400000000000000600082015250565b6000615457601983613f92565b915061546282615421565b602082019050919050565b600060208201905081810360008301526154868161544a565b9050919050565b7f4f6e6c79207061727469636970616e74732063616e207769746864726177206660008201527f756e647300000000000000000000000000000000000000000000000000000000602082015250565b60006154e9602483613f92565b91506154f48261548d565b604082019050919050565b60006020820190508181036000830152615518816154dc565b9050919050565b7f5769746864726177616c20616d6f756e7420657863656564732074686520626f60008201527f72726f77206c696d697400000000000000000000000000000000000000000000602082015250565b600061557b602a83613f92565b91506155868261551f565b604082019050919050565b600060208201905081810360008301526155aa8161556e565b9050919050565b7f496e73756666696369656e742066756e647320696e207468652073686172656460008201527f2077616c6c657400000000000000000000000000000000000000000000000000602082015250565b600061560d602783613f92565b9150615618826155b1565b604082019050919050565b6000602082019050818103600083015261563c81615600565b9050919050565b600061564e82614039565b915061565983614039565b925082820390508181111561567157615670614d5b565b5b92915050565b600061568282614039565b915061568d83614039565b92508282019050808211156156a5576156a4614d5b565b5b92915050565b600081905092915050565b600081546156c381614c3a565b6156cd81866156ab565b945060018216600081146156e857600181146156fd57615730565b60ff1983168652811515820286019350615730565b61570685614f21565b60005b8381101561572857815481890152600182019150602081019050615709565b838801955050505b50505092915050565b600061574582846156b6565b915081905092915050565b7f4f6e6c792061646d696e2063616e20616363657074207061727469636970616e60008201527f7473000000000000000000000000000000000000000000000000000000000000602082015250565b60006157ac602283613f92565b91506157b782615750565b604082019050919050565b600060208201905081810360008301526157db8161579f565b9050919050565b7f4f6e6c792061646d696e2063616e2072656d6f7665207061727469636970616e60008201527f7473000000000000000000000000000000000000000000000000000000000000602082015250565b600061583e602283613f92565b9150615849826157e2565b604082019050919050565b6000602082019050818103600083015261586d81615831565b9050919050565b7f5061727469636970616e74206e6f7420666f756e640000000000000000000000600082015250565b60006158aa601583613f92565b91506158b582615874565b602082019050919050565b600060208201905081810360008301526158d98161589d565b9050919050565b7f557365726e616d6520616c726561647920657869737473212100000000000000600082015250565b6000615916601983613f92565b9150615921826158e0565b602082019050919050565b6000602082019050818103600083015261594581615909565b9050919050565b7f557365726e616d6520697320616c72656164792074616b656e20627920616e6f60008201527f7468657220757365722100000000000000000000000000000000000000000000602082015250565b60006159a8602a83613f92565b91506159b38261594c565b604082019050919050565b600060208201905081810360008301526159d78161599b565b9050919050565b7f4f6e6c79207061727469636970616e74732063616e206164642066756e647300600082015250565b6000615a14601f83613f92565b9150615a1f826159de565b602082019050919050565b60006020820190508181036000830152615a4381615a07565b9050919050565b7f496e73756666696369656e742066756e64730000000000000000000000000000600082015250565b6000615a80601283613f92565b9150615a8b82615a4a565b602082019050919050565b60006020820190508181036000830152615aaf81615a73565b9050919050565b7f6368617269747920616c72656164792063726561746564000000000000000000600082015250565b6000615aec601783613f92565b9150615af782615ab6565b602082019050919050565b60006020820190508181036000830152615b1b81615adf565b9050919050565b60006040820190508181036000830152615b3c8185613fde565b90508181036020830152615b508184613fde565b90509392505050565b7f57616c6c6574206e6f7420666f756e6400000000000000000000000000000000600082015250565b6000615b8f601083613f92565b9150615b9a82615b59565b602082019050919050565b60006020820190508181036000830152615bbe81615b82565b9050919050565b6000819050919050565b615be0615bdb82614039565b615bc5565b82525050565b6000819050919050565b6000819050919050565b615c0b615c0682615be6565b615bf0565b82525050565b6000615c1d8286615bcf565b602082019150615c2d8285615bcf565b602082019150615c3d8284615bfa565b602082019150819050949350505050565b6000615c5982614039565b9150615c6483614039565b925082615c7457615c73614d2c565b5b828206905092915050565b7f4e487b7100000000000000000000000000000000000000000000000000000000600052603160045260246000fd5b7f456c656d656e74206e6f7420666f756e6420696e206172726179000000000000600082015250565b6000615ce4601a83613f92565b9150615cef82615cae565b602082019050919050565b60006020820190508181036000830152615d1381615cd7565b9050919050565b600081905092915050565b60008190508160005260206000209050919050565b60008154615d4781614c3a565b615d518186615d1a565b94506001821660008114615d6c5760018114615d8157615db4565b60ff1983168652811515820286019350615db4565b615d8a85615d25565b60005b83811015615dac57815481890152600182019150602081019050615d8d565b838801955050505b50505092915050565b6000615dc98284615d3a565b91508190509291505056fea264697066735822122050e8cf44a43ff109c32fad9f37f652e8950bbb7245720856d41d4a260df87ebb64736f6c63430008130033",
  "linkReferences": {},
  "deployedLinkReferences": {}
}