{
  "_format": "hh-sol-artifact-1",
  "contractName": "Shared",
  "sourceName": "contracts/Shared.sol",
  "abi": [
    {
      "anonymous": false,
      "inputs": [
        {
          "indexed": true,
          "internalType": "address",
          "name": "walletId",
          "type": "address"
        },
        {
          "indexed": false,
          "internalType": "string",
          "name": "charityName",
          "type": "string"
        },
        {
          "indexed": false,
          "internalType": "string",
          "name": "description",
          "type": "string"
        }
      ],
      "name": "CharityCreated",
      "type": "event"
    },
    {
      "anonymous": false,
      "inputs": [
        {
          "indexed": true,
          "internalType": "uint256",
          "name": "walletId",
          "type": "uint256"
        },
        {
          "indexed": true,
          "internalType": "string",
          "name": "participant",
          "type": "string"
        },
        {
          "indexed": false,
          "internalType": "uint256",
          "name": "amount",
          "type": "uint256"
        }
      ],
      "name": "FundsAddedToSharedWallet",
      "type": "event"
    },
    {
      "anonymous": false,
      "inputs": [
        {
          "indexed": true,
          "internalType": "uint256",
          "name": "walletId",
          "type": "uint256"
        },
        {
          "indexed": true,
          "internalType": "string",
          "name": "participant",
          "type": "string"
        },
        {
          "indexed": false,
          "internalType": "uint256",
          "name": "amount",
          "type": "uint256"
        }
      ],
      "name": "FundsWithdrawnFromSharedWallet",
      "type": "event"
    },
    {
      "anonymous": false,
      "inputs": [
        {
          "indexed": true,
          "internalType": "uint256",
          "name": "walletId",
          "type": "uint256"
        },
        {
          "indexed": true,
          "internalType": "address",
          "name": "participant",
          "type": "address"
        }
      ],
      "name": "ParticipantAccepted",
      "type": "event"
    },
    {
      "anonymous": false,
      "inputs": [
        {
          "indexed": true,
          "internalType": "uint256",
          "name": "walletId",
          "type": "uint256"
        },
        {
          "indexed": true,
          "internalType": "address",
          "name": "participant",
          "type": "address"
        }
      ],
      "name": "ParticipantRejected",
      "type": "event"
    },
    {
      "anonymous": false,
      "inputs": [
        {
          "indexed": true,
          "internalType": "uint256",
          "name": "walletId",
          "type": "uint256"
        },
        {
          "indexed": true,
          "internalType": "address",
          "name": "participant",
          "type": "address"
        }
      ],
      "name": "ParticipantRemoved",
      "type": "event"
    },
    {
      "anonymous": false,
      "inputs": [
        {
          "indexed": true,
          "internalType": "uint256",
          "name": "walletId",
          "type": "uint256"
        },
        {
          "indexed": true,
          "internalType": "address",
          "name": "participant",
          "type": "address"
        }
      ],
      "name": "ParticipantRequest",
      "type": "event"
    },
    {
      "anonymous": false,
      "inputs": [
        {
          "indexed": true,
          "internalType": "uint256",
          "name": "walletId",
          "type": "uint256"
        },
        {
          "indexed": true,
          "internalType": "address",
          "name": "admin",
          "type": "address"
        },
        {
          "indexed": false,
          "internalType": "uint256",
          "name": "goalAmount",
          "type": "uint256"
        },
        {
          "indexed": false,
          "internalType": "uint256",
          "name": "borrowLimit",
          "type": "uint256"
        },
        {
          "indexed": false,
          "internalType": "address[]",
          "name": "participants",
          "type": "address[]"
        }
      ],
      "name": "SharedWalletCreated",
      "type": "event"
    },
    {
      "inputs": [
        {
          "internalType": "uint256",
          "name": "_walletId",
          "type": "uint256"
        },
        {
          "internalType": "address",
          "name": "_participant",
          "type": "address"
        }
      ],
      "name": "acceptParticipant",
      "outputs": [],
      "stateMutability": "nonpayable",
      "type": "function"
    },
    {
      "inputs": [
        {
          "internalType": "uint256",
          "name": "_walletId",
          "type": "uint256"
        }
      ],
      "name": "addFundsToSharedWallet",
      "outputs": [],
      "stateMutability": "payable",
      "type": "function"
    },
    {
      "inputs": [
        {
          "internalType": "uint256",
          "name": "",
          "type": "uint256"
        }
      ],
      "name": "allTransactions",
      "outputs": [
        {
          "internalType": "string",
          "name": "sender",
          "type": "string"
        },
        {
          "internalType": "string",
          "name": "receiver",
          "type": "string"
        },
        {
          "internalType": "uint256",
          "name": "amount",
          "type": "uint256"
        },
        {
          "internalType": "string",
          "name": "description",
          "type": "string"
        },
        {
          "internalType": "uint256",
          "name": "timestamp",
          "type": "uint256"
        }
      ],
      "stateMutability": "view",
      "type": "function"
    },
    {
      "inputs": [
        {
          "internalType": "uint256",
          "name": "",
          "type": "uint256"
        }
      ],
      "name": "charities",
      "outputs": [
        {
          "internalType": "address",
          "name": "walletId",
          "type": "address"
        },
        {
          "internalType": "string",
          "name": "charityName",
          "type": "string"
        },
        {
          "internalType": "string",
          "name": "description",
          "type": "string"
        }
      ],
      "stateMutability": "view",
      "type": "function"
    },
    {
      "inputs": [
        {
          "internalType": "uint256",
          "name": "",
          "type": "uint256"
        }
      ],
      "name": "charityId",
      "outputs": [
        {
          "internalType": "uint256",
          "name": "",
          "type": "uint256"
        }
      ],
      "stateMutability": "view",
      "type": "function"
    },
    {
      "inputs": [
        {
          "internalType": "string",
          "name": "_name",
          "type": "string"
        },
        {
          "internalType": "string",
          "name": "_description",
          "type": "string"
        }
      ],
      "name": "createOrgCharity",
      "outputs": [],
      "stateMutability": "nonpayable",
      "type": "function"
    },
    {
      "inputs": [
        {
          "internalType": "uint256",
          "name": "_goalAmount",
          "type": "uint256"
        },
        {
          "internalType": "uint256",
          "name": "_borrowLimit",
          "type": "uint256"
        },
        {
          "internalType": "string",
          "name": "_walname",
          "type": "string"
        }
      ],
      "name": "createSharedWallet",
      "outputs": [],
      "stateMutability": "nonpayable",
      "type": "function"
    },
    {
      "inputs": [
        {
          "internalType": "uint256",
          "name": "",
          "type": "uint256"
        }
      ],
      "name": "existingUsernames",
      "outputs": [
        {
          "internalType": "string",
          "name": "",
          "type": "string"
        }
      ],
      "stateMutability": "view",
      "type": "function"
    },
    {
      "inputs": [],
      "name": "getAllCharities",
      "outputs": [
        {
          "components": [
            {
              "internalType": "address",
              "name": "walletId",
              "type": "address"
            },
            {
              "internalType": "string",
              "name": "charityName",
              "type": "string"
            },
            {
              "internalType": "string",
              "name": "description",
              "type": "string"
            }
          ],
          "internalType": "struct Shared.Charity[]",
          "name": "",
          "type": "tuple[]"
        }
      ],
      "stateMutability": "view",
      "type": "function"
    },
    {
      "inputs": [],
      "name": "getAllSharedWallets",
      "outputs": [
        {
          "components": [
            {
              "internalType": "uint256",
              "name": "walletId",
              "type": "uint256"
            },
            {
              "internalType": "string",
              "name": "walletName",
              "type": "string"
            },
            {
              "internalType": "uint256",
              "name": "walletBalance",
              "type": "uint256"
            },
            {
              "internalType": "address",
              "name": "admin",
              "type": "address"
            },
            {
              "internalType": "uint256",
              "name": "goalAmount",
              "type": "uint256"
            },
            {
              "internalType": "uint256",
              "name": "borrowLimit",
              "type": "uint256"
            },
            {
              "internalType": "address[]",
              "name": "participants",
              "type": "address[]"
            },
            {
              "internalType": "address[]",
              "name": "participantRequests",
              "type": "address[]"
            },
            {
              "internalType": "uint256[]",
              "name": "transactionIndices",
              "type": "uint256[]"
            }
          ],
          "internalType": "struct Shared.SharedWallet[]",
          "name": "",
          "type": "tuple[]"
        }
      ],
      "stateMutability": "view",
      "type": "function"
    },
    {
      "inputs": [
        {
          "internalType": "uint256",
          "name": "_walletId",
          "type": "uint256"
        }
      ],
      "name": "getBalance",
      "outputs": [
        {
          "internalType": "uint256",
          "name": "",
          "type": "uint256"
        }
      ],
      "stateMutability": "view",
      "type": "function"
    },
    {
      "inputs": [],
      "name": "getName",
      "outputs": [
        {
          "internalType": "string",
          "name": "",
          "type": "string"
        }
      ],
      "stateMutability": "view",
      "type": "function"
    },
    {
      "inputs": [
        {
          "internalType": "uint256",
          "name": "_walletId",
          "type": "uint256"
        }
      ],
      "name": "getNumberOfParticipants",
      "outputs": [
        {
          "internalType": "uint256",
          "name": "",
          "type": "uint256"
        }
      ],
      "stateMutability": "view",
      "type": "function"
    },
    {
      "inputs": [],
      "name": "getUsername",
      "outputs": [
        {
          "internalType": "string",
          "name": "",
          "type": "string"
        }
      ],
      "stateMutability": "view",
      "type": "function"
    },
    {
      "inputs": [
        {
          "internalType": "uint256",
          "name": "_walletId",
          "type": "uint256"
        }
      ],
      "name": "getWalName",
      "outputs": [
        {
          "internalType": "string",
          "name": "",
          "type": "string"
        }
      ],
      "stateMutability": "view",
      "type": "function"
    },
    {
      "inputs": [
        {
          "internalType": "uint256",
          "name": "_walletId",
          "type": "uint256"
        }
      ],
      "name": "getWalletTransactions",
      "outputs": [
        {
          "components": [
            {
              "internalType": "string",
              "name": "sender",
              "type": "string"
            },
            {
              "internalType": "string",
              "name": "receiver",
              "type": "string"
            },
            {
              "internalType": "uint256",
              "name": "amount",
              "type": "uint256"
            },
            {
              "internalType": "string",
              "name": "description",
              "type": "string"
            },
            {
              "internalType": "uint256",
              "name": "timestamp",
              "type": "uint256"
            }
          ],
          "internalType": "struct Shared.Transaction[]",
          "name": "",
          "type": "tuple[]"
        }
      ],
      "stateMutability": "view",
      "type": "function"
    },
    {
      "inputs": [
        {
          "internalType": "address",
          "name": "",
          "type": "address"
        }
      ],
      "name": "hasCreatedCharity",
      "outputs": [
        {
          "internalType": "bool",
          "name": "",
          "type": "bool"
        }
      ],
      "stateMutability": "view",
      "type": "function"
    },
    {
      "inputs": [
        {
          "internalType": "uint256",
          "name": "_walletId",
          "type": "uint256"
        },
        {
          "internalType": "address",
          "name": "_participant",
          "type": "address"
        }
      ],
      "name": "isParticipant",
      "outputs": [
        {
          "internalType": "bool",
          "name": "",
          "type": "bool"
        }
      ],
      "stateMutability": "view",
      "type": "function"
    },
    {
      "inputs": [
        {
          "internalType": "string",
          "name": "_name",
          "type": "string"
        },
        {
          "internalType": "string",
          "name": "_username",
          "type": "string"
        }
      ],
      "name": "mapNameAndUsernameToWalletId",
      "outputs": [],
      "stateMutability": "nonpayable",
      "type": "function"
    },
    {
      "inputs": [
        {
          "internalType": "address",
          "name": "",
          "type": "address"
        }
      ],
      "name": "name",
      "outputs": [
        {
          "internalType": "string",
          "name": "",
          "type": "string"
        }
      ],
      "stateMutability": "view",
      "type": "function"
    },
    {
      "inputs": [
        {
          "internalType": "uint256",
          "name": "_walletId",
          "type": "uint256"
        },
        {
          "internalType": "address",
          "name": "_participant",
          "type": "address"
        }
      ],
      "name": "rejectParticipant",
      "outputs": [],
      "stateMutability": "nonpayable",
      "type": "function"
    },
    {
      "inputs": [
        {
          "internalType": "uint256",
          "name": "_walletId",
          "type": "uint256"
        },
        {
          "internalType": "address",
          "name": "_participant",
          "type": "address"
        }
      ],
      "name": "removeParticipant",
      "outputs": [],
      "stateMutability": "nonpayable",
      "type": "function"
    },
    {
      "inputs": [
        {
          "internalType": "uint256",
          "name": "_walletId",
          "type": "uint256"
        }
      ],
      "name": "requestToJoin",
      "outputs": [],
      "stateMutability": "nonpayable",
      "type": "function"
    },
    {
      "inputs": [
        {
          "internalType": "uint256",
          "name": "",
          "type": "uint256"
        }
      ],
      "name": "sharedWallets",
      "outputs": [
        {
          "internalType": "uint256",
          "name": "walletId",
          "type": "uint256"
        },
        {
          "internalType": "string",
          "name": "walletName",
          "type": "string"
        },
        {
          "internalType": "uint256",
          "name": "walletBalance",
          "type": "uint256"
        },
        {
          "internalType": "address",
          "name": "admin",
          "type": "address"
        },
        {
          "internalType": "uint256",
          "name": "goalAmount",
          "type": "uint256"
        },
        {
          "internalType": "uint256",
          "name": "borrowLimit",
          "type": "uint256"
        }
      ],
      "stateMutability": "view",
      "type": "function"
    },
    {
      "inputs": [
        {
          "internalType": "address",
          "name": "",
          "type": "address"
        }
      ],
      "name": "username",
      "outputs": [
        {
          "internalType": "string",
          "name": "",
          "type": "string"
        }
      ],
      "stateMutability": "view",
      "type": "function"
    },
    {
      "inputs": [
        {
          "internalType": "uint256",
          "name": "",
          "type": "uint256"
        }
      ],
      "name": "walletIdExists",
      "outputs": [
        {
          "internalType": "bool",
          "name": "",
          "type": "bool"
        }
      ],
      "stateMutability": "view",
      "type": "function"
    },
    {
      "inputs": [
        {
          "internalType": "uint256",
          "name": "_walletId",
          "type": "uint256"
        },
        {
          "internalType": "uint256",
          "name": "_amount",
          "type": "uint256"
        },
        {
          "internalType": "string",
          "name": "_description",
          "type": "string"
        }
      ],
      "name": "withdrawFundsFromSharedWallet",
      "outputs": [],
      "stateMutability": "nonpayable",
      "type": "function"
    }
  ],
  "bytecode": "0x608060405234801561001057600080fd5b5061568f80620000216000396000f3fe60806040526004361061019c5760003560e01c80637a175f40116100ec578063cf4a1f9c1161008a578063ec0106ac11610064578063ec0106ac1461064c578063f85a933c1461068e578063fb709d2e146106aa578063fd57959f146106e95761019c565b8063cf4a1f9c146105a5578063d7ff0714146105ce578063dd385cf21461060f5761019c565b8063b5bbd279116100c6578063b5bbd279146104eb578063ba09826614610516578063bc00370014610553578063c4434b851461057c5761019c565b80637a175f40146104705780638402276714610499578063ab1351e5146104c25761019c565b80633688299c1161015957806364ead1eb1161013357806364ead1eb1461038e578063681f3e6d146103cb578063758d9b89146103f65780637943e51c146104335761019c565b80633688299c146102e9578063423b8e881461031457806348c7cc81146103515761019c565b806301984892146101a15780630610a7a2146101de57806317d7de7c1461021b5780631ca125cf146102465780631e0104391461028357806325c93ab1146102c0575b600080fd5b3480156101ad57600080fd5b506101c860048036038101906101c391906138d8565b610712565b6040516101d59190613995565b60405180910390f35b3480156101ea57600080fd5b50610205600480360381019061020091906138d8565b6107b2565b6040516102129190613995565b60405180910390f35b34801561022757600080fd5b50610230610852565b60405161023d9190613995565b60405180910390f35b34801561025257600080fd5b5061026d600480360381019061026891906139ed565b610921565b60405161027a9190613995565b60405180910390f35b34801561028f57600080fd5b506102aa60048036038101906102a591906139ed565b6109e6565b6040516102b79190613a29565b60405180910390f35b3480156102cc57600080fd5b506102e760048036038101906102e29190613b79565b610a7e565b005b3480156102f557600080fd5b506102fe610e53565b60405161030b9190613f4a565b60405180910390f35b34801561032057600080fd5b5061033b600480360381019061033691906139ed565b611137565b6040516103489190613f87565b60405180910390f35b34801561035d57600080fd5b50610378600480360381019061037391906139ed565b611157565b60405161038591906140e8565b60405180910390f35b34801561039a57600080fd5b506103b560048036038101906103b091906139ed565b6114f5565b6040516103c29190613a29565b60405180910390f35b3480156103d757600080fd5b506103e0611595565b6040516103ed9190613995565b60405180910390f35b34801561040257600080fd5b5061041d6004803603810190610418919061410a565b611664565b60405161042a9190613f87565b60405180910390f35b34801561043f57600080fd5b5061045a600480360381019061045591906139ed565b611764565b6040516104679190613995565b60405180910390f35b34801561047c57600080fd5b506104976004803603810190610492919061410a565b611810565b005b3480156104a557600080fd5b506104c060048036038101906104bb91906139ed565b611990565b005b3480156104ce57600080fd5b506104e960048036038101906104e49190613b79565b611b5f565b005b3480156104f757600080fd5b50610500612072565b60405161050d9190614263565b60405180910390f35b34801561052257600080fd5b5061053d600480360381019061053891906138d8565b61224b565b60405161054a9190613f87565b60405180910390f35b34801561055f57600080fd5b5061057a6004803603810190610575919061410a565b61226b565b005b34801561058857600080fd5b506105a3600480360381019061059e919061410a565b612471565b005b3480156105b157600080fd5b506105cc60048036038101906105c79190614285565b6125f1565b005b3480156105da57600080fd5b506105f560048036038101906105f091906139ed565b61279b565b6040516106069594939291906142fd565b60405180910390f35b34801561061b57600080fd5b50610636600480360381019061063191906139ed565b612979565b6040516106439190613a29565b60405180910390f35b34801561065857600080fd5b50610673600480360381019061066e91906139ed565b612991565b60405161068596959493929190614374565b60405180910390f35b6106a860048036038101906106a391906139ed565b612a85565b005b3480156106b657600080fd5b506106d160048036038101906106cc91906139ed565b612f15565b6040516106e0939291906143dc565b60405180910390f35b3480156106f557600080fd5b50610710600480360381019061070b9190614285565b61307f565b005b6005602052806000526040600020600091509050805461073190614450565b80601f016020809104026020016040519081016040528092919081815260200182805461075d90614450565b80156107aa5780601f1061077f576101008083540402835291602001916107aa565b820191906000526020600020905b81548152906001019060200180831161078d57829003601f168201915b505050505081565b600460205280600052604060002060009150905080546107d190614450565b80601f01602080910402602001604051908101604052809291908181526020018280546107fd90614450565b801561084a5780601f1061081f5761010080835404028352916020019161084a565b820191906000526020600020905b81548152906001019060200180831161082d57829003601f168201915b505050505081565b6060600560003373ffffffffffffffffffffffffffffffffffffffff1673ffffffffffffffffffffffffffffffffffffffff168152602001908152602001600020805461089e90614450565b80601f01602080910402602001604051908101604052809291908181526020018280546108ca90614450565b80156109175780601f106108ec57610100808354040283529160200191610917565b820191906000526020600020905b8154815290600101906020018083116108fa57829003601f168201915b5050505050905090565b6060600061092e8361328f565b90506000818154811061094457610943614481565b5b9060005260206000209060090201600101805461096090614450565b80601f016020809104026020016040519081016040528092919081815260200182805461098c90614450565b80156109d95780601f106109ae576101008083540402835291602001916109d9565b820191906000526020600020905b8154815290600101906020018083116109bc57829003601f168201915b5050505050915050919050565b6000806109f28361328f565b90506109fe8333611664565b610a3d576040517f08c379a0000000000000000000000000000000000000000000000000000000008152600401610a3490614522565b60405180910390fd5b670de0b6b3a764000060008281548110610a5a57610a59614481565b5b906000526020600020906009020160020154610a7691906145a0565b915050919050565b60008311610ac1576040517f08c379a0000000000000000000000000000000000000000000000000000000008152600401610ab890614643565b60405180910390fd5b6000821015610b05576040517f08c379a0000000000000000000000000000000000000000000000000000000008152600401610afc906146d5565b60405180910390fd5b6000610b0f61332d565b90506000600167ffffffffffffffff811115610b2e57610b2d613a4e565b5b604051908082528060200260200182016040528015610b5c5781602001602082028036833780820191505090505b5090503381600081518110610b7457610b73614481565b5b602002602001019073ffffffffffffffffffffffffffffffffffffffff16908173ffffffffffffffffffffffffffffffffffffffff16815250506000604051806101200160405280848152602001858152602001600081526020013373ffffffffffffffffffffffffffffffffffffffff168152602001670de0b6b3a764000088610bff91906146f5565b8152602001670de0b6b3a764000087610c1891906146f5565b8152602001838152602001600067ffffffffffffffff811115610c3e57610c3d613a4e565b5b604051908082528060200260200182016040528015610c6c5781602001602082028036833780820191505090505b508152602001600067ffffffffffffffff811115610c8d57610c8c613a4e565b5b604051908082528060200260200182016040528015610cbb5781602001602082028036833780820191505090505b5081525090506000819080600181540180825580915050600190039060005260206000209060090201600090919091909150600082015181600001556020820151816001019081610d0c91906148e3565b506040820151816002015560608201518160030160006101000a81548173ffffffffffffffffffffffffffffffffffffffff021916908373ffffffffffffffffffffffffffffffffffffffff1602179055506080820151816004015560a0820151816005015560c0820151816006019080519060200190610d8e929190613743565b5060e0820151816007019080519060200190610dab929190613743565b50610100820151816008019080519060200190610dc99291906137cd565b50505060016003600085815260200190815260200160002060006101000a81548160ff0219169083151502179055503373ffffffffffffffffffffffffffffffffffffffff16837fbb22188d95efa8c4f325d45db9224a8e37daca69776a24623d5851833076f6ed888886604051610e4393929190614a24565b60405180910390a3505050505050565b60606000805480602002602001604051908101604052809291908181526020016000905b8282101561112e57838290600052602060002090600902016040518061012001604052908160008201548152602001600182018054610eb590614450565b80601f0160208091040260200160405190810160405280929190818152602001828054610ee190614450565b8015610f2e5780601f10610f0357610100808354040283529160200191610f2e565b820191906000526020600020905b815481529060010190602001808311610f1157829003601f168201915b50505050508152602001600282015481526020016003820160009054906101000a900473ffffffffffffffffffffffffffffffffffffffff1673ffffffffffffffffffffffffffffffffffffffff1673ffffffffffffffffffffffffffffffffffffffff16815260200160048201548152602001600582015481526020016006820180548060200260200160405190810160405280929190818152602001828054801561103057602002820191906000526020600020905b8160009054906101000a900473ffffffffffffffffffffffffffffffffffffffff1673ffffffffffffffffffffffffffffffffffffffff1681526020019060010190808311610fe6575b50505050508152602001600782018054806020026020016040519081016040528092919081815260200182805480156110be57602002820191906000526020600020905b8160009054906101000a900473ffffffffffffffffffffffffffffffffffffffff1673ffffffffffffffffffffffffffffffffffffffff1681526020019060010190808311611074575b505050505081526020016008820180548060200260200160405190810160405280929190818152602001828054801561111657602002820191906000526020600020905b815481526020019060010190808311611102575b50505050508152505081526020019060010190610e77565b50505050905090565b60036020528060005260406000206000915054906101000a900460ff1681565b60606003600083815260200190815260200160002060009054906101000a900460ff166111b9576040517f08c379a00000000000000000000000000000000000000000000000000000000081526004016111b090614ad4565b60405180910390fd5b60006111c48361328f565b905060008082815481106111db576111da614481565b5b906000526020600020906009020160080180548060200260200160405190810160405280929190818152602001828054801561123657602002820191906000526020600020905b815481526020019060010190808311611222575b5050505050905060008151905060008167ffffffffffffffff81111561125f5761125e613a4e565b5b60405190808252806020026020018201604052801561129857816020015b61128561381a565b81526020019060019003908161127d5790505b50905060005b828110156114e85760018482815181106112bb576112ba614481565b5b6020026020010151815481106112d4576112d3614481565b5b90600052602060002090600502016040518060a00160405290816000820180546112fd90614450565b80601f016020809104026020016040519081016040528092919081815260200182805461132990614450565b80156113765780601f1061134b57610100808354040283529160200191611376565b820191906000526020600020905b81548152906001019060200180831161135957829003601f168201915b5050505050815260200160018201805461138f90614450565b80601f01602080910402602001604051908101604052809291908181526020018280546113bb90614450565b80156114085780601f106113dd57610100808354040283529160200191611408565b820191906000526020600020905b8154815290600101906020018083116113eb57829003601f168201915b505050505081526020016002820154815260200160038201805461142b90614450565b80601f016020809104026020016040519081016040528092919081815260200182805461145790614450565b80156114a45780601f10611479576101008083540402835291602001916114a4565b820191906000526020600020905b81548152906001019060200180831161148757829003601f168201915b505050505081526020016004820154815250508282815181106114ca576114c9614481565b5b602002602001018190525080806114e090614af4565b91505061129e565b5080945050505050919050565b60006003600083815260200190815260200160002060009054906101000a900460ff16611557576040517f08c379a000000000000000000000000000000000000000000000000000000000815260040161154e90614ad4565b60405180910390fd5b60006115628361328f565b90506000818154811061157857611577614481565b5b906000526020600020906009020160060180549050915050919050565b6060600460003373ffffffffffffffffffffffffffffffffffffffff1673ffffffffffffffffffffffffffffffffffffffff16815260200190815260200160002080546115e190614450565b80601f016020809104026020016040519081016040528092919081815260200182805461160d90614450565b801561165a5780601f1061162f5761010080835404028352916020019161165a565b820191906000526020600020905b81548152906001019060200180831161163d57829003601f168201915b5050505050905090565b6000806116708461328f565b905060005b6000828154811061168957611688614481565b5b906000526020600020906009020160060180549050811015611757578373ffffffffffffffffffffffffffffffffffffffff16600083815481106116d0576116cf614481565b5b906000526020600020906009020160060182815481106116f3576116f2614481565b5b9060005260206000200160009054906101000a900473ffffffffffffffffffffffffffffffffffffffff1673ffffffffffffffffffffffffffffffffffffffff16036117445760019250505061175e565b808061174f90614af4565b915050611675565b5060009150505b92915050565b6008818154811061177457600080fd5b90600052602060002001600091509050805461178f90614450565b80601f01602080910402602001604051908101604052809291908181526020018280546117bb90614450565b80156118085780601f106117dd57610100808354040283529160200191611808565b820191906000526020600020905b8154815290600101906020018083116117eb57829003601f168201915b505050505081565b6000828154811061182457611823614481565b5b906000526020600020906009020160030160009054906101000a900473ffffffffffffffffffffffffffffffffffffffff1673ffffffffffffffffffffffffffffffffffffffff163373ffffffffffffffffffffffffffffffffffffffff16146118c3576040517f08c379a00000000000000000000000000000000000000000000000000000000081526004016118ba90614bae565b60405180910390fd5b6118cd82826133e6565b61190c576040517f08c379a000000000000000000000000000000000000000000000000000000000815260040161190390614c1a565b60405180910390fd5b60006119178361328f565b9050611947600082815481106119305761192f614481565b5b9060005260206000209060090201600701836134e6565b8173ffffffffffffffffffffffffffffffffffffffff16837f8903f797b9477780cd04a7e575d254f82d9ebb89d859f46f60604c575f2ba27e60405160405180910390a3505050565b6003600082815260200190815260200160002060009054906101000a900460ff166119f0576040517f08c379a00000000000000000000000000000000000000000000000000000000081526004016119e790614ad4565b60405180910390fd5b6119fa8133611664565b15611a3a576040517f08c379a0000000000000000000000000000000000000000000000000000000008152600401611a3190614c86565b60405180910390fd5b611a4481336133e6565b15611a84576040517f08c379a0000000000000000000000000000000000000000000000000000000008152600401611a7b90614cf2565b60405180910390fd5b6000611a8f8261328f565b905060008181548110611aa557611aa4614481565b5b9060005260206000209060090201600701339080600181540180825580915050600190039060005260206000200160009091909190916101000a81548173ffffffffffffffffffffffffffffffffffffffff021916908373ffffffffffffffffffffffffffffffffffffffff1602179055503373ffffffffffffffffffffffffffffffffffffffff16827f0e1d9310fd77f81b5bf5dbde6ee0c770054dd4f36103e23a85db7ac00f73d41360405160405180910390a35050565b6000611b6a8461328f565b90506003600085815260200190815260200160002060009054906101000a900460ff16611bcc576040517f08c379a0000000000000000000000000000000000000000000000000000000008152600401611bc390614ad4565b60405180910390fd5b611bd68433611664565b611c15576040517f08c379a0000000000000000000000000000000000000000000000000000000008152600401611c0c90614d84565b60405180910390fd5b60008181548110611c2957611c28614481565b5b906000526020600020906009020160050154670de0b6b3a764000084611c4f91906146f5565b1115611c90576040517f08c379a0000000000000000000000000000000000000000000000000000000008152600401611c8790614e16565b60405180910390fd5b60008181548110611ca457611ca3614481565b5b906000526020600020906009020160020154670de0b6b3a764000084611cca91906146f5565b1115611d0b576040517f08c379a0000000000000000000000000000000000000000000000000000000008152600401611d0290614ea8565b60405180910390fd5b6000670de0b6b3a764000084611d2191906146f5565b90508060008381548110611d3857611d37614481565b5b90600052602060002090600902016002016000828254611d589190614ec8565b925050819055508060008381548110611d7457611d73614481565b5b90600052602060002090600902016004016000828254611d949190614efc565b925050819055503373ffffffffffffffffffffffffffffffffffffffff166108fc829081150290604051600060405180830381858888f19350505050158015611de1573d6000803e3d6000fd5b506000600180549050905060016040518060a001604052806040518060400160405280600d81526020017f7368617265642077616c6c6574000000000000000000000000000000000000008152508152602001600460003373ffffffffffffffffffffffffffffffffffffffff1673ffffffffffffffffffffffffffffffffffffffff1681526020019081526020016000208054611e7e90614450565b80601f0160208091040260200160405190810160405280929190818152602001828054611eaa90614450565b8015611ef75780601f10611ecc57610100808354040283529160200191611ef7565b820191906000526020600020905b815481529060010190602001808311611eda57829003601f168201915b505050505081526020018481526020018681526020014281525090806001815401808255809150506001900390600052602060002090600502016000909190919091506000820151816000019081611f4f91906148e3565b506020820151816001019081611f6591906148e3565b50604082015181600201556060820151816003019081611f8591906148e3565b5060808201518160040155505060008381548110611fa657611fa5614481565b5b9060005260206000209060090201600801819080600181540180825580915050600190039060005260206000200160009091909190915055600460003373ffffffffffffffffffffffffffffffffffffffff1673ffffffffffffffffffffffffffffffffffffffff16815260200190815260200160002060405161202a9190614fbe565b6040518091039020867f1da1e862b49d474681f4eaecdcb8e1ae3bb314cf38ac7b1726d8eb3e8618b310846040516120629190613a29565b60405180910390a3505050505050565b60606002805480602002602001604051908101604052809291908181526020016000905b8282101561224257838290600052602060002090600302016040518060600160405290816000820160009054906101000a900473ffffffffffffffffffffffffffffffffffffffff1673ffffffffffffffffffffffffffffffffffffffff1673ffffffffffffffffffffffffffffffffffffffff16815260200160018201805461211f90614450565b80601f016020809104026020016040519081016040528092919081815260200182805461214b90614450565b80156121985780601f1061216d57610100808354040283529160200191612198565b820191906000526020600020905b81548152906001019060200180831161217b57829003601f168201915b505050505081526020016002820180546121b190614450565b80601f01602080910402602001604051908101604052809291908181526020018280546121dd90614450565b801561222a5780601f106121ff5761010080835404028352916020019161222a565b820191906000526020600020905b81548152906001019060200180831161220d57829003601f168201915b50505050508152505081526020019060010190612096565b50505050905090565b60076020528060005260406000206000915054906101000a900460ff1681565b60006122768361328f565b90506000818154811061228c5761228b614481565b5b906000526020600020906009020160030160009054906101000a900473ffffffffffffffffffffffffffffffffffffffff1673ffffffffffffffffffffffffffffffffffffffff163373ffffffffffffffffffffffffffffffffffffffff161461232b576040517f08c379a000000000000000000000000000000000000000000000000000000000815260040161232290615047565b60405180910390fd5b61233583836133e6565b612374576040517f08c379a000000000000000000000000000000000000000000000000000000000815260040161236b90614c1a565b60405180910390fd5b6000818154811061238857612387614481565b5b9060005260206000209060090201600601829080600181540180825580915050600190039060005260206000200160009091909190916101000a81548173ffffffffffffffffffffffffffffffffffffffff021916908373ffffffffffffffffffffffffffffffffffffffff1602179055506124286000828154811061241157612410614481565b5b9060005260206000209060090201600701836134e6565b8173ffffffffffffffffffffffffffffffffffffffff16837f55db954dfe09b91087e0919cb7fb06e3642e0d393ed967f4192c27de59293c7260405160405180910390a3505050565b600061247c8361328f565b90506000818154811061249257612491614481565b5b906000526020600020906009020160030160009054906101000a900473ffffffffffffffffffffffffffffffffffffffff1673ffffffffffffffffffffffffffffffffffffffff163373ffffffffffffffffffffffffffffffffffffffff1614612531576040517f08c379a0000000000000000000000000000000000000000000000000000000008152600401612528906150d9565b60405180910390fd5b61253b8383611664565b61257a576040517f08c379a000000000000000000000000000000000000000000000000000000000815260040161257190615145565b60405180910390fd5b6125a86000828154811061259157612590614481565b5b9060005260206000209060090201600601836134e6565b8173ffffffffffffffffffffffffffffffffffffffff16837fcef8fac05afb87995942422eac900de6af11a555d80d075340af81db492119fe60405160405180910390a3505050565b6000600460003373ffffffffffffffffffffffffffffffffffffffff1673ffffffffffffffffffffffffffffffffffffffff168152602001908152602001600020805461263d90614450565b90501461267f576040517f08c379a0000000000000000000000000000000000000000000000000000000008152600401612676906151b1565b60405180910390fd5b612688816136c6565b156126c8576040517f08c379a00000000000000000000000000000000000000000000000000000000081526004016126bf90615243565b60405180910390fd5b81600560003373ffffffffffffffffffffffffffffffffffffffff1673ffffffffffffffffffffffffffffffffffffffff168152602001908152602001600020908161271491906148e3565b5080600460003373ffffffffffffffffffffffffffffffffffffffff1673ffffffffffffffffffffffffffffffffffffffff168152602001908152602001600020908161276191906148e3565b5060088190806001815401808255809150506001900390600052602060002001600090919091909150908161279691906148e3565b505050565b600181815481106127ab57600080fd5b90600052602060002090600502016000915090508060000180546127ce90614450565b80601f01602080910402602001604051908101604052809291908181526020018280546127fa90614450565b80156128475780601f1061281c57610100808354040283529160200191612847565b820191906000526020600020905b81548152906001019060200180831161282a57829003601f168201915b50505050509080600101805461285c90614450565b80601f016020809104026020016040519081016040528092919081815260200182805461288890614450565b80156128d55780601f106128aa576101008083540402835291602001916128d5565b820191906000526020600020905b8154815290600101906020018083116128b857829003601f168201915b5050505050908060020154908060030180546128f090614450565b80601f016020809104026020016040519081016040528092919081815260200182805461291c90614450565b80156129695780601f1061293e57610100808354040283529160200191612969565b820191906000526020600020905b81548152906001019060200180831161294c57829003601f168201915b5050505050908060040154905085565b60066020528060005260406000206000915090505481565b600081815481106129a157600080fd5b90600052602060002090600902016000915090508060000154908060010180546129ca90614450565b80601f01602080910402602001604051908101604052809291908181526020018280546129f690614450565b8015612a435780601f10612a1857610100808354040283529160200191612a43565b820191906000526020600020905b815481529060010190602001808311612a2657829003601f168201915b5050505050908060020154908060030160009054906101000a900473ffffffffffffffffffffffffffffffffffffffff16908060040154908060050154905086565b6000612a908261328f565b90506003600083815260200190815260200160002060009054906101000a900460ff16612af2576040517f08c379a0000000000000000000000000000000000000000000000000000000008152600401612ae990614ad4565b60405180910390fd5b612afc8233611664565b612b3b576040517f08c379a0000000000000000000000000000000000000000000000000000000008152600401612b32906152af565b60405180910390fd5b60003411612b7e576040517f08c379a0000000000000000000000000000000000000000000000000000000008152600401612b759061531b565b60405180910390fd5b3460008281548110612b9357612b92614481565b5b90600052602060002090600902016002016000828254612bb39190614efc565b925050819055503460008281548110612bcf57612bce614481565b5b9060005260206000209060090201600401541115612c28573460008281548110612bfc57612bfb614481565b5b90600052602060002090600902016004016000828254612c1c9190614ec8565b92505081905550612c53565b6000808281548110612c3d57612c3c614481565b5b9060005260206000209060090201600401819055505b6000600180549050905060016040518060a00160405280600460003373ffffffffffffffffffffffffffffffffffffffff1673ffffffffffffffffffffffffffffffffffffffff1681526020019081526020016000208054612cb490614450565b80601f0160208091040260200160405190810160405280929190818152602001828054612ce090614450565b8015612d2d5780601f10612d0257610100808354040283529160200191612d2d565b820191906000526020600020905b815481529060010190602001808311612d1057829003601f168201915b505050505081526020016040518060400160405280600d81526020017f7368617265642077616c6c65740000000000000000000000000000000000000081525081526020013481526020016040518060400160405280601c81526020017f46756e647320616464656420746f207368617265642077616c6c65740000000081525081526020014281525090806001815401808255809150506001900390600052602060002090600502016000909190919091506000820151816000019081612df591906148e3565b506020820151816001019081612e0b91906148e3565b50604082015181600201556060820151816003019081612e2b91906148e3565b5060808201518160040155505060008281548110612e4c57612e4b614481565b5b9060005260206000209060090201600801819080600181540180825580915050600190039060005260206000200160009091909190915055600460003373ffffffffffffffffffffffffffffffffffffffff1673ffffffffffffffffffffffffffffffffffffffff168152602001908152602001600020604051612ed09190614fbe565b6040518091039020837f15b3997472c689f4d1336348cbf0980da653dddde6a52fa7e787650c4f3ec7c934604051612f089190613a29565b60405180910390a3505050565b60028181548110612f2557600080fd5b90600052602060002090600302016000915090508060000160009054906101000a900473ffffffffffffffffffffffffffffffffffffffff1690806001018054612f6e90614450565b80601f0160208091040260200160405190810160405280929190818152602001828054612f9a90614450565b8015612fe75780601f10612fbc57610100808354040283529160200191612fe7565b820191906000526020600020905b815481529060010190602001808311612fca57829003601f168201915b505050505090806002018054612ffc90614450565b80601f016020809104026020016040519081016040528092919081815260200182805461302890614450565b80156130755780601f1061304a57610100808354040283529160200191613075565b820191906000526020600020905b81548152906001019060200180831161305857829003601f168201915b5050505050905083565b600760003373ffffffffffffffffffffffffffffffffffffffff1673ffffffffffffffffffffffffffffffffffffffff16815260200190815260200160002060009054906101000a900460ff161561310c576040517f08c379a000000000000000000000000000000000000000000000000000000000815260040161310390615387565b60405180910390fd5b600060405180606001604052803373ffffffffffffffffffffffffffffffffffffffff168152602001848152602001838152509050600281908060018154018082558091505060019003906000526020600020906003020160009091909190915060008201518160000160006101000a81548173ffffffffffffffffffffffffffffffffffffffff021916908373ffffffffffffffffffffffffffffffffffffffff16021790555060208201518160010190816131c991906148e3565b5060408201518160020190816131df91906148e3565b5050506001600760003373ffffffffffffffffffffffffffffffffffffffff1673ffffffffffffffffffffffffffffffffffffffff16815260200190815260200160002060006101000a81548160ff0219169083151502179055503373ffffffffffffffffffffffffffffffffffffffff167fd98e142226aaa094e0d82c09885e86172e376383ae815a4b512a594ff762bb5684846040516132829291906153a7565b60405180910390a2505050565b600080600090505b6000805490508110156132ec5782600082815481106132b9576132b8614481565b5b906000526020600020906009020160000154036132d95780915050613328565b80806132e490614af4565b915050613297565b506040517f08c379a000000000000000000000000000000000000000000000000000000000815260040161331f9061542a565b60405180910390fd5b919050565b600080444260014361333f9190614ec8565b4060405160200161335293929190615496565b6040516020818303038152906040528051906020012060001c90506103e86123288261337e91906154d3565b6133889190614efc565b90505b6003600082815260200190815260200160002060009054906101000a900460ff16156133df576103e86123286001836133c49190614efc565b6133ce91906154d3565b6133d89190614efc565b905061338b565b8091505090565b6000806133f28461328f565b905060005b6000828154811061340b5761340a614481565b5b9060005260206000209060090201600701805490508110156134d9578373ffffffffffffffffffffffffffffffffffffffff166000838154811061345257613451614481565b5b9060005260206000209060090201600701828154811061347557613474614481565b5b9060005260206000200160009054906101000a900473ffffffffffffffffffffffffffffffffffffffff1673ffffffffffffffffffffffffffffffffffffffff16036134c6576001925050506134e0565b80806134d190614af4565b9150506133f7565b5060009150505b92915050565b60005b8280549050811015613686578173ffffffffffffffffffffffffffffffffffffffff1683828154811061351f5761351e614481565b5b9060005260206000200160009054906101000a900473ffffffffffffffffffffffffffffffffffffffff1673ffffffffffffffffffffffffffffffffffffffff160361367357600183805490506135769190614ec8565b81101561362757826001848054905061358f9190614ec8565b815481106135a05761359f614481565b5b9060005260206000200160009054906101000a900473ffffffffffffffffffffffffffffffffffffffff168382815481106135de576135dd614481565b5b9060005260206000200160006101000a81548173ffffffffffffffffffffffffffffffffffffffff021916908373ffffffffffffffffffffffffffffffffffffffff1602179055505b8280548061363857613637615504565b5b6001900381819060005260206000200160006101000a81549073ffffffffffffffffffffffffffffffffffffffff02191690559055506136c2565b808061367e90614af4565b9150506134e9565b506040517f08c379a00000000000000000000000000000000000000000000000000000000081526004016136b99061557f565b60405180910390fd5b5050565b600080600090505b600880549050811015613738578280519060200120600882815481106136f7576136f6614481565b5b9060005260206000200160405161370e9190615642565b60405180910390200361372557600191505061373e565b808061373090614af4565b9150506136ce565b50600090505b919050565b8280548282559060005260206000209081019282156137bc579160200282015b828111156137bb5782518260006101000a81548173ffffffffffffffffffffffffffffffffffffffff021916908373ffffffffffffffffffffffffffffffffffffffff16021790555091602001919060010190613763565b5b5090506137c99190613849565b5090565b828054828255906000526020600020908101928215613809579160200282015b828111156138085782518255916020019190600101906137ed565b5b5090506138169190613849565b5090565b6040518060a0016040528060608152602001606081526020016000815260200160608152602001600081525090565b5b8082111561386257600081600090555060010161384a565b5090565b6000604051905090565b600080fd5b600080fd5b600073ffffffffffffffffffffffffffffffffffffffff82169050919050565b60006138a58261387a565b9050919050565b6138b58161389a565b81146138c057600080fd5b50565b6000813590506138d2816138ac565b92915050565b6000602082840312156138ee576138ed613870565b5b60006138fc848285016138c3565b91505092915050565b600081519050919050565b600082825260208201905092915050565b60005b8381101561393f578082015181840152602081019050613924565b60008484015250505050565b6000601f19601f8301169050919050565b600061396782613905565b6139718185613910565b9350613981818560208601613921565b61398a8161394b565b840191505092915050565b600060208201905081810360008301526139af818461395c565b905092915050565b6000819050919050565b6139ca816139b7565b81146139d557600080fd5b50565b6000813590506139e7816139c1565b92915050565b600060208284031215613a0357613a02613870565b5b6000613a11848285016139d8565b91505092915050565b613a23816139b7565b82525050565b6000602082019050613a3e6000830184613a1a565b92915050565b600080fd5b600080fd5b7f4e487b7100000000000000000000000000000000000000000000000000000000600052604160045260246000fd5b613a868261394b565b810181811067ffffffffffffffff82111715613aa557613aa4613a4e565b5b80604052505050565b6000613ab8613866565b9050613ac48282613a7d565b919050565b600067ffffffffffffffff821115613ae457613ae3613a4e565b5b613aed8261394b565b9050602081019050919050565b82818337600083830152505050565b6000613b1c613b1784613ac9565b613aae565b905082815260208101848484011115613b3857613b37613a49565b5b613b43848285613afa565b509392505050565b600082601f830112613b6057613b5f613a44565b5b8135613b70848260208601613b09565b91505092915050565b600080600060608486031215613b9257613b91613870565b5b6000613ba0868287016139d8565b9350506020613bb1868287016139d8565b925050604084013567ffffffffffffffff811115613bd257613bd1613875565b5b613bde86828701613b4b565b9150509250925092565b600081519050919050565b600082825260208201905092915050565b6000819050602082019050919050565b613c1d816139b7565b82525050565b600082825260208201905092915050565b6000613c3f82613905565b613c498185613c23565b9350613c59818560208601613921565b613c628161394b565b840191505092915050565b613c768161389a565b82525050565b600081519050919050565b600082825260208201905092915050565b6000819050602082019050919050565b6000613cb48383613c6d565b60208301905092915050565b6000602082019050919050565b6000613cd882613c7c565b613ce28185613c87565b9350613ced83613c98565b8060005b83811015613d1e578151613d058882613ca8565b9750613d1083613cc0565b925050600181019050613cf1565b5085935050505092915050565b600081519050919050565b600082825260208201905092915050565b6000819050602082019050919050565b6000613d638383613c14565b60208301905092915050565b6000602082019050919050565b6000613d8782613d2b565b613d918185613d36565b9350613d9c83613d47565b8060005b83811015613dcd578151613db48882613d57565b9750613dbf83613d6f565b925050600181019050613da0565b5085935050505092915050565b600061012083016000830151613df36000860182613c14565b5060208301518482036020860152613e0b8282613c34565b9150506040830151613e206040860182613c14565b506060830151613e336060860182613c6d565b506080830151613e466080860182613c14565b5060a0830151613e5960a0860182613c14565b5060c083015184820360c0860152613e718282613ccd565b91505060e083015184820360e0860152613e8b8282613ccd565b915050610100830151848203610100860152613ea78282613d7c565b9150508091505092915050565b6000613ec08383613dda565b905092915050565b6000602082019050919050565b6000613ee082613be8565b613eea8185613bf3565b935083602082028501613efc85613c04565b8060005b85811015613f385784840389528151613f198582613eb4565b9450613f2483613ec8565b925060208a01995050600181019050613f00565b50829750879550505050505092915050565b60006020820190508181036000830152613f648184613ed5565b905092915050565b60008115159050919050565b613f8181613f6c565b82525050565b6000602082019050613f9c6000830184613f78565b92915050565b600081519050919050565b600082825260208201905092915050565b6000819050602082019050919050565b600060a0830160008301518482036000860152613feb8282613c34565b915050602083015184820360208601526140058282613c34565b915050604083015161401a6040860182613c14565b50606083015184820360608601526140328282613c34565b91505060808301516140476080860182613c14565b508091505092915050565b600061405e8383613fce565b905092915050565b6000602082019050919050565b600061407e82613fa2565b6140888185613fad565b93508360208202850161409a85613fbe565b8060005b858110156140d657848403895281516140b78582614052565b94506140c283614066565b925060208a0199505060018101905061409e565b50829750879550505050505092915050565b600060208201905081810360008301526141028184614073565b905092915050565b6000806040838503121561412157614120613870565b5b600061412f858286016139d8565b9250506020614140858286016138c3565b9150509250929050565b600081519050919050565b600082825260208201905092915050565b6000819050602082019050919050565b600060608301600083015161418e6000860182613c6d565b50602083015184820360208601526141a68282613c34565b915050604083015184820360408601526141c08282613c34565b9150508091505092915050565b60006141d98383614176565b905092915050565b6000602082019050919050565b60006141f98261414a565b6142038185614155565b93508360208202850161421585614166565b8060005b85811015614251578484038952815161423285826141cd565b945061423d836141e1565b925060208a01995050600181019050614219565b50829750879550505050505092915050565b6000602082019050818103600083015261427d81846141ee565b905092915050565b6000806040838503121561429c5761429b613870565b5b600083013567ffffffffffffffff8111156142ba576142b9613875565b5b6142c685828601613b4b565b925050602083013567ffffffffffffffff8111156142e7576142e6613875565b5b6142f385828601613b4b565b9150509250929050565b600060a0820190508181036000830152614317818861395c565b9050818103602083015261432b818761395c565b905061433a6040830186613a1a565b818103606083015261434c818561395c565b905061435b6080830184613a1a565b9695505050505050565b61436e8161389a565b82525050565b600060c0820190506143896000830189613a1a565b818103602083015261439b818861395c565b90506143aa6040830187613a1a565b6143b76060830186614365565b6143c46080830185613a1a565b6143d160a0830184613a1a565b979650505050505050565b60006060820190506143f16000830186614365565b8181036020830152614403818561395c565b90508181036040830152614417818461395c565b9050949350505050565b7f4e487b7100000000000000000000000000000000000000000000000000000000600052602260045260246000fd5b6000600282049050600182168061446857607f821691505b60208210810361447b5761447a614421565b5b50919050565b7f4e487b7100000000000000000000000000000000000000000000000000000000600052603260045260246000fd5b7f596f7520617265206e6f7420612070617274696370616e74206f66207468652060008201527f7370656369666965642077616c6c657420696400000000000000000000000000602082015250565b600061450c603383613910565b9150614517826144b0565b604082019050919050565b6000602082019050818103600083015261453b816144ff565b9050919050565b7f4e487b7100000000000000000000000000000000000000000000000000000000600052601260045260246000fd5b7f4e487b7100000000000000000000000000000000000000000000000000000000600052601160045260246000fd5b60006145ab826139b7565b91506145b6836139b7565b9250826145c6576145c5614542565b5b828204905092915050565b7f476f616c20616d6f756e74206d7573742062652067726561746572207468616e60008201527f2030000000000000000000000000000000000000000000000000000000000000602082015250565b600061462d602283613910565b9150614638826145d1565b604082019050919050565b6000602082019050818103600083015261465c81614620565b9050919050565b7f426f72726f77206c696d6974206d757374206265206e6f6e2d6e65676174697660008201527f6500000000000000000000000000000000000000000000000000000000000000602082015250565b60006146bf602183613910565b91506146ca82614663565b604082019050919050565b600060208201905081810360008301526146ee816146b2565b9050919050565b6000614700826139b7565b915061470b836139b7565b9250828202614719816139b7565b915082820484148315176147305761472f614571565b5b5092915050565b60008190508160005260206000209050919050565b60006020601f8301049050919050565b600082821b905092915050565b6000600883026147997fffffffffffffffffffffffffffffffffffffffffffffffffffffffffffffffff8261475c565b6147a3868361475c565b95508019841693508086168417925050509392505050565b6000819050919050565b60006147e06147db6147d6846139b7565b6147bb565b6139b7565b9050919050565b6000819050919050565b6147fa836147c5565b61480e614806826147e7565b848454614769565b825550505050565b600090565b614823614816565b61482e8184846147f1565b505050565b5b818110156148525761484760008261481b565b600181019050614834565b5050565b601f8211156148975761486881614737565b6148718461474c565b81016020851015614880578190505b61489461488c8561474c565b830182614833565b50505b505050565b600082821c905092915050565b60006148ba6000198460080261489c565b1980831691505092915050565b60006148d383836148a9565b9150826002028217905092915050565b6148ec82613905565b67ffffffffffffffff81111561490557614904613a4e565b5b61490f8254614450565b61491a828285614856565b600060209050601f83116001811461494d576000841561493b578287015190505b61494585826148c7565b8655506149ad565b601f19841661495b86614737565b60005b828110156149835784890151825560018201915060208501945060208101905061495e565b868310156149a0578489015161499c601f8916826148a9565b8355505b6001600288020188555050505b505050505050565b600082825260208201905092915050565b60006149d182613c7c565b6149db81856149b5565b93506149e683613c98565b8060005b83811015614a175781516149fe8882613ca8565b9750614a0983613cc0565b9250506001810190506149ea565b5085935050505092915050565b6000606082019050614a396000830186613a1a565b614a466020830185613a1a565b8181036040830152614a5881846149c6565b9050949350505050565b7f57616c6c6574207769746820676976656e20494420646f6573206e6f7420657860008201527f6973740000000000000000000000000000000000000000000000000000000000602082015250565b6000614abe602383613910565b9150614ac982614a62565b604082019050919050565b60006020820190508181036000830152614aed81614ab1565b9050919050565b6000614aff826139b7565b91507fffffffffffffffffffffffffffffffffffffffffffffffffffffffffffffffff8203614b3157614b30614571565b5b600182019050919050565b7f4f6e6c792061646d696e2063616e2072656a656374207061727469636970616e60008201527f7473000000000000000000000000000000000000000000000000000000000000602082015250565b6000614b98602283613910565b9150614ba382614b3c565b604082019050919050565b60006020820190508181036000830152614bc781614b8b565b9050919050565b7f5061727469636970616e742072657175657374206e6f7420666f756e64000000600082015250565b6000614c04601d83613910565b9150614c0f82614bce565b602082019050919050565b60006020820190508181036000830152614c3381614bf7565b9050919050565b7f416c72656164792061207061727469636970616e740000000000000000000000600082015250565b6000614c70601583613910565b9150614c7b82614c3a565b602082019050919050565b60006020820190508181036000830152614c9f81614c63565b9050919050565b7f5265717565737420616c7265616479207375626d697474656400000000000000600082015250565b6000614cdc601983613910565b9150614ce782614ca6565b602082019050919050565b60006020820190508181036000830152614d0b81614ccf565b9050919050565b7f4f6e6c79207061727469636970616e74732063616e207769746864726177206660008201527f756e647300000000000000000000000000000000000000000000000000000000602082015250565b6000614d6e602483613910565b9150614d7982614d12565b604082019050919050565b60006020820190508181036000830152614d9d81614d61565b9050919050565b7f5769746864726177616c20616d6f756e7420657863656564732074686520626f60008201527f72726f77206c696d697400000000000000000000000000000000000000000000602082015250565b6000614e00602a83613910565b9150614e0b82614da4565b604082019050919050565b60006020820190508181036000830152614e2f81614df3565b9050919050565b7f496e73756666696369656e742066756e647320696e207468652073686172656460008201527f2077616c6c657400000000000000000000000000000000000000000000000000602082015250565b6000614e92602783613910565b9150614e9d82614e36565b604082019050919050565b60006020820190508181036000830152614ec181614e85565b9050919050565b6000614ed3826139b7565b9150614ede836139b7565b9250828203905081811115614ef657614ef5614571565b5b92915050565b6000614f07826139b7565b9150614f12836139b7565b9250828201905080821115614f2a57614f29614571565b5b92915050565b600081905092915050565b60008154614f4881614450565b614f528186614f30565b94506001821660008114614f6d5760018114614f8257614fb5565b60ff1983168652811515820286019350614fb5565b614f8b85614737565b60005b83811015614fad57815481890152600182019150602081019050614f8e565b838801955050505b50505092915050565b6000614fca8284614f3b565b915081905092915050565b7f4f6e6c792061646d696e2063616e20616363657074207061727469636970616e60008201527f7473000000000000000000000000000000000000000000000000000000000000602082015250565b6000615031602283613910565b915061503c82614fd5565b604082019050919050565b6000602082019050818103600083015261506081615024565b9050919050565b7f4f6e6c792061646d696e2063616e2072656d6f7665207061727469636970616e60008201527f7473000000000000000000000000000000000000000000000000000000000000602082015250565b60006150c3602283613910565b91506150ce82615067565b604082019050919050565b600060208201905081810360008301526150f2816150b6565b9050919050565b7f5061727469636970616e74206e6f7420666f756e640000000000000000000000600082015250565b600061512f601583613910565b915061513a826150f9565b602082019050919050565b6000602082019050818103600083015261515e81615122565b9050919050565b7f557365726e616d6520616c726561647920657869737473212100000000000000600082015250565b600061519b601983613910565b91506151a682615165565b602082019050919050565b600060208201905081810360008301526151ca8161518e565b9050919050565b7f557365726e616d6520697320616c72656164792074616b656e20627920616e6f60008201527f7468657220757365722100000000000000000000000000000000000000000000602082015250565b600061522d602a83613910565b9150615238826151d1565b604082019050919050565b6000602082019050818103600083015261525c81615220565b9050919050565b7f4f6e6c79207061727469636970616e74732063616e206164642066756e647300600082015250565b6000615299601f83613910565b91506152a482615263565b602082019050919050565b600060208201905081810360008301526152c88161528c565b9050919050565b7f496e73756666696369656e742066756e64730000000000000000000000000000600082015250565b6000615305601283613910565b9150615310826152cf565b602082019050919050565b60006020820190508181036000830152615334816152f8565b9050919050565b7f6368617269747920616c72656164792063726561746564000000000000000000600082015250565b6000615371601783613910565b915061537c8261533b565b602082019050919050565b600060208201905081810360008301526153a081615364565b9050919050565b600060408201905081810360008301526153c1818561395c565b905081810360208301526153d5818461395c565b90509392505050565b7f57616c6c6574206e6f7420666f756e6400000000000000000000000000000000600082015250565b6000615414601083613910565b915061541f826153de565b602082019050919050565b6000602082019050818103600083015261544381615407565b9050919050565b6000819050919050565b615465615460826139b7565b61544a565b82525050565b6000819050919050565b6000819050919050565b61549061548b8261546b565b615475565b82525050565b60006154a28286615454565b6020820191506154b28285615454565b6020820191506154c2828461547f565b602082019150819050949350505050565b60006154de826139b7565b91506154e9836139b7565b9250826154f9576154f8614542565b5b828206905092915050565b7f4e487b7100000000000000000000000000000000000000000000000000000000600052603160045260246000fd5b7f456c656d656e74206e6f7420666f756e6420696e206172726179000000000000600082015250565b6000615569601a83613910565b915061557482615533565b602082019050919050565b600060208201905081810360008301526155988161555c565b9050919050565b600081905092915050565b60008190508160005260206000209050919050565b600081546155cc81614450565b6155d6818661559f565b945060018216600081146155f1576001811461560657615639565b60ff1983168652811515820286019350615639565b61560f856155aa565b60005b8381101561563157815481890152600182019150602081019050615612565b838801955050505b50505092915050565b600061564e82846155bf565b91508190509291505056fea264697066735822122002c637c21b075af6a0a41d750ea8ea40b5508490b5e7b48b68363fe27c0b5a4464736f6c63430008130033",
  "linkReferences": {},
  "deployedLinkReferences": {}
}